:020000040800F2
:1000000000200020D9070008850700088B0700089A
:1000100000000000000000000000000000000000E0
:100020000000000000000000000000009107000830
:1000300000000000000000009B070008A507000862
:1000400029080008290800082908000829080008CC
:1000500029080008290800082908000829080008BC
:1000600029080008290800082908000829080008AC
:1000700029080008290800080000000029080008D5
:100080000000000029080008000000000000000037
:1000900029080008000000002908000829080008B5
:1000A000290800082908000829080008B5070008E1
:1000B000290800082908000829080008290800085C
:1000C00010B5064C2378002B07D1054B002B02D02E
:1000D000044800E000BF0123237010BD0C00002085
:1000E00000000000F0350008044B10B5002B03D0D1
:1000F0000349044800E000BF10BDC04600000000F6
:1001000010000020F0350008002243088B4274D311
:1001100003098B425FD3030A8B4244D3030B8B4208
:1001200028D3030C8B420DD3FF22090212BA030C11
:100130008B4202D31212090265D0030B8B4219D3F2
:1001400000E0090AC30B8B4201D3CB03C01A524112
:10015000830B8B4201D38B03C01A5241430B8B425A
:1001600001D34B03C01A5241030B8B4201D30B0343
:10017000C01A5241C30A8B4201D3CB02C01A52416A
:10018000830A8B4201D38B02C01A5241430A8B422D
:1001900001D34B02C01A5241030A8B4201D30B0216
:1001A000C01A5241CDD2C3098B4201D3CB01C01A30
:1001B000524183098B4201D38B01C01A524143093A
:1001C0008B4201D34B01C01A524103098B4201D328
:1001D0000B01C01A5241C3088B4201D3CB00C01A95
:1001E000524183088B4201D38B00C01A524143080D
:1001F0008B4201D34B00C01A5241411A00D2014632
:10020000524110467047FFE701B5002000F006F8A4
:1002100002BDC0460029F7D076E770477047C04658
:10022000002B11D1002A0FD1002900D1002802D0C3
:100230000021C943080007B4024802A140180290F7
:1002400003BDC046D9FFFFFF03B4684601B502985D
:1002500000F034F8019B9E4602B00CBC7047C046CB
:10026000F0B5CE469946030C9C46130447461B0C3A
:100270001D000E0061460404240C80B50700100C1C
:100280004B436543414360432C0CC01820188C46F7
:10029000834203D980235B029846C444494679438C
:1002A0005643030C2D042D0C891963440004401996
:1002B000C918C0BCB946B046F0BDC046F0B55746F7
:1002C0004E464546DE46E0B504000D00924699468E
:1002D00083B08B4230D82DD04946504600F0BAF852
:1002E00029000600200000F0B5F8331A9846203B9C
:1002F00034D49B4653465A46934042461F005346C9
:1003000093401E00AF423BD8AF4200D179E05B463C
:10031000A41BBD41002B00DA76E0002200230092EE
:10032000019301235A46934001930123424693408F
:10033000009329E08242CFD900220023009201934A
:100340000C9B002B01D01C605D600098019903B0EC
:10035000F0BCBB46B246A946A046F0BD42469B460D
:1003600020239B1A5246DA40414613004A468A40EF
:10037000170042461F43534693401E00AF42C3D965
:1003800000220023009201934346002BD8D0FB07A4
:1003900072081A4346467B080EE0AB4201D1A242E6
:1003A0000CD8A41A9D41012024196D410021013E61
:1003B00024184D41002E06D0AB42EED9013E24193F
:1003C0006D41002EF8D1009801995B4600196941F2
:1003D000002B24DB2B005A464446D3402A00E2403F
:1003E0001C005B461500002B2ADB26009E403300D4
:1003F00026004746BE403200801A99410090019184
:100400009EE7A342BCD882E74246202300219B1AE4
:100410000022009101920122DA40019285E74246D2
:1004200020239B1A2A0046469A402300F340444664
:1004300013432A00E2401C005B461500002BD4DA6F
:1004400042462F002023260097409B1ADE403B00A7
:100450003343CDE710B5002903D100F007F8203071
:1004600002E0080000F002F810BDC0461C21012384
:100470001B04984201D3000C10391B0A984201D387
:10048000000A08391B09984201D30009043902A265
:10049000105C40187047C0460403020201010101CC
:1004A000000000000000000080B582B000AF78605E
:1004B000FA239B0007490848052201F0EBFC054997
:1004C000054B0522180001F085FDC046BD4602B06F
:1004D00080BDC046B00000202800002080B500AFDD
:1004E00000F0A4F900F010F800F0B0F800F07EF889
:1004F0000349044B0522180001F06CFDF8E7C046E3
:10050000B00000202800002090B59DB000AF382436
:100510003B19180038231A00002103F03DF824236A
:10052000FB18180014231A00002103F035F83B00D3
:10053000180024231A00002103F02EF8294B1B6811
:10054000294A1A40274B802109010A431A602100D9
:100550007B1802221A607B180122DA607B181022B5
:100560001A617B1802229A627B180022DA627B18D9
:100570008022D2021A637B188022D2035A637B182E
:10058000180000F0BDFC031E01D000F095F82421F6
:100590007B180F221A607B1803225A607B180022F6
:1005A0009A607B180022DA607B1800221A617B189F
:1005B0000121180001F068F8031E01D000F07CF85A
:1005C0003B0001221A603B000022DA603B00180069
:1005D00001F07EFA031E01D000F06EF8C046BD4661
:1005E0001DB090BD00700040FFE7FFFF80B500AF79
:1005F000144B154A1A60134BE12252025A60114BF8
:1006000000229A600F4B0022DA600E4B00221A6122
:100610000C4B0C225A610B4B00229A61094B0022B1
:10062000DA61084B00221A62064B00225A62054B1F
:10063000180001F0DBFB031E01D000F03DF8C046BE
:10064000BD4680BD280000200038014080B586B03E
:1006500000AF3B1D180014231A00002102F09CFF7C
:10066000144BDA6A134B01210A43DA62114BDB6A3D
:10067000012213403B603B68A023DB0500222021C0
:10068000180000F01FFC3B1D20221A603B1D0122B8
:100690005A603B1D00229A603B1D0022DA603A1D21
:1006A000A023DB051100180000F096FAC046BD46F5
:1006B00006B080BD0010024080B500AF72B6C046E3
:1006C000FEE7000080B500AF074B5A6B064B0121D7
:1006D0000A435A63044B9A6B034B802149050A4332
:1006E0009A63C046BD4680BD0010024090B589B0F7
:1006F00000AF78600C243B19180014231A00002165
:1007000002F04AFF7B681B681C4A934232D11C4BA3
:100710005A6B1B4B8021C9010A435A63184BDA6A92
:10072000174B01210A43DA62154BDB6A01221340A1
:10073000BB60BB683B19C022D2001A6021007B1845
:1007400002225A607B1800229A607B180322DA602A
:100750007B1804221A617A18A023DB051100180007
:1007600000F03AFA002200211B2000F07BF91B2048
:1007700000F08DF9C046BD4609B090BD003801407B
:100780000010024080B500AFFEE780B500AFFEE785
:1007900080B500AFC046BD4680BD80B500AFC04645
:1007A000BD4680BD80B500AF00F094F8C046BD46A0
:1007B00080BD000080B500AF034B180001F068FC5D
:1007C000C046BD4680BDC0462800002080B500AFB1
:1007D000C046BD4680BD00000D488546FFF7F6FFC8
:1007E0000C480D490D4A002302E0D458C45004338C
:1007F000C4188C42F9D30A4A0A4C002301E0136062
:100800000432A242FBD302F0CFFEFFF767FEFEE701
:1008100000200020000000200C000020843600088A
:100820000C000020C8000020FEE7000080B582B068
:1008300000AFFB1D00221A700B4B1A680A4B4021B7
:100840000A431A60002000F011F8031E03D0FB1DBC
:1008500001221A7001E0FFF735FFFB1D1B7818001D
:10086000BD4602B080BDC0460020024090B583B0B6
:1008700000AF7860144B1C68144B1B781900FA23E6
:100880009800FFF741FC030019002000FFF73CFC33
:100890000300180000F00BF9031E01D001230FE044
:1008A0007B68032B0BD8796801235B420022180078
:1008B00000F0D8F8064B7A681A60002300E00123A4
:1008C0001800BD4603B090BD0000002008000020C5
:1008D0000400002080B500AF054B1B781A00054BC3
:1008E0001B68D218034B1A60C046BD4680BDC04687
:1008F00008000020C400002080B500AF024B1B6838
:100900001800BD4680BDC046C400002080B582B03E
:1009100000AF0200FB1D1A70FB1D1B787F2B09D84E
:10092000FB1D1B781A001F231A40044B0121914024
:100930000A001A60C046BD4602B080BD00E100E07A
:1009400090B583B000AF02003960FB1D1A70FB1D2B
:100950001B787F2B28D82F4AFB1D1B785BB29B0886
:10096000C0339B009B58FA1D1278110003220A40E5
:10097000D200FF2191400A00D2431A4011003B6887
:100980009B01FF221A40FB1D1B7818000323034024
:10099000DB009A401F48FB1D1B785BB29B080A4393
:1009A000C0339B001A5031E01B4AFB1D1B78190015
:1009B0000F230B40083B9B0806339B00D3180433DE
:1009C0001B68FA1D1278110003220A40D200FF2191
:1009D00091400A00D2431A4011003B689B01FF225C
:1009E0001A40FB1D1B78180003230340DB009A40CC
:1009F0000948FB1D1B781C000F232340083B9B0864
:100A00000A4306339B00C31804331A60C046BD4630
:100A100003B090BD00E100E000ED00E080B582B0E1
:100A200000AF78607B685A1E80235B049A4201D332
:100A3000012310E00A4B7A68013A5A6001235B42B5
:100A400003211800FFF77CFF054B00229A60044B3E
:100A500007221A6000231800BD4602B080BDC046C0
:100A600010E000E080B584B000AFB9607A600F217B
:100A70007B18021C1A70BA687B181B785BB21100D5
:100A80001800FFF75DFFC046BD4604B080BD80B5CD
:100A900082B000AF0200FB1D1A70FB1D1B785BB219
:100AA0001800FFF733FFC046BD4602B080BD80B5D9
:100AB00082B000AF78607B681800FFF7AFFF0300DB
:100AC0001800BD4602B080BD80B584B000AF78602C
:100AD0000F23FB1800221A707B6825229B5CDBB277
:100AE000022B08D07B680422DA637B682422002171
:100AF0009954012324E07B681B681A687B681B6893
:100B00000E218A431A607B681B681A687B681B6821
:100B100001218A431A607B685B6C1C221A407B6847
:100B20001B6C012191400A005A607B68252201213B
:100B300099547B682422002199540F23FB181B78B9
:100B40001800BD4604B080BD80B584B000AF7860A9
:100B50000F217B1800221A707B6825229B5CDBB278
:100B6000022B06D07B680422DA637B1801221A70FC
:100B70002AE07B681B681A687B681B680E218A4321
:100B80001A607B681B681A687B681B6801218A43AE
:100B90001A607B685B6C1C221A407B681B6C01210D
:100BA00091400A005A607B682522012199547B6894
:100BB0002422002199547B689B6B002B04D07B6816
:100BC0009B6B7A68100098470F23FB181B7818005E
:100BD000BD4604B080BD000080B586B000AF78602F
:100BE000396000237B610023FB6000233B614FE100
:100BF0003B681B6801217A6991400A001340FB6041
:100C0000FB68002B00D140E13B685B680322134086
:100C1000012B05D03B685B6803221340022B30D1C7
:100C20007B689B683B617B695B0003229A401300F1
:100C3000DA433B6913403B613B68DA687B695B00E0
:100C40009A4013003A6913433B617B683A699A60A2
:100C50007B685B683B6101227B699A401300DA4341
:100C60003B6913403B613B685B681B0901221A40EA
:100C70007B699A4013003A6913433B617B683A6988
:100C80005A603B685B6803221340032B17D07B68D4
:100C9000DB683B617B695B0003229A401300DA4307
:100CA0003B6913403B613B689A687B695B009A40F3
:100CB00013003A6913433B617B683A69DA603B6829
:100CC0005B6803221340022B23D17B69DA087B681F
:100CD00008329200D3583B617B69072213409B0086
:100CE0000F229A401300DA433B6913403B613B6893
:100CF0001A697B6907210B409B009A4013003A69EF
:100D000013433B617B69DA087B68083292003969DA
:100D1000D1507B681B683B617B695B0003229A4072
:100D20001300DA433B6913403B613B685B68032275
:100D30001A407B695B009A4013003A6913433B6198
:100D40007B683A691A603B685A68C0239B0213406B
:100D500000D19AE0544B5A6B534B01210A435A631A
:100D6000524A7B699B0802339B009B583B617B691D
:100D7000032213409B000F229A401300DA433B6981
:100D800013403B617A68A023DB059A4219D07B6847
:100D9000474A934213D07B68464A93420DD07B6802
:100DA000454A934207D07B68444A934201D10523C8
:100DB00008E0062306E0032304E0022302E0012307
:100DC00000E000237A6903210A40920093403A69C7
:100DD00013433B6135497B699B0802339B003A69A9
:100DE0005A50374B9B683B61FB68DA433B691340C1
:100DF0003B613B685A6880235B03134003D03A6928
:100E0000FB6813433B612E4B3A699A602C4BDB68BD
:100E10003B61FB68DA433B6913403B613B685A68BE
:100E200080239B03134003D03A69FB6813433B6163
:100E3000234B3A69DA60224B5B683B61FB68DA431B
:100E40003B6913403B613B685A6880239B02134017
:100E500003D03A69FB6813433B61194B3A695A6006
:100E6000174B1B683B61FB68DA433B6913403B61EE
:100E70003B685A6880235B02134003D03A69FB68E1
:100E800013433B610E4B3A691A607B6901337B6106
:100E90003B681A687B69DA40131E00D0A8E6C0469A
:100EA000C046BD4606B080BD0010024000000140B3
:100EB0000004005000080050000C0050001C0050BE
:100EC0000004014080B582B000AF786008001100D6
:100ED000BB1C021C1A807B1C0A1C1A707B1C1B7812
:100EE000002B04D0BB1C1A887B689A6103E0BB1CF2
:100EF0001A887B689A62C046BD4602B080BD000079
:100F0000B0B58AB000AF78607B68002B02D10123B6
:100F100000F0AFFBCF4BDB680C2213403B62CD4BA4
:100F2000DA6880235B021340FB617B681B68012247
:100F3000134000D17EE03B6A082B07D03B6A0C2BA4
:100F400012D1FA6980235B029A420DD1C14B1A6813
:100F500080239B02134000D16BE07B685B68002B11
:100F600067D1012300F085FB7B685A6880235B0210
:100F70009A4207D1B74B1A68B64B802149020A43FF
:100F80001A6027E07B685A68A023DB029A420ED1E0
:100F9000B04B1A68AF4B8021C9020A431A60AD4BAF
:100FA0001A68AC4B802149020A431A6012E0A94B2F
:100FB0001A68A84BA8490A401A60A64B1A688023F1
:100FC0005B021340FB60FB68A24B1A68A14BA3496C
:100FD0000A401A607B685B68002B15D0FFF78CFC19
:100FE0000300BB6109E0FFF787FC0200BB69D31A6D
:100FF000642B02D9032300F03CFB964B1A68802334
:101000009B021340EFD015E0FFF776FC0300BB61B5
:1010100008E0FFF771FC0200BB69D31A642B01D909
:10102000032326E38B4B1A6880239B021340F0D1E5
:1010300000E0C0467B681B680222134000D18BE0B1
:101040007B68DB687B613B6A042B05D03B6A0C2B19
:101050003ED1FB69002B3BD17E4B1B680422134021
:1010600004D07B69002B01D1012302E3794B5B683B
:101070007B4A134019007B681B691A02754B0A43AF
:101080005A60744B1B68092293431900714B7A69AB
:101090000A431A6000F040FC01006E4BDB681B093C
:1010A0000F2213406F4AD35C0A00DA406E4B1A607D
:1010B0006E4B1B6813257C191800FFF7D7FB030044
:1010C00023707B191B78002B46D07B191B78D0E24C
:1010D0007B69002B27D05F4B1B68092293431900C3
:1010E0005C4B7A690A431A60FFF706FC0300BB6198
:1010F00008E0FFF701FC0200BB69D31A022B01D9FB
:101100000323B6E2534B1B6804221340F1D0514B2A
:101110005B68534A134019007B681B691A024D4BE8
:101120000A435A6018E04B4B1A684A4B01218A4324
:101130001A60FFF7E1FB0300BB6108E0FFF7DCFB8F
:101140000200BB69D31A022B01D9032391E2414B60
:101150001B6804221340F1D17B681B6810221340E6
:1011600000D1A1E03B6A002B40D13A4B1A688023A2
:101170009B00134005D07B68DB69002B01D1012364
:1011800077E2344B5B683A4A134019007B685A6A2D
:10119000304B0A435A602F4B5B681B02190A7B686D
:1011A0001B6A1A062B4B0A435A607B685B6A5B0B0F
:1011B0000133802212029A40264BDB681B090F2163
:1011C0000B402849CB5CDA40274B1A60274B1B6841
:1011D00013257C191800FFF749FB030023707B19C6
:1011E0001B78002B60D07B191B7842E27B68DB699F
:1011F000002B3FD0174B1A68164B802149000A4339
:101200001A60FFF779FB0300BB6108E0FFF774FB8E
:101210000200BB69D31A022B01D9032329E20D4B2B
:101220001A6880239B001340F0D00A4B5B68104A79
:10123000134019007B685A6A064B0A435A60054BF3
:101240005B681B02190A7B681B6A1A06014B0A437A
:101250005A6029E000100240FFFFFEFFFFFFFBFF86
:10126000FFE0FFFF08360008000000200400002017
:10127000FF1FFFFFBD4B1A68BC4BBD490A401A60F7
:10128000FFF73AFB0300BB6108E0FFF735FB020004
:10129000BB69D31A022B01D90323EAE1B34B1A68C5
:1012A00080239B001340F0D17B681B680822134009
:1012B00036D07B685B69002B19D0AC4B1A6DAB4BF9
:1012C00001210A431A65FFF717FB0300BB6108E021
:1012D000FFF712FB0200BB69D31A022B01D90323CB
:1012E000C7E1A24B1B6D02221340F1D018E09F4BC7
:1012F0001A6D9E4B01218A431A65FFF7FDFA030020
:10130000BB6108E0FFF7F8FA0200BB69D31A022BB1
:1013100001D90323ADE1954B1B6D02221340F1D19E
:101320007B681B680422134000D1AEE027203B18E5
:1013300000221A708D4B9A6B80235B05134009D1F4
:101340008A4B9A6B894B802149050A439A633B1863
:1013500001221A70874B1A6880235B0013401AD150
:10136000844B1A68834B802149000A431A60FFF7B7
:10137000C3FA0300BB6108E0FFF7BEFA0200BB69D5
:10138000D31A642B01D9032373E17A4B1A688023A3
:101390005B001340F0D07B689A6880235B009A4220
:1013A00007D1724B1A6D714B802149000A431A65AF
:1013B00031E07B689B68002B0CD16C4B1A6D6B4B3A
:1013C0006B490A401A65694B1A6D684B6A490A40B5
:1013D0001A6520E07B689A68A023DB009A420ED150
:1013E000624B1A6D614B8021C9000A431A655F4B3D
:1013F0001A6D5E4B802149000A431A650BE05B4B76
:101400001A6D5A4B5A490A401A65584B1A6D574B78
:1014100059490A401A657B689B68002B15D0FFF775
:101420006BFA0300BB6109E0FFF766FA0200BB69D3
:10143000D31A524A934201D903231AE14B4B1A6D36
:1014400080239B001340EFD014E0FFF755FA030010
:10145000BB6109E0FFF750FA0200BB69D31A474AA3
:10146000934201D9032304E1404B1A6D80239B0072
:101470001340EFD12723FB181B78012B05D13B4BE1
:101480009A6B3A4B3E490A409A637B681B6820225C
:10149000134049D07B689B69002B26D0334B9A6858
:1014A000324B01210A439A60304B5A6B2F4B01217A
:1014B0000A435A63334B1A6A324B802189010A432B
:1014C0001A62FFF719FA0300BB6108E0FFF714FA8C
:1014D0000200BB69D31A022B01D90323C9E0234BB5
:1014E0009B6802221340F1D01EE0204B9A681F4BEC
:1014F00001218A439A60234B1A6A224B22490A40EF
:101500001A62FFF7F9F90300BB6108E0FFF7F4F98D
:101510000200BB69D31A022B01D90323A9E0134BA4
:101520009B6802221340F1D17B689B6A002B00D19B
:101530009EE03B6A0C2B00D177E07B689B6A022B14
:1015400058D10A4B1A68094B10490A401A60FFF734
:10155000D3F90300BB611BE0FFF7CEF90200BB69C2
:10156000D31A022B14D9032383E0C0460010024093
:10157000FFFEFFFF00700040FFFBFFFF881300002D
:10158000FFFFFFEF00000140FFDFFFFFFFFFFFFE57
:101590003A4B1A6880239B041340DDD1374BDB683C
:1015A000374A134019007B68DA6A7B681B6B1A4361
:1015B0007B685B6B1A43314B0A43DA602F4B1A6826
:1015C0002E4B802149040A431A60FFF795F9030066
:1015D000BB6108E0FFF790F90200BB69D31A022B48
:1015E00001D9032345E0254B1A6880239B0413404F
:1015F000F0D03DE0214B1A68204B22490A401A6086
:10160000FFF77AF90300BB6108E0FFF775F9020004
:10161000BB69D31A022B01D903232AE0174B1A689E
:1016200080239B041340F0D122E07B689B6A012B4E
:1016300001D101231DE0114BDB68FB61FA698023B6
:101640005B021A407B68DB6A9A420FD1FA69F02389
:101650009B031A407B681B6B9A4207D1FA69C0232F
:101660001B041A407B685B6B9A4201D0012300E0A7
:1016700000231800BD460AB0B0BDC04600100240AD
:10168000FFFF02FFFFFFFFFEB0B584B000AF786040
:1016900039607B68002B01D1012328E1964B1B6840
:1016A000012213403A689A421ED9934B1B680122CB
:1016B00093431900904B3A680A431A60FFF71CF9EC
:1016C0000300FB6009E0FFF717F90200FB68D31A7B
:1016D0008A4A934201D9032309E1874B1B680122FF
:1016E00013403A689A42EED17B681B68022213408D
:1016F00009D0834BDB68F022934319007B689A681A
:101700007F4B0A43DA607B681B680122134000D1DB
:1017100089E07B685B68022B07D1794B1A688023CC
:101720009B02134020D10123E1E07B685B68032B1F
:1017300007D1734B1A6880239B04134014D10123F3
:10174000D5E07B685B68012B06D16D4B1B680422DA
:10175000134009D10123CAE0694B1A6880239B001A
:10176000134001D10123C2E0654BDB6803229343A0
:1017700019007B685A68624B0A43DA60FFF7BCF8CD
:101780000300FB607B685B68022B11D109E0FFF767
:10179000B3F80200FB68D31A584A934201D90323D5
:1017A000A5E0574BDB680C221340082BEFD13AE041
:1017B0007B685B68032B11D109E0FFF79DF80200FD
:1017C000FB68D31A4D4A934201D903238FE04C4B57
:1017D000DB680C2213400C2BEFD124E07B685B68A4
:1017E000012B1BD109E0FFF787F80200FB68D31A31
:1017F000424A934201D9032379E0414BDB680C2232
:101800001340042BEFD10EE0FFF776F80200FB68DF
:10181000D31A3A4A934201D9032368E0384BDB6874
:101820000C221340F0D1344B1B68012213403A685C
:101830009A421ED2304B1B680122934319002E4B53
:101840003A680A431A60FFF757F80300FB6009E0A3
:10185000FFF752F80200FB68D31A284A934201D9D5
:10186000032344E0244B1B68012213403A689A4248
:10187000EED17B681B680422134009D0204BDB6843
:10188000204A134019007B68DA681D4B0A43DA606E
:101890007B681B68082213400AD0194BDB681A4A80
:1018A000134019007B681B69DA00154B0A43DA60A4
:1018B00000F032F80100124BDB681B090F221340C5
:1018C000124AD35C0A00DA40114B1A60114B1B68B4
:1018D0000B257C191800FEF7C9FF030023707B1944
:1018E0001B78002B02D07B191B7800E00023180026
:1018F000BD4604B0B0BDC0460020024088130000C1
:1019000000100240FFF8FFFFFFC7FFFF0836000886
:101910000000002004000020B0B58EB000AF4C4B9A
:10192000DB68FB62FA6A0C2313400C2B14D000D93D
:101930007BE0042B02D0082B0BD076E0444B1B68D5
:101940001022134002D0434B3B637CE0424B3B638D
:1019500079E0424B3B6376E0FB6A9A0C0F231A4016
:101960003F4B9B5CBB62FB6A9A0D03231340013320
:101970007B62374BDA6880235B0213401AD0BB6A64
:10198000BB610023FB61354A0023B869F969FEF7A2
:1019900067FC02000B00100019007B6A3B6100230A
:1019A0007B613A697B69FEF73BFC02000B00130088
:1019B0007B6337E0264B1B68102213401AD0BB6AAA
:1019C000BB600023FB60234A0023B868F968FEF778
:1019D00047FC02000B00100019007B6A3B600023EB
:1019E0007B603A687B68FEF71BFC02000B0013006B
:1019F0007B6317E0BB6A180000231900164A002316
:101A0000FEF72EFC02000B00100019007B6A1C0080
:101A100000231D0022002B00FEF702FC02000B0039
:101A200013007B637B6B3B630DE0094B5B685B0BD7
:101A3000072213403B623B6A0133802212029A4024
:101A400013003B63C0463B6B1800BD460EB0B0BDF3
:101A50000010024000093D000024F40000127A004A
:101A60002036000880B500AF024B1B681800BD4649
:101A700080BDC0460000002080B500AFFFF7F2FF38
:101A80000100064BDB681B0A07221340044AD35CA3
:101A9000D9400B001800BD4680BDC0460010024072
:101AA0001836000880B500AFFFF7DCFF0100064BD9
:101AB000DB68DB0A07221340044AD35CD9400B00E1
:101AC0001800BD4680BDC046001002401836000810
:101AD00080B586B000AF78601723FB1800221A701B
:101AE0007B681B682022134006D17B681A6880231C
:101AF0001B01134000D104E1B14B9A6B80235B05BD
:101B000013400AD1AE4B9A6BAD4B802149050A4375
:101B10009A631723FB1801221A70AA4B1A688023B4
:101B20005B0013401AD1A74B1A68A64B80214900CD
:101B30000A431A60FEF7E0FE03003B6108E0FEF78F
:101B4000DBFE02003B69D31A642B01D9032333E186
:101B50009C4B1A6880235B001340F0D0984B1A68A6
:101B6000C0239B031340FB607B685A68C0239B0320
:101B70001340FA689A4207D17B689A68C0239B0396
:101B80001340FA689A4213D07B685A68C0239B02BC
:101B90001A40C0239B029A420AD1894B1A688023BB
:101BA0009B021A4080239B029A4201D1012303E148
:101BB000834B1A6DC0239B021340FB60FB68002B14
:101BC00049D07B685A68C0239B021340FA689A4246
:101BD00004D07B681B68202213400DD17B689A6873
:101BE000C0239B021340FA689A4234D07B681A687B
:101BF00080231B0113402ED0714B1B6D724A134082
:101C0000FB606F4B1A6D6E4B802109030A431A6506
:101C10006B4B1A6D6A4B6D490A401A65684BFA683E
:101C20001A65FA6880235B00134014D0FEF764FE47
:101C300003003B6109E0FEF75FFE02003B69D31A37
:101C4000634A934201D90323B6E05D4B1A6D8023AA
:101C50009B001340EFD07B681A6880231B01134060
:101C60001FD07B689A68C0239B021A40C0239B0246
:101C70009A420CD1524B1B68564A134019007B689C
:101C80009A68C0239B031A404D4B0A431A604C4B81
:101C9000196D7B689A68C0239B021A40484B0A431F
:101CA0001A657B681B68202213401FD07B685A6826
:101CB000C0239B021A40C0239B029A420CD1404B86
:101CC0001B68444A134019007B685A68C0239B0371
:101CD0001A403B4B0A431A60394B196D7B685A68AE
:101CE000C0239B021A40364B0A431A651723FB1880
:101CF0001B78012B05D1324B9A6B314B36490A4088
:101D00009A637B681B680122134009D02C4BDB6C63
:101D10000322934319007B68DA68294B0A43DA648B
:101D20007B681B680222134009D0254BDB6C0C2218
:101D3000934319007B681A69214B0A43DA647B6874
:101D40001B680422134009D01D4BDB6C234A13404F
:101D500019007B685A691A4B0A43DA647B681B686E
:101D60000822134009D0164BDB6C1D4A13401900A2
:101D70007B689A69124B0A43DA647B681B684022CD
:101D8000134009D00E4BDB6C164A134019007B68D8
:101D90001A6A0B4B0A43DA647B681B688022134083
:101DA00009D0074BDB6C104A134019007B68DA69D5
:101DB000034B0A43DA6400231800BD4606B080BD19
:101DC0000010024000700040FFFFFCFFFFFFF7FF24
:101DD00088130000FFFFCFFFFFFFFFEFFFF3FFFFC0
:101DE000FFCFFFFFFFFFFFFBFFFFF3FF80B582B0D8
:101DF00000AF78607B68002B01D1012344E07B6851
:101E0000DB6F002B07D17B687822002199547B6817
:101E10001800FEF76BFC7B682422DA677B681B687E
:101E20001A687B681B6801218A431A607B68180066
:101E300000F02CFC0300012B01D1012324E07B687E
:101E40005B6A002B03D07B68180000F0A3FE7B6860
:101E50001B685A687B681B680D490A405A607B689A
:101E60001B689A687B681B682A218A439A607B6892
:101E70001B681A687B681B6801210A431A607B682B
:101E8000180000F03BFF03001800BD4602B080BD03
:101E9000FFB7FFFF80B58AB002AFF860B9603B6062
:101EA000BB1D1A80FB68DB6F202B00D08CE0BB6869
:101EB000002B03D0BB1D1B88002B01D1012384E024
:101EC000FB689A6880235B019A4209D1FB681B6911
:101ED000002B05D1BB680122134001D0012374E01F
:101EE000FB68842200219950FB682122DA67FEF703
:101EF00003FD03007B61FB68BA1D502112885A5212
:101F0000FB68BA1D522112885A52FB689A688023D6
:101F10005B019A4208D1FB681B69002B04D10023A6
:101F2000FB61BB68BB6103E0BB68FB610023BB6175
:101F30002FE07A69F8683B68009313000022802143
:101F400000F084FF031E04D0FB682022DA6703231D
:101F50003BE0FB69002B0BD1BB691B881A00FB68B7
:101F60001B68D205D20D9A62BB690233BB6107E0E0
:101F7000FB691A78FB681B689A62FB690133FB6195
:101F8000FB6852229B5A9BB2013B99B2FB685222DA
:101F90009952FB6852229B5A9BB2002BC9D17A6995
:101FA000F8683B68009313000022402100F04EFFC8
:101FB000031E04D0FB682022DA67032305E0FB68D8
:101FC0002022DA67002300E002231800BD4608B093
:101FD00080BD000080B588B000AFF860B960BB1D5F
:101FE0001A80FB6880229B58202B4AD1BB68002BAB
:101FF00003D0BB1D1B88002B01D1012342E0FB68ED
:102000009A6880235B019A4209D1FB681B69002B07
:1020100005D1BB680122134001D0012332E0FB68E7
:1020200000221A66FB681B68184A934220D0FB689E
:102030001B685A6880231B04134019D0EFF31083E8
:102040003B613B69FB6101237B617B6983F3108802
:10205000C046FB681B681A68FB681B688021C904BE
:102060000A431A60FB69BB61BB6983F31088C046F1
:10207000BB1D1A88B968FB68180000F051FF030007
:1020800000E002231800BD4608B080BD00480040B3
:1020900090B5ABB000AF78607B681B68DB69A422A9
:1020A000B9180B607B681B681B68A02039180B608F
:1020B0007B681B689B689C2179180B601100BB181A
:1020C0001B68994A13409822BC182360BB181B68F0
:1020D000002B14D17B181B68202213400FD03B1813
:1020E0001B68202213400AD07B689B6E002B00D116
:1020F000A0E27B689B6E7A68100098479AE298236A
:10210000FB181B68002B00D114E19C23FB181B68F3
:102110000122134006D1A023FB181B68834A1340F9
:1021200000D107E1A423FB181B680122134012D041
:10213000A023FB181A6880235B0013400BD07B6838
:102140001B6801221A627B6884229B5801221A4371
:102150007B6884215A50A423FB181B680222134079
:1021600011D09C23FB181B68012213400BD07B6805
:102170001B6802221A627B6884229B5804221A433D
:102180007B6884215A50A423FB181B680422134047
:1021900011D09C23FB181B68012213400BD07B68D5
:1021A0001B6804221A627B6884229B5802221A430D
:1021B0007B6884215A50A423FB181B680822134013
:1021C00017D0A023FB181B682022134005D19C23A5
:1021D000FB181B68012213400BD07B681B68082288
:1021E0001A627B6884229B5808221A437B688421E8
:1021F0005A50A423FB181A6880231B01134013D0E4
:10220000A023FB181A688023DB0413400CD07B68E2
:102210001B68802212011A627B6884229B5820224C
:102220001A437B6884215A507B6884229B58002B78
:1022300000D101E2A423FB181B68202213400ED01A
:10224000A023FB181B682022134008D07B689B6EDC
:10225000002B04D07B689B6E7A68100098477B68DF
:1022600084229B5894217A1813607B681B689B68B2
:1022700040221340402B04D07B181B6828221340B7
:1022800047D07B68180000F015FF7B681B689B68CF
:1022900040221340402B37D1EFF310833B663B6E57
:1022A00090203A18136001237B667B6E83F31088BD
:1022B000C0467B681B689A687B681B6840218A431C
:1022C0009A603B181B68BB66BB6E83F31088C046E0
:1022D0007B685B6F002B12D07B685B6F144A9A633C
:1022E0007B685B6F1800FEF72FFC031E1AD07B681B
:1022F0005B6F9A6B7B685B6F1800904712E07B689E
:10230000180000F0AFF90DE07B68180000F0AAF9A2
:1023100008E07B68180000F0A5F97B6884220021A2
:10232000995089E1C04687E10F08000020010004B0
:102330007D3100087B681B6E012B00D03BE1A4239C
:10234000FB181B681022134000D134E1A023FB18B6
:102350001B681022134000D12DE17B681B681022FE
:102360001A627B681B689B6840221340402B00D098
:10237000A1E07B685B6F1B685A687E217B181A801E
:102380007B181B88002B00D158E17B6858229B5A90
:102390007A1812889A4200D350E17B687A185A2141
:1023A00012885A527B685B6F1B681B68202213409F
:1023B0006FD1EFF310833B633B6BBB6701237B6300
:1023C0007B6B83F31088C0467B681B681A687B6848
:1023D0001B689E490A401A60BB6FBB63BB6B83F3EB
:1023E0001088C046EFF31083FB63FB6B7B67012310
:1023F0003B643B6C83F31088C0467B681B689A681B
:102400007B681B6801218A439A607B6F7B647B6CCD
:1024100083F31088C046EFF31083BB64BB6C3B674B
:102420000123FB64FB6C83F31088C0467B681B6848
:102430009A687B681B6840218A439A603B6F3B65C2
:102440003B6D83F31088C0467B6880222021995021
:102450007B6800221A66EFF310837B657B6DFB6659
:102460000123BB65BB6D83F31088C0467B681B6886
:102470001A687B681B6810218A431A60FB6EFB6533
:10248000FB6D83F31088C0467B685B6F1800FEF716
:102490001BFB7B6802225A667B6858229A5A7B682B
:1024A0005A215B5A9BB2D31A9AB27B68110018006A
:1024B00000F0E0F8C2E07B685822995A7B685A2203
:1024C0009B5A9AB28E203B188A1A1A807B685A222D
:1024D0009B5A9BB2002B00D1B2E03B181B88002B0B
:1024E00000D1ADE0EFF31083FB60FB6888243A195C
:1024F000136001233B613B6983F31088C0467B680E
:102500001B681A687B681B6851490A401A603B19AE
:102510001B687B617B6983F31088C046EFF31083EF
:10252000BB61BB6984243A1913600123FB61FB6919
:1025300083F31088C0467B681B689A687B681B68B9
:1025400001218A439A603B191B683B623B6A83F313
:102550001088C0467B688022202199507B68002229
:102560001A667B6800229A66EFF310837B627B6AAF
:1025700080243A1913600123BB62BB6A83F310887D
:10258000C0467B681B681A687B681B6810218A43F9
:102590001A603B191B68FB62FB6A83F31088C04614
:1025A0007B6802225A663B181A887B681100180063
:1025B00000F060F844E0A423FB181A6880235B0352
:1025C000134010D09C23FB181A688023DB031340B0
:1025D00009D07B681B68802252031A627B6818004E
:1025E00000F0D2FF2FE0A423FB181B6880221340C9
:1025F0000FD0A023FB181B688022134009D07B68F2
:10260000DB6E002B1ED07B68DB6E7A68100098476B
:1026100018E0A423FB181B684022134013D0A0230A
:10262000FB181B68402213400DD07B68180000F097
:10263000BCFD08E0C04606E0C04604E0C04602E03B
:10264000C04600E0C046BD462BB090BDFFFEFFFF78
:10265000DFFEFFFF80B582B000AF7860C046BD46A8
:1026600002B080BD80B582B000AF7860C046BD4684
:1026700002B080BD80B582B000AF78600A00BB1C9C
:102680001A80C046BD4602B080BD0000B0B58EB015
:1026900000AFF8611A2318229B18DB1900221A7068
:1026A000FB699A68FB691B691A43FB695B691A43FA
:1026B000FB69DB6913437B63FB691B681B68C64AC4
:1026C00013401900FB691B687A6B0A431A60FB69A7
:1026D0001B685B68C14A13401900FB69DA68FB6933
:1026E0001B680A435A60FB699B697B63FB691B6833
:1026F000BB4A934204D0FB691B6A7A6B13437B632A
:10270000FB691B689B68B74A13401900FB691B688B
:102710007A6B0A439A60FB691B68B34A934231D1D2
:10272000B24BDB6C03221340032B1DD023D8022BAA
:102730000CD020D8002B02D0012B0ED01BE01B2385
:1027400018229B18DB1901221A709CE01B23182207
:102750009B18DB1902221A7095E01B2318229B1884
:10276000DB1904221A708EE01B2318229B18DB1938
:1027700008221A7087E01B2318229B18DB191022ED
:102780001A7080E0FB691B68994A934231D1974BDC
:10279000DB6C0C2213400C2B1DD023D8082B0CD043
:1027A00020D8002B02D0042B0ED01BE01B231822B4
:1027B0009B18DB1900221A7065E01B2318229B1856
:1027C000DB1902221A705EE01B2318229B18DB190A
:1027D00004221A7057E01B2318229B18DB190822C9
:1027E0001A7050E01B2318229B18DB1910221A7054
:1027F00049E0FB691B687A4A93423ED17B4BDA6C15
:10280000C0231B011340C0221201934227D0C022D3
:10281000120193422AD880221201934211D08022C1
:102820001201934222D8002B04D08022D20093427E
:102830000ED01BE01B2318229B18DB1900221A70F4
:1028400021E01B2318229B18DB1902221A701AE0C0
:102850001B2318229B18DB1904221A7013E01B2378
:1028600018229B18DB1908221A700CE01B2318226F
:102870009B18DB1910221A7005E01B2318229B18E5
:10288000DB1910221A70FB691B68554A934200D06D
:1028900084E01B2318229B18DB191B78082B1DD002
:1028A00020DC042B15D01DDC002B02D0022B05D020
:1028B00018E0FFF7E1F80300FB621CE04B4B1B68DC
:1028C0001022134002D04B4BFB6214E04A4BFB62D8
:1028D00011E0FFF721F80300FB620CE080231B02EC
:1028E000FB6208E00023FB621A2318229B18DB1905
:1028F00001221A70C046FB6A002B00D132E1FB694D
:102900005A6813005B009B18FA6A9A4205D3FB6968
:102910005B681B03FA6A9A4206D91A2318229B188D
:10292000DB1901221A701DE1FB6A3B6100237B6108
:1029300039697A690B001B0E100005021D430B005C
:102940001C02FB695B685B08BB600023FB60B86826
:10295000F96800196941FB695B683B6000237B6093
:102960003A687B68FDF75CFC02000B001300BB6259
:10297000BA6AC0239B009A4209D3BA6A80235B03D8
:102980009A4204D2FB691B68BA6ADA60EAE01A2349
:1029900018229B18DB1901221A70E3E0FB69DA693F
:1029A00080231B029A4200D085E01B2318229B182B
:1029B000DB191B78082B37D89A00104BD3181B68EB
:1029C0009F46FFF759F80300FB6236E0FFF76AF80D
:1029D0000300FB6231E0C046F369FFEFFFCFFFFF6A
:1029E00000480040FFF4FFFF0038014000100240A3
:1029F0000044004000093D000024F4002C3600088B
:102A0000604B1B681022134002D05F4BFB6214E046
:102A10005E4BFB6211E0FEF77FFF0300FB620CE000
:102A200080231B02FB6208E00023FB621A231822AA
:102A30009B18DB1901221A70C046FB6A002B00D1DB
:102A400090E0FB6A5A00FB695B685B08D218FB697F
:102A50005B6819001000FDF757FB0300BB62BB6AFF
:102A60000F2B21D9BA6A80235B029A421CD2BB6A1F
:102A70009AB20E2018240319DB190F218A431A80F9
:102A8000BB6A5B089BB20722134099B20319DB199A
:102A90000219D21912880A431A80FB691B680219AD
:102AA000D2191288DA605DE01A2318229B18DB190C
:102AB00001221A7056E01B2318229B18DB191B7881
:102AC000082B22D89A00324BD3181B689F46FEF77A
:102AD000D3FF0300FB6221E0FEF7E4FF0300FB628B
:102AE0001CE0284B1B681022134002D0264BFB62CF
:102AF00014E0264BFB6211E0FEF70EFF0300FB62C1
:102B00000CE080231B02FB6208E00023FB621A2317
:102B100018229B18DB1901221A70C046FB6A002B91
:102B200020D0FB695B685A08FB6AD218FB695B68B6
:102B300019001000FDF7E8FA0300BB62BB6A0F2B17
:102B40000AD9BA6A80235B029A4205D2BB6A9AB25A
:102B5000FB691B68DA6005E01A2318229B18DB1951
:102B600001221A70FB6900229A66FB690022DA666C
:102B70001A2318229B18DB191B781800BD460EB0CB
:102B8000B0BDC0460010024000093D000024F40022
:102B90005036000880B582B000AF78607B685B6A11
:102BA000012213400BD07B681B685B684A4A1340C4
:102BB00019007B689A6A7B681B680A435A607B68C5
:102BC0005B6A022213400BD07B681B685B68434A38
:102BD000134019007B68DA6A7B681B680A435A60F5
:102BE0007B685B6A042213400BD07B681B685B68C0
:102BF0003B4A134019007B681A6B7B681B680A43C9
:102C00005A607B685B6A082213400BD07B681B68A4
:102C10005B68344A134019007B685A6B7B681B68F9
:102C20000A435A607B685B6A102213400BD07B68B2
:102C30001B689B682C4A134019007B689A6B7B6861
:102C40001B680A439A607B685B6A202213400BD0A2
:102C50007B681B689B68254A134019007B68DA6B08
:102C60007B681B680A439A607B685B6A402213405A
:102C70001DD07B681B685B681D4A134019007B6888
:102C80001A6C7B681B680A435A607B681A6C802345
:102C90005B039A420BD17B681B685B68154A134043
:102CA00019007B685A6C7B681B680A435A607B6812
:102CB0005B6A802213400BD07B681B685B680E4AFE
:102CC000134019007B689A6C7B681B680A435A6042
:102CD000C046BD4602B080BDFFFFFDFFFFFFFEFF07
:102CE000FFFFFBFFFF7FFFFFFFEFFFFFFFDFFFFFA8
:102CF000FFFFEFFFFFFF9FFFFFFFF7FF80B592B0E1
:102D000002AF78607B68842200219950FDF7F4FDC2
:102D10000300FB637B681B681B6808221340082BB9
:102D20002CD1FB6B802291037868464A00920022E6
:102D300000F08CF8031E21D0EFF310837B627B6AD6
:102D4000BB630123BB62BB6A83F31088C0467B6808
:102D50001B681A687B681B6880218A431A60BB6BFA
:102D6000FB62FB6A83F31088C0467B682022DA6727
:102D70007B6878220021995403235FE07B681B68FD
:102D80001B6804221340042B46D1FB6B8022D10325
:102D900078682C4A0092002200F058F8031E3BD0BD
:102DA000EFF31083FB60FB687B6301233B613B69AE
:102DB00083F31088C0467B681B681A687B681B68B1
:102DC00021490A401A607B6B7B617B6983F3108821
:102DD000C046EFF31083BB61BB693B630123FB611A
:102DE000FB6983F31088C0467B681B689A687B6820
:102DF0001B6801218A439A603B6B3B623B6A83F309
:102E00001088C0467B688022202199507B687822F8
:102E100000219954032311E07B682022DA677B6844
:102E20008022202199507B6800221A667B6800224C
:102E30005A667B6878220021995400231800BD4609
:102E400010B080BDFFFFFF01DFFEFFFF80B584B043
:102E500000AFF860B9603B60FB1D1A704BE0BB69C6
:102E6000013348D0FDF748FD02003B68D31ABA6928
:102E70009A4202D3BB69002B01D103234BE0FB68CC
:102E80001B681B680422134035D0FB681B68DB6994
:102E900008221340082B11D1FB681B6808221A6214
:102EA000FB68180000F006F9FB688422082199509D
:102EB000FB6878220021995401232CE0FB681B68F1
:102EC000DA6980231B011A4080231B019A4212D128
:102ED000FB681B68802212011A62FB68180000F070
:102EE000E9F8FB68842220219950FB6878220021B0
:102EF000995403230FE0FB681B68DB69BA68134031
:102F0000BA68D31A5A425341DBB21A00FB1D1B7830
:102F10009A42A4D000231800BD4604B080BD000032
:102F200080B590B000AFF860B960BB1D1A80FB6837
:102F3000BA685A65FB68BA1D582112885A52FB6854
:102F4000BA1D5A2112885A52FB6800229A66FB6801
:102F50009A6880235B019A420DD1FB681B69002BA4
:102F600004D1FB685C22504999522EE0FB685C2238
:102F7000FF21995229E0FB689B68002B0DD1FB686B
:102F80001B69002B04D1FB685C22FF2199521CE0D5
:102F9000FB685C227F21995217E0FB689A688023C6
:102FA0005B059A420DD1FB681B69002B04D1FB68BD
:102FB0005C227F21995208E0FB685C223F219952F4
:102FC00003E0FB685C2200219952FB688422002107
:102FD0009950FB68802222219950EFF31083BB6245
:102FE000BB6AFB630123FB62FB6A83F31088C04664
:102FF000FB681B689A68FB681B6801210A439A609A
:10300000FB6B3B633B6B83F31088C046FB689A689D
:1030100080235B019A4207D1FB681B69002B03D117
:10302000FB68224A9A6602E0FB68214A9A66FB68BE
:103030001B69002B19D0EFF31083FB61FB697B63E5
:1030400001233B623B6A83F31088C046FB681B6820
:103050001A68FB681B68902149000A431A607B6B61
:103060007B627B6A83F3108818E0EFF310833B6187
:103070003B69BB6301237B617B6983F31088C04696
:10308000FB681B681A68FB681B6820210A431A60EA
:10309000BB6BBB61BB6983F31088C046002318007B
:1030A000BD4610B080BDC046FF010000C53300081A
:1030B0000132000880B58EB000AF7860EFF3108366
:1030C0007B617B697B630123BB61BB6983F31088F0
:1030D000C0467B681B681A687B681B6826490A40E3
:1030E0001A607B6BFB61FB6983F31088C046EFF3CA
:1030F00010833B623B6A3B6301237B627B6A83F301
:103100001088C0467B681B689A687B681B68012131
:103110008A439A603B6BBB62BB6A83F31088C046EC
:103120007B681B6E012B18D1EFF31083BB60BB686B
:10313000FB620123FB60FB6883F31088C0467B6859
:103140001B681A687B681B6810218A431A60FB6A37
:103150003B613B6983F31088C0467B688022202155
:1031600099507B6800221A667B6800229A66C046E6
:10317000BD460EB080BDC046DFFEFFFF80B584B007
:1031800000AF78607B689B6AFB60FB685A22002175
:103190009952FB68522200219952FB681800FFF7F0
:1031A00061FAC046BD4604B080BD80B586B000AFB0
:1031B0007860EFF31083BB60BB687B610123FB6029
:1031C000FB6883F31088C0467B681B681A687B68BD
:1031D0001B6840218A431A607B693B613B6983F32A
:1031E0001088C0467B682022DA677B680022DA6696
:1031F0007B681800FFF72EFAC046BD4606B080BDBA
:1032000080B594B000AF78604E203B187A685C219E
:10321000525A1A807B6880229B58222B00D0BFE034
:103220007B681B685A6A4C217B181A807B181B88A4
:10323000DAB23B181B88D9B27B685B6D0A40D2B208
:103240001A707B685B6D5A1C7B685A657B685A22D2
:103250009B5A9BB2013B99B27B685A2299527B6878
:103260005A229B5A9BB2002B00D0A1E0EFF31083AF
:103270007B627B6ABB640123BB62BB6A83F31088F9
:10328000C0467B681B681A687B681B684A490A400D
:103290001A60BB6CFB62FB6A83F31088C046EFF3D5
:1032A00010833B633B6B7B6401237B637B6B83F30A
:1032B0001088C0467B681B689A687B681B68012180
:1032C0008A439A607B6CBB63BB6B83F31088C046F8
:1032D0007B688022202199507B6800229A667B6857
:1032E00000225A667B681B68344A93421FD07B6871
:1032F0001B685A6880231B04134018D0EFF3108317
:10330000BB61BB693B640123FB61FB6983F31088EC
:10331000C0467B681B681A687B681B6828490A409E
:103320001A603B6C3B623B6A83F31088C0467B6843
:103330001B6E012B2FD17B6800221A66EFF31083DE
:10334000FB60FB68FB6301233B613B6983F31088EF
:10335000C0467B681B681A687B681B6810218A431B
:103360001A60FB6B7B617B6983F31088C0467B68C6
:103370001B68DB6910221340102B03D17B681B688C
:1033800010221A627B6858229A5A7B681100180032
:10339000FFF770F90CE07B681800FDF785F807E08F
:1033A0007B681B689A697B681B6808210A439A61DD
:1033B000C046BD4614B080BDDFFEFFFF00480040A0
:1033C000FFFFFFFB80B594B000AF78604E203B1844
:1033D0007A685C21525A1A807B6880229B58222B83
:1033E00000D0BFE07B681B685A6A4C217B181A80AA
:1033F0007B685B6DBB647B183A181B88128813408E
:103400009AB2BB6C1A807B685B6D9A1C7B685A65AC
:103410007B685A229B5A9BB2013B99B27B685A2225
:1034200099527B685A229B5A9BB2002B00D0A1E094
:10343000EFF310833B623B6A7B6401237B627B6A10
:1034400083F31088C0467B681B681A687B681B681A
:103450004A490A401A607B6CBB62BB6A83F31088DE
:10346000C046EFF31083FB62FB6A3B6401233B63BE
:103470003B6B83F31088C0467B681B689A687B6847
:103480001B6801218A439A603B6C7B637B6B83F3EF
:103490001088C0467B688022202199507B680022DA
:1034A0009A667B6800225A667B681B68344A93429E
:1034B0001FD07B681B685A6880231B04134018D0F8
:1034C000EFF310837B617B69FB630123BB61BB6905
:1034D00083F31088C0467B681B681A687B681B688A
:1034E00028490A401A60FB6BFB61FB6983F3108873
:1034F000C0467B681B6E012B2FD17B6800221A66A9
:10350000EFF31083BB60BB68BB630123FB60FB6808
:1035100083F31088C0467B681B681A687B681B6849
:1035200010218A431A60BB6B3B613B6983F31088AF
:10353000C0467B681B68DB6910221340102B03D147
:103540007B681B6810221A627B6858229A5A7B6833
:1035500011001800FFF78EF80CE07B681800FCF7EC
:10356000A3FF07E07B681B689A697B681B680821DA
:103570000A439A61C046BD4614B080BDDFFEFFFF1E
:1035800000480040FFFFFFFB80B582B000AF7860CD
:10359000C046BD4602B080BD03008218934200D1F0
:1035A000704719700133F9E770B500260C4C0D4DCA
:1035B000641BA410A64209D1002600F019F80A4C99
:1035C0000A4D641BA410A64205D170BDB300EB5890
:1035D00098470136EEE7B300EB5898470136F2E71B
:1035E0007C3600087C360008803600087C360008EF
:1035F000F8B5C046F8BC08BC9E467047F8B5C04652
:08360000F8BC08BC9E467047AF
:10360800000000000000000001020304060708098A
:103618000000000001020304030406080C1018202F
:1036280030000000C2290008CC290008002A000840
:10363800282A0008162A0008282A0008282A00082C
:10364800282A0008202A0008CE2A0008D82A0008BC
:10365800E22A00080A2B0008F82A00080A2B0008AA
:0C3668000A2B00080A2B0008022B0008A7
:0836740048CCFF7F01000000BB
:04367C00E900000859
:04368000C10000087D
:0C36840000002000040000000100000015
:04000005080007D90F
:00000001FF
