:020000040800F2
:100000000020002029350008953300089B330008A4
:1000100000000000000000000000000000000000E0
:10002000000000000000000000000000A1330008F4
:100030000000000000000000AB330008B5330008EA
:100040007935000879350008C5330008793500088E
:1000500079350008793500087935000879350008C8
:1000600079350008793500087935000879350008B8
:10007000793500087935000800000000793500085E
:1000800000000000793500080000000000000000BA
:10009000793500080000000079350008793500083E
:1000A0007935000879350008793500087935000878
:1000B0007935000879350008793500087935000868
:1000C00010B5064C2378002B07D1054B002B02D02E
:1000D000044800E000BF0123237010BD6800002029
:1000E00000000000D8800008044B10B5002B03D09E
:1000F0000349044800E000BF10BDC04600000000F6
:100100006C000020D88000080023C25C0133002A64
:10011000FBD1581E7047000003B4714649084000E7
:100120004900095E49008E4403BC70470022430821
:100130008B4274D303098B425FD3030A8B4244D3AF
:10014000030B8B4228D3030C8B420DD3FF220902F1
:1001500012BA030C8B4202D31212090265D0030BB0
:100160008B4219D300E0090AC30B8B4201D3CB03A6
:10017000C01A5241830B8B4201D38B03C01A5241E8
:10018000430B8B4201D34B03C01A5241030B8B42EA
:1001900001D30B03C01A5241C30A8B4201D3CB02D5
:1001A000C01A5241830A8B4201D38B02C01A5241BA
:1001B000430A8B4201D34B02C01A5241030A8B42BD
:1001C00001D30B02C01A5241CDD2C3098B4201D3D5
:1001D000CB01C01A524183098B4201D38B01C01A53
:1001E000524143098B4201D34B01C01A52410309CA
:1001F0008B4201D30B01C01A5241C3088B4201D379
:10020000CB00C01A524183088B4201D38B00C01A25
:10021000524143088B4201D34B00C01A5241411A4C
:1002200000D20146524110467047FFE701B5002059
:1002300000F006F802BDC0460029F7D076E7704707
:100240007047C046002B11D1002A0FD1002900D1E0
:10025000002802D00021C943080007B4024802A1C7
:100260004018029003BDC046D9FFFFFF03B46846A3
:1002700001B5029800F04CF8019B9E4602B00CBC00
:100280007047C046F0B5CE469946030C9C46130411
:1002900047461B0C1D000E0061460404240C80B56B
:1002A0000700100C4B436543414360432C0CC018BE
:1002B00020188C46834203D980235B029846C444AD
:1002C000494679435643030C2D042D0C8919634488
:1002D00000044019C918C0BCB946B046F0BDC046BC
:1002E0009E2110B5C905041C02F0E6FB002803D1CD
:1002F000201C00F067FD10BD9E21201CC90500F0E8
:10030000C1FB00F05FFD80231B069C466044F2E7C2
:10031000F0B557464E464546DE46E0B504000D00B2
:100320009246994683B08B4230D82DD049465046EC
:1003300002F0EAFB29000600200002F0E5FB331A78
:100340009846203B34D49B4653465A4693404246F7
:100350001F00534693401E00AF423BD8AF4200D12E
:1003600079E05B46A41BBD41002B00DA76E0002259
:1003700000230092019301235A46934001930123E5
:1003800042469340009329E08242CFD900220023C5
:10039000009201930C9B002B01D01C605D600098C3
:1003A000019903B0F0BCBB46B246A946A046F0BDD9
:1003B00042469B4620239B1A5246DA404146130090
:1003C0004A468A40170042461F43534693401E0048
:1003D000AF42C3D900220023009201934346002B71
:1003E000D8D0FB0772081A4346467B080EE0AB42A2
:1003F00001D1A2420CD8A41A9D41012024196D41BB
:100400000021013E24184D41002E06D0AB42EED90A
:10041000013E24196D41002EF8D1009801995B46E8
:1004200000196941002B24DB2B005A464446D34077
:100430002A00E2401C005B461500002B2ADB260048
:100440009E40330026004746BE403200801A994144
:10045000009001919EE7A342BCD882E74246202348
:1004600000219B1A0022009101920122DA400192A0
:1004700085E7424620239B1A2A0046469A402300DD
:10048000F340444613432A00E2401C005B4615003B
:10049000002BD4DA42462F002023260097409B1AD7
:1004A000DE403B003343CDE7F8B54746CE464A022F
:1004B00043024500C40F500A804648005B0A000E04
:1004C0009209944680B51E00814602002D0EDF0081
:1004D000C90F8C4224D0281A00280EDD002A3ED1F4
:1004E0006246002A00D1FDE0421E012800D137E11A
:1004F000FF2800D1A9E0100039E0002863D04B4666
:10050000521B002D00D0E0E0002F00D1CEE0531EA2
:10051000012A00D155E1FF2A00D194E01A00D9E068
:100520002A1A002A00DC99E0002862D0FF2D00D1B1
:100530008BE080236146DB0419438C461B2A00DCD8
:10054000D2E00123DB195A016AD50135FF2D5BD0BA
:100550000122A3491A405B080B4013431CE0FF2D06
:1005600000D172E080236246DB041A4394461B28C4
:1005700000DC90E00123FB1A5A0151D59B019E0932
:10058000300002F0A3FA330005388340854200DCD6
:1005900075E0944A2D1A13405A0704D00F221A40CE
:1005A000042A00D004335A013CD5681CFE2D2BD000
:1005B0009B015E0AC0B2C0053043E4072043C0BCC3
:1005C000B946B046F8BDFE206A1C104272D1002D1B
:1005D00000D0AEE0002F00D1ECE063460020002BFD
:1005E000E9D0FB1A5A0100D4F3E063460C00DB1B90
:1005F000D2E7614600295BD0511E012A00D1A7E055
:10060000FF2A22D00A0099E7FF200026D3E7FE2127
:100610006A1C114273D0FF2AF6D0150067447B088C
:100620005A07BBD1DB08FF2D0FD05B025E0AE8B290
:10063000C1E76246002A08D08022D203134204D0C8
:100640004046104201D10C004346002BDCD08026EE
:10065000F6031E437602FF20760AACE7002AD6D0C6
:10066000421B002D5CD0FF28EED08023DB041F430B
:100670001B2A00DC82E001234D46634463E720220D
:10068000401B0130121A19009340C1405A1E934179
:1006900000250B4380E7202361461B1A99406246E0
:1006A0000B00C240591E8B41134364E70C004346C4
:1006B0001500B8E76346FE1A730145D4002E00D03A
:1006C0005EE700240020002675E7FF2BBBD08023C7
:1006D000DB041F431B2A47DD012362460C004D4605
:1006E000D31A49E705009EE761462023D1409B1AB3
:1006F00062469A4013005A1E93410B4322E7002D95
:1007000046D1002F62D063460020002B00D152E773
:100710003B0063445A0183D5324A013513407FE7D9
:10072000002FC4D0531E012A12D0FF2A8CD01A00E9
:100730009EE7002F00D07CE76346002B83D1802604
:100740000024FF20F60336E763460C00DE1B17E7A4
:100750003B00634401255A0100D461E70225F7E616
:1007600063460125FB1A07E720239B1A38009F40A8
:100770003B00D0405A1E93410343AEE720239B1A0F
:1007800039009F403B00D1405A1E93410B4373E711
:10079000002F00D158E76246002A00D155E7802299
:1007A000D203134200D150E74146114200D04CE73A
:1007B00043464AE76346002B83D00C0046460020A0
:1007C000F9E663460C00DB1B0135D5E64646002002
:1007D000F1E6002B00D023E700240026EBE6C0461C
:1007E000FFFFFF7DFFFFFFFB43025B0AF0B54F46B3
:1007F00046469946D646C30F45009846C0B54B4677
:100800000F1C2D0E00D1CBE0FF2D00D1CFE08022B8
:10081000DB00D2041A430023914600269A467F3D0E
:100820007C027B00640A1B0EFF0F002B00D1A9E0A5
:10083000FF2B11D08022E400D204144342467F3BB8
:100840005B197A400020D2B25D1C0A2E13DD3A00FB
:100850000B2E47D047463FE02B00FF33002C1ED124
:1008600002221643424601357A40D2B2FF350A2EA3
:1008700000DDE4E00220022E1CDC013E012E42D805
:1008800002283DD0012866D100200021C005084380
:10089000D2071043E0BCBA46B146A846F0BD0322D9
:1008A0001643424601357A40D2B2FF350A2E00DDAA
:1008B000E4E003200121B140A626F60031420AD12E
:1008C0009026B600314216D1B93EFF3E0E421AD0F4
:1008D000A146824600E0170053463A00022B0FD093
:1008E0004C4650460328CDD18021C90321434902FB
:1008F000FF20490ACAE780210022FF20C903C5E77B
:10090000FF200021C2E7200C49462404240C2700C4
:100910000E0C0904090C74434F4346434843390CF9
:10092000001909188C4203D980204002844666448D
:100930003F0408043F0CC0198401671EBC41090C28
:10094000800E8919044389010C43090171D50123E3
:1009500061081C400C432B007F33002B51DD6107E5
:1009600004D00F212140042900D00434210103D5F3
:10097000434B1C402B008033FE2BC1DCA101490AF4
:10098000D8B283E7002C2CD1012342461E432B0012
:100990007A400120D2B25D1C0A2E00DD57E76AE7DB
:1009A000002B10D10123042600259A4638E7002B9E
:1009B00004D102230826FF259A4631E703230C269B
:1009C000FF259A462CE7484602F080F84A46431F26
:1009D00076259A4000236D42914600269A462D1AAC
:1009E0001EE7200002F072F84246431F9C402B1A7B
:1009F000763B7A400020D2B25D1C0A2E00DD26E74D
:100A000039E70121CB1A1B2B00DD3DE79E35210084
:100A1000AC40D940631E9C4121434B0704D00F23B7
:100A20000B40042B00D004314B0104D501200021E0
:100A30002CE71D008FE789010020490A26E70223E1
:100A40000F2E0CD180214B46C9030B420DD00C4216
:100A50000BD1214349023A00FF20490A16E70B2E29
:100A600000D0F7E6A1469A4636E780214B46C903F7
:100A7000194349024246FF20490A07E70323DFE7FB
:100A8000FFFFFFF7F0B5C64643025B0A4500DA00F8
:100A9000C40F48024F009446420A1E00904600B51B
:100AA0002D0E3F0EC90F8009FF2F59D00122514052
:100AB0008C4239D0EA1B002A58DD002F68D0FF2D68
:100AC00000D1D1E08023DB0418431B2A00DCE3E0E3
:100AD00001236246D31A5A0100D4ACE09B019E095F
:100AE000300001F0F3FF330005388340854200DC1D
:100AF000C6E0B24A2D1A13405A0704D00F221A40FA
:100B0000042A00D004335A0100D497E06A1CFE2D59
:100B100000D184E09B015E0AD2B2D0053043E407E5
:100B2000204380BCB846F0BDEA1B002A41DD002FFF
:100B30006BD0FF2D00D197E08023DB0418431B2AE4
:100B400000DCCCE0012363445A0174D50135FF2D4C
:100B500065D001229A491A405B080B401343CBE74A
:100B600000281FD08C4222D02A00FF3A002A35D01C
:100B70007A1B002D00D099E06346002B00D1DDE008
:100B8000531E012A00D105E1FF2A6BD01A0094E020
:100B9000002873D0511E012A00D1DFE0FF2A63D064
:100BA0000A0092E701225140A14200D082E72A00C8
:100BB000FF3A002A36D07A1B002D00D1AAE0FF2F81
:100BC00000D1DAE080236146DB0419438C461B2AFE
:100BD00000DCD4E001233D001B18B5E7FE276A1CAA
:100BE000174271D1002D00D09EE06346002B00D14A
:100BF000D5E00022002800D18FE71B1A5E0100D447
:100C0000D6E063460C00C31A76E7002836D0511EA2
:100C1000012A00D19AE0FF2A26D00A008FE7FF229E
:100C200000267AE7FE276A1C174262D0FF2AF6D018
:100C30001500604443085A0700D05FE7DB08FF2D2A
:100C400012D05B025E0AEAB267E76246002A00D170
:100C500093E0002808D08022D203134204D04046FB
:100C6000104201D10C004346002BD8D08026F60359
:100C70001E437602FF22760A4FE743461500DEE761
:100C80002022401B0130121A19009340C1405A1E05
:100C9000934100250B432FE720239B1A0100984026
:100CA0000300D1405A1E93410B4312E7FF2FD9D0C6
:100CB00080236446DB041C43A4461B2A52DD012327
:100CC0000C003D00C31A06E763461E1A730139D4AF
:100CD000002E00D004E70024002200261DE7202378
:100CE0009B1A010098400300D1405A1E93410B43C8
:100CF00029E7002DA9D16346002B56D000220028F9
:100D000000D10AE7030063445A0194D52B4A013508
:100D1000134090E76346002BAFD0531E012A15D035
:100D2000FF2A2AD01A0052E76246002A91D10028F1
:100D300098D180260024FF22F603EEE60C004346FD
:100D400015007CE763460C00C61AC9E6030063443D
:100D500001255A0100D46EE70225FAE66346012513
:100D60001B1AB8E664462023D4409B1A62469A4078
:100D700013005A1E93412343A2E7434674E761469A
:100D80002023D1409B1A62469A4013005A1E934179
:100D90000B4320E763460C000125C31A9BE600289D
:100DA00099D00C0046460022B7E646460022B4E63B
:100DB000002B00D03FE700240026AEE6FFFFFFFB3C
:100DC000FFFFFF7D41024200C30F490A0020120EBF
:100DD0007E2A03DD9D2A02DD094A9818704780208B
:100DE00000040143952A07DC9620821AD14048422C
:100DF000002BF3D10800F1E7963A9140F7E7C0469F
:100E0000FFFFFF7F70B5002813D0C317C5185D40E2
:100E1000C40F280001F05AFE9E2301001B1A962BD6
:100E20000FDC082831D008398D406D026D0AD8B228
:100E300002E0002400200025C0052843E4072043E9
:100E400070BD992B0CDD0522121A2800D04002003B
:100E500008001B3085402800451EA84102431500AC
:100E6000052916DC2A000F4802406E0709D00F261C
:100E70003540042D05D00432550102D59F23024090
:100E80005B1A9201550AD8B2D6E76D0296206D0A18
:100E9000D2E74A1F95402A00024802406E07F0D070
:100EA000E5E7C046FFFFFFFB70B5041E0ED001F062
:100EB0000DFE9E2301001B1A962B0CDC08282CD05B
:100EC00008398C406402640AD8B201E00020002492
:100ED000C005204370BD992B0ADD020020001B32A3
:100EE00090400200501E82410520401AC440144325
:100EF000052916DC22000F480240650709D00F259E
:100F00002C40042C05D00432540102D59F2302400A
:100F10005B1A9201540AD8B2DAE764029620640A96
:100F2000D6E74A1F94402200024802406507F0D0ED
:100F3000E5E7C046FFFFFFFBF0B54F464646D64605
:100F40000400C0B51F000B0310004E005B0ACD0F5C
:100F5000610F7A001943E3003C03FF0FBC46640AAB
:100F6000470F2743760D520DC000B9468046B71A89
:100F7000654500D19BE0002F00DC84E0002A00D111
:100F8000BEE0C84A964200D124E180224C461204B9
:100F90001443A146382F00DD67E11F2F00DDD6E1A5
:100FA00020224C46D21B9440A2464446FC402000DE
:100FB0005446044340469040421E90414A46FA40FF
:100FC0000443891A1C1BA342924152428B1A9A462F
:100FD00053461B0200D4D4E053465A02530A9A46A1
:100FE0005346002B00D104E1504601F06FFD030091
:100FF000083B20222000D21A5146D04099400200DE
:101000009C400A43B34200DA02E19B1B591C1F2992
:1010100000DDA7E02023100026005B1A9C409840CA
:10102000CE40CA40631E9C41304392460026044392
:10103000630709D00F232340042B05D0231DA342AF
:10104000A4416442A2441C0053461B0200D49BE00E
:10105000944B01369E4200D1B8E053469249E408D1
:101060000B4019005B07234372054C02240B520D01
:101070001205ED0722432A4318001100E0BCBA46CE
:10108000B146A846F0BD002F48D0971B002E00D0D7
:101090000EE10C001C4300D1B7E17C1E012F00D1F2
:1010A00026E2804DAF4200D1D5E1270007E1002FB5
:1010B00000DCB2E0002A47D07A4A964200D189E0AB
:1010C00080224C4612041443A146382F6BDC1F2F9C
:1010D00000DC6EE13A004846203AD0408446202F9A
:1010E00007D040224846D21B9040020040461043A1
:1010F00080464046421E904162460400144357E039
:101100004A46024300D103E17A1E012F00D193E148
:10111000644CA74200D18AE117003BE7634C721C84
:10112000224200D0E0E00A001A43002E00D074E111
:10113000002A00D1D0E14A46024300D0E3E14A0749
:10114000DB081343C90829E04A46024300D17DE188
:101150007A1E012F00D1E0E0524CA74200D166E197
:101160001700B2E710001F3BD840202903D04023CE
:101170005B1A9A401443631E9C41002300269A4642
:101180000443630700D055E75246E3085207134370
:1011900052463700D108434A97421FD009037A05C7
:1011A0000C0B520D64E742464C461443621E9441B8
:1011B000E4189C429241524292468A4453461B0292
:1011C000DFD5384B01369E4200D0B3E03200002418
:1011D00000234DE74A07DB081343C9081A000A43F6
:1011E00000D100E2802424030C4324032D4A240B65
:1011F0003EE7200001F06AFC030018331F2B00DCDF
:10120000F7E62200083882400024B34200DBFCE607
:10121000F61A254B1A4092460AE7002F2BD0971B4F
:10122000002E00D1B8E01F4CA24200D11CE1802466
:1012300024042143382F00DD1EE11F2F00DD9EE135
:1012400020260C00F61B1800B340B440F8405E1E88
:10125000B341F94004431C438944444444459B4101
:101260005B424B449A461600A8E742464C4614435C
:10127000621E9441A6E60D4C721C224200D0A8E0EA
:101280000A001A43002E00D00AE1002A00D15EE1D4
:101290004A46024300D061E14A07DB081343C9080C
:1012A0007CE7C046FF070000FFFF7FFFFE0700004E
:1012B000CF4CA24200D1CEE0802424042143382F19
:1012C0005BDC1F2F00DDDCE020250C00ED1B1E0089
:1012D000AB40AC40FE405D1EAB413443F9401C4383
:1012E0004B465B1A99464CE04A461C1A881AA342A0
:1012F00092415242924602005046121A92461202FF
:1013000078D45346234300D06AE60021002545E700
:101310004A07DB081343C9083DE71C189C429B4160
:1013200049448A465B429A44534601261B0200D434
:1013300027E702265246AF4B01211A4013002140F5
:1013400062080A43DC075B089A46144370E63A00D9
:101350004C46203AD440A446202F07D0402248468D
:10136000D21B904002004046104380464046421E39
:10137000904162460400144324E619430C00631EA6
:101380009C4143461C1BA0459B4149465B42CB1AEE
:101390009A46654616001BE60C001C4300D1C7E0C8
:1013A0007C1E012F00D1F9E0914EB7425CD027009E
:1013B00040E720224C464046D21B9440F84004436C
:1013C00040469040421E90414A46FA4004438918E4
:1013D000EEE6874CA24200D1F9E6181898429B41EC
:1013E00049445B42CB18DC0740085B089A4616006C
:1013F0000443C6E64246D41AA04580414B464042CB
:10140000591A0B1A9A466546EAE54B464A46C00801
:101410005B0765460343D108BDE6002A00D08EE095
:101420004B46034317D1802100250903DAE64A071A
:10143000DB081343C908D1E61C1A4A46A3429B4164
:10144000891A5B42CB1A9A460126C1E54A07DB0896
:101450001343C9089FE64346D8084B464A465B07F4
:1014600065460343D108B9E64346D8084B464A4689
:101470005B070343D108B1E619430C00631E9C418E
:10148000EBE63C000D00203CE540202F03D040243B
:10149000E41BA1400B431C00631E9C412C4370E7DE
:1014A000002AE1D04A460243C1D04A07DB08134371
:1014B0008022C9081203114208D04846C4081442C9
:1014C00004D143462100DB08420713435A0FDB00D7
:1014D0005207DB08134381E64B46034300D114E770
:1014E0004B464A46C0085B0765460343D10855E6AC
:1014F000C41AA04580414B464042591A0B1A9A46DD
:101500006546012664E51C1A4A46A34280418A1AB0
:101510004042121A9246120249D54246D41AA045B8
:1015200080414B464042591A0B1A9A4665467FE560
:101530004B464A46C0085B070343D1082BE64A46A0
:10154000DB08024338D14A071343C90846E64B4635
:101550004A46C0085B070343D1081FE61C189C429B
:101560009B4149448A465B429A4453461B0200D43D
:1015700007E652461F4B01261A40924601E63C0000
:101580000E00203CE640202F03D04024E41BA14065
:101590000B431C00631E9C4134435EE6434483427C
:1015A000804149448A4640421C008244BCE653467E
:1015B000234300D1A9E6E4E54A0713438022C90882
:1015C0001203114209D04846C408144205D14346CB
:1015D00065462100DB08420713435A0FDB00DB0896
:1015E00052071343FAE50023014A1C0040E5C046B8
:1015F000FF070000FFFF7FFFF0B557464E46454608
:10160000DE46E0B50C031F004B0081469246050004
:1016100085B0240B5B0DCE0F002B00D152E1D24AD6
:10162000934200D16EE1420FE40014438022120481
:1016300022439046CD4AC50093469B4400239946D9
:1016400000933C037B005046240B5B0DFF0F002BE7
:1016500000D11AE1C44A934200D15EE1420FE40096
:101660002243802424041443C04AC10094465A46AD
:101670006344D31A9B46002033007B409A464B4676
:101680000F2B27D8BA4A9B00D3589F46B246009BDF
:10169000022B16D0032B00D187E2012B00D0D5E01E
:1016A0000023002200251B0513435246D207134393
:1016B0002800190005B0F0BCBB46B246A946A046BA
:1016C000F0BD00220025A84BEDE7BA46A0460D006C
:1016D0000090DCE7444500D2C4E100D1BFE1012322
:1016E0005B429C462E0040460025E34423020C0E3C
:1016F0001C431B0C994623040A021F0C4946009206
:101700000197FEF799FD02007A430B04310C8046E5
:1017100019438A4207D901235B429C460919E044D8
:101720008C4200D801E2881A4946FEF785FD019AED
:10173000360442430904360C03000E43B24204D976
:101740003619013BB44200D8E9E1B01A4246009E86
:1017500012041A43330C1F00110C90460293130419
:101760003204160C32001B0C5A4303967B434E4343
:101770007943170CBC469B1963449E4203D98026CB
:101780007602B44661441E0C711816041B04360C14
:101790009E19884202D312D1B54210D243465A1E36
:1017A000009B9C4665441F009D429B415B421B1968
:1017B000C018844200D29EE100D199E19046AE1B50
:1017C000B542AD41401A6D42401B844200D1D2E186
:1017D0004946FEF731FD019A0B044243310C0500E6
:1017E00019438A4200D96CE1881A4946FEF724FD64
:1017F000019A360442430904360C03000E43B242F8
:1018000000D953E10398B61A02002D041D43029F2C
:101810002B041B0C5A437B439C46290C4843130C56
:10182000844463447943984203D98020400284462B
:101830006144180C12041B04120C40189B188642B9
:1018400000D200E100D1FBE001231D43494B5B4482
:10185000002B00DCAAE06A0700D03DE1E90842461F
:10186000D20106D54246444B1A4080239046DB0005
:101870005B44424A934200DD23E742465B0555073D
:1018800052020D43120B5B0D0DE75146214300D16F
:101890007CE0002C00D1FBE0200001F017F90200F1
:1018A0000B3A1D239B1A52460100DA405346083971
:1018B0008B408C4019001443314B58449B46834461
:1018C0000020D9E603002343984644D0002C00D1E1
:1018D000CFE0200001F0FAF8010002000B391D23CF
:1018E0005B1A49461000D940083884400B004D4629
:1018F000234398468540234B9B1A9B4600239946D9
:1019000000939EE60200224390461DD108229B468A
:10191000022300259146009393E65146214309D1C5
:1019200002234A461A43184B91469C460024022043
:10193000E344A1E603234A461A43134B91469C46CF
:1019400051460320E34497E60C229B460323A0461E
:101950009146009375E60423994600239B46013384
:10196000002500936DE6C046FF07000001FCFFFF65
:101970005C810008FF030000FFFFFFFEFE07000080
:10198000F30300000DFCFFFF01F8FFFF4A460123AF
:101990001A439146002401206EE6002380229A46D5
:1019A0000025884B12037EE601256D420122D21AE2
:1019B000382A00DD74E61F2A00DCBDE01F21494201
:1019C000CB1A4146D9400B00202A04D041467E4A1A
:1019D0005A4491400D4329004A1E9141194307235F
:1019E0001D0000220D400B4200D1D0E00F22002349
:1019F0000A40042A00D1C7E00A1D8A4289414942AF
:101A00005B1811001A0200D4BEE001230022002559
:101A100049E6802243461203134208D0144206D1FD
:101A200022431203BA460D00664B120B3BE680229E
:101A3000434612031A431203B246624B120B32E6BC
:101A4000002B00D102E7A6196A1EA64200D289E047
:101A5000864200D29FE000D1AFE01500F4E6A94233
:101A600000D93CE64346DE0758086B081E43ED07E5
:101A70003CE601F02BF801000200153120321C2950
:101A800000DC2CE74B46083883400025984632E7B7
:101A900001F01CF803001A00153220301C2A00DC6B
:101AA000FFE65446083B00219C4005E73619013B00
:101AB000B44200D9A6E6B24200D8A3E6831E361986
:101AC000A0E60919013D8C4200D98DE68A4200D872
:101AD0008AE6851E091987E60F222A40042A00D1CA
:101AE000BCE6291DA942AD416D42C908A844B6E62D
:101AF000AF4200D962E6814204D800D05EE6AE4231
:101B000000D85BE602235B429C46009BE0449C4677
:101B100065449D429B415B421B19C0184FE6B2428F
:101B200000D812E6831E36190FE68A4200D8FAE57D
:101B3000831E98460919F6E5244B28005B4441466C
:101B40009D409940D0406B1E9D414346014329432F
:101B5000D3404A0700D155E70F220A40042A00D09B
:101B60004AE74FE71500864200D06DE6009A9A4298
:101B700000D069E66AE6164B5B44002B00DC13E7F5
:101B800001250021A8446AE65D075B021A0BC9081B
:101B900000230D4387E50099023D4A008A42BF4178
:101BA0007F423F19F6190092DDE780224346120377
:101BB0001A431203034B120B75E500999942EAD3BD
:101BC0001500D3E7FF0700003E0400001E040000DC
:101BD000FF030000F0B54546DE4657464E46E0B5E9
:101BE0001F000B031B0B9B464D00CB0F04009146BF
:101BF000984687B06D0D00D1CDE1CE4B9D4200D10E
:101C0000E9E15A46430FD2001343802212041A43DB
:101C1000C3009A46C84B93469C4600230026654461
:101C200000933C037B004846240B5B0DFF0F002B09
:101C300000D189E1BF4A934219D0420FE400224308
:101C4000802424041443BC4A002194464246634441
:101C50005B190193019B7A400133C000D2B2029319
:101C60000A2E1CDD3A000B2E5ED0474656E0494650
:101C7000B04B2143EB18019300292AD18020022286
:101C800000012B0084461643424663447A40D2B298
:101C900002930A2E00DD31E2002000240221022EF0
:101CA00026DC013E012E52D802294CD0012900D059
:101CB00018E10023002400251B052343D20713430A
:101CC0002800190007B0F0BCBB46B246A946A046A2
:101CD000F0BD8021032209012B008C4616434246A9
:101CE00063447A40D2B202930A2E00DD28E2032137
:101CF0000125B540AC46A6266346F6003540334282
:101D00000BD19026B600334218D1B93EFF3E1E4299
:101D10001DD0A3468246009100E0170000993A00CA
:101D2000022910D05C4650460329BFD180231B03F3
:101D30001C43240305007F4B240BBDE780240022B5
:101D40007C4B2403B8E7002400257A4BB4E75346C4
:101D50001E04360C1F0C3300010C0004000C43431E
:101D6000984603007B43994633004B439C464346C9
:101D70000D001B0C9A467D43CC44D4440095E145AC
:101D800004D980235B0299464D44009563461B0CA1
:101D90001D0063461B049C4643461B041B0C9846CF
:101DA000634643440393230C984633002404240CD5
:101DB00063439C4623007B43994643465E435F430F
:101DC0004E446346B2461E0C5644B14503D98023A7
:101DD0005B0299464F44330C99463B004B440593B4
:101DE0006346AC461F043F0C3604F619B444634600
:101DF00004935B461B0C9C465B461F043F0C3B0058
:101E000043439946634643439A464B4660461B0C00
:101E10009B4648437943514459448A4503D980231A
:101E20005B029A4650440B0C9A464B461B041B0C13
:101E300099463B0063430904454649449946634635
:101E40005C436B439C464B461B0C98466F433F19C3
:101E500047445044BC4203D980235B029846C444A3
:101E6000049B009D98464544B542B641734298464E
:101E70004B461E04059B3C049946360CA4194C4461
:101E8000A14683466E18C1448E428941CB445D46CB
:101E900049426D189C42A441C1459B418345804104
:101EA0008D4289415B4264421C434042039B49424C
:101EB000014370023F0C1843E419471EB8416418EF
:101EC0006444F60D61023043EC0D6E020C43304366
:101ED000C90100D4F1E00121430801400B43E007B0
:101EE000184364081549029B8C466344002B00DCB0
:101EF00097E0410709D00F210140042905D0011DB9
:101F000081428041404224180800E10106D5802129
:101F1000C9008C460A4B1C40029B634409498B4212
:101F200000DD10E76107C50864025B050D43240B63
:101F30005B0DC1E6FF07000001FCFFFFFF0300008F
:101F4000FFFFFFFEFE0700004B46234359D0002C45
:101F500000D1A3E0200000F0B9FD010003000B391F
:101F60001D22521A49461800D1404A46083882407C
:101F7000844010000C43744AEB1A94464246634472
:101F80000193019B7A4001330021D2B202930A2EC1
:101F900000DD67E683E65B4603439A462AD05B464C
:101FA000002B6DD0584600F091FD010003000B3965
:101FB0001D22521A210018005D46D1400838854084
:101FC0000A0084402A439346A2465F4D0026ED1A3C
:101FD0000023009325E65B4603439A4605D1002380
:101FE0009B460233082600931BE6032382460C26F9
:101FF000009316E600239B46013304260025009338
:102000000FE64246013301951E43019B7A4001339E
:10201000002400200121D2B202930A2E00DD21E625
:102020003DE60121C91A382900DD42E61F2947DDB6
:102030001F2625007642F31ADD402B00202905D00B
:102040004249029D8C466544AC402043411E884174
:10205000184307231D000024054003424AD00F23E4
:1020600000240340042B42D0031D834280414042A0
:102070002418180023023AD50123002400251BE66A
:1020800000F024FD01000300153120331C298FDDF1
:102090000838002284409246A34696E700F016FDD9
:1020A00001000300153120331C2900DC58E7020031
:1020B0004C46083A002094405DE7019B029311E7EB
:1020C000234B26009C460300029DCB406544AE4056
:1020D0001E430300AB40581E834130001843CC40E0
:1020E0004307C7D00F230340042BBDD1C2E76507C8
:1020F0006402240BC00800230543DDE5002502230C
:102100000F2E0CD180245B46240323420ED02142A3
:102110000CD10C4324033A000E4B240BCCE50B2EC0
:1021200000D0A2E58B46AA460093F7E580245B46E3
:1021300024031C43240342465546064B240BBBE5AF
:102140004D4621000323DBE70DFCFFFF3E040000AA
:102150001E040000FF070000F0B557464E464546F6
:10216000DE46E0B50D000400190010002B035B0AE9
:10217000620F1A43E3000C03640A470F2743D04C55
:102180006E00914683B04A00C0009846A246760D84
:10219000ED0F520DC90F0190A24200D1B9E0012408
:1021A00061408B468D4200D18DE0B41AA446002CCC
:1021B00000DCB7E0002A00D1CBE0C14A964200D152
:1021C00086E18022120417436246382A00DDA4E12A
:1021D0001F2A00DD1DE2614620223C00521A010048
:1021E00090409440421E90416246A0466446D740CB
:1021F0004A46E1404446D21B91460C4304431C1B13
:10220000A34292414B4652429B1A9A4653461B02A6
:1022100000D42BE153465A02530A9A465346002BE8
:1022200000D166E1504600F051FC0300083B20223B
:102230002000D21A5146D040994002009C400A43E7
:102240009E4200DD64E19B1B591C1F2900DDFEE05E
:102250002023100026005B1A9C409840CE40CA40C4
:10226000631E9C413043924600260443630709D015
:102270000F232340042B05D0231DA342A441644215
:10228000A2441C0053461B0200D4F2E08C4B0136E2
:102290009E4200D10FE153468A49E4080B401900E1
:1022A0005B07234372054C02240B520D1205224397
:1022B000ED072A431800110003B0F0BCBB46B2463C
:1022C000A946A046F0BDB41AA446002C59DD002A48
:1022D00000D1B0E0564500D1FAE080221204174345
:1022E0006246382A00DDD4E01F2A00DCC0E1390054
:1022F000203AD1406246202A06D064464022121B72
:102300003C00944004430194019C621E94410C43A0
:10231000C3E03C0004432BD08B468D422ED06A4C48
:10232000A446B4446446002C5FD0941BA446002EFF
:1023300000D020E14C461C4300D1C7E161464C1E51
:10234000012900D123E25E4DAC4500D1D8E1A4467D
:102350001AE13A00024300D1E4E02200013A012CE4
:1023600000D1C3E156498C4200D1B1E094462BE73D
:10237000012461408B468D4200D016E752498C46BD
:10238000B4446446002C00D1D3E0911B8C46002E4F
:1023900000D15EE14A498A4200D1BEE180214C462B
:1023A00009040C43A1466146382900DDBAE11F2922
:1023B00000DD27E22024641A4946A1401E00884619
:1023C0006146A340CE4041465C1EA34131431943C0
:1023D0000C0063464946D9407F18241884429B412B
:1023E0005B429A461600BA445DE0384C721C2242A9
:1023F00000D0DFE04A461A43002E00D05CE1002AFC
:1024000000D1CFE13A00024300D17FE11C1A4A46D5
:10241000A3428941D21B4942521A9246120200D469
:102420000AE2C41AA04280414B464042FF1A3B1ABE
:102430009A465D461AE73A00024373D02200013AF9
:10244000012C00D1CBE0544542D0944648E710001F
:102450001F3BD840202903D040235B1A9A401443E5
:10246000631E9C41002300269A460443630700D064
:10247000FEE65246E308520713435246B446D208DA
:102480000F498C452AD01203140B62465205520D97
:102490000CE73C000443621E9441E4189C429241C4
:1024A00052424A44924653461B02DFD5044B013642
:1024B0009E4200D0A0E0320000240023F6E6C04691
:1024C000FF070000FFFF7FFF01F8FFFFFE0700008E
:1024D000DB084A46520713434A46D2081900114303
:1024E00000D1B5E18024240314432403D54A240BEE
:1024F000DCE6200000F0EAFA030018331F2B00DCB2
:1025000095E622000838824000249E4200DC9AE6CC
:10251000F61ACD4B1A409246A8E63C000443621ED0
:1025200094416CE64A46DB08520713434A46D208F8
:10253000A6E7C64C721C224200D0ACE04A461A43C1
:10254000002E00D005E1002A00D156E13A000243F6
:1025500000D1DBE01C189C429B414F44BA465B42D1
:102560009A4453461B0200D480E75246B64B0126DC
:102570001A4092467AE7B34CA24200D1C0E08024D0
:102580004D4624042543A9466446382C53DC614655
:102590001F2C00DDCDE020251E002D1B4C46AB403E
:1025A000AC40CE405D1EAB41344323434C46CC404F
:1025B0003F1B45E04A461C1AD11BA342924152429E
:1025C00092460A005146521A9246120200D583E002
:1025D0005346234300D021E60022002553E71C1870
:1025E0009C429B414F44BA465B429A445346012663
:1025F0001B0200D43AE702265246934B01211A40AF
:102600001300214062080A43DC075B089A46144322
:102610002CE63900203AD1406246202A06D0644692
:102620004022121B3C00944004430194019C621E12
:1026300094410C43E3E5494619430B005C1EA3415A
:10264000C41AA0429B415B42FB1A9A465D461600A3
:10265000DCE54946194300D1AEE0614664460139E4
:10266000012C00D1E0E0774CA44556D08C469AE688
:10267000614620223C00521A944001009040A0463E
:102680006446421E90416246E1404446D7400C43B6
:102690000443B94401E76B498A4200D10CE718189A
:1026A00098429B414F445B42FB18DC0740085B08A3
:1026B0009A4616000443D9E6002A00D081E03B0088
:1026C00003431DD18022002512030BE7C0087B07BE
:1026D0005D460343FA08D3E6C41AA04280414B4644
:1026E0004042FF1A3B1A9A465D4697E51C1A4A4635
:1026F000A3429B41D71B5B42FB1A9A46012685E504
:10270000C0087B075D460343FA08E7E64A46DB0854
:10271000520713434A46D208B5E6C0087B07034375
:10272000FA08DBE6494619430B00591E8B411C0091
:1027300053E64D46203CE540202905D04024641A4C
:102740004946A1400B43984643465C1EA3412B4398
:1027500076E7002AE1D03A00DB08024300D1B8E670
:102760004A465207802413434A462403D208224291
:1027700007D0FE08264204D15D463200C3087F0719
:102780003B43590FDB004907DB080B43A6E6C41A9D
:10279000A04280414B464042FF1A3B1A9A465D4692
:1027A000012633E53B00034300D115E7C0087B0752
:1027B0005D460343FA0866E6C0087B070343FA0850
:1027C0005EE63A00DB08024300D182E64A46520741
:1027D000802413434A462403D208224207D0FE082D
:1027E000264204D15D463200C3087F073B43590FA0
:1027F000DB00DB0849070B4370E6C0087B07034397
:10280000FA0840E64C462039CC406146202906D0E3
:1028100066464021891B4E468E40334398464346C8
:10282000591E8B411C43D8E51C18844280414F44FB
:10283000BA4640428244D9E65346234300D1CBE610
:1028400014E6C046FF070000FFFF7FFFFE07000001
:102850000023014A1C0029E5FF07000070B500288D
:1028600016D0C317C5185D40C40F280000F02EF91C
:10287000114B1B1A0A2816DC02002E001532964056
:102880000B22121AD5405B052D032D0B5B0D03E0C7
:1028900000240023002500261B052B43E4072343C7
:1028A0003000190070BD0B3885405B052D030026F4
:1028B0002D0B5B0DF0E7C0461E04000070B5420210
:1028C0004300C40FFE201B0E591C550A08420CD0B1
:1028D000E02189008C466D07120B63441B051343EE
:1028E000E40723432800190070BD002B14D1002DEC
:1028F0001BD0280000F0EAF80A281CDC0B232A0071
:102900001B1ADA40030015339D400E4B12031B1AAD
:102910005B05120B5B0DE1E7002D09D0130B802244
:1029200012031A436D07084BD8E700230022D5E7AE
:102930000022054BD2E703002A000B3B9A400025FA
:10294000E3E7C04689030000FF0700000200F0B57E
:102950004B000D03400F5B0DCC0F6D0A3A49054348
:10296000581CD70008420AD038495918FE2916DDEC
:10297000FF200022C0051043E4072043F0BD002BD8
:1029800006D13D4326D005229201520AD8B2F1E782
:102990002F43EDD08022D203FF202A43EAE700290B
:1029A0001BDD9201501E8241ED007F0F2A433A4306
:1029B000530747D00F231340042B00D00432802349
:1029C000DB0413403ED0481CFE29D1D09201520AAC
:1029D000C0B2CFE700200022CCE70A0017322FDB7D
:1029E000802636042E431E256D1A1F2D11DD02226E
:1029F0005242521A3100D140202D04D0144A94463C
:102A000063449E4037433A00531E9A410A430021D3
:102A1000CEE7104A38009446634498403A00411E7D
:102A200088419E40EA403043024300215307C1D110
:102A300080211300C90401200B400A42C6D1A3E73C
:102A40000023A0E70B009FE7FE07000080FCFFFFCC
:102A5000A2FCFFFF82FCFFFF844608006146FFE7FF
:102A60001FB500F0C9F8002801D40021C8421FBDDD
:102A700010B500F055F84042013010BD10B500F01F
:102A8000BBF8002801DB002010BD012010BDC046AE
:102A900010B500F0B1F8002801DD002010BD0120C4
:102AA00010BDC04610B500F061F8002801DC002020
:102AB00010BD012010BDC04610B500F057F8002829
:102AC00001DA002010BD012010BDC0461C210123E9
:102AD0001B04984201D3000C10391B0A984201D301
:102AE000000A08391B09984201D30009043902A2DF
:102AF000105C40187047C046040302020101010146
:102B0000000000000000000010B5002903D1FFF70D
:102B1000DDFF203002E00800FFF7D8FF10BDC046FF
:102B200070B5420045024E024C00C30F6D0A0120F1
:102B3000120E760A240EC90FFF2A06D0FF2C03D0EE
:102B4000A24201D1B54206D070BD002DFCD1FF2CB0
:102B5000FAD1002EF8D18B4206D00120002AF3D101
:102B60002800431E9841EFE70020EDE770B54200D2
:102B700045024E024C00C30F6D0A120E760A240E57
:102B8000C80FFF2A1BD0FF2C0ED0002A1BD1002C0F
:102B900001D1002E1CD0002D0CD083421CD002216C
:102BA000581E0840013870BD002E22D1002AF4D1F1
:102BB000002DF2D10028F6D101204042F3E7002D8C
:102BC00017D1FF2CF0D0002CE7D1002EE5D1E6E79D
:102BD0000020002DE7D0E2E7A24205DCEADBB542A7
:102BE00002D8E7D30020DEE74342584140000138D5
:102BF000D9E702204042D6E770B5420045024E02B6
:102C00004C00C30F6D0A120E760A240EC80FFF2A5D
:102C10000BD0FF2C0DD0002A1FD1002C16D1002E76
:102C200014D10020002D10D009E0002D0CD1FF2C74
:102C300013D1002E08D1002A08D0834212D00221DD
:102C4000581E0840013800E0022070BD002DF4D16C
:102C50000028FAD101204042F7E7002CEDD1002EE8
:102C6000EBD1ECE7A24205DCF2DBB54202D8EFD3B0
:102C70000020EAE74342584140000138E5E7C046FA
:102C800090B583B002AF00F0C1FD00F059F800F03C
:102C9000EBF900F0D1F800F0B7F900F00DF91F4B97
:102CA000180000F06BFC1E491E4B0022180003F0B8
:102CB00037F81D491B4B0022180002F03FFF184B4C
:102CC0009B781A00164B5B781C00154BDB78174974
:102CD00017480093230004F0D7FA134B1B781A000F
:102CE000114B5B781C00104B9B78124912480093E3
:102CF000230004F0C9FA0E4910486423142203F09B
:102D000051FC0D490D486423142203F04BFCFA23B7
:102D10009B00180000F0EAFDC5E7C04684000020D3
:102D2000C0010020D8000020AC010020F080000885
:102D3000840100200881000898010020FC00002088
:102D400090B59DB000AF38243B19180038231A0005
:102D5000002104F0ABFB2423FB18180014231A00F5
:102D6000002104F0A3FB3B00180024231A000021DB
:102D700004F09CFB2E4B1B682E4A1A402C4B8021E2
:102D800009010A431A6021007B180A221A607B1885
:102D90000122DA607B1810221A617B1801225A6125
:102DA0007B1802229A627B180022DA627B180022CA
:102DB0001A637B18802212045A637B18180001F0F2
:102DC00001FE031E01D000F023FA24217B180F22FC
:102DD0001A607B1803225A607B1800229A607B18C5
:102DE0000022DA607B1800221A617B18002118008B
:102DF00002F0ACF9031E01D000F00AFA3B002922D0
:102E00001A603B000022DA603B00802292019A6146
:102E10003B00802292025A603B00180002F0BAFB8D
:102E2000031E01D000F0F4F9C046BD461DB090BDB0
:102E300000700040FFE7FFFF80B500AF1B4B1C4A4E
:102E40001A601A4B1B4A5A60184B00229A60174BA3
:102E50000122DA60154B00221A61144B00225A61DC
:102E6000124B00229A61114B0022DA610F4B0022B3
:102E70001A620E4B180000F0B1FF031E01D000F0E3
:102E8000C7F90A4B0021180001F004FD031E01D010
:102E900000F0BEF9054B0021180001F047FD031EAC
:102EA00001D000F0B5F9C046BD4680BD84000020C9
:102EB000005400405B3D300080B590B000AF2C2343
:102EC000FB18180014231A00002104F0EFFA28233D
:102ED000FB1800221A603B00180028231A0000216A
:102EE00004F0E4FA454B464A1A60444B00225A600B
:102EF000424B7F229A60414BFF22DA603F4B002217
:102F00001A613E4B00225A613C4B00229A613B4BB6
:102F10000022DA61394B180002F0CAFC031E01D00E
:102F200000F076F92C217B1805221A707B180122FB
:102F30005A707B1801229A707B180022DA607B1885
:102F400000221A6179182D4B0122180002F04CFD65
:102F5000031E01D000F05CF928217B1801221A70B1
:102F60007B1804225A707B1801229A707B18242245
:102F7000DA707918214B0122180002F03DFE031E81
:102F800001D000F045F93B0005221A703B000122F8
:102F90005A703B0010229A703B0000225A603B009E
:102FA0000022DA603B0000221A613B00154A5A6198
:102FB0003B0000229A613B000022DA613B002022A4
:102FC000012199543B00802252005A6239000B4B78
:102FD0000122180002F0F4FE031E01D000F018F9DF
:102FE000064B00220021180003F070F9031E01D0E7
:102FF00000F00EF9C046BD4610B080BDD8000020DC
:10300000002800400080800080B500AF144B154AB6
:103010001A60134BE12252025A60114B00229A604F
:103020000F4B0022DA600E4B00221A610C4B0C226F
:103030005A610B4B00229A61094B0022DA61084B5E
:1030400000221A62064B00225A62054B180003F058
:1030500055FA031E01D000F0DBF8C046BD4680BD26
:10306000FC0000200038014080B584B000AF1A4B4E
:10307000DA6A194B04210A43DA62174BDB6A04222D
:103080001340FB60FB68144BDA6A134B80210A4340
:10309000DA62114BDB6A80221340BB60BB680E4BC7
:1030A000DA6A0D4B01210A43DA620B4BDB6A01221B
:1030B00013407B607B68084BDA6A074B02210A43A6
:1030C000DA62054BDB6A022213403B603B68C04674
:1030D000BD4604B080BDC04600100240F0B5DE46DB
:1030E00057464E464546E0B5BFB006AF7860454B03
:1030F000180004F0BFF808243B1900221A600433BA
:10310000C4220021180004F0D1F9012000F078FA5F
:10311000031CDC2439190B603B191B68181C00F0D8
:10312000EFFA031CD82579190B603B191B68181C92
:1031300000F00AFB031CD426B9190B60012000F033
:10314000A1FA031CD021781803603B191B68181CD6
:1031500000F00AFB82463B191B680121181C00F095
:103160000FFB83467B191B68181C00F0FDFA040056
:103170007B191B680121181C00F002FB0500B8191F
:103180000368181C00F0F0FA0600D423FB181B6833
:103190000121181C00F0F4FA8046D0217B181B682E
:1031A000181C00F0E1FA8146D0217B181B68012130
:1031B000181C00F0E5FA030013490822B81805931B
:1031C0004B460493434603930296019500945B4655
:1031D000524604F059F808243B191800FCF794FFF4
:1031E00003009AB2FA235B003919084803F0DAF9B0
:1031F000C046BD4639B0F0BCBB46B246A946A04663
:10320000F0BDC046208100082C810008FC00002091
:1032100080B500AF72B6C046FEE7000080B500AFD3
:10322000074B5A6B064B01210A435A63044B9A6BB6
:10323000034B802149050A439A63C046BD4680BDC1
:103240000010024090B589B000AF78600C243B19A3
:10325000180014231A00002104F028F97B681B6869
:10326000174A934228D1174BDA6A164B02210A43B8
:10327000DA62144BDB6A02221340BB60BB68210098
:103280007B18C0221A607B1812225A607B18002219
:103290009A607B180322DA607B1801221A617B187E
:1032A000094A1900100000F023FC064B9A6B054BED
:1032B000802189030A439A63C046BD4609B090BD88
:1032C00000540040001002400004005080B582B05D
:1032D00000AF78607B681B680A4A93420ED10A4BA4
:1032E0001A6D094B8021C9020A431A650022002188
:1032F000022000F0CBFB022000F0DDFBC046BD4603
:1033000002B080BD002800400010024090B589B096
:1033100000AF78600C243B19180014231A00002118
:1033200004F0C4F87B681B68184A93422AD1184BF2
:103330005A6B174B8021C9010A435A63144BDA6A4E
:10334000134B01210A43DA62114BDB6A012213405D
:10335000BB60BB683B19C022D2001A6021007B18F9
:1033600002225A607B1800229A607B180322DA60DE
:103370007B1804221A617A18A023DB0511001800BB
:1033800000F0B6FBC046BD4609B090BD0038014014
:103390000010024080B500AFFEE780B500AFFEE749
:1033A00080B500AFC046BD4680BD80B500AFC04609
:1033B000BD4680BD80B500AF00F07CFAC046BD467A
:1033C00080BD000080B500AF054B180002F05AFE2A
:1033D000034B180003F052F8C046BD4680BDC046FE
:1033E000D800002080B586B000AFF860B9607A6080
:1033F00000237B610AE000E000BF0100BB685A1CAB
:10340000BA60CAB21A707B6901337B617A697B68E2
:103410009A42F0DB7B681800BD4606B080BD80B5DF
:1034200086B000AFF860B9607A6000237B6109E084
:10343000BB685A1CBA601B78180000E000BF7B69AB
:1034400001337B617A697B689A42F1DB7B68180003
:10345000BD4606B080BD80B582B000AF7860012364
:103460005B421800BD4602B080BD80B582B000AF9F
:10347000786039603B68802292015A60002318000E
:10348000BD4602B080BD80B582B000AF7860012338
:103490001800BD4602B080BD80B584B000AFF860B2
:1034A000B9607A6000231800BD4604B080BD0000FA
:1034B00080B586B000AF7860144A154BD31A7B6193
:1034C0007B693B61134B1B68002B02D1114B124AE5
:1034D0001A60104B1A687B68D3183A699A4207D26F
:1034E00004F03AF803000C221A6001235B4209E061
:1034F000084B1B68FB60074B1A687B68D218054BAA
:103500001A60FB681800BD4606B080BD0020002090
:1035100000040000C40100202003002080B500AF9B
:10352000C046BD4680BD00000D488546FFF7F6FF4A
:103530000C480D490D4A002302E0D458C45004330E
:10354000C4188C42F9D30A4A0A4C002301E01360E4
:103550000432A242FBD304F005F8FFF791FBFEE72B
:103560000020002000000020680000204C8200089D
:10357000680000201C030020FEE7000080B582B038
:1035800000AF7860034B7A681A60C046BD4602B04F
:1035900080BDC046C801002090B587B002AF0200D0
:1035A000FB1D1A700C243B19134A12881A80022240
:1035B00000219954114B1868FA1DFA239B000093BF
:1035C0000123802100F0A0FC0C4B18683A19FA2363
:1035D0009B0000930323802100F09EFD3B191B7884
:1035E0001B021AB23B195B781BB213431BB29BB28E
:1035F0001800BD4605B090BD58810008C8010020E4
:1036000080B584B000AF0200FB1D1A70FB1D1B7853
:10361000002B01D0E32200E0F3220F217B181A7067
:103620007B181B781800FFF7B7FF03001800FFF79F
:1036300015F900220E4BFDF7DFFF02000B00100012
:1036400019000C4A0C4BFEF7C5FA02000B001000E3
:1036500019000A4A0A4BFEF77FFD02000B0010001A
:103660001900FFF773F9031C181CBD4604B080BD98
:103670000000F040D7A3703D0AF76540CDCCCCCC1C
:10368000CC6C474080B584B000AF0200FB1D1A70BF
:10369000FB1D1B78002B01D0E52200E0F5220F2155
:1036A0007B181A707B181B781800FFF775FF030052
:1036B0001800FFF7D3F800220E4BFDF79DFF020024
:1036C0000B001000190000220B4BFEF783FA0200DA
:1036D0000B00100019000022084BFEF73DFD020010
:1036E0000B0010001900FFF731F9031C181CBD4630
:1036F00004B080BD0000F04000405F400000184072
:1037000080B582B000AF78607868FFF7D7F80B4AD1
:103710000B4BFEF75FFA02000B00100019000022AD
:10372000084BFDF709FC02000B0010001900FFF721
:103730000DF9031C181CBD4602B080BDCDCCCCCC0D
:10374000CCCCFC3F0000404080B582B000AF786038
:1037500004497868FCF7A8FE031C181CBD4602B09B
:1037600080BDC0460080884380B582B000AF7860DD
:103770007868FDF727FB03001800BD4602B080BD46
:1037800080B584B000AF786039607B68181CFFF7A3
:10379000EBFF03001800FDF735FB031C191C7868CC
:1037A000FDF770F9031CFB603B6819000A2000F06C
:1037B00012F803001800FDF777FB031CF968181CCA
:1037C000FDF712F8031C181CFCF78AFD0300180013
:1037D000BD4604B080BD80B584B000AF786039606C
:1037E0007B68FB600123BB6006E0FB687A6853439B
:1037F000FB60BB680133BB60BA683B689A42F4D394
:10380000FB681800BD4604B080BD000080B582B0E2
:1038100000AFFB1D00221A700B4B1A680A4B4021A7
:103820000A431A60002000F011F8031E03D0FB1DAC
:1038300001221A7001E0FFF7F1FCFB1D1B78180054
:10384000BD4602B080BDC0460020024090B583B0A6
:1038500000AF7860144B1C68144B1B781900FA23D6
:103860009800FCF763FC030019002000FCF75EFCE5
:103870000300180000F02FF9031E01D001230FE010
:103880007B68032B0BD8796801235B420022180068
:1038900000F0FCF8064B7A681A60002300E0012370
:1038A0001800BD4603B090BD0000002008000020B5
:1038B0000400002080B500AF054B1B781A00054BB3
:1038C0001B68D218034B1A60C046BD4680BDC04677
:1038D00008000020CC01002080B500AF024B1B681F
:1038E0001800BD4680BDC046CC01002080B584B024
:1038F00000AF7860FFF7F0FF0300BB607B68FB6000
:10390000FB68013305D00A4B1B781A00FB689B1833
:10391000FB60C046FFF7E0FF0200BB68D31AFA68FD
:103920009A42F7D8C046C046BD4604B080BDC046E6
:103930000800002080B582B000AF0200FB1D1A70A5
:10394000FB1D1B787F2B09D8FB1D1B781A001F233A
:103950001A40044B012191400A001A60C046BD463E
:1039600002B080BD00E100E090B583B000AF02007E
:103970003960FB1D1A70FB1D1B787F2B28D82F4A3E
:10398000FB1D1B785BB29B08C0339B009B58FA1D44
:103990001278110003220A40D200FF2191400A0050
:1039A000D2431A4011003B689B01FF221A40FB1DC5
:1039B0001B78180003230340DB009A401F48FB1DBF
:1039C0001B785BB29B080A43C0339B001A5031E05E
:1039D0001B4AFB1D1B7819000F230B40083B9B085B
:1039E00006339B00D31804331B68FA1D12781100AC
:1039F00003220A40D200FF2191400A00D2431A401C
:103A000011003B689B01FF221A40FB1D1B78180028
:103A100003230340DB009A400948FB1D1B781C0070
:103A20000F232340083B9B080A4306339B00C3181F
:103A300004331A60C046BD4603B090BD00E100E00B
:103A400000ED00E080B582B000AF78607B685A1E60
:103A500080235B049A4201D3012310E00A4B7A6869
:103A6000013A5A6001235B4203211800FFF77CFFF3
:103A7000054B00229A60044B07221A6000231800AD
:103A8000BD4602B080BDC04610E000E080B584B005
:103A900000AFB9607A600F217B18021C1A70BA68F7
:103AA0007B181B785BB211001800FFF75DFFC04662
:103AB000BD4604B080BD80B582B000AF0200FB1DE2
:103AC0001A70FB1D1B785BB21800FFF733FFC0466E
:103AD000BD4602B080BD80B582B000AF78607B6823
:103AE0001800FFF7AFFF03001800BD4602B080BD0D
:103AF00080B586B000AF7860396000237B61002319
:103B0000FB6000233B614FE13B681B6801217A6940
:103B100091400A001340FB60FB68002B00D140E19C
:103B20003B685B6803221340012B05D03B685B6850
:103B300003221340022B30D17B689B683B617B6979
:103B40005B0003229A401300DA433B6913403B6158
:103B50003B68DA687B695B009A4013003A6913435B
:103B60003B617B683A699A607B685B683B610122D4
:103B70007B699A401300DA433B6913403B613B6821
:103B80005B681B0901221A407B699A4013003A695D
:103B900013433B617B683A695A603B685B68032268
:103BA0001340032B17D07B68DB683B617B695B00AC
:103BB00003229A401300DA433B6913403B613B68A0
:103BC0009A687B695B009A4013003A6913433B6132
:103BD0007B683A69DA603B685B6803221340022B1A
:103BE00023D17B69DA087B6808329200D3583B61A5
:103BF0007B69072213409B000F229A401300DA438F
:103C00003B6913403B613B681A697B6907210B40A4
:103C10009B009A4013003A6913433B617B69DA08C1
:103C20007B68083292003969D1507B681B683B6120
:103C30007B695B0003229A401300DA433B6913401F
:103C40003B613B685B6803221A407B695B009A40DA
:103C500013003A6913433B617B683A691A603B6819
:103C60005A68C0239B02134000D19AE0544B5A6B10
:103C7000534B01210A435A63524A7B699B08023322
:103C80009B009B583B617B69032213409B000F22E2
:103C90009A401300DA433B6913403B617A68A023E2
:103CA000DB059A4219D07B68474A934213D07B6860
:103CB000464A93420DD07B68454A934207D07B68C1
:103CC000444A934201D1052308E0062306E003237A
:103CD00004E0022302E0012300E000237A690321CB
:103CE0000A40920093403A6913433B6135497B692E
:103CF0009B0802339B003A695A50374B9B683B61E3
:103D0000FB68DA433B6913403B613B685A68802398
:103D10005B03134003D03A69FB6813433B612E4BAE
:103D20003A699A602C4BDB683B61FB68DA433B697C
:103D300013403B613B685A6880239B03134003D0C8
:103D40003A69FB6813433B61234B3A69DA60224BC3
:103D50005B683B61FB68DA433B6913403B613B684E
:103D60005A6880239B02134003D03A69FB681343CF
:103D70003B61194B3A695A60174B1B683B61FB6802
:103D8000DA433B6913403B613B685A6880235B021E
:103D9000134003D03A69FB6813433B610E4B3A6909
:103DA0001A607B6901337B613B681A687B69DA4082
:103DB000131E00D0A8E6C046C046BD4606B080BD72
:103DC00000100240000001400004005000080050B4
:103DD000000C0050001C00500004014080B582B06F
:103DE00000AF78607B68002B01D1012382E07B6803
:103DF00041229B5CDBB2002B07D17B684022002173
:103E000099547B681800FFF71DFA7B684122242132
:103E100099547B681B681A687B681B6801218A4378
:103E20001A607B685A687B681B6834490A401A61CB
:103E30007B681B689A687B681B6831490A409A60F6
:103E40007B68DB68012B08D17B689A687B681B68FC
:103E5000802109020A439A6007E07B689A687B68C0
:103E60001B68842109020A439A607B68DB68022B85
:103E700004D17B681B68802212015A607B681B6832
:103E80005A687B681B681F490A435A607B681B6835
:103E9000DA687B681B681A490A40DA607B681A692D
:103EA0007B685B691A4311007B689B691A027B6817
:103EB0001B680A43DA607B68D9697B681A6A7B6889
:103EC0001B680A431A607B681B681A687B681B685A
:103ED00001210A431A607B6800225A647B684122F0
:103EE000202199547B6800221A637B6842220021BA
:103EF000995400231800BD4602B080BDFFFFFFF0BB
:103F0000FF7FFFFF0080000290B589B002AFF8602C
:103F100008007A6019000A23FB18021C1A80082383
:103F2000FB180A1C1A80FB6841229B5CDBB2202B29
:103F300000D0E7E0FB6840229B5C012B01D102230B
:103F4000E1E0FB68402201219954FFF7C5FC030022
:103F50007B6180231902F8687B6900931923012291
:103F600000F004FA031E01D00123CCE0FB684122DB
:103F700021219954FB68422210219954FB680022A8
:103F80005A64FB687A685A62FB680822BA18128879
:103F90005A85FB6800225A63FB685B8D9BB2FF2B3E
:103FA00011D9FB68FF221A85FB681B8DDAB28023CA
:103FB0005C040A23FB181988F868554B009323000A
:103FC00000F02EFC75E0FB685B8D9AB2FB681A85E9
:103FD000FB681B8DDAB280239C040A23FB18198826
:103FE000F8684B4B0093230000F01AFC61E07A69FB
:103FF000B96AFB68180000F007FA031E01D001231C
:1040000081E0FB685B6A1A78FB681B689A62FB6850
:104010005B6A5A1CFB685A62FB685B8D9BB2013B72
:104020009AB2FB685A85FB681B8D013B9AB2FB680C
:104030001A85FB685B8D9BB2002B3AD0FB681B8D09
:10404000002B36D1BA6AF8687B690093130000220E
:10405000802100F08BF9031E01D0012353E0FB689F
:104060005B8D9BB2FF2B11D9FB68FF221A85FB6881
:104070001B8DDAB280235C040A23FB181988F868C8
:1040800000230093230000F0CBFB12E0FB685B8D64
:104090009AB2FB681A85FB681B8DDAB280239C04F8
:1040A0000A23FB181988F86800230093230000F006
:1040B000B7FBFB685B8D9BB2002B98D17A69B96A1C
:1040C000FB68180000F0E6F9031E01D001231AE096
:1040D000FB681B682022DA61FB681B685A68FB6872
:1040E0001B680C490A405A60FB6841222021995400
:1040F000FB68422200219954FB6840220021995418
:10410000002300E002231800BD4607B090BDC04662
:104110000020008000E800FE90B589B002AFF86092
:1041200008007A6019000A23FB18021C1A80082371
:10413000FB180A1C1A80FB6841229B5CDBB2202B17
:1041400000D0E8E0FB6840229B5C012B01D10223F8
:10415000E2E0FB68402201219954FFF7BDFB030018
:104160007B6180231902F8687B690093192301227F
:1041700000F0FCF8031E01D00123CDE0FB684122D2
:1041800022219954FB68422210219954FB68002295
:104190005A64FB687A685A62FB680822BA18128867
:1041A0005A85FB6800225A63FB685B8D9BB2FF2B2C
:1041B00011D9FB68FF221A85FB681B8DDAB28023B8
:1041C0005C040A23FB181988F868554B00932300F8
:1041D00000F026FB76E0FB685B8D9AB2FB681A85DF
:1041E000FB681B8DDAB280239C040A23FB18198814
:1041F000F8684B4B0093230000F012FB62E07A69F1
:10420000B96AFB68180000F089F9031E01D0012388
:1042100082E0FB681B685A6AFB685B6AD2B21A705C
:10422000FB685B6A5A1CFB685A62FB681B8D013B8A
:104230009AB2FB681A85FB685B8D9BB2013B9AB210
:10424000FB685A85FB685B8D9BB2002B3AD0FB68FC
:104250001B8D002B36D1BA6AF8687B690093130076
:104260000022802100F082F8031E01D0012353E0D8
:10427000FB685B8D9BB2FF2B11D9FB68FF221A856F
:10428000FB681B8DDAB280235C040A23FB181988B3
:10429000F86800230093230000F0C2FA12E0FB68E4
:1042A0005B8D9AB2FB681A85FB681B8DDAB280239E
:1042B0009C040A23FB181988F86800230093230044
:1042C00000F0AEFAFB685B8D9BB2002B97D17A6948
:1042D000B96AFB68180000F0DDF8031E01D0012365
:1042E0001AE0FB681B682022DA61FB681B685A68C9
:1042F000FB681B680B490A405A60FB684122202179
:104300009954FB68422200219954FB684022002105
:104310009954002300E002231800BD4607B090BD69
:104320000024008000E800FE80B582B000AF786015
:104330007B681B689B6902221340022B03D17B68B8
:104340001B6800229A627B681B689B6901221340EC
:10435000012B07D07B681B689A697B681B68012169
:104360000A439A61C046BD4602B080BD80B584B0A4
:1043700000AFF860B9603B60FB1D1A7030E03B682D
:1043800001332DD0FFF7A8FA0200BB69D31A3A68AF
:104390009A4202D33B68002B22D1FB681B689B69C1
:1043A000BA681340BA68D31A5A425341DBB21A00B2
:1043B000FB1D1B789A4213D1FB685B6C20221A43C9
:1043C000FB685A64FB68412220219954FB68422211
:1043D00000219954FB6840220021995401230FE0E9
:1043E000FB681B689B69BA681340BA68D31A5A42C3
:1043F0005341DBB21A00FB1D1B789A42BFD0002349
:104400001800BD4604B080BD80B584B000AFF86030
:10441000B9607A6032E07A68B968FB68180000F029
:10442000FFF8031E01D0012330E0BB68013325D023
:10443000FFF752FA02007B68D31ABA689A4202D395
:10444000BB68002B1AD1FB681B689B6902221340D2
:10445000022B13D0FB685B6C20221A43FB685A6462
:10446000FB68412220219954FB6842220021995483
:10447000FB68402200219954012307E0FB681B6878
:104480009B6902221340022BC5D100231800BD46B0
:1044900004B080BD80B584B000AFF860B9607A60C8
:1044A0002FE07A68B968FB68180000F0B9F8031EBD
:1044B00001D001232DE0FFF70FFA02007B68D31A29
:1044C000BA689A4202D3BB68002B1AD1FB681B68FA
:1044D0009B6920221340202B13D0FB685B6C2022A9
:1044E0001A43FB685A64FB68412220219954FB68F7
:1044F000422200219954FB68402200219954012353
:1045000007E0FB681B689B6920221340202BC8D161
:1045100000231800BD4604B080BD000080B584B003
:1045200000AFF860B9607A606BE07A68B968FB68E0
:10453000180000F075F8031E01D0012369E0FB6844
:104540001B689B6920221340202B38D1FB681B6815
:104550009B6904221340042B05D1FB681B8D002BA3
:1045600001D0002355E0FB681B689B6910221340B3
:10457000102B07D1FB681B681022DA61FB6804224C
:104580005A6402E0FB6800225A64FB681B68202220
:10459000DA61FB681B685A68FB681B681F490A40A0
:1045A0005A60FB68412220219954FB684222002175
:1045B0009954FB68402200219954012329E0FFF718
:1045C0008BF902007B68D31ABA689A4202D3BB689F
:1045D000002B16D1FB681B689B6904221340042B37
:1045E0000FD0FB685B6C20221A43FB685A64FB689F
:1045F000412220219954FB68402200219954012333
:1046000007E0FB681B689B6904221340042B8CD1D4
:1046100000231800BD4604B080BDC04600E800FE7F
:1046200090B58BB000AFF860B9607A602723FB18B3
:1046300000221A70FB681B689B69BB6100233B6208
:104640007B68FB61BB691022134000D182E0FB68EC
:104650001B681022DA6160E027243B193A191278AE
:104660001A70BB68013358D0FFF736F90200FB69B6
:10467000D31ABA689A4206D33B193A1912781A70BB
:10468000BB68002B49D1FB681B685A688023DB019B
:1046900013407B6113203B18FA684221525C1A7068
:1046A000FB681B689A6980231B021A4080231B0247
:1046B0009A4226D17A698023DB019A4221D03B18A5
:1046C0001B78202B1DD0FB681B685A68FB681B6891
:1046D0008021C9010A435A60FFF7FEF80300FB611D
:1046E0000FE0FFF7F9F80200FB69D31A192B08D97C
:1046F0003B6A202213433B622723FB1801221A70D6
:104700000BE0FB681B689B692022134027217A1865
:10471000791809781170202BE3D1FB681B689B691D
:1047200020221340202B04D02723FB181B78002BBA
:1047300092D02723FB181B78002B03D1FB681B6842
:104740002022DA613B6A042213433B622723FB18D1
:1047500001221A70FB681B689B69BB61BA698023E0
:104760005B0013400CD03B6A012213433B62FB68A1
:104770001B6880225200DA612723FB1801221A707D
:10478000BA698023DB0013400CD03B6A0822134334
:104790003B62FB681B688022D200DA612723FB188A
:1047A00001221A70BA6980239B0013400CD03B6A27
:1047B000022213433B62FB681B6880229200DA618D
:1047C0002723FB1801221A702723FB181B78002BC4
:1047D0001DD0FB681800FFF7A7FDFB681B685A682F
:1047E000FB681B680D490A405A60FB685A6C3B6ABB
:1047F0001A43FB685A64FB68412220219954FB68E4
:10480000422200219954FB68402200219954272319
:10481000FB181B781800BD460BB090BD00E800FEE9
:1048200090B587B000AFF860080011007B600A24E3
:104830003B19021C1A8009203B180A1C1A703B19EC
:104840001B889B059A0D3B181B781904FF231B043A
:104850000B401A437B681A43BB6A13435B005B0837
:104860007B61FB681B685B68BA6A510D8022D200CD
:104870000A4007490A43D2431A401100FB681B68EB
:104880007A690A435A60C046BD4607B090BDC0462B
:10489000FF63FF0380B582B000AF786039607B684A
:1048A00041229B5CDBB2202B38D17B6840229B5C91
:1048B000012B01D1022332E07B684022012199546F
:1048C0007B684122242199547B681B681A687B68A5
:1048D0001B6801218A431A607B681B681A687B6821
:1048E0001B6811490A401A607B681B6819687B685D
:1048F0001B683A680A431A607B681B681A687B6801
:104900001B6801210A431A607B68412220219954C7
:104910007B68402200219954002300E00223180004
:10492000BD4602B080BDC046FFEFFFFF80B584B03A
:1049300000AF786039607B6841229B5CDBB2202B42
:1049400039D17B6840229B5C012B01D1022333E0EB
:104950007B684022012199547B684122242199548B
:104960007B681B681A687B681B6801218A431A6090
:104970007B681B681B68FB60FB68114A1340FB6087
:104980003B681B02FA681343FB607B681B68FA688C
:104990001A607B681B681A687B681B6801210A43E0
:1049A0001A607B684122202199547B6840220021B3
:1049B0009954002300E002231800BD4604B080BDD6
:1049C000FFF0FFFFB0B58AB000AF78607B68002BC6
:1049D00002D1012300F0AFFBCF4BDB680C22134068
:1049E0003B62CD4BDA6880235B021340FB617B683E
:1049F0001B680122134000D17EE03B6A082B07D0E0
:104A00003B6A0C2B12D1FA6980235B029A420DD1CA
:104A1000C14B1A6880239B02134000D16BE07B6876
:104A20005B68002B67D1012300F085FB7B685A6827
:104A300080235B029A4207D1B74B1A68B64B80219C
:104A400049020A431A6027E07B685A68A023DB0208
:104A50009A420ED1B04B1A68AF4B8021C9020A436B
:104A60001A60AD4B1A68AC4B802149020A431A60A8
:104A700012E0A94B1A68A84BA8490A401A60A64B35
:104A80001A6880235B021340FB60FB68A24B1A6824
:104A9000A14BA3490A401A607B685B68002B15D0C4
:104AA000FEF71AFF0300BB6109E0FEF715FF0200E5
:104AB000BB69D31A642B02D9032300F03CFB964B4D
:104AC0001A6880239B021340EFD015E0FEF704FF25
:104AD0000300BB6108E0FEF7FFFE0200BB69D31ACA
:104AE000642B01D9032326E38B4B1A6880239B0296
:104AF0001340F0D100E0C0467B681B6802221340DF
:104B000000D18BE07B68DB687B613B6A042B05D0BE
:104B10003B6A0C2B3ED1FB69002B3BD17E4B1B68C3
:104B20000422134004D07B69002B01D1012302E34E
:104B3000794B5B687B4A134019007B681B691A023A
:104B4000754B0A435A60744B1B6809229343190042
:104B5000714B7A690A431A6000F040FC01006E4B09
:104B6000DB681B090F2213406F4AD35C0A00DA404E
:104B70006E4B1A606E4B1B6813257C191800FEF7EC
:104B800065FE030023707B191B78002B46D07B1930
:104B90001B78D0E27B69002B27D05F4B1B68092272
:104BA000934319005C4B7A690A431A60FEF794FE3E
:104BB0000300BB6108E0FEF78FFE0200BB69D31A59
:104BC000022B01D90323B6E2534B1B680422134086
:104BD000F1D0514B5B68534A134019007B681B6945
:104BE0001A024D4B0A435A6018E04B4B1A684A4B65
:104BF00001218A431A60FEF76FFE0300BB6108E0E3
:104C0000FEF76AFE0200BB69D31A022B01D9032307
:104C100091E2414B1B6804221340F1D17B681B6871
:104C20001022134000D1A1E03B6A002B40D13A4B47
:104C30001A6880239B00134005D07B68DB69002B3A
:104C400001D1012377E2344B5B683A4A13401900E3
:104C50007B685A6A304B0A435A602F4B5B681B02D1
:104C6000190A7B681B6A1A062B4B0A435A607B6839
:104C70005B6A5B0B0133802212029A40264BDB6891
:104C80001B090F210B402849CB5CDA40274B1A60E7
:104C9000274B1B6813257C191800FEF7D7FD03006E
:104CA00023707B191B78002B60D07B191B7842E2A4
:104CB0007B68DB69002B3FD0174B1A68164B8021AD
:104CC00049000A431A60FEF707FE0300BB6108E0D3
:104CD000FEF702FE0200BB69D31A022B01D903239F
:104CE00029E20D4B1A6880239B001340F0D00A4B39
:104CF0005B68104A134019007B685A6A064B0A43E6
:104D00005A60054B5B681B02190A7B681B6A1A060E
:104D1000014B0A435A6029E000100240FFFFFEFFEA
:104D2000FFFFFBFFFFE0FFFF9C8100080000002069
:104D300004000020FF1FFFFFBD4B1A68BC4BBD499C
:104D40000A401A60FEF7C8FD0300BB6108E0FEF7E9
:104D5000C3FD0200BB69D31A022B01D90323EAE188
:104D6000B34B1A6880239B001340F0D17B681B680B
:104D70000822134036D07B685B69002B19D0AC4BFE
:104D80001A6DAB4B01210A431A65FEF7A5FD03001E
:104D9000BB6108E0FEF7A0FD0200BB69D31A022B3D
:104DA00001D90323C7E1A24B1B6D02221340F1D0AE
:104DB00018E09F4B1A6D9E4B01218A431A65FEF73E
:104DC0008BFD0300BB6108E0FEF786FD0200BB69B6
:104DD000D31A022B01D90323ADE1954B1B6D02229F
:104DE0001340F1D17B681B680422134000D1AEE070
:104DF00027203B1800221A708D4B9A6B80235B058D
:104E0000134009D18A4B9A6B894B802149050A438B
:104E10009A633B1801221A70874B1A6880235B0043
:104E200013401AD1844B1A68834B802149000A43EE
:104E30001A60FEF751FD0300BB6108E0FEF74CFD70
:104E40000200BB69D31A642B01D9032373E17A4BA7
:104E50001A6880235B001340F0D07B689A68802337
:104E60005B009A4207D1724B1A6D714B8021490049
:104E70000A431A6531E07B689B68002B0CD16C4BB0
:104E80001A6D6B4B6B490A401A65694B1A6D684B7A
:104E90006A490A401A6520E07B689A68A023DB0013
:104EA0009A420ED1624B1A6D614B8021C9000A43B0
:104EB0001A655F4B1A6D5E4B802149000A431A65E3
:104EC0000BE05B4B1A6D5A4B5A490A401A65584B16
:104ED0001A6D574B59490A401A657B689B68002B2D
:104EE00015D0FEF7F9FC0300BB6109E0FEF7F4FC06
:104EF0000200BB69D31A524A934201D903231AE133
:104F00004B4B1A6D80239B001340EFD014E0FEF74B
:104F1000E3FC0300BB6109E0FEF7DEFC0200BB69B5
:104F2000D31A474A934201D9032304E1404B1A6D37
:104F300080239B001340EFD12723FB181B78012B04
:104F400005D13B4B9A6B3A4B3E490A409A637B68CA
:104F50001B682022134049D07B689B69002B26D018
:104F6000334B9A68324B01210A439A60304B5A6B9B
:104F70002F4B01210A435A63334B1A6A324B80216B
:104F800089010A431A62FEF7A7FC0300BB6108E02F
:104F9000FEF7A2FC0200BB69D31A022B01D903233E
:104FA000C9E0234B9B6802221340F1D01EE0204B46
:104FB0009A681F4B01218A439A60234B1A6A224B3D
:104FC00022490A401A62FEF787FC0300BB6108E031
:104FD000FEF782FC0200BB69D31A022B01D903231E
:104FE000A9E0134B9B6802221340F1D17B689B6AB6
:104FF000002B00D19EE03B6A0C2B00D177E07B6850
:105000009B6A022B58D10A4B1A68094B10490A4077
:105010001A60FEF761FC0300BB611BE0FEF75CFC5D
:105020000200BB69D31A022B14D9032383E0C046C4
:1050300000100240FFFEFFFF00700040FFFBFFFF7B
:1050400088130000FFFFFFEF00000140FFDFFFFFBC
:10505000FFFFFFFE3A4B1A6880239B041340DDD10B
:10506000374BDB68374A134019007B68DA6A7B6884
:105070001B6B1A437B685B6B1A43314B0A43DA6044
:105080002F4B1A682E4B802149040A431A60FEF701
:1050900023FC0300BB6108E0FEF71EFC0200BB69B5
:1050A000D31A022B01D9032345E0254B1A6880232C
:1050B0009B041340F0D03DE0214B1A68204B22495D
:1050C0000A401A60FEF708FC0300BB6108E0FEF727
:1050D00003FC0200BB69D31A022B01D903232AE087
:1050E000174B1A6880239B041340F0D122E07B68A1
:1050F0009B6A012B01D101231DE0114BDB68FB6191
:10510000FA6980235B021A407B68DB6A9A420FD1FE
:10511000FA69F0239B031A407B681B6B9A4207D104
:10512000FA69C0231B041A407B685B6B9A4201D06A
:10513000012300E000231800BD460AB0B0BDC04600
:1051400000100240FFFF02FFFFFFFFFEB0B584B07A
:1051500000AF786039607B68002B01D1012328E122
:10516000964B1B68012213403A689A421ED9934B12
:105170001B68012293431900904B3A680A431A6056
:10518000FEF7AAFB0300FB6009E0FEF7A5FB0200A7
:10519000FB68D31A8A4A934201D9032309E1874B5A
:1051A0001B68012213403A689A42EED17B681B6863
:1051B0000222134009D0834BDB68F022934319008D
:1051C0007B689A687F4B0A43DA607B681B68012220
:1051D000134000D189E07B685B68022B07D1794BD3
:1051E0001A6880239B02134020D10123E1E07B68F1
:1051F0005B68032B07D1734B1A6880239B04134011
:1052000014D10123D5E07B685B68012B06D16D4B7F
:105210001B680422134009D10123CAE0694B1A68B4
:1052200080239B00134001D10123C2E0654BDB6862
:105230000322934319007B685A68624B0A43DA6081
:10524000FEF74AFB0300FB607B685B68022B11D111
:1052500009E0FEF741FB0200FB68D31A584A93426B
:1052600001D90323A5E0574BDB680C221340082B20
:10527000EFD13AE07B685B68032B11D109E0FEF7C0
:105280002BFB0200FB68D31A4D4A934201D903233A
:105290008FE04C4BDB680C2213400C2BEFD124E049
:1052A0007B685B68012B1BD109E0FEF715FB020050
:1052B000FB68D31A424A934201D9032379E0414B58
:1052C000DB680C221340042BEFD10EE0FEF704FB49
:1052D0000200FB68D31A3A4A934201D9032368E0DB
:1052E000384BDB680C221340F0D1344B1B68012291
:1052F00013403A689A421ED2304B1B6801229343F6
:1053000019002E4B3A680A431A60FEF7E5FA0300CB
:10531000FB6009E0FEF7E0FA0200FB68D31A284AB6
:10532000934201D9032344E0244B1B68012213401C
:105330003A689A42EED17B681B680422134009D078
:10534000204BDB68204A134019007B68DA681D4B4C
:105350000A43DA607B681B68082213400AD0194BA5
:10536000DB681A4A134019007B681B69DA00154B89
:105370000A43DA6000F032F80100124BDB681B09C7
:105380000F221340124AD35C0A00DA40114B1A6014
:10539000114B1B680B257C191800FEF757FA030008
:1053A00023707B191B78002B02D07B191B7800E03F
:1053B00000231800BD4604B0B0BDC0460020024026
:1053C0008813000000100240FFF8FFFFFFC7FFFF37
:1053D0009C8100080000002004000020B0B58EB0C1
:1053E00000AF4C4BDB68FB62FA6A0C2313400C2BBA
:1053F00014D000D97BE0042B02D0082B0BD076E030
:10540000444B1B681022134002D0434B3B637CE0AB
:10541000424B3B6379E0424B3B6376E0FB6A9A0C7C
:105420000F231A403F4B9B5CBB62FB6A9A0D032320
:10543000134001337B62374BDA6880235B021340F1
:105440001AD0BB6ABB610023FB61354A0023B869EF
:10545000F969FAF717FF02000B00100019007B6AC8
:105460003B6100237B613A697B69FAF7EBFE02003E
:105470000B0013007B6337E0264B1B6810221340A0
:105480001AD0BB6ABB600023FB60234A0023B868C4
:10549000F968FAF7F7FE02000B00100019007B6AAA
:1054A0003B6000237B603A687B68FAF7CBFE020022
:1054B0000B0013007B6317E0BB6A18000023190080
:1054C000164A0023FAF7DEFE02000B001000190056
:1054D0007B6A1C0000231D0022002B00FAF7B2FE9D
:1054E00002000B0013007B637B6B3B630DE0094BF9
:1054F0005B685B0B072213403B623B6A01338022EF
:1055000012029A4013003B63C0463B6B1800BD4635
:105510000EB0B0BD0010024000093D000024F400B0
:1055200000127A00B481000880B500AF024B1B68FE
:105530001800BD4680BDC0460000002080B500AF09
:10554000FFF7F2FF0100064BDB681B0A072213403E
:10555000044AD35CD9400B001800BD4680BDC0464C
:1055600000100240AC81000880B500AFFFF7DCFFFF
:105570000100064BDB68DB0A07221340044AD35CB8
:10558000D9400B001800BD4680BDC0460010024047
:10559000AC81000880B586B000AF78601723FB1897
:1055A00000221A707B681B682022134006D17B689A
:1055B0001A6880231B01134000D104E1B14B9A6BA0
:1055C00080235B0513400AD1AE4B9A6BAD4B802113
:1055D00049050A439A631723FB1801221A70AA4B44
:1055E0001A6880235B0013401AD1A74B1A68A64B98
:1055F000802149000A431A60FEF76EF903003B61FF
:1056000008E0FEF769F902003B69D31A642B01D95F
:10561000032333E19C4B1A6880235B001340F0D0D6
:10562000984B1A68C0239B031340FB607B685A6841
:10563000C0239B031340FA689A4207D17B689A689B
:10564000C0239B031340FA689A4213D07B685A68C0
:10565000C0239B021A40C0239B029A420AD1894B65
:105660001A6880239B021A4080239B029A4201D130
:10567000012303E1834B1A6DC0239B021340FB609F
:10568000FB68002B49D07B685A68C0239B021340FB
:10569000FA689A4204D07B681B68202213400DD11F
:1056A0007B689A68C0239B021340FA689A4234D000
:1056B0007B681A6880231B0113402ED0714B1B6D31
:1056C000724A1340FB606F4B1A6D6E4B80210903C9
:1056D0000A431A656B4B1A6D6A4B6D490A401A658D
:1056E000684BFA681A65FA6880235B00134014D08F
:1056F000FEF7F2F803003B6109E0FEF7EDF8020067
:105700003B69D31A634A934201D90323B6E05D4B48
:105710001A6D80239B001340EFD07B681A688023AA
:105720001B0113401FD07B689A68C0239B021A405C
:10573000C0239B029A420CD1524B1B68564A13401D
:1057400019007B689A68C0239B031A404D4B0A439B
:105750001A604C4B196D7B689A68C0239B021A40F3
:10576000484B0A431A657B681B68202213401FD0F0
:105770007B685A68C0239B021A40C0239B029A424E
:105780000CD1404B1B68444A134019007B685A688F
:10579000C0239B031A403B4B0A431A60394B196DD7
:1057A0007B685A68C0239B021A40364B0A431A652D
:1057B0001723FB181B78012B05D1324B9A6B314B09
:1057C00036490A409A637B681B680122134009D05E
:1057D0002C4BDB6C0322934319007B68DA68294B5E
:1057E0000A43DA647B681B680222134009D0254B08
:1057F000DB6C0C22934319007B681A69214B0A4326
:10580000DA647B681B680422134009D01D4BDB6CF3
:10581000234A134019007B685A691A4B0A43DA6419
:105820007B681B680822134009D0164BDB6C1D4AAD
:10583000134019007B689A69124B0A43DA647B684B
:105840001B684022134009D00E4BDB6C164A1340F4
:1058500019007B681A6A0B4B0A43DA647B681B6881
:105860008022134009D0074BDB6C104A134019000B
:105870007B68DA69034B0A43DA6400231800BD46EB
:1058800006B080BD0010024000700040FFFFFCFF2A
:10589000FFFFF7FF88130000FFFFCFFFFFFFFFEFC1
:1058A000FFF3FFFFFFCFFFFFFFFFFFFBFFFFF3FF54
:1058B000B0B584B000AF78600F23FB1801221A70D6
:1058C0007B68002B01D1012388E07B6821229B5C4F
:1058D000DBB2002B07D17B682022002199547B6822
:1058E0001800FDF7F3FC7B682122022199547B68A4
:1058F0001B68DB6810221340102B5FD07B681B688D
:10590000CA225A627B681B6853225A620F257C198F
:105910007B68180000F02CFC0300237028003B1863
:105920001B78002B2CD17B681B689A687B681B68EE
:105930002C490A409A607B681B6899687B685A68A2
:105940007B681B691A437B689B691A437B681B68E9
:105950000A439A607B681B687A68D2681A617B6820
:105960001B6819697B689B681A047B681B680A437B
:105970001A613C187B68180000F03EFC030023709D
:105980000F23FB181B78002B13D17B681B68DA6C84
:105990007B681B6803218A43DA647B681B68D96CC7
:1059A0007B68DA697B685B691A437B681B680A431A
:1059B000DA647B681B68FF225A6203E00F23FB183E
:1059C00000221A700F23FB181B78002B03D17B6871
:1059D0002122012199540F23FB181B781800BD4682
:1059E00004B0B0BDBFFF8FFFB0B586B000AFF860A8
:1059F000B9607A6000237B61FB6820229B5C012BED
:105A000001D1022392E0FB68202201219954FB6816
:105A10002122022199547B68002B25D1FB681B6849
:105A20009B684022134002D1BB680022DA70BB6839
:105A30001B78180000F00AFC03001C04BB685B78AC
:105A4000180000F003FC03001B021C43BB689B789A
:105A5000180000F0FBFB030022001A43BB68DB7850
:105A60009B0513437B6117E0FB681B689B68402222
:105A7000134002D1BB680022DA70BB681B781A049D
:105A8000BB685B781B021343BA6892781A43BB6801
:105A9000DB789B0513437B61FB681B68CA225A6253
:105AA000FB681B6853225A6213257C19FB68180097
:105AB00000F05EFB0300237028003B181B78002BCE
:105AC00020D1FB681B687A691A490A401A60FB6892
:105AD0001B689A68FB681B6817490A409A60FB6854
