:020000040800F2
:1000000000200020950600085D0600086306000831
:1000100000000000000000000000000000000000E0
:100020000000000000000000000000006906000859
:100030000000000000000000730600087D060008B4
:10004000E5060008E5060008E5060008E5060008E4
:10005000E5060008E5060008E5060008E5060008D4
:10006000E5060008E5060008E5060008E5060008C4
:10007000E5060008E506000800000000E5060008A7
:1000800000000000E506000800000000000000007D
:10009000E506000800000000E5060008E506000887
:1000A000E5060008E5060008E5060008E506000884
:1000B000E5060008E5060008E5060008E506000874
:1000C00010B5064C2378002B07D1054B002B02D02E
:1000D000044800E000BF0123237010BD0C00002085
:1000E0000000000084180008044B10B5002B03D05A
:1000F0000349044800E000BF10BDC04600000000F6
:100100001000002084180008002243088B4274D39A
:1001100003098B425FD3030A8B4244D3030B8B4208
:1001200028D3030C8B420DD3FF22090212BA030C11
:100130008B4202D31212090265D0030B8B4219D3F2
:1001400000E0090AC30B8B4201D3CB03C01A524112
:10015000830B8B4201D38B03C01A5241430B8B425A
:1001600001D34B03C01A5241030B8B4201D30B0343
:10017000C01A5241C30A8B4201D3CB02C01A52416A
:10018000830A8B4201D38B02C01A5241430A8B422D
:1001900001D34B02C01A5241030A8B4201D30B0216
:1001A000C01A5241CDD2C3098B4201D3CB01C01A30
:1001B000524183098B4201D38B01C01A524143093A
:1001C0008B4201D34B01C01A524103098B4201D328
:1001D0000B01C01A5241C3088B4201D3CB00C01A95
:1001E000524183088B4201D38B00C01A524143080D
:1001F0008B4201D34B00C01A5241411A00D2014632
:10020000524110467047FFE701B5002000F006F8A4
:1002100002BDC0460029F7D076E770477047C04658
:10022000002B11D1002A0FD1002900D1002802D0C3
:100230000021C943080007B4024802A140180290F7
:1002400003BDC046D9FFFFFF03B4684601B502985D
:1002500000F034F8019B9E4602B00CBC7047C046CB
:10026000F0B5CE469946030C9C46130447461B0C3A
:100270001D000E0061460404240C80B50700100C1C
:100280004B436543414360432C0CC01820188C46F7
:10029000834203D980235B029846C444494679438C
:1002A0005643030C2D042D0C891963440004401996
:1002B000C918C0BCB946B046F0BDC046F0B55746F7
:1002C0004E464546DE46E0B504000D00924699468E
:1002D00083B08B4230D82DD04946504600F0BAF852
:1002E00029000600200000F0B5F8331A9846203B9C
:1002F00034D49B4653465A46934042461F005346C9
:1003000093401E00AF423BD8AF4200D179E05B463C
:10031000A41BBD41002B00DA76E0002200230092EE
:10032000019301235A46934001930123424693408F
:10033000009329E08242CFD900220023009201934A
:100340000C9B002B01D01C605D600098019903B0EC
:10035000F0BCBB46B246A946A046F0BD42469B460D
:1003600020239B1A5246DA40414613004A468A40EF
:10037000170042461F43534693401E00AF42C3D965
:1003800000220023009201934346002BD8D0FB07A4
:1003900072081A4346467B080EE0AB4201D1A242E6
:1003A0000CD8A41A9D41012024196D410021013E61
:1003B00024184D41002E06D0AB42EED9013E24193F
:1003C0006D41002EF8D1009801995B4600196941F2
:1003D000002B24DB2B005A464446D3402A00E2403F
:1003E0001C005B461500002B2ADB26009E403300D4
:1003F00026004746BE403200801A99410090019184
:100400009EE7A342BCD882E74246202300219B1AE4
:100410000022009101920122DA40019285E74246D2
:1004200020239B1A2A0046469A402300F340444664
:1004300013432A00E2401C005B461500002BD4DA6F
:1004400042462F002023260097409B1ADE403B00A7
:100450003343CDE710B5002903D100F007F8203071
:1004600002E0080000F002F810BDC0461C21012384
:100470001B04984201D3000C10391B0A984201D387
:10048000000A08391B09984201D30009043902A265
:10049000105C40187047C0460403020201010101CC
:1004A000000000000000000080B582B000AF00F046
:1004B0001BF900F017F800F071F800237B60A0230F
:1004C000DB050121180000F0A9FB03007B607B68BD
:1004D000012BF4D1A023DB052021180000F0D8FB6C
:1004E000EDE7000090B595B000AF18243B19180057
:1004F00038231A00002101F099F93B1D180014233C
:100500001A00002101F092F9224B1B68224A1A407E
:10051000204B802109010A431A6021007B18022226
:100520001A607B180122DA607B1810221A617B188E
:1005300002229A627B180022DA627B1800221A6378
:100540007B18802212045A637B18180000F0BCFB51
:10055000031E01D000F068F83B1D0F221A603B1DFE
:1005600003225A603B1D00229A603B1D8022D2006C
:10057000DA603B1D8022D2001A613B1D0021180069
:1005800000F066FF031E01D000F04EF8C046BD46E5
:1005900015B090BD00700040FFE7FFFF80B586B04A
:1005A00000AF3B1D180014231A00002101F03EF992
:1005B0001C4BDA6A1B4B01210A43DA62194BDB6AD6
:1005C000012213403B603B68A023DB050022202171
:1005D000180000F040FB3B1D01221A603B1D002269
:1005E0005A603B1D01229A603A1DA023DB051100D1
:1005F000180000F09DF93B1D20221A603B1D0122CE
:100600005A603B1D00229A603B1D0022DA603A1DB1
:10061000A023DB051100180000F08AF9C046BD4692
:1006200006B080BD0010024080B500AF72B6C04673
:10063000FEE7000080B500AF074B5A6B064B012167
:100640000A435A63044B9A6B034B802149050A43C2
:100650009A63C046BD4680BD0010024080B500AF21
:10066000FEE780B500AFFEE780B500AFC046BD46EF
:1006700080BD80B500AFC046BD4680BD80B500AF2F
:1006800000F086F8C046BD4680BD80B500AFC046CC
:10069000BD4680BD0D488546FFF7F7FF0C480D4964
:1006A0000D4A002302E0D458C4500433C4188C42CD
:1006B000F9D30A4A0A4C002301E013600432A24233
:1006C000FBD301F0BBF8FFF7EFFEFEE700200020B0
:1006D000000000200C000020C81800080C000020BA
:1006E0002C000020FEE7000080B582B000AFFB1DAB
:1006F00000221A700B4B1A680A4B40210A431A60F9
:10070000002000F011F8031E03D0FB1D01221A7017
:1007100001E0FFF78FFFFB1D1B781800BD4602B0FC
:1007200080BDC0460020024090B583B000AF786025
:10073000144B1C68144B1B781900FA239800FFF720
:10074000E3FC030019002000FFF7DEFC03001800A3
:1007500000F0E1F8031E01D001230FE07B68032BBA
:100760000BD8796801235B420022180000F0BEF824
:10077000064B7A681A60002300E001231800BD468A
:1007800003B090BD000000200800002004000020FD
:1007900080B500AF054B1B781A00054B1B68D218BB
:1007A000034B1A60C046BD4680BDC046080000200D
:1007B0002800002080B500AF024B1B681800BD4622
:1007C00080BDC0462800002090B583B000AF020075
:1007D0003960FB1D1A70FB1D1B787F2B28D82F4A10
:1007E000FB1D1B785BB29B08C0339B009B58FA1D16
:1007F0001278110003220A40D200FF2191400A0022
:10080000D2431A4011003B689B01FF221A40FB1D96
:100810001B78180003230340DB009A401F48FB1D90
:100820001B785BB29B080A43C0339B001A5031E02F
:100830001B4AFB1D1B7819000F230B40083B9B082C
:1008400006339B00D31804331B68FA1D127811007D
:1008500003220A40D200FF2191400A00D2431A40ED
:1008600011003B689B01FF221A40FB1D1B781800FA
:1008700003230340DB009A400948FB1D1B781C0042
:100880000F232340083B9B080A4306339B00C318F1
:1008900004331A60C046BD4603B090BD00E100E0DD
:1008A00000ED00E080B582B000AF78607B685A1E32
:1008B00080235B049A4201D3012310E00A4B7A683B
:1008C000013A5A6001235B4203211800FFF77CFFC5
:1008D000054B00229A60044B07221A60002318007F
:1008E000BD4602B080BDC04610E000E080B584B0D7
:1008F00000AFB9607A600F217B18021C1A70BA68C9
:100900007B181B785BB211001800FFF75DFFC04633
:10091000BD4604B080BD80B582B000AF78607B6812
:100920001800FFF7BFFF03001800BD4602B080BDEE
:1009300080B586B000AF7860396000237B6100230A
:10094000FB6000233B614FE13B681B6801217A6932
:1009500091400A001340FB60FB68002B00D140E18E
:100960003B685B6803221340012B05D03B685B6842
:1009700003221340022B30D17B689B683B617B696B
:100980005B0003229A401300DA433B6913403B614A
:100990003B68DA687B695B009A4013003A6913434D
:1009A0003B617B683A699A607B685B683B610122C6
:1009B0007B699A401300DA433B6913403B613B6813
:1009C0005B681B0901221A407B699A4013003A694F
:1009D00013433B617B683A695A603B685B6803225A
:1009E0001340032B17D07B68DB683B617B695B009E
:1009F00003229A401300DA433B6913403B613B6892
:100A00009A687B695B009A4013003A6913433B6123
:100A10007B683A69DA603B685B6803221340022B0B
:100A200023D17B69DA087B6808329200D3583B6196
:100A30007B69072213409B000F229A401300DA4380
:100A40003B6913403B613B681A697B6907210B4096
:100A50009B009A4013003A6913433B617B69DA08B3
:100A60007B68083292003969D1507B681B683B6112
:100A70007B695B0003229A401300DA433B69134011
:100A80003B613B685B6803221A407B695B009A40CC
:100A900013003A6913433B617B683A691A603B680B
:100AA0005A68C0239B02134000D19AE0544B5A6B02
:100AB000534B01210A435A63524A7B699B08023314
:100AC0009B009B583B617B69032213409B000F22D4
:100AD0009A401300DA433B6913403B617A68A023D4
:100AE000DB059A4219D07B68474A934213D07B6852
:100AF000464A93420DD07B68454A934207D07B68B3
:100B0000444A934201D1052308E0062306E003236B
:100B100004E0022302E0012300E000237A690321BC
:100B20000A40920093403A6913433B6135497B691F
:100B30009B0802339B003A695A50374B9B683B61D4
:100B4000FB68DA433B6913403B613B685A6880238A
:100B50005B03134003D03A69FB6813433B612E4BA0
:100B60003A699A602C4BDB683B61FB68DA433B696E
:100B700013403B613B685A6880239B03134003D0BA
:100B80003A69FB6813433B61234B3A69DA60224BB5
:100B90005B683B61FB68DA433B6913403B613B6840
:100BA0005A6880239B02134003D03A69FB681343C1
:100BB0003B61194B3A695A60174B1B683B61FB68F4
:100BC000DA433B6913403B613B685A6880235B0210
:100BD000134003D03A69FB6813433B610E4B3A69FB
:100BE0001A607B6901337B613B681A687B69DA4074
:100BF000131E00D0A8E6C046C046BD4606B080BD64
:100C000000100240000001400004005000080050A5
:100C1000000C0050001C00500004014080B584B05E
:100C200000AF78600A00BB1C1A807B681B69BA1C85
:100C30001288134004D00F23FB1801221A7003E01E
:100C40000F23FB1800221A700F23FB181B781800C3
:100C5000BD4604B080BD80B582B000AF78600800AA
:100C60001100BB1C021C1A807B1C0A1C1A707B1C06
:100C70001B78002B04D0BB1C1A887B689A6103E0A8
:100C8000BB1C1A887B689A62C046BD4602B080BD14
:100C900080B584B000AF78600A00BB1C1A807B6806
:100CA0005B69FB60BB1C1B88FA6813401A04FB6875
:100CB000DB43B91C09880B401A437B689A61C04624
:100CC000BD4604B080BD0000B0B58AB000AF78600A
:100CD0007B68002B02D1012300F0AFFBCF4BDB6818
:100CE0000C2213403B62CD4BDA6880235B02134039
:100CF000FB617B681B680122134000D17EE03B6AE8
:100D0000082B07D03B6A0C2B12D1FA6980235B02B7
:100D10009A420DD1C14B1A6880239B02134000D127
:100D20006BE07B685B68002B67D1012300F085FBDB
:100D30007B685A6880235B029A4207D1B74B1A68D6
:100D4000B64B802149020A431A6027E07B685A6843
:100D5000A023DB029A420ED1B04B1A68AF4B802120
:100D6000C9020A431A60AD4B1A68AC4B8021490294
:100D70000A431A6012E0A94B1A68A84BA8490A4016
:100D80001A60A64B1A6880235B021340FB60FB6865
:100D9000A24B1A68A14BA3490A401A607B685B68A2
:100DA000002B15D0FFF706FD0300BB6109E0FFF73C
:100DB00001FD0200BB69D31A642B02D9032300F0A2
:100DC0003CFB964B1A6880239B021340EFD015E042
:100DD000FFF7F0FC0300BB6108E0FFF7EBFC02004B
:100DE000BB69D31A642B01D9032326E38B4B1A6802
:100DF00080239B021340F0D100E0C0467B681B6853
:100E00000222134000D18BE07B68DB687B613B6A88
:100E1000042B05D03B6A0C2B3ED1FB69002B3BD148
:100E20007E4B1B680422134004D07B69002B01D148
:100E3000012302E3794B5B687B4A134019007B680E
:100E40001B691A02754B0A435A60744B1B680922CE
:100E500093431900714B7A690A431A6000F040FC11
:100E600001006E4BDB681B090F2213406F4AD35CF5
:100E70000A00DA406E4B1A606E4B1B6813257C1912
:100E80001800FFF751FC030023707B191B78002B1F
:100E900046D07B191B78D0E27B69002B27D05F4BB3
:100EA0001B680922934319005C4B7A690A431A6054
:100EB000FFF780FC0300BB6108E0FFF77BFC02004A
:100EC000BB69D31A022B01D90323B6E2534B1B682B
:100ED00004221340F1D0514B5B68534A1340190070
:100EE0007B681B691A024D4B0A435A6018E04B4B52
:100EF0001A684A4B01218A431A60FFF75BFC030022
:100F0000BB6108E0FFF756FC0200BB69D31A022B55
:100F100001D9032391E2414B1B6804221340F1D114
:100F20007B681B681022134000D1A1E03B6A002BB4
:100F300040D13A4B1A6880239B00134005D07B6850
:100F4000DB69002B01D1012377E2344B5B683A4A1D
:100F5000134019007B685A6A304B0A435A602F4B82
:100F60005B681B02190A7B681B6A1A062B4B0A4333
:100F70005A607B685B6A5B0B0133802212029A40E5
:100F8000264BDB681B090F210B402849CB5CDA405C
:100F9000274B1A60274B1B6813257C191800FFF795
:100FA000C3FB030023707B191B78002B60D07B19D7
:100FB0001B7842E27B68DB69002B3FD0174B1A6835
:100FC000164B802149000A431A60FFF7F3FB030028
:100FD000BB6108E0FFF7EEFB0200BB69D31A022BEE
:100FE00001D9032329E20D4B1A6880239B0013408B
:100FF000F0D00A4B5B68104A134019007B685A6AAC
:10100000064B0A435A60054B5B681B02190A7B6852
:101010001B6A1A06014B0A435A6029E0001002407D
:10102000FFFFFEFFFFFFFBFFFFE0FFFF9C18000834
:101030000000002004000020FF1FFFFFBD4B1A68C6
:10104000BC4BBD490A401A60FFF7B4FB0300BB610B
:1010500008E0FFF7AFFB0200BB69D31A022B01D9EE
:101060000323EAE1B34B1A6880239B001340F0D1BD
:101070007B681B680822134036D07B685B69002BB5
:1010800019D0AC4B1A6DAB4B01210A431A65FFF71F
:1010900091FB0300BB6108E0FFF78CFB0200BB691A
:1010A000D31A022B01D90323C7E1A24B1B6D0222E5
:1010B0001340F1D018E09F4B1A6D9E4B01218A43DB
:1010C0001A65FFF777FB0300BB6108E0FFF772FBCF
:1010D0000200BB69D31A022B01D90323ADE1954B62
:1010E0001B6D02221340F1D17B681B680422134060
:1010F00000D1AEE027203B1800221A708D4B9A6B6E
:1011000080235B05134009D18A4B9A6B894B802160
:1011100049050A439A633B1801221A70874B1A68E3
:1011200080235B0013401AD1844B1A68834B8021C3
:1011300049000A431A60FFF73DFB0300BB6108E06A
:10114000FFF738FB0200BB69D31A642B01D90323D4
:1011500073E17A4B1A6880235B001340F0D07B6800
:101160009A6880235B009A4207D1724B1A6D714BCB
:10117000802149000A431A6531E07B689B68002B97
:101180000CD16C4B1A6D6B4B6B490A401A65694B5D
:101190001A6D684B6A490A401A6520E07B689A68B4
:1011A000A023DB009A420ED1624B1A6D614B802165
:1011B000C9000A431A655F4B1A6D5E4B80214900D6
:1011C0000A431A650BE05B4B1A6D5A4B5A490A40A9
:1011D0001A65584B1A6D574B59490A401A657B6876
:1011E0009B68002B15D0FFF7E5FA0300BB6109E00F
:1011F000FFF7E0FA0200BB69D31A524A934201D9C1
:1012000003231AE14B4B1A6D80239B001340EFD050
:1012100014E0FFF7CFFA0300BB6109E0FFF7CAFA59
:101220000200BB69D31A474A934201D9032304E160
:10123000404B1A6D80239B001340EFD12723FB18EE
:101240001B78012B05D13B4B9A6B3A4B3E490A4028
:101250009A637B681B682022134049D07B689B6996
:10126000002B26D0334B9A68324B01210A439A60F7
:10127000304B5A6B2F4B01210A435A63334B1A6A86
:10128000324B802189010A431A62FFF793FA030067
:10129000BB6108E0FFF78EFA0200BB69D31A022B8C
:1012A00001D90323C9E0234B9B6802221340F1D0EC
:1012B0001EE0204B9A681F4B01218A439A60234B02
:1012C0001A6A224B22490A401A62FFF773FA030096
:1012D000BB6108E0FFF76EFA0200BB69D31A022B6C
:1012E00001D90323A9E0134B9B6802221340F1D1DB
:1012F0007B689B6A002B00D19EE03B6A0C2B00D1DF
:1013000077E07B689B6A022B58D10A4B1A68094B1D
:1013100010490A401A60FFF74DFA0300BB611BE059
:10132000FFF748FA0200BB69D31A022B14D9032332
:1013300083E0C04600100240FFFEFFFF0070004047
:10134000FFFBFFFF88130000FFFFFFEF00000140DD
:10135000FFDFFFFFFFFFFFFE3A4B1A6880239B046D
:101360001340DDD1374BDB68374A134019007B68E7
:10137000DA6A7B681B6B1A437B685B6B1A43314BE1
:101380000A43DA602F4B1A682E4B802149040A4326
:101390001A60FFF70FFA0300BB6108E0FFF70AFAD3
:1013A0000200BB69D31A022B01D9032345E0254B68
:1013B0001A6880239B041340F0D03DE0214B1A684B
:1013C000204B22490A401A60FFF7F4F90300BB6181
:1013D00008E0FFF7EFF90200BB69D31A022B01D92D
:1013E00003232AE0174B1A6880239B041340F0D193
:1013F00022E07B689B6A012B01D101231DE0114B88
:10140000DB68FB61FA6980235B021A407B68DB6A58
:101410009A420FD1FA69F0239B031A407B681B6B39
:101420009A4207D1FA69C0231B041A407B685B6BA0
:101430009A4201D0012300E000231800BD460AB003
:10144000B0BDC04600100240FFFF02FFFFFFFFFEDD
:10145000B0B584B000AF786039607B68002B01D1F3
:10146000012328E1964B1B68012213403A689A42F7
:101470001ED9934B1B68012293431900904B3A6885
:101480000A431A60FFF796F90300FB6009E0FFF7D3
:1014900091F90200FB68D31A8A4A934201D90323C7
:1014A00009E1874B1B68012213403A689A42EED14A
:1014B0007B681B680222134009D0834BDB68F02253
:1014C000934319007B689A687F4B0A43DA607B6814
:1014D0001B680122134000D189E07B685B68022B06
:1014E00007D1794B1A6880239B02134020D1012336
:1014F000E1E07B685B68032B07D1734B1A6880239C
:101500009B04134014D10123D5E07B685B68012B59
:1015100006D16D4B1B680422134009D10123CAE098
:10152000694B1A6880239B00134001D10123C2E05C
:10153000654BDB680322934319007B685A68624B52
:101540000A43DA60FFF736F90300FB607B685B68EB
:10155000022B11D109E0FFF72DF90200FB68D31A25
:10156000584A934201D90323A5E0574BDB680C226C
:101570001340082BEFD13AE07B685B68032B11D155
:1015800009E0FFF717F90200FB68D31A4D4A9342AE
:1015900001D903238FE04C4BDB680C2213400C2B4A
:1015A000EFD124E07B685B68012B1BD109E0FFF7DA
:1015B00001F90200FB68D31A424A934201D903237E
:1015C00079E0414BDB680C221340042BEFD10EE095
:1015D000FFF7F0F80200FB68D31A3A4A934201D9A8
:1015E000032368E0384BDB680C221340F0D1344B06
:1015F0001B68012213403A689A421ED2304B1B6886
:101600000122934319002E4B3A680A431A60FFF7F0
:10161000D1F80300FB6009E0FFF7CCF80200FB689B
:10162000D31A284A934201D9032344E0244B1B6870
:10163000012213403A689A42EED17B681B6804226B
:10164000134009D0204BDB68204A134019007B6807
:10165000DA681D4B0A43DA607B681B680822134076
:101660000AD0194BDB681A4A134019007B681B69C2
:10167000DA00154B0A43DA6000F032F80100124B31
:10168000DB681B090F221340124AD35C0A00DA40C0
:10169000114B1A60114B1B680B257C191800FFF7C2
:1016A00043F8030023707B191B78002B02D07B19B1
:1016B0001B7800E000231800BD4604B0B0BDC04652
:1016C000002002408813000000100240FFF8FFFFD6
:1016D000FFC7FFFF9C180008000000200400002046
:1016E000B0B58EB000AF4C4BDB68FB62FA6A0C23DE
:1016F00013400C2B14D000D97BE0042B02D0082B14
:101700000BD076E0444B1B681022134002D0434BB1
:101710003B637CE0424B3B6379E0424B3B6376E0CA
:10172000FB6A9A0C0F231A403F4B9B5CBB62FB6A1F
:101730009A0D0323134001337B62374BDA68802311
:101740005B0213401AD0BB6ABB610023FB61354AC0
:101750000023B869F969FEF783FD02000B00100051
:1017600019007B6A3B6100237B613A697B69FEF764
:1017700057FD02000B0013007B6337E0264B1B680C
:10178000102213401AD0BB6ABB600023FB60234ABF
:101790000023B868F968FEF763FD02000B00100033
:1017A00019007B6A3B6000237B603A687B68FEF728
:1017B00037FD02000B0013007B6317E0BB6A1800C3
:1017C00000231900164A0023FEF74AFD02000B0011
:1017D000100019007B6A1C0000231D0022002B0052
:1017E000FEF71EFD02000B0013007B637B6B3B6367
:1017F0000DE0094B5B685B0B072213403B623B6AC1
:101800000133802212029A4013003B63C0463B6BB7
:101810001800BD460EB0B0BD0010024000093D00EA
:101820000024F40000127A00AC18000803008218AB
:10183000934200D1704719700133F9E770B5002663
:101840000C4C0D4D641BA410A64209D1002600F0DB
:1018500019F80A4C0A4D641BA410A64205D170BDAC
:10186000B300EB5898470136EEE7B300EB589847C2
:101870000136F2E7C0180008C0180008C4180008B4
:10188000C0180008F8B5C046F8BC08BC9E467047B2
:0C189000F8B5C046F8BC08BC9E46704786
:10189C000000000000000000010203040607080914
:0C18AC00030406080C1018203000000097
:0818B80004EAFF7F01000000BB
:0418C000E900000833
:0418C400C100000857
:0C18C800000020000400000001000000EF
:040000050800069554
:00000001FF
