:020000040800F2
:1000000000200020A5090008490900084F09000840
:1000100000000000000000000000000000000000E0
:10002000000000000000000000000000550900086A
:1000300000000000000000005F09000869090008D6
:10004000F5090008F509000879090008F509000814
:10005000F5090008F5090008F5090008F509000888
:10006000F5090008F5090008F5090008F509000878
:10007000F5090008F509000800000000F50900086E
:1000800000000000F509000800000000000000006A
:10009000F509000800000000F5090008F50900084E
:1000A000F5090008F5090008F5090008F509000838
:1000B000F5090008F5090008F5090008F509000828
:1000C00010B5064C2378002B07D1054B002B02D02E
:1000D000044800E000BF0123237010BD0C00002085
:1000E0000000000030350008044B10B5002B03D091
:1000F0000349044800E000BF10BDC04600000000F6
:100100001000002030350008002243088B4274D3D1
:1001100003098B425FD3030A8B4244D3030B8B4208
:1001200028D3030C8B420DD3FF22090212BA030C11
:100130008B4202D31212090265D0030B8B4219D3F2
:1001400000E0090AC30B8B4201D3CB03C01A524112
:10015000830B8B4201D38B03C01A5241430B8B425A
:1001600001D34B03C01A5241030B8B4201D30B0343
:10017000C01A5241C30A8B4201D3CB02C01A52416A
:10018000830A8B4201D38B02C01A5241430A8B422D
:1001900001D34B02C01A5241030A8B4201D30B0216
:1001A000C01A5241CDD2C3098B4201D3CB01C01A30
:1001B000524183098B4201D38B01C01A524143093A
:1001C0008B4201D34B01C01A524103098B4201D328
:1001D0000B01C01A5241C3088B4201D3CB00C01A95
:1001E000524183088B4201D38B00C01A524143080D
:1001F0008B4201D34B00C01A5241411A00D2014632
:10020000524110467047FFE701B5002000F006F8A4
:1002100002BDC0460029F7D076E770477047C04658
:10022000002B11D1002A0FD1002900D1002802D0C3
:100230000021C943080007B4024802A140180290F7
:1002400003BDC046D9FFFFFF03B4684601B502985D
:1002500000F034F8019B9E4602B00CBC7047C046CB
:10026000F0B5CE469946030C9C46130447461B0C3A
:100270001D000E0061460404240C80B50700100C1C
:100280004B436543414360432C0CC01820188C46F7
:10029000834203D980235B029846C444494679438C
:1002A0005643030C2D042D0C891963440004401996
:1002B000C918C0BCB946B046F0BDC046F0B55746F7
:1002C0004E464546DE46E0B504000D00924699468E
:1002D00083B08B4230D82DD04946504600F0BAF852
:1002E00029000600200000F0B5F8331A9846203B9C
:1002F00034D49B4653465A46934042461F005346C9
:1003000093401E00AF423BD8AF4200D179E05B463C
:10031000A41BBD41002B00DA76E0002200230092EE
:10032000019301235A46934001930123424693408F
:10033000009329E08242CFD900220023009201934A
:100340000C9B002B01D01C605D600098019903B0EC
:10035000F0BCBB46B246A946A046F0BD42469B460D
:1003600020239B1A5246DA40414613004A468A40EF
:10037000170042461F43534693401E00AF42C3D965
:1003800000220023009201934346002BD8D0FB07A4
:1003900072081A4346467B080EE0AB4201D1A242E6
:1003A0000CD8A41A9D41012024196D410021013E61
:1003B00024184D41002E06D0AB42EED9013E24193F
:1003C0006D41002EF8D1009801995B4600196941F2
:1003D000002B24DB2B005A464446D3402A00E2403F
:1003E0001C005B461500002B2ADB26009E403300D4
:1003F00026004746BE403200801A99410090019184
:100400009EE7A342BCD882E74246202300219B1AE4
:100410000022009101920122DA40019285E74246D2
:1004200020239B1A2A0046469A402300F340444664
:1004300013432A00E2401C005B461500002BD4DA6F
:1004400042462F002023260097409B1ADE403B00A7
:100450003343CDE710B5002903D100F007F8203071
:1004600002E0080000F002F810BDC0461C21012384
:100470001B04984201D3000C10391B0A984201D387
:10048000000A08391B09984201D30009043902A265
:10049000105C40187047C0460403020201010101CC
:1004A000000000000000000080B500AF00F0A4FADA
:1004B00000F008F800F056F900F024F900F07CF89C
:1004C000FEE7000090B59DB000AF38243B1918003E
:1004D00038231A00002102F0FFFF2423FB18180024
:1004E00014231A00002102F0F7FF3B001800242318
:1004F0001A00002102F0F0FF2D4B1B682D4A1A4014
:100500002B4B802109010A431A6021007B180A2223
:100510001A607B180122DA607B1810221A617B189E
:1005200001225A617B1802229A627B180022DA6249
:100530007B1800221A637B18802212045A637B18EE
:10054000180000F055FD031E01D000F07FF92421B2
:100550007B180F221A607B1803225A607B18002236
:100560009A607B188022D200DA607B188022D20049
:100570001A617B180021180001F0FEF8031E01D05B
:1005800000F064F93B0021221A603B000022DA608F
:100590003B00802292025A603B00180001F010FBE1
:1005A000031E01D000F052F9C046BD461DB090BDFB
:1005B00000700040FFE7FFFF80B590B000AF2C2334
:1005C000FB18180014231A00002102F085FF2823CD
:1005D000FB1800221A603B00180028231A00002193
:1005E00002F07AFF454B464A1A60444B00225A609B
:1005F000424B7F229A60414BFF22DA603F4B002240
:100600001A613E4B00225A613C4B00229A613B4BDF
:100610000022DA61394B180001F060FC031E01D0A2
:1006200000F014F92C217B1814221A707B18052273
:100630005A707B1801229A707B180022DA607B18AE
:1006400000221A6179182D4B0122180001F0E2FCFA
:10065000031E01D000F0FAF828217B1803221A703B
:100660007B1803225A707B1827229A707B18242249
:10067000DA707918214B0122180001F075FD031E74
:1006800001D000F0E3F83B0014221A703B00052271
:100690005A703B0000229A703B0000225A603B00D7
:1006A0000022DA603B0000221A613B0000225A61FE
:1006B0003B0000229A613B000022DA613B002022CD
:1006C000272199543B00802252005A6239000B4B7B
:1006D0000122180001F0DCFD031E01D000F0B6F885
:1006E000064B00220021180002F0ECF8031E01D096
:1006F00000F0ACF8C046BD4610B080BD2800002018
:100700000028004080B500AF144B154A1A60134B07
:10071000E12252025A60114B00229A600F4B0022D4
:10072000DA600E4B00221A610C4B0C225A610B4B03
:1007300000229A61094B0022DA61084B00221A62FA
:10074000064B00225A62054B180002F0C3F9031E43
:1007500001D000F07BF8C046BD4680BD4C000020B3
:100760000038014090B589B000AF0C243B19180047
:1007700014231A00002102F0AFFE1B4BDA6A1A4B59
:1007800004210A43DA62184BDB6A04221340BB607F
:10079000BB68154BDA6A144B01210A43DA62124B2B
:1007A000DB6A012213407B607B68A023DB0500220B
:1007B0002021180000F0E4FB21007B1820221A60A1
:1007C0007B1801225A607B1800229A607B18002255
:1007D000DA607A18A023DB051100180000F05AFA3D
:1007E000C046BD4609B090BD0010024090B58DB026
:1007F00000AF786080235A000824391978680023F4
:1008000001F0A8FE2200BB189B783A2B03D9BB1835
:1008100000229A7006E008217B189B780133DAB237
:100820007B189A70C0460823F9187B6800221800CC
:1008300001F02EFD031EF6D1A023DB0520211800B8
:1008400000F0BBFBC046BD460DB090BD80B500AF0B
:1008500072B6C046FEE7000080B500AF074B5A6B8A
:10086000064B01210A435A63044B9A6B034B8021C8
:1008700049050A439A63C046BD4680BD0010024048
:1008800080B582B000AF78607B681B680A4A9342EB
:100890000ED10A4B1A6D094B8021C9020A431A6511
:1008A00000220021022000F0C3F9022000F0D5F957
:1008B000C046BD4602B080BD002800400010024086
:1008C00090B589B000AF78600C243B191800142350
:1008D0001A00002102F000FE7B681B68184A934250
:1008E0002AD1184B5A6B174B8021C9010A435A630E
:1008F000144BDA6A134B01210A43DA62114BDB6AAB
:1009000001221340BB60BB683B19C022D2001A60B1
:1009100021007B1802225A607B1800229A607B1803
:100920000322DA607B1804221A617A18A023DB05FF
:100930001100180000F0AEF9C046BD4609B090BDE8
:10094000003801400010024080B500AFFEE780B5DE
:1009500000AFFEE780B500AFC046BD4680BD80B5A4
:1009600000AFC046BD4680BD80B500AF00F098F82E
:10097000C046BD4680BD000080B500AF054B1800E5
:1009800001F07CFE034B180002F016F8C046BD468D
:1009900080BDC0462800002080B500AFC046BD46DF
:1009A00080BD00000D488546FFF7F6FF0C480D4955
:1009B0000D4A002302E0D458C4500433C4188C42BA
:1009C000F9D30A4A0A4C002301E013600432A24220
:1009D000FBD302F089FDFFF767FDFEE70020002052
:1009E000000000200C000020C43500080C0000208E
:1009F000D8000020FEE7000080B582B000AFFB1DEC
:100A000000221A700B4B1A680A4B40210A431A60E5
:100A1000002000F011F8031E03D0FB1D01221A7004
:100A200001E0FFF719FFFB1D1B781800BD4602B05F
:100A300080BDC0460020024090B583B000AF786012
:100A4000144B1C68144B1B781900FA239800FFF70D
:100A50005BFB030019002000FFF756FB03001800A2
:100A600000F00BF9031E01D001230FE07B68032B7C
:100A70000BD8796801235B420022180000F0D8F8F7
:100A8000064B7A681A60002300E001231800BD4677
:100A900003B090BD000000200800002004000020EA
:100AA00080B500AF054B1B781A00054B1B68D218A8
:100AB000034B1A60C046BD4680BDC04608000020FA
:100AC000D400002080B500AF024B1B681800BD4663
:100AD00080BDC046D400002080B582B000AF0200C7
:100AE000FB1D1A70FB1D1B787F2B09D8FB1D1B7883
:100AF0001A001F231A40044B012191400A001A607A
:100B0000C046BD4602B080BD00E100E090B583B0B4
:100B100000AF02003960FB1D1A70FB1D1B787F2B94
:100B200028D82F4AFB1D1B785BB29B08C0339B0063
:100B30009B58FA1D1278110003220A40D200FF21AF
:100B400091400A00D2431A4011003B689B01FF22EA
:100B50001A40FB1D1B78180003230340DB009A405A
:100B60001F48FB1D1B785BB29B080A43C0339B00E8
:100B70001A5031E01B4AFB1D1B7819000F230B4054
:100B8000083B9B0806339B00D31804331B68FA1DEF
:100B90001278110003220A40D200FF2191400A007E
:100BA000D2431A4011003B689B01FF221A40FB1DF3
:100BB0001B78180003230340DB009A400948FB1D03
:100BC0001B781C000F232340083B9B080A43063375
:100BD0009B00C31804331A60C046BD4603B090BDE5
:100BE00000E100E000ED00E080B582B000AF786089
:100BF0007B685A1E80235B049A4201D3012310E0D4
:100C00000A4B7A68013A5A6001235B4203211800BB
:100C1000FFF77CFF054B00229A60044B07221A6005
:100C200000231800BD4602B080BDC04610E000E0C1
:100C300080B584B000AFB9607A600F217B18021CC8
:100C40001A70BA687B181B785BB211001800FFF7A6
:100C50005DFFC046BD4604B080BD80B582B000AF28
:100C60000200FB1D1A70FB1D1B785BB21800FFF71A
:100C700033FFC046BD4602B080BD80B582B000AF34
:100C800078607B681800FFF7AFFF03001800BD46CF
:100C900002B080BD80B586B000AF786039600023B7
:100CA0007B610023FB6000233B614FE13B681B68D5
:100CB00001217A6991400A001340FB60FB68002B18
:100CC00000D140E13B685B6803221340012B05D053
:100CD0003B685B6803221340022B30D17B689B6822
:100CE0003B617B695B0003229A401300DA433B6956
:100CF00013403B613B68DA687B695B009A401300F4
:100D00003A6913433B617B683A699A607B685B6828
:100D10003B6101227B699A401300DA433B6913402F
:100D20003B613B685B681B0901221A407B699A4062
:100D300013003A6913433B617B683A695A603B6828
:100D40005B6803221340032B17D07B68DB683B6191
:100D50007B695B0003229A401300DA433B6913402E
:100D60003B613B689A687B695B009A4013003A6973
:100D700013433B617B683A69DA603B685B68032236
:100D80001340022B23D17B69DA087B68083292007A
:100D9000D3583B617B69072213409B000F229A4086
:100DA0001300DA433B6913403B613B681A697B6976
:100DB00007210B409B009A4013003A6913433B61A3
:100DC0007B69DA087B68083292003969D1507B6808
:100DD0001B683B617B695B0003229A401300DA4386
:100DE0003B6913403B613B685B6803221A407B69A7
:100DF0005B009A4013003A6913433B617B683A6990
:100E00001A603B685A68C0239B02134000D19AE0E5
:100E1000544B5A6B534B01210A435A63524A7B6924
:100E20009B0802339B009B583B617B690322134064
:100E30009B000F229A401300DA433B6913403B6149
:100E40007A68A023DB059A4219D07B68474A93420F
:100E500013D07B68464A93420DD07B68454A934243
:100E600007D07B68444A934201D1052308E006235A
:100E700006E0032304E0022302E0012300E0002354
:100E80007A6903210A40920093403A6913433B6117
:100E900035497B699B0802339B003A695A50374BAE
:100EA0009B683B61FB68DA433B6913403B613B68ED
:100EB0005A6880235B03134003D03A69FB681343ED
:100EC0003B612E4B3A699A602C4BDB683B61FB68B7
:100ED000DA433B6913403B613B685A6880239B03BC
:100EE000134003D03A69FB6813433B61234B3A69D3
:100EF000DA60224B5B683B61FB68DA433B69134075
:100F00003B613B685A6880239B02134003D03A69D7
:100F1000FB6813433B61194B3A695A60174B1B68D6
:100F20003B61FB68DA433B6913403B613B685A68AD
:100F300080235B02134003D03A69FB6813433B6193
:100F40000E4B3A691A607B6901337B613B681A6812
:100F50007B69DA40131E00D0A8E6C046C046BD46F5
:100F600006B080BD001002400000014000040050A7
:100F700000080050000C0050001C0050000401400C
:100F800080B582B000AF786008001100BB1C021C65
:100F90001A807B1C0A1C1A707B1C1B78002B04D047
:100FA000BB1C1A887B689A6103E0BB1C1A887B68AB
:100FB0009A62C046BD4602B080BD80B584B000AF25
:100FC00078600A00BB1C1A807B685B69FB60BB1CF5
:100FD0001B88FA6813401A04FB68DB43B91C0988B4
:100FE0000B401A437B689A61C046BD4604B080BD81
:100FF000B0B58AB000AF78607B68002B02D10123C6
:1010000000F0AFFBCF4BDB680C2213403B62CD4BB3
:10101000DA6880235B021340FB617B681B68012256
:10102000134000D17EE03B6A082B07D03B6A0C2BB3
:1010300012D1FA6980235B029A420DD1C14B1A6822
:1010400080239B02134000D16BE07B685B68002B20
:1010500067D1012300F085FB7B685A6880235B021F
:101060009A4207D1B74B1A68B64B802149020A430E
:101070001A6027E07B685A68A023DB029A420ED1EF
:10108000B04B1A68AF4B8021C9020A431A60AD4BBE
:101090001A68AC4B802149020A431A6012E0A94B3E
:1010A0001A68A84BA8490A401A60A64B1A68802300
:1010B0005B021340FB60FB68A24B1A68A14BA3497B
:1010C0000A401A607B685B68002B15D0FFF7FAFCBA
:1010D0000300BB6109E0FFF7F5FC0200BB69D31A0E
:1010E000642B02D9032300F03CFB964B1A68802343
:1010F0009B021340EFD015E0FFF7E4FC0300BB6157
:1011000008E0FFF7DFFC0200BB69D31A642B01D9AA
:10111000032326E38B4B1A6880239B021340F0D1F4
:1011200000E0C0467B681B680222134000D18BE0C0
:101130007B68DB687B613B6A042B05D03B6A0C2B28
:101140003ED1FB69002B3BD17E4B1B680422134030
:1011500004D07B69002B01D1012302E3794B5B684A
:101160007B4A134019007B681B691A02754B0A43BE
:101170005A60744B1B68092293431900714B7A69BA
:101180000A431A6000F040FC01006E4BDB681B094B
:101190000F2213406F4AD35C0A00DA406E4B1A608C
:1011A0006E4B1B6813257C191800FFF745FC0300E4
:1011B00023707B191B78002B46D07B191B78D0E25B
:1011C0007B69002B27D05F4B1B68092293431900D2
:1011D0005C4B7A690A431A60FFF774FC0300BB6139
:1011E00008E0FFF76FFC0200BB69D31A022B01D99C
:1011F0000323B6E2534B1B6804221340F1D0514B3A
:101200005B68534A134019007B681B691A024D4BF7
:101210000A435A6018E04B4B1A684A4B01218A4333
:101220001A60FFF74FFC0300BB6108E0FFF74AFCC0
:101230000200BB69D31A022B01D9032391E2414B6F
:101240001B6804221340F1D17B681B6810221340F5
:1012500000D1A1E03B6A002B40D13A4B1A688023B1
:101260009B00134005D07B68DB69002B01D1012373
:1012700077E2344B5B683A4A134019007B685A6A3C
:10128000304B0A435A602F4B5B681B02190A7B687C
:101290001B6A1A062B4B0A435A607B685B6A5B0B1E
:1012A0000133802212029A40264BDB681B090F2172
:1012B0000B402849CB5CDA40274B1A60274B1B6850
:1012C00013257C191800FFF7B7FB030023707B1967
:1012D0001B78002B60D07B191B7842E27B68DB69AE
:1012E000002B3FD0174B1A68164B802149000A4348
:1012F0001A60FFF7E7FB0300BB6108E0FFF7E2FBC2
:101300000200BB69D31A022B01D9032329E20D4B3A
:101310001A6880239B001340F0D00A4B5B68104A88
:10132000134019007B685A6A064B0A435A60054B02
:101330005B681B02190A7B681B6A1A06014B0A4389
:101340005A6029E000100240FFFFFEFFFFFFFBFF95
:10135000FFE0FFFF483500080000002004000020E7
:10136000FF1FFFFFBD4B1A68BC4BBD490A401A6006
:10137000FFF7A8FB0300BB6108E0FFF7A3FB020037
:10138000BB69D31A022B01D90323EAE1B34B1A68D4
:1013900080239B001340F0D17B681B680822134018
:1013A00036D07B685B69002B19D0AC4B1A6DAB4B08
:1013B00001210A431A65FFF785FB0300BB6108E0C2
:1013C000FFF780FB0200BB69D31A022B01D903236C
:1013D000C7E1A24B1B6D02221340F1D018E09F4BD6
:1013E0001A6D9E4B01218A431A65FFF76BFB0300C0
:1013F000BB6108E0FFF766FB0200BB69D31A022B52
:1014000001D90323ADE1954B1B6D02221340F1D1AD
:101410007B681B680422134000D1AEE027203B18F4
:1014200000221A708D4B9A6B80235B05134009D103
:101430008A4B9A6B894B802149050A439A633B1872
:1014400001221A70874B1A6880235B0013401AD15F
:10145000844B1A68834B802149000A431A60FFF7C6
:1014600031FB0300BB6108E0FFF72CFB0200BB6906
:10147000D31A642B01D9032373E17A4B1A688023B2
:101480005B001340F0D07B689A6880235B009A422F
:1014900007D1724B1A6D714B802149000A431A65BE
:1014A00031E07B689B68002B0CD16C4B1A6D6B4B49
:1014B0006B490A401A65694B1A6D684B6A490A40C4
:1014C0001A6520E07B689A68A023DB009A420ED15F
:1014D000624B1A6D614B8021C9000A431A655F4B4C
:1014E0001A6D5E4B802149000A431A650BE05B4B85
:1014F0001A6D5A4B5A490A401A65584B1A6D574B88
:1015000059490A401A657B689B68002B15D0FFF784
:10151000D9FA0300BB6109E0FFF7D4FA0200BB6906
:10152000D31A524A934201D903231AE14B4B1A6D45
:1015300080239B001340EFD014E0FFF7C3FA0300B1
:10154000BB6109E0FFF7BEFA0200BB69D31A474A44
:10155000934201D9032304E1404B1A6D80239B0081
:101560001340EFD12723FB181B78012B05D13B4BF0
:101570009A6B3A4B3E490A409A637B681B6820226B
:10158000134049D07B689B69002B26D0334B9A6867
:10159000324B01210A439A60304B5A6B2F4B012189
:1015A0000A435A63334B1A6A324B802189010A433A
:1015B0001A62FFF787FA0300BB6108E0FFF782FABF
:1015C0000200BB69D31A022B01D90323C9E0234BC4
:1015D0009B6802221340F1D01EE0204B9A681F4BFB
:1015E00001218A439A60234B1A6A224B22490A40FE
:1015F0001A62FFF767FA0300BB6108E0FFF762FABF
:101600000200BB69D31A022B01D90323A9E0134BB3
:101610009B6802221340F1D17B689B6A002B00D1AA
:101620009EE03B6A0C2B00D177E07B689B6A022B23
:1016300058D10A4B1A68094B10490A401A60FFF743
:1016400041FA0300BB611BE0FFF73CFA0200BB69F3
:10165000D31A022B14D9032383E0C04600100240A2
:10166000FFFEFFFF00700040FFFBFFFF881300003C
:10167000FFFFFFEF00000140FFDFFFFFFFFFFFFE66
:101680003A4B1A6880239B041340DDD1374BDB684B
:10169000374A134019007B68DA6A7B681B6B1A4370
:1016A0007B685B6B1A43314B0A43DA602F4B1A6835
:1016B0002E4B802149040A431A60FFF703FA030006
:1016C000BB6108E0FFF7FEF90200BB69D31A022BE9
:1016D00001D9032345E0254B1A6880239B0413405E
:1016E000F0D03DE0214B1A68204B22490A401A6095
:1016F000FFF7E8F90300BB6108E0FFF7E3F9020038
:10170000BB69D31A022B01D903232AE0174B1A68AD
:1017100080239B041340F0D122E07B689B6A012B5D
:1017200001D101231DE0114BDB68FB61FA698023C5
:101730005B021A407B68DB6A9A420FD1FA69F02398
:101740009B031A407B681B6B9A4207D1FA69C0233E
:101750001B041A407B685B6B9A4201D0012300E0B6
:1017600000231800BD460AB0B0BDC04600100240BC
:10177000FFFF02FFFFFFFFFEB0B584B000AF78604F
:1017800039607B68002B01D1012328E1964B1B684F
:10179000012213403A689A421ED9934B1B680122DA
:1017A00093431900904B3A680A431A60FFF78AF98D
:1017B0000300FB6009E0FFF785F90200FB68D31A1C
:1017C0008A4A934201D9032309E1874B1B6801220E
:1017D00013403A689A42EED17B681B68022213409C
:1017E00009D0834BDB68F022934319007B689A6829
:1017F0007F4B0A43DA607B681B680122134000D1EB
:1018000089E07B685B68022B07D1794B1A688023DB
:101810009B02134020D10123E1E07B685B68032B2E
:1018200007D1734B1A6880239B04134014D1012302
:10183000D5E07B685B68012B06D16D4B1B680422E9
:10184000134009D10123CAE0694B1A6880239B0029
:10185000134001D10123C2E0654BDB6803229343AF
:1018600019007B685A68624B0A43DA60FFF72AF96D
:101870000300FB607B685B68022B11D109E0FFF776
:1018800021F90200FB68D31A584A934201D9032375
:10189000A5E0574BDB680C221340082BEFD13AE050
:1018A0007B685B68032B11D109E0FFF70BF902009D
:1018B000FB68D31A4D4A934201D903238FE04C4B66
:1018C000DB680C2213400C2BEFD124E07B685B68B3
:1018D000012B1BD109E0FFF7F5F80200FB68D31AD2
:1018E000424A934201D9032379E0414BDB680C2241
:1018F0001340042BEFD10EE0FFF7E4F80200FB6881
:10190000D31A3A4A934201D9032368E0384BDB6883
:101910000C221340F0D1344B1B68012213403A686B
:101920009A421ED2304B1B680122934319002E4B62
:101930003A680A431A60FFF7C5F80300FB6009E044
:10194000FFF7C0F80200FB68D31A284A934201D976
:10195000032344E0244B1B68012213403A689A4257
:10196000EED17B681B680422134009D0204BDB6852
:10197000204A134019007B68DA681D4B0A43DA607D
:101980007B681B68082213400AD0194BDB681A4A8F
:10199000134019007B681B69DA00154B0A43DA60B3
:1019A00000F032F80100124BDB681B090F221340D4
:1019B000124AD35C0A00DA40114B1A60114B1B68C3
:1019C0000B257C191800FFF737F8030023707B19EB
:1019D0001B78002B02D07B191B7800E00023180035
:1019E000BD4604B0B0BDC0460020024088130000D0
:1019F00000100240FFF8FFFFFFC7FFFF4835000857
:101A00000000002004000020B0B58EB000AF4C4BA9
:101A1000DB68FB62FA6A0C2313400C2B14D000D94C
:101A20007BE0042B02D0082B0BD076E0444B1B68E4
:101A30001022134002D0434B3B637CE0424B3B639C
:101A400079E0424B3B6376E0FB6A9A0C0F231A4025
:101A50003F4B9B5CBB62FB6A9A0D0323134001332F
:101A60007B62374BDA6880235B0213401AD0BB6A73
:101A7000BB610023FB61354A0023B869F969FEF7B1
:101A8000EFFB02000B00100019007B6A3B61002392
:101A90007B613A697B69FEF7C3FB02000B00130010
:101AA0007B6337E0264B1B68102213401AD0BB6AB9
:101AB000BB600023FB60234A0023B868F968FEF787
:101AC000CFFB02000B00100019007B6A3B60002373
:101AD0007B603A687B68FEF7A3FB02000B001300F3
:101AE0007B6317E0BB6A180000231900164A002325
:101AF000FEF7B6FB02000B00100019007B6A1C0009
:101B000000231D0022002B00FEF78AFB02000B00C1
:101B100013007B637B6B3B630DE0094B5B685B0BE6
:101B2000072213403B623B6A0133802212029A4033
:101B300013003B63C0463B6B1800BD460EB0B0BD02
:101B40000010024000093D000024F40000127A0059
:101B50006035000880B500AF024B1B681800BD4619
:101B600080BDC0460000002080B500AFFFF7F2FF47
:101B70000100064BDB681B0A07221340044AD35CB2
:101B8000D9400B001800BD4680BDC0460010024081
:101B90005835000880B500AFFFF7DCFF0100064BA9
:101BA000DB68DB0A07221340044AD35CD9400B00F0
:101BB0001800BD4680BDC0460010024058350008E0
:101BC00080B586B000AF78601723FB1800221A702A
:101BD0007B681B682022134006D17B681A6880232B
:101BE0001B01134000D104E1B14B9A6B80235B05CC
:101BF00013400AD1AE4B9A6BAD4B802149050A4385
:101C00009A631723FB1801221A70AA4B1A688023C3
:101C10005B0013401AD1A74B1A68A64B80214900DC
:101C20000A431A60FEF74EFF03003B6108E0FEF72F
:101C300049FF02003B69D31A642B01D9032333E126
:101C40009C4B1A6880235B001340F0D0984B1A68B5
:101C5000C0239B031340FB607B685A68C0239B032F
:101C60001340FA689A4207D17B689A68C0239B03A5
:101C70001340FA689A4213D07B685A68C0239B02CB
:101C80001A40C0239B029A420AD1894B1A688023CA
:101C90009B021A4080239B029A4201D1012303E157
:101CA000834B1A6DC0239B021340FB60FB68002B23
:101CB00049D07B685A68C0239B021340FA689A4255
:101CC00004D07B681B68202213400DD17B689A6882
:101CD000C0239B021340FA689A4234D07B681A688A
:101CE00080231B0113402ED0714B1B6D724A134091
:101CF000FB606F4B1A6D6E4B802109030A431A6516
:101D00006B4B1A6D6A4B6D490A401A65684BFA684D
:101D10001A65FA6880235B00134014D0FEF7D2FEE8
:101D200003003B6109E0FEF7CDFE02003B69D31AD8
:101D3000634A934201D90323B6E05D4B1A6D8023B9
:101D40009B001340EFD07B681A6880231B0113406F
:101D50001FD07B689A68C0239B021A40C0239B0255
:101D60009A420CD1524B1B68564A134019007B68AB
:101D70009A68C0239B031A404D4B0A431A604C4B90
:101D8000196D7B689A68C0239B021A40484B0A432E
:101D90001A657B681B68202213401FD07B685A6835
:101DA000C0239B021A40C0239B029A420CD1404B95
:101DB0001B68444A134019007B685A68C0239B0380
:101DC0001A403B4B0A431A60394B196D7B685A68BD
:101DD000C0239B021A40364B0A431A651723FB188F
:101DE0001B78012B05D1324B9A6B314B36490A4097
:101DF0009A637B681B680122134009D02C4BDB6C73
:101E00000322934319007B68DA68294B0A43DA649A
:101E10007B681B680222134009D0254BDB6C0C2227
:101E2000934319007B681A69214B0A43DA647B6883
:101E30001B680422134009D01D4BDB6C234A13405E
:101E400019007B685A691A4B0A43DA647B681B687D
:101E50000822134009D0164BDB6C1D4A13401900B1
:101E60007B689A69124B0A43DA647B681B684022DC
:101E7000134009D00E4BDB6C164A134019007B68E7
:101E80001A6A0B4B0A43DA647B681B688022134092
:101E900009D0074BDB6C104A134019007B68DA69E4
:101EA000034B0A43DA6400231800BD4606B080BD28
:101EB0000010024000700040FFFFFCFFFFFFF7FF33
:101EC00088130000FFFFCFFFFFFFFFEFFFF3FFFFCF
:101ED000FFCFFFFFFFFFFFFBFFFFF3FFB0B584B0B5
:101EE00000AF78600F23FB1801221A707B68002B6B
:101EF00001D1012388E07B6821229B5CDBB2002BAF
:101F000007D17B682022002199547B681800FEF7D6
:101F1000B7FC7B682122022199547B681B68DB682F
:101F200010221340102B5FD07B681B68CA225A62B4
:101F30007B681B6853225A620F257C197B68180046
:101F400000F012FC0300237028003B181B78002BC4
:101F50002CD17B681B689A687B681B682C490A40F7
:101F60009A607B681B6899687B685A687B681B6904
:101F70001A437B689B691A437B681B680A439A6013
:101F80007B681B687A68D2681A617B681B6819696C
:101F90007B689B681A047B681B680A431A613C18BB
:101FA0007B68180000F024FC030023700F23FB184B
:101FB0001B78002B13D17B681B68DA6C7B681B686D
:101FC00003218A43DA647B681B68D96C7B68DA6911
:101FD0007B685B691A437B681B680A43DA647B6829
:101FE0001B68FF225A6203E00F23FB1800221A70BD
:101FF0000F23FB181B78002B03D17B6821220121C2
:1020000099540F23FB181B781800BD4604B0B0BDCF
:10201000BFFF8FFFB0B586B000AFF860B9607A60DF
:1020200000237B61FB6820229B5C012B01D10223F2
:1020300092E0FB68202201219954FB6821220221B1
:1020400099547B68002B25D1FB681B689B68402254
:10205000134002D1BB680022DA70BB681B781800FD
:1020600000F0F0FB03001C04BB685B78180000F074
:10207000E9FB03001B021C43BB689B78180000F0BF
:10208000E1FB030022001A43BB68DB789B05134386
:102090007B6117E0FB681B689B684022134002D1FC
:1020A000BB680022DA70BB681B781A04BB685B78D7
:1020B0001B021343BA6892781A43BB68DB789B050E
:1020C00013437B61FB681B68CA225A62FB681B686A
:1020D00053225A6213257C19FB68180000F044FB58
:1020E0000300237028003B181B78002B20D1FB68CD
:1020F0001B687A691A490A401A60FB681B689A686B
:10210000FB681B6817490A409A60FB681B6899685E
:10211000BB68DA68BB681B691A43FB681B680A4323
:102120009A603C18FB68180000F062FB0300237003
:102130001323FB181B78002B03D1FB6821220121FC
:102140009954FB681B68FF225A62FB682022002119
:1021500099541323FB181B781800BD4606B0B0BD78
:102160007F7F7F00FFFFFBFFB0B586B000AFF86058
:10217000B9607A6000237B61FB6820229B5C012BA5
:1021800001D102237EE0FB68202201219954FB68E3
:102190002122022199547B68002B0ED1BB685B7809
:1021A0001A001023134008D0BB685B7810229343B9
:1021B000DBB20A33DAB2BB685A707B68002B1CD1E1
:1021C000BB68DB78180000F03DFB03001C04BB6813
:1021D0005B78180000F036FB03001B021C43BB6851
:1021E0009B78180000F02EFB030022001A43BB6806
:1021F0001B785B0313437B610EE0BB68DB781A043A
:10220000BB685B781B021343BA6892781A43BB68B9
:102210001B785B0313437B61FB681B68CA225A620D
:10222000FB681B6853225A6213257C19FB6818004F
:1022300000F09AFA0300237028003B181B78002B4B
:102240000CD1FB681B687A6910490A405A603C1837
:10225000FB68180000F0CCFA030023701323FB186E
:102260001B78002B03D1FB68212201219954FB68C4
:102270001B68FF225A62FB68202200219954132315
:10228000FB181B781800BD4606B0B0BD3FFFFF002D
:1022900090B589B000AFF860B9607A60A74B1B6851
:1022A000FA22D1011800FDF72FFF03001A001300D6
:1022B0005B019B1A9B009B18DB007B610023FB6189
:1022C0000023BB61FB6820229B5C012B01D1022310
:1022D00030E1FB68202201219954FB682122022170
:1022E00099547B68002B36D1FB681B689B684022A1
:1022F000134002D1BB680022DA70BB681B7818005B
:1023000000F0A0FA03001C04BB685B78180000F022
:1023100099FA03001B021C43BB689B78180000F06D
:1023200091FA030022001A43BB68DB789B051A432D
:102330001400BB6820229B5C180000F083FA0300A5
:102340001B0622001A43BB68DB691A43BB685B6942
:102350001343FB6122E0FB681B689B68402213402B
:1023600002D1BB680022DA70BB681B781A04BB6814
:102370005B781B021343BA6892781A43BB68DB7818
:102380009B051A43BB6820215B5C1B061A43BB6894
:10239000DB691A43BB685B691343FB61BB685A681E
:1023A000BB689B691343BB61FB681B68CA225A6206
:1023B000FB681B6853225A62BB685A6A80235B0021
:1023C0009A4246D1FB681B689A68FB681B685C49A7
:1023D0000A409A60FB681B68DB68FF221A40FB68B2
:1023E0001B6858490A43DA607B69013B7B617B6962
:1023F000002B0DD1FB681B68FF225A62FB6821226B
:1024000003219954FB68202200219954032391E071
:10241000FB681B68DB6801221340E5D0FB681B6882
:10242000FA69DA61FB681B68BA695A64FB681B6861
:102430009A68FB681B68802149000A439A60FB6820
:102440001B689A68FB681B68802149010A439A60EF
:1024500055E0FB681B689A68FB681B683A490A40AC
:102460009A60FB681B68DB68FF221A40FB681B68E8
:1024700036490A43DA60314B1B68FA22D101180051
:10248000FDF742FE03001A0013005B019B1A9B003C
:102490009B18DB007B617B69013B7B617B69002BC7
:1024A0000DD1FB681B68FF225A62FB6821220321C1
:1024B0009954FB6820220021995403233AE0FB68D9
:1024C0001B68DB6802221340E5D0FB681B68FA69D1
:1024D0001A62FB681B68BA699A64FB681B689A6891
:1024E000FB681B68802189000A439A60FB681B68AF
:1024F0009A68FB681B68802189010A439A60144B23
:102500001A68134B802189020A431A60104B9A689B
:102510000F4B802189020A439A60FB681B68FF22E7
:102520005A62FB68212201219954FB682022002174
:10253000995400231800BD4609B090BD000000204A
:10254000FFFEFFFF7FFEFFFFFFFDFFFF7FFDFFFFA1
:102550000004014080B586B000AFF860B9607A60D1
:102560003B6000237B6100233B617A6880235B0032
:102570009A420ED1BB68802252005A62FB681B68E7
:10258000DB697B61FB681B685B6C5B045B0C3B611C
:102590000DE0BB68802292005A62FB681B681B6AD0
:1025A0007B61FB681B689B6C5B045B0C3B617B691C
:1025B0001B0CDBB23F221340DAB2BB681A707B6996
:1025C0001B0ADBB27F221340DAB2BB685A707B6908
:1025D000DBB27F221340DAB2BB689A707B699B0D35
:1025E000DBB201221340DAB2BB68DA70BB683A6929
:1025F0005A607B691B0EDBB23F221340D9B2BB6825
:10260000202299547A698023DB051A40BB68DA617D
:102610007B69194A1A40BB685A613B68002B25D177
:10262000BB681B78180000F02EF903001A00BB6885
:102630001A70BB685B78180000F025F903001A00D7
:10264000BB685A70BB689B78180000F01CF9030047
:102650001A00BB689A70BB6820229B5C180000F0CF
:1026600012F903001900BB682022995400231800B6
:10267000BD4606B080BDC0468080808080B582B0F7
:1026800000AF7860214B802292025A617B681B6800
:102690009A6880235B01134014D07B681B68DA685A
:1026A00080235B0013400DD07B681B68DB68FF2232
:1026B0001A407B681B6816490A43DA607B68180079
:1026C000FEF794F87B681B689A6880239B0113408F
:1026D00014D07B681B68DA6880239B0013400DD000
:1026E0007B681B68DB68FF221A407B681B6809490E
:1026F0000A43DA607B68180000F0E4F97B68212265
:1027000001219954C046BD4602B080BD000401407D
:102710007FFEFFFF7FFDFFFF80B584B000AF7860D4
:102720000023FB607B681B680E4ADA60FEF7CAF97B
:102730000300FB600AE0FEF7C5F90200FB68D21A4D
:10274000FA239B009A4201D9032306E07B681B68A9
:10275000DB6820221340EED000231800BD4604B0F1
:1027600080BDC0465F7F010080B584B000AF786057
:102770000023BB600F23FB1800221A707B681B68C4
:10278000DB68402213402CD17B681B68DA687B68C9
:102790001B6880210A43DA60FEF794F90300BB60EE
:1027A00014E0FEF78FF90200BB68D21A0F203B1825
:1027B000391809781970FA239B009A4206D97B6868
:1027C0002122042199543B1801221A707B681B684E
:1027D000DB684022134004D10F23FB181B78012B28
:1027E000DFD10F23FB181B781800BD4604B080BD55
:1027F00090B585B000AF78600F243B1900221A70A5
:102800007B681B68DA687B681B6880218A43DA6012
:102810007B681B689B68202213400CD17B681800E2
:10282000FFF77AFF031E06D07B682122042199540A
:102830003B1901221A700F23FB181B781800BD46A4
:1028400005B090BD80B584B000AF0200FB1D1A70CA
:102850000023FB6007E0FB680133FB60FB1DFA1DF2
:1028600012780A3A1A70FB1D1B78092BF3D8FB6803
:10287000DBB21B01DAB2FB1D1B781343DBB218007D
:10288000BD4604B080BD80B584B000AF0200FB1D22
:102890001A700023FB60FB1D1B781B09DBB21A00BA
:1028A00013009B009B185B00FB60FB68DAB2FB1D0A
:1028B0001B780F210B40DBB2D318DBB21800BD46EA
:1028C00004B080BD80B586B000AFF860B9607A60B2
:1028D00000237B61FB6820229B5C012B01D102233A
:1028E0005EE0FB68202201219954FB68212202212D
:1028F0009954FB681B689B682B4A13407B617A697B
:10290000BB6813437B61FB681B68CA225A62FB6881
:102910001B6853225A62FB681B687A699A60FB68DD
:102920001B68DB68FF221A40FB681B681F490A43CB
:10293000DA60FB681B68DB68FF221A40FB681B68D3
:102940001B490A43DA60FB681B689A68FB681B68CE
:10295000802109010A439A60FB681B689A68FB683A
:102960001B68802109020A439A60FB681B68FF22EA
:102970005A62104B1A680F4B802109030A431A60F0
:102980000C4B9A680B4B802109030A439A60FB6841
:10299000212201219954FB6820220021995400230F
:1029A0001800BD4606B080BDF7F7FFFF7FF7FFFFB9
:1029B0007FEFFFFF0004014080B582B000AF786078
:1029C0002E4B802212035A617B681B689A68802311
:1029D0001B02134014D07B681B68DA6880231B013C
:1029E00013400DD07B68180000F054F87B681B681A
:1029F000DB68FF221A407B681B6821490A43DA60C2
:102A00007B681B681B6C1F4A134014D07B681B68D3
:102A1000DA6880239B0113400DD07B681B68DB685C
:102A2000FF221A407B681B6817490A43DA607B68FB
:102A3000180000F037F87B681B681B6C134A1340C2
:102A400014D07B681B68DA688023DB0113400DD04B
:102A50007B681B68DB68FF221A407B681B680C4997
:102A60000A43DA607B68180000F024F87B682122B2
:102A700001219954C046BD4602B080BD000401400A
:102A80007FF7FFFF040001007FDFFFFF0400080065
:102A90007FBFFFFF80B582B000AF7860C046BD4603
:102AA00002B080BD80B582B000AF7860C046BD4640
:102AB00002B080BD80B582B000AF7860C046BD4630
:102AC00002B080BD80B582B000AF7860C046BD4620
:102AD00002B080BD80B582B000AF78607B68002B0B
:102AE00001D1012344E07B68DB6F002B07D17B68B9
:102AF0007822002199547B681800FDF7E1FE7B687D
:102B00002422DA677B681B681A687B681B680121CE
:102B10008A431A607B68180000F030F80300012B2C
:102B200001D1012324E07B685B6A002B03D07B6822
:102B3000180000F0A7FA7B681B685A687B681B685E
:102B40000D490A405A607B681B689A687B681B685D
:102B50002A218A439A607B681B681A687B681B6815
:102B600001210A431A607B68180000F03FFB030054
:102B70001800BD4602B080BDFFB7FFFFB0B58EB0F4
:102B800000AFF8611A2318229B18DB1900221A7073
:102B9000FB699A68FB691B691A43FB695B691A4305
:102BA000FB69DB6913437B63FB691B681B68C64ACF
:102BB00013401900FB691B687A6B0A431A60FB69B2
:102BC0001B685B68C14A13401900FB69DA68FB693E
:102BD0001B680A435A60FB699B697B63FB691B683E
:102BE000BB4A934204D0FB691B6A7A6B13437B6335
:102BF000FB691B689B68B74A13401900FB691B6897
:102C00007A6B0A439A60FB691B68B34A934231D1DD
:102C1000B24BDB6C03221340032B1DD023D8022BB5
:102C20000CD020D8002B02D0012B0ED01BE01B2390
:102C300018229B18DB1901221A709CE01B23182212
:102C40009B18DB1902221A7095E01B2318229B188F
:102C5000DB1904221A708EE01B2318229B18DB1943
:102C600008221A7087E01B2318229B18DB191022F8
:102C70001A7080E0FB691B68994A934231D1974BE7
:102C8000DB6C0C2213400C2B1DD023D8082B0CD04E
:102C900020D8002B02D0042B0ED01BE01B231822BF
:102CA0009B18DB1900221A7065E01B2318229B1861
:102CB000DB1902221A705EE01B2318229B18DB1915
:102CC00004221A7057E01B2318229B18DB190822D4
:102CD0001A7050E01B2318229B18DB1910221A705F
:102CE00049E0FB691B687A4A93423ED17B4BDA6C20
:102CF000C0231B011340C0221201934227D0C022DF
:102D0000120193422AD880221201934211D08022CC
:102D10001201934222D8002B04D08022D200934289
:102D20000ED01BE01B2318229B18DB1900221A70FF
:102D300021E01B2318229B18DB1902221A701AE0CB
:102D40001B2318229B18DB1904221A7013E01B2383
:102D500018229B18DB1908221A700CE01B2318227A
:102D60009B18DB1910221A7005E01B2318229B18F0
:102D7000DB1910221A70FB691B68554A934200D078
:102D800084E01B2318229B18DB191B78082B1DD00D
:102D900020DC042B15D01DDC002B02D0022B05D02B
:102DA00018E0FEF7E1FE0300FB621CE04B4B1B68E2
:102DB0001022134002D04B4BFB6214E04A4BFB62E3
:102DC00011E0FEF721FE0300FB620CE080231B02F2
:102DD000FB6208E00023FB621A2318229B18DB1910
:102DE00001221A70C046FB6A002B00D132E1FB6958
:102DF0005A6813005B009B18FA6A9A4205D3FB6974
:102E00005B681B03FA6A9A4206D91A2318229B1898
:102E1000DB1901221A701DE1FB6A3B6100237B6113
:102E200039697A690B001B0E100005021D430B0067
:102E30001C02FB695B685B08BB600023FB60B86831
:102E4000F96800196941FB695B683B6000237B609E
:102E50003A687B68FDF7E4F902000B001300BB62DF
:102E6000BA6AC0239B009A4209D3BA6A80235B03E3
:102E70009A4204D2FB691B68BA6ADA60EAE01A2354
:102E800018229B18DB1901221A70E3E0FB69DA694A
:102E900080231B029A4200D085E01B2318229B1836
:102EA000DB191B78082B37D89A00104BD3181B68F6
:102EB0009F46FEF759FE0300FB6236E0FEF76AFE0E
:102EC0000300FB6231E0C046F369FFEFFFCFFFFF75
:102ED00000480040FFF4FFFF0038014000100240AE
:102EE0000044004000093D000024F4006C35000857
:102EF000604B1B681022134002D05F4BFB6214E052
:102F00005E4BFB6211E0FEF77FFD0300FB620CE00D
:102F100080231B02FB6208E00023FB621A231822B5
:102F20009B18DB1901221A70C046FB6A002B00D1E6
:102F300090E0FB6A5A00FB695B685B08D218FB698A
:102F40005B6819001000FDF7DFF80300BB62BB6A85
:102F50000F2B21D9BA6A80235B029A421CD2BB6A2A
:102F60009AB20E2018240319DB190F218A431A8004
:102F7000BB6A5B089BB20722134099B20319DB19A5
:102F80000219D21912880A431A80FB691B680219B8
:102F9000D2191288DA605DE01A2318229B18DB1917
:102FA00001221A7056E01B2318229B18DB191B788C
:102FB000082B22D89A00324BD3181B689F46FEF785
:102FC000D3FD0300FB6221E0FEF7E4FD0300FB629A
:102FD0001CE0284B1B681022134002D0264BFB62DA
:102FE00014E0264BFB6211E0FEF70EFD0300FB62CE
:102FF0000CE080231B02FB6208E00023FB621A2323
:1030000018229B18DB1901221A70C046FB6A002B9C
:1030100020D0FB695B685A08FB6AD218FB695B68C1
:1030200019001000FDF770F80300BB62BB6A0F2B9C
:103030000AD9BA6A80235B029A4205D2BB6A9AB265
:10304000FB691B68DA6005E01A2318229B18DB195C
:1030500001221A70FB6900229A66FB690022DA6677
:103060001A2318229B18DB191B781800BD460EB0D6
:10307000B0BDC0460010024000093D000024F4002D
:103080009035000880B582B000AF78607B685B6ADD
:10309000012213400BD07B681B685B684A4A1340CF
:1030A00019007B689A6A7B681B680A435A607B68D0
:1030B0005B6A022213400BD07B681B685B68434A43
:1030C000134019007B68DA6A7B681B680A435A6000
:1030D0007B685B6A042213400BD07B681B685B68CB
:1030E0003B4A134019007B681A6B7B681B680A43D4
:1030F0005A607B685B6A082213400BD07B681B68B0
:103100005B68344A134019007B685A6B7B681B6804
:103110000A435A607B685B6A102213400BD07B68BD
:103120001B689B682C4A134019007B689A6B7B686C
:103130001B680A439A607B685B6A202213400BD0AD
:103140007B681B689B68254A134019007B68DA6B13
:103150007B681B680A439A607B685B6A4022134065
:103160001DD07B681B685B681D4A134019007B6893
:103170001A6C7B681B680A435A607B681A6C802350
:103180005B039A420BD17B681B685B68154A13404E
:1031900019007B685A6C7B681B680A435A607B681D
:1031A0005B6A802213400BD07B681B685B680E4A09
:1031B000134019007B689A6C7B681B680A435A604D
:1031C000C046BD4602B080BDFFFFFDFFFFFFFEFF12
:1031D000FFFFFBFFFF7FFFFFFFEFFFFFFFDFFFFFB3
:1031E000FFFFEFFFFFFF9FFFFFFFF7FF80B592B0EC
:1031F00002AF78607B68842200219950FDF762FC61
:103200000300FB637B681B681B6808221340082BC4
:103210002CD1FB6B802291037868464A00920022F1
:1032200000F08CF8031E21D0EFF310837B627B6AE1
:10323000BB630123BB62BB6A83F31088C0467B6813
:103240001B681A687B681B6880218A431A60BB6B05
:10325000FB62FB6A83F31088C0467B682022DA6732
:103260007B6878220021995403235FE07B681B6808
:103270001B6804221340042B46D1FB6B8022D10330
:1032800078682C4A0092002200F058F8031E3BD0C8
:10329000EFF31083FB60FB687B6301233B613B69B9
:1032A00083F31088C0467B681B681A687B681B68BC
:1032B00021490A401A607B6B7B617B6983F310882C
:1032C000C046EFF31083BB61BB693B630123FB6125
:1032D000FB6983F31088C0467B681B689A687B682B
:1032E0001B6801218A439A603B6B3B623B6A83F314
:1032F0001088C0467B688022202199507B68782204
:1033000000219954032311E07B682022DA677B684F
:103310008022202199507B6800221A667B68002257
:103320005A667B6878220021995400231800BD4614
:1033300010B080BDFFFFFF01DFFEFFFF80B584B04E
:1033400000AFF860B9603B60FB1D1A704BE0BB69D1
:10335000013348D0FDF7B6FB02003B68D31ABA69C7
:103360009A4202D3BB69002B01D103234BE0FB68D7
:103370001B681B680422134035D0FB681B68DB699F
:1033800008221340082B11D1FB681B6808221A621F
:10339000FB68180000F03CF8FB6884220821995073
:1033A000FB6878220021995401232CE0FB681B68FC
:1033B000DA6980231B011A4080231B019A4212D133
:1033C000FB681B68802212011A62FB68180000F07B
:1033D0001FF8FB68842220219950FB687822002185
:1033E000995403230FE0FB681B68DB69BA6813403C
:1033F000BA68D31A5A425341DBB21A00FB1D1B783C
:103400009A42A4D000231800BD4604B080BD00003D
:1034100080B58EB000AF7860EFF310837B617B697D
:103420007B630123BB61BB6983F31088C0467B6863
:103430001B681A687B681B6826490A401A607B6B08
:10344000FB61FB6983F31088C046EFF310833B6296
:103450003B6A3B6301237B627B6A83F31088C0462F
:103460007B681B689A687B681B6801218A439A60A5
:103470003B6BBB62BB6A83F31088C0467B681B6EE4
:10348000012B18D1EFF31083BB60BB68FB620123F3
:10349000FB60FB6883F31088C0467B681B681A6872
:1034A0007B681B6810218A431A60FB6A3B613B6999
:1034B00083F31088C0467B688022202199507B6866
:1034C00000221A667B6800229A66C046BD460EB08E
:1034D00080BDC046DFFEFFFF03008218934200D18B
:1034E000704719700133F9E770B500260C4C0D4D8B
:1034F000641BA410A64209D1002600F019F80A4C5A
:103500000A4D641BA410A64205D170BDB300EB5850
:1035100098470136EEE7B300EB5898470136F2E7DB
:10352000BC350008BC350008C0350008BC350008B3
:10353000F8B5C046F8BC08BC9E467047F8B5C04612
:08354000F8BC08BC9E46704770
:10354800000000000000000001020304060708094B
:103558000000000001020304030406080C101820F0
:1035680030000000B22E0008BC2E0008F02E000823
:10357800182F0008062F0008182F0008182F000819
:10358800182F0008102F0008BE2F0008C82F0008A9
:10359800D22F0008FA2F0008E82F0008FA2F000899
:0C35A800FA2F0008FA2F0008F22F00088C
:0835B40008CDFF7F01000000BB
:0435BC00E90000081A
:0435C000C10000083E
:0C35C400000020000400000001000000D6
:04000005080009A541
:00000001FF
