:020000040800F2
:1000000000200020E9060008C5060008C706000811
:1000100000000000000000000000000000000000E0
:10002000000000000000000000000000C9060008F9
:100030000000000000000000CB060008CD0600080C
:100040003907000839070008390700083907000890
:100050003907000839070008390700083907000880
:100060003907000839070008390700083907000870
:1000700039070008390700080000000039070008A8
:100080000000000039070008000000000000000028
:100090003907000800000000390700083907000888
:1000A000390700083907000839070008D506000895
:1000B0003907000839070008390700083907000820
:1000C00010B5064C2378002B07D1054B002B02D02E
:1000D000044800E000BF0123237010BD0C00002085
:1000E0000000000010200008044B10B5002B03D0C6
:1000F0000349044800E000BF10BDC04600000000F6
:10010000100000201020000802B471464908490080
:10011000095C49008E4402BC7047C04603B4714676
:10012000490840004900095E49008E4403BC7047FD
:10013000002243088B4274D303098B425FD3030A26
:100140008B4244D3030B8B4228D3030C8B420DD339
:10015000FF22090212BA030C8B4202D312120902C7
:1001600065D0030B8B4219D300E0090AC30B8B4205
:1001700001D3CB03C01A5241830B8B4201D38B03B3
:10018000C01A5241430B8B4201D34B03C01A524158
:10019000030B8B4201D30B03C01A5241C30A8B429B
:1001A00001D3CB02C01A5241830A8B4201D38B0286
:1001B000C01A5241430A8B4201D34B02C01A52412A
:1001C000030A8B4201D30B02C01A5241CDD2C3099C
:1001D0008B4201D3CB01C01A524183098B4201D318
:1001E0008B01C01A524143098B4201D34B01C01A03
:1001F000524103098B4201D30B01C01A5241C3087B
:100200008B4201D3CB00C01A524183088B4201D3E9
:100210008B00C01A524143088B4201D34B00C01AD5
:100220005241411A00D20146524110467047FFE741
:1002300001B5002000F006F802BDC0460029F7D045
:1002400076E770477047C046002B11D1002A0FD1C6
:10025000002900D1002802D00021C943080007B4BA
:10026000024802A14018029003BDC046D9FFFFFF1B
:1002700003B4684601B5029800F034F8019B9E462D
:1002800002B00CBC7047C046F0B5CE469946030C90
:100290009C46130447461B0C1D000E0061460404D7
:1002A000240C80B50700100C4B4365434143604369
:1002B0002C0CC01820188C46834203D980235B0283
:1002C0009846C444494679435643030C2D042D0CEB
:1002D0008919634400044019C918C0BCB946B04626
:1002E000F0BDC046F0B557464E464546DE46E0B541
:1002F00004000D009246994683B08B4230D82DD031
:100300004946504600F0BAF829000600200000F0E7
:10031000B5F8331A9846203B34D49B4653465A4688
:10032000934042461F00534693401E00AF423BD8C5
:10033000AF4200D179E05B46A41BBD41002B00DA3F
:1003400076E0002200230092019301235A46934055
:100350000193012342469340009329E08242CFD982
:1003600000220023009201930C9B002B01D01C6003
:100370005D600098019903B0F0BCBB46B246A94647
:10038000A046F0BD42469B4620239B1A5246DA40C7
:10039000414613004A468A40170042461F435346CF
:1003A00093401E00AF42C3D9002200230092019364
:1003B0004346002BD8D0FB0772081A4346467B08F9
:1003C0000EE0AB4201D1A2420CD8A41A9D410120FB
:1003D00024196D410021013E24184D41002E06D004
:1003E000AB42EED9013E24196D41002EF8D10098A0
:1003F00001995B4600196941002B24DB2B005A460A
:100400004446D3402A00E2401C005B461500002B06
:100410002ADB26009E40330026004746BE403200BD
:10042000801A9941009001919EE7A342BCD882E7CF
:100430004246202300219B1A0022009101920122B2
:10044000DA40019285E7424620239B1A2A0046465D
:100450009A402300F340444613432A00E2401C0024
:100460005B461500002BD4DA42462F0020232600DD
:1004700097409B1ADE403B003343CDE710B500297F
:1004800003D100F007F8203002E0080000F002F885
:1004900010BDC0461C2101231B04984201D3000C4F
:1004A00010391B0A984201D3000A08391B099842E7
:1004B00001D30009043902A2105C40187047C046FD
:1004C000040302020101010100000000000000001D
:1004D000FA2370B5064D074C29009B000522200029
:1004E00001F0D5FB29000522200001F02FFD70BD91
:1004F000280000203C00002010B59CB024220021E0
:100500000FA801F058FD14220021684601F053FDA8
:100510002422002105A801F04EFD1C491C4B0A684D
:1005200001241A4080231B0113430B6002230E9306
:100530001893002319938023DB021A93802310223F
:10054000DB030EA8119412921B9300F001FB00280C
:1005500001D072B6FEE70F230290009303900C3B8C
:10056000049021006846019300F074FD002801D03A
:1005700072B6FEE7089005A8059400F059FE002821
:1005800001D072B6FEE71CB010BDC046007000403E
:10059000FFE7FFFF30B5012487B000F0F3F8FFF765
:1005A000ABFF1422002101A801F005FDA0201F4B84
:1005B0002021DA6AC0052243DA62DB6A0022234086
:1005C0000093009B00F06EFAA02000252023C005B8
:1005D00001A9019302940395049500F0A1F9144C2C
:1005E000144B20002360E1235B0263600C23A560B1
:1005F000E56025616361A561E5612562656201F0E1
:100600000DFCA84201D072B6FEE720000522A0250D
:10061000FA24094901F09AFCED05A40028002021E4
:1006200000F046FA200000F0D3F8F7E7001002408F
:100630003C00002000380140280000200122054B2A
:10064000596B0A435A638022996B52050A439A6395
:100650007047C0460010024010B5040086B0142256
:10066000002101A801F0A7FC144B22689A4223D173
:100670008022134BD201596BA0200A4301215A63F7
:10068000DA6AC0050A43DA62DB6A0B400093009B1A
:10069000C023DB000193022302935B1804935B18D1
:1006A00001A9059300F03CF900221B20110000F085
:1006B000A1F81B2000F0C8F806B010BD00380140BA
:1006C00000100240FEE7FEE77047704710B500F0EB
:1006D0006DF810BD10B5024800F0E0FE10BDC04638
:1006E0003C000020704700000D488546FFF7FAFFE8
:1006F0000C480D490D4A002302E0D458C45004337D
:10070000C4188C42F9D30A4A0A4C002301E0136052
:100710000432A242FBD301F057FCFFF73BFFFEE798
:1007200000200020000000200C0000206C200008A9
:100730000C000020C8000020FEE7000070B5050096
:10074000FA200D4B80001978FFF7F2FC0B4C0100EA
:100750002068FFF7EDFC00F083F804000120002C76
:1007600009D1032D07D802382200290000F042F8F1
:100770002000034B1D6070BD04000020000000201D
:10078000080000204023084A10B5116800200B43E0
:100790001360FFF7D3FF041E03D1FFF74FFF2000C4
:1007A00010BD0124FBE7C04600200240034A044B71
:1007B00011681B785B1813607047C046C4000020A6
:1007C00004000020014B18687047C046C400002098
:1007D00070B50400FFF7F6FF0500631C02D0044B60
:1007E0001B78E418FFF7EEFF401BA042FAD370BD60
:1007F0000400002030B5FF2503242A000440E40053
:10080000A24089012940D243A140C3B200280ADB9B
:10081000C0240B4B80088000C018A400035913406B
:100820000B43035130BD0F200340083B05489B0894
:100830009B001B18D86902400A43DA61F2E7C04600
:1008400000E100E000ED00E0002805DB1F23184078
:100850001E3B8340014A13607047C04600E100E040
:100860008022431E5204012093420DD2C021074A28
:1008700007485360036A09061B021B0A0B43036205
:1008800000200723906013607047C04610E000E02E
:1008900000ED00E030B5841DE27F0300022A06D09F
:1008A0000422C263012000220533DA7730BD0268DA
:1008B0000E2011681C2581431160012110688843B6
:1008C00010605A6C186C2A400D009540456000205D
:1008D000E177E8E770B5841DE37F022B04D00423A1
:1008E000C363033B180070BD0E2103681C251A6802
:1008F0008A431A600122196891431960436C016CA4
:100900002B4015009D404D60E2770024431DDC77AD
:10091000826B1300A242E5D090472300E2E700007B
:10092000594AF0B58218541EA241002387B00532FF
:1009300005920A681400DC4001D107B0F0BD012423
:100940002500A4469D4014002C4002942A4200D168
:1009500098E003244A685F0001922240BC40E443CF
:100960000394541E64452FD88668039C2640CC68A7
:10097000BC403443664684604468AC432500019C17
:10098000240934409C402C434460C568039C2540A6
:100990008C68BC402C43C460022A17D107250F265F
:1009A0001D40AD00AE40B446DC08A4000419049418
:1009B000246A26006446A643B4460E696446AE40E7
:1009C0002643049C266201E0032ADED1BA40046873
:1009D000039D25402A430260C022019C92021442DA
:1009E00050D00127294C1D00626B3A436263284AAC
:1009F0009C08A400A418A268944603221540AD00E8
:100A00000C32AA4066469643A022D20594460022A4
:100A100060450DD01F4A94463A00604508D01E4FED
:100A20009218B84204D01D4F0132B84200D0059A46
:100A3000AA403243A2601A4A029C9668029D019F16
:100A4000E4433543FF0201D4350025409560D66864
:100A5000029D019F3543BF0201D435002540D5607A
:100A60005668029D019F3543BF0301D435002540E0
:100A700055601568029E019F2E43FF0301D4254057
:100A80002E001660013354E700E4FFAF001002406F
:100A9000000001400004005000080050000C00500D
:100AA00000040140002A01D0816170478162FCE7A7
:100AB000426913000B401B0491430B438361704751
:100AC0000C221D4B70B5DC682240082A31D00C2A5C
:100AD00009D0042A25D11868184BC006C017184041
:100AE000174BC01870BDA2021648120F805C8022FE
:100AF0002402D968A40F52020134114209D0124ACB
:100B000000230021FFF7C0FB22000023FFF79CFB1E
:100B1000E8E71A6810231A4201D00C4AF0E7084AA5
:100B2000EEE780205B6800021B045B0F01339840F6
:100B3000D8E70548D6E7C0460010024000E548FF68
:100B40000024F4004020000800127A0000093D0053
:100B5000F0B5050085B0002859D00C23BE4C0268C2
:100B6000E668E7681E4080235B0219001F40D20739
:100B700041D42B689B0700D58AE02B68DB0628D57B
:100B8000002E00D0DBE023689B0502D5EB69002B2B
:100B90003DD080276268B1496B6A0A401A435B0BFB
:100BA00001333F029F40626061682A6A0902090AB4
:100BB00012060A436260E168A9480B061B0FC35C7A
:100BC000A84ADF40A84B17601868FFF7B7FD002858
:100BD00034D12B681B0700D5E8E02B685B0700D5F4
:100BE0000AE12B689B0600D58FE1AB6A002B00D091
:100BF000BEE1002022E0082E03D00C2E09D1002FE8
:100C000007D023689B03B4D56B68002BB1D10120BA
:100C100014E06A688A4213D1226813432360FFF705
:100C2000D1FD00908022236892021342A1D1FFF7E8
:100C3000C9FD009BC01A6428F4D9032005B0F0BD9B
:100C4000A021C9028A4205D180222168D2020A432A
:100C50002260E1E7216885480140216021680B405E
:100C60000393039B824923680B402360002AD6D15B
:100C7000FFF7A8FD0090802223689202134200D162
:100C800077E7FFF79FFD009BC01A6428F3D9D4E7EC
:100C9000EA68042E03D00C2E24D1002F22D1236821
:100CA0005B0701D5002AB2D061682B6971481B022D
:100CB00001400B430921636023688B431343236086
:100CC000FFF7FEFEE368664A1B061B0FD35C65490F
:100CD000D840654B08601868FFF730FD002800D148
:100CE0004BE7ABE72368002A18D009218B43134355
:100CF0002360FFF767FD070004222368134207D033
:100D000062682B695B491B020A401343636034E746
:100D1000FFF758FDC01B0228EED98EE7012293434E
:100D20002360FFF74FFD070004222368134200D120
:100D300023E7FFF747FDC01B0228F5D97DE7EB69E4
:100D4000002B20D0802322685B0013432360FFF731
:100D500039FD070080222368920013420DD063689A
:100D60003E4A13406A6A1343636062682B6A120248
:100D70001B06120A134363602BE7FFF723FDC01B1A
:100D80000228E7D959E723683B4A13402360FFF75D
:100D900019FD0700802223689200134200D118E752
:100DA000FFF710FDC01B0228F4D946E76A6901234A
:100DB000002A10D0226D13432365FFF703FD0700BF
:100DC0000222236D134200D007E7FFF7FBFCC01B94
:100DD0000228F5D931E7226D9A432265FFF7F2FC2C
:100DE00007000222236D134200D1F6E6FFF7EAFC6A
:100DF000C01B0228F5D920E780230021A26B5B05E8
:100E000000911A4204D1A26B1343A3630123009300
:100E100080221A4F52003B68134208D08022AB68F0
:100E2000520093422CD1226D134323654DE0802262
:100E30003B68520013433B60FFF7C4FC01908022E3
:100E40003B6852001342E9D1FFF7BCFC019BC01A7A
:100E50006428F4D9F1E6C04600100240FF1FFFFFEE
:100E6000282000080000002008000020FFFFFEFFEF
:100E7000FFFFFBFFFFE0FFFFFFFEFFFF00700040F2
:100E8000002B16D1236D6B4A13402365236D6A4AEC
:100E900013402365FFF796FC07008022236D920024
:100EA00013421AD0FFF78EFC644BC01B9842F4D952
:100EB000C3E6A021C9008B4218D18023216DDB003D
:100EC0000B432365236D1A432265FFF77BFC070064
:100ED0008022236D9200134210D0009B012B00D082
:100EE0007FE6A36B564A1340A3637AE6236D514A0B
:100EF00013402365236D504A134096E7FFF762FCC9
:100F00004E4BC01B9842E3D997E6AA6901214D4B8D
:100F1000002A18D0A2680A43A260626B0A43626387
:100F20008022196A92010A431A62FFF74BFC0700FC
:100F30000222A368134200D057E6FFF743FCC01B10
:100F40000228F5D979E6A2688A43A2601A6A3E4966
:100F50000A401A62FFF736FC07000222A368134218
:100F600000D142E6FFF72EFCC01B0228F5D964E64B
:100F70000C2E43D0354A022B2ED1236880271340F4
:100F80002360FFF71FFC0600BF0423683B421DD10E
:100F9000296BEB6AE2680B432D4980260A40134314
:100FA0006A6BB6041343E360802322685B04134337
:100FB0002360FFF707FC05002368334200D018E6E2
:100FC000FFF700FC401B0228F6D936E6FFF7FAFBD4
:100FD000801B0228D9D930E623688026134023607D
:100FE000FFF7F0FB0500B6042368334200D100E6AA
:100FF000FFF7E8FB401B0228F6D91EE61800012B7C
:1010000000D11BE68022E368E96A52021A408A4254
:1010100000D0FCE5F022296B92031A408A4200D0EE
:10102000F5E5C022120413406A6B934200D1E0E55B
:10103000EDE5C046FFFEFFFFFFFBFFFF881300004A
:10104000FFFFFFEF00000140FFDFFFFFFFFFFFFE9C
:10105000FFFF02FFF7B5041E019101D10120FEBD83
:1010600001255B4E019A33682B40934231D32268AD
:10107000930743D4D20749D401253368019A2B4002
:10108000934209D93368AB433360FFF79BFB0700FA
:1010900033682B4200D08CE022684E4D530700D5B8
:1010A0008FE0120706D5EA6823694B49DB000A4046
:1010B0001343EB60FFF704FDEB68484A1B061B0F68
:1010C000D35C4749D840474B08601868FFF736FBA8
:1010D000C5E73368019AAB4313433360FFF772FBF4
:1010E00007003368019A2B409342C0D0FFF76AFB98
:1010F0003D4BC01B9842F4D90320B0E7F02035499E
:10110000CB688343A0680343CB60B3E7314D62688B
:101110002B68022A18D19B03A0D50321EB688B43CF
:101120001343EB60FFF74EFB63680700022B18D1F7
:101130000C22EB681340082B9ED0FFF743FB2A4B91
:10114000C01B9842F4D9D7E7032A02D19B01E4D40B
:1011500084E7012A02D15B07DFD47FE79B05DCD45B
:101160007CE7032B0BD10C22EB681340934283D016
:10117000FFF728FB1C4BC01B9842F4D9BCE7012B9E
:1011800011D00C22EB68134200D175E7FFF71AFB70
:10119000154BC01B9842F4D9AEE7FFF713FB124B77
:1011A000C01B9842A8D80C22EB681340042BF4D142
:1011B00062E7FFF707FB0C4BC01B984200D867E7BC
:1011C0009AE7EB6809490B40E1680B43EB6068E77D
:1011D0000020024000100240FFC7FFFF2820000847
:1011E000000000200800002088130000FFF8FFFF27
:1011F000044B054ADB6805495B055B0FCB5C106857
:10120000D84070470010024000000020382000083D
:10121000044B054ADB6805499B045B0FCB5C1068F7
:10122000D84070470010024000000020382000081D
:101230008223F7B502681B0105001A4250D08023B3
:1012400000216D4C5B05A26B00911A4204D1A26B88
:101250001343A363012300938027684E7F00336804
:101260003B4276D06B68C0211800226889030A408F
:101270000840904203D1AA680A40824209D0C022A5
:10128000190092021140914203D122680120920379
:1012900070D4266DC0223000920229681040164298
:1012A00069D129680B0500D592E0890611D56968D6
:1012B000C0230A009B021A409A4207D12368504873
:1012C0000340C020800301400B432360236D1A4379
:1012D0002265009B012B03D1A36B4A4A1340A363F1
:1012E0002B68DA0706D503204349CA6C8243E868B5
:1012F0000243CA649A0706D50C203F49CA6C824350
:1013000028690243CA645A0706D53B493E48CA6C5D
:10131000024068690243CA641A0706D536493B4849
:10132000CA6C0240A8690243CA645A0606D532490B
:101330003748CA6C0240286A0243CA6400201B0670
:1013400018D52D4A3349D36C0B40E9690B43D3645C
:1013500010E033683B433360FFF734FA01903368A1
:101360003B4200D07EE7FFF72DFA019BC01A6428AC
:10137000F5D90320FEBD1340834201D08B0607D46C
:10138000AB681340834200D18BE7090500D488E79E
:101390008021236D206D090301432165216D1E4AC3
:1013A0001E481A40014021652265DB0500D478E71C
:1013B000FFF708FA80270600BF00236D3B4200D0EC
:1013C0006FE7FFF7FFF9164B801B9842F5D9D0E77E
:1013D000A868C02302009B021A409A4207D12368E2
:1013E000074E3340C026B603304003432360236DCD
:1013F0001A43226559E7C0460010024000700040C1
:10140000FFFFCFFFFFFFFFEFFFF3FFFFFFCFFFFF68
:10141000FFFFFFFBFFFFF3FFFFFFFCFFFFFFF7FFF7
:101420008813000030B5EFF31084012282F3108896
:101430000168124D0B682B400B6084F31088EFF3AA
:10144000108482F3108801688B6893438B6084F367
:101450001088036E93420AD1EFF3108183F3108852
:10146000102402681368A343136081F310882022BC
:10147000031DDA6700230366836630BDDFFEFFFFCE
:1014800070477047806A0023020010B55A321380FB
:10149000083A1380FFF7F5FF10BD7047F7B5040059
:1014A0000068AB4BC1690668856819420BD12023DF
:1014B000194200D180E01E4200D17DE0A36E2000E1
:1014C000002B6FD16FE001232F00A24A1F40324052
:1014D0003A4300D170E025000835194205D0F205E5
:1014E00003D50362EA6F1343EB670223194206D068
:1014F000002F04D00362EA6FDB181343EB67042369
:10150000194206D0002F04D00362EA6F023B134356
:10151000EB670823194207D0202232403A4303D018
:101520000362EA6F1343EB6780231B01194206D065
:10153000720104D503622023EA6F1343EB67EB6F5C
:10154000002B30D02023194206D01E4204D0A36EB7
:10155000002B01D0200098472268EB6F4027966847
:1015600028223E40134020001E4321D0FFF75AFF9F
:1015700023689B683B4217D0EFF31081012383F36C
:10158000108822689368BB43936081F31088606F72
:10159000002809D0704B8363FFF79CF9002802D024
:1015A000606F836B9847F7BD2000FFF76AFFFAE78B
:1015B000FFF767FFEE67F6E7236E012B00D09AE096
:1015C0001022114200D196E0164200D193E002624F
:1015D000816840260F003740314253D0616F086860
:1015E000416889B20029DED0250058352D888D420A
:1015F000D9D925005A352980016820200D000540E1
:101600000195014230D1EFF3108783F310882568EC
:10161000524A29681140296087F31088EFF3108738
:1016200083F310882568A9689943A96087F3108817
:10163000EFF3108C83F31088210080C9BD68B54397
:10164000BD608CF31088019AC8672266EFF31080A2
:1016500083F31088102221680B6893430B6080F39A
:101660001088606FFFF716F90223220063662300DB
:1016700058325A331B881188C91A89B22000FFF7E3
:101680000CFF90E7250021005A3528882D88583115
:10169000098880B2002D00D185E7091A89B2002996
:1016A00000D180E7EFF3108683F3108825682C4A79
:1016B00028681040286086F31088EFF3108C83F3BD
:1016C0001088200040C8B5689D43B5608CF3108831
:1016D0002025C5672766A766EFF3108583F310887A
:1016E000206832320368FF329343036085F3108829
:1016F00002236366C2E780235B03194206D06D02B2
:1017000004D50362200000F055FC4CE78023194209
:1017100003D01E4201D0E36ED1E64022114200D137
:1017200041E7164200D13EE7EFF31080012383F337
:10173000108821680B6893430B6080F31088202386
:10174000E36700232000E366FFF79AFE2BE7C0461D
:101750000F0800002001000485140008FFFEFFFFB1
:10176000DFFEFFFFF8B50300011DCC6F5C331A8864
:101770000368222C5AD15B6A446D13400200237027
:10178000436D5A32013343651388013B9BB213808A
:1017900013889CB2002B45D1EFF31086013383F3FD
:1017A00010880568244F2A683A402A6086F310881A
:1017B000EFF3108683F310880568AA689A43AA603D
:1017C00086F310882022CA6702681C498466446632
:1017D0008A420DD0526812020AD5EFF3108183F3CA
:1017E00010880268164C13682340136081F3108838
:1017F000036E012B17D100220266EFF3108483F3EE
:10180000108801680F330A689A430A6084F31088CD
:101810000268D169194200D0136203005833198855
:10182000FFF73BFEF8BDFEF753FEFBE70822996980
:101830000A439A61F6E7C046DFFEFFFF004800401A
:10184000FFFFFFFBF8B50300021DD16F5C331C885E
:101850000368222959D1596A436D2140198001003A
:10186000023343655A310B88013B9BB20B800B88D6
:101870009CB2002B45D1EFF31086013383F310881F
:101880000568244F29683940296086F31088EFF3F2
:10189000108683F310880568A9689943A96086F3C8
:1018A00010882021D16702681B49846644668A42F9
:1018B0000DD0526812020AD5EFF3108183F310881D
:1018C0000268164C13682340136081F31088036E7E
:1018D000012B17D100220266EFF3108483F31088E6
:1018E00001680F330A689A430A6084F3108802681B
:1018F000D169194200D01362030058331988FFF7E9
:10190000CCFDF8BDFEF7E4FDFBE7082299690A4328
:101910009A61F6E7DFFEFFFF00480040FFFFFFFB94
:10192000F8B504002569A168026829436569C3699F
:1019300029431068714D19432840014311605168D3
:101940006F48704D0140E06801435160A069AA42B0
:1019500001D0216A084391686B4E31400143916088
:101960006A498A420FD10321694AD26C0A40013A7E
:101970006849022A0FD980221202934200D169E0FD
:10198000FFF746FC9BE064498A4213D10C20604A71
:101990006249D26C0240885C80221202934200D0DD
:1019A0007EE0082818D8FEF7AFFB50555817781777
:1019B00017176300AA420FD1C0218020544A0901A1
:1019C000D36C00010B40834216D007D8002B0AD0FD
:1019D0008022D200934235D0012009E08B42FBD116
:1019E0008020000212E0FFF703FC00280ED1002047
:1019F0000023A366E366F8BD102310681840434235
:101A00005841474B40421840464BC0180322636878
:101A10005A438242E0D81A038242DDD30027020EE5
:101A200001025E0889197A41080011001A003B0082
:101A3000FEF70AFC3C4BC2183C4B9A42CCD82368B8
:101A4000D860D4E7FFF73CF8CFE7FFF7D1FB031EE0
:101A5000CDD00DE0FFF7DCFBF9E710222C4B1B6823
:101A600013405A4253412E4A5B4213402D4A9B1861
:101A7000616858004B08C018FEF75AFB02002C4B57
:101A8000103A9A42A8D80F23020000079A4393B253
:101A9000400F22680343D360A9E7FFF711F8D6E7A8
:101AA000082899D8FEF73AFB09006CFF0F0098FF51
:101AB000230098FF98FF98FF2600FFF799FB002866
:101AC00000D194E70AE0124B1868102318404342F3
:101AD0005841134B40421840124BC01861684B08E4
:101AE0001818FEF725FB0200114B103AA5E7FEF788
:101AF000E7FFE4E780200002F0E7C046F369FFEF6C
:101B0000FFCFFFFF00480040FFF4FFFF0038014017
:101B10000010024049200008004400404C2000080A
:101B2000001BB70000093D0000FDFFFFFFFC0F0098
:101B3000EFFF0000436A30B5DA0706D50168284C8C
:101B40004A682240846A22434A609A0706D501689F
:101B5000244C4A682240C46A22434A605A0706D588
:101B60000168214C4A682240046B22434A601A07EC
:101B700006D501681D4C4A682240446B22434A60E6
:101B8000DA0606D501681A4C8A682240846B224323
:101B90008A609A0606D50168164C8A682240C46B92
:101BA00022438A605A0610D50168134D4A68046CB6
:101BB0002A4022434A6080225203944205D14A6857
:101BC0000E4C2240446C22434A601B0606D5026834
:101BD0000B4953680B40816C0B43536030BDC046CA
:101BE000FFFFFDFFFFFFFEFFFFFFFBFFFF7FFFFF8C
:101BF000FFEFFFFFFFDFFFFFFFFFEFFFFFFF9FFF95
:101C0000FFFFF7FFF7B504000D001700082600934B
:101C10002268D3692B405B1B59424B41BB4201D028
:101C2000002021E0089B0133F3D0FEF7CBFD009BA1
:101C3000C01A089B984228D8002B26D0042123687C
:101C40001A680A42E4D0DA69110031400191324247
:101C50000BD020001E62FFF7E5FB23000833DE6790
:101C60000023012078342370FEBD8022D96912013F
:101C70001142CDD01A622000FFF7D4FB23002022AE
:101C80000833DA67019B783423700320ECE7F0B562
:101C900085B00393C36F04000D0016000220202BB3
:101CA00039D10138002936D0002A34D08023A268E7
:101CB0005B019A4204D12369002B01D101422AD150
:101CC000230000220833DA672123E367FEF77AFD59
:101CD000230050331E8002331E8002938023A268AB
:101CE000070000265B019A4204D12369B34201D167
:101CF0002E001D00230052331B889AB2002B0CD1FA
:101D0000039B4021009320003B00FFF77BFF202333
:101D1000E36700280DD105B0F0BD039B00220093BE
:101D200080213B002000FFF76DFF002803D0202317
:101D3000E3670320EFE72268002D0BD133880236DA
:101D4000DB05DB0D9362029B029A1B88013B9BB271
:101D50001380CFE72B7801359362F4E7030073B566
:101D6000002504000833DD67FEF72CFD236806001C
:101D70001B681B071DD58021264B2A000093890371
:101D800003002000FFF73EFFA84212D0EFF31081BE
:101D9000012383F310888020226813688343136033
:101DA00081F310882023E367032000237834237015
:101DB00076BD250008CD1B685B0723D58021154B18
:101DC0000022009320003300C903FFF71BFF002807
:101DD00018D0EFF31080012282F3108821680E4E94
:101DE0000B6833400B6080F31088EFF3108082F3B0
:101DF000108821688B6893438B6080F310882023C0
:101E0000EB67D1E720230020E367EB67206660667D
:101E1000CBE7C046FFFFFF01DFFEFFFF10B5041E4A
:101E200001D1012010BDC36F002B04D10200783214
:101E30001370FEF711FC242301212268E367136865
:101E400020008B431360FFF76BFD0128E9D0636A24
:101E5000002B02D02000FFF76DFE236807495A6867
:101E600020000A402A215A609A688A439A60012217
:101E700019680A431A60FFF771FFD3E7FFB7FFFF46
:101E80000300583310B541651A805A808021002321
:101E90008268836649018A4238D103695A1E934198
:101EA000FF225B429343264A9B1802005C32138058
:101EB000030000220833DA67031D2232DA67EFF3EA
:101EC0001081012383F31088026894682343936090
:101ED00081F310888021846802691A4B49018C4281
:101EE00002D1002A00D1184B83660123002A1FD09B
:101EF000EFF3108183F31088026820331068FF33FA
:101F00000343136081F31088002010BD002A05D11F
:101F100002697F23002AC8D18033C6E780214905A2
:101F20008A42C2D102697F23002ABED0403BBCE76F
:101F3000EFF3108183F31088026820231068DFE735
:101F4000FF01000065170008451800080300043071
:101F500070B5C46F0220202C28D10138002925D06B
:101F6000002A23D080209C684001844205D1186952
:101F7000002802D10130014218D100200C4C186613
:101F80001868A0420FD0406800020CD5EFF310850E
:101F9000012080F3108880201C68C004266830432C
:101FA000206085F310881800FFF76AFF70BDC046F7
:101FB00000480040704703008218934200D17047E8
:101FC00019700133F9E7000070B500260C4C0D4D77
:101FD000641BA410A64209D1002600F019F80A4C8F
:101FE0000A4D641BA410A64205D170BDB300EB5886
:101FF00098470136EEE7B300EB5898470136F2E711
:10200000642000086420000868200008642000089C
:10201000F8B5C046F8BC08BC9E467047F8B5C04647
:08202000F8BC08BC9E467047A5
:102028000000000000000000010203040607080980
:102038000000000001020304030406080C10182025
:1020480030040208001010100410101002101010B4
:04205800080000007C
:08205C0088E2FF7F0100000093
:04206400E900000887
:04206800C1000008AB
:0C206C0000002000010000000400000043
:04000005080006E900
:00000001FF
