:020000040800F2
:1000000000200020990600088506000887060008E1
:1000100000000000000000000000000000000000E0
:100020000000000000000000000000008906000839
:1000300000000000000000008B0600088D0600088C
:10004000E9060008E9060008E9060008E9060008D4
:10005000E9060008E9060008E9060008E9060008C4
:10006000E9060008E9060008E9060008E9060008B4
:10007000E9060008E906000800000000E90600089B
:1000800000000000E9060008000000000000000079
:10009000E906000800000000E9060008E90600087B
:1000A000E9060008E9060008E9060008E906000874
:1000B000E9060008E9060008E9060008E906000864
:1000C00010B5064C2378002B07D1054B002B02D02E
:1000D000044800E000BF0123237010BD2000002071
:1000E000000000002C1A0008044B10B5002B03D0B0
:1000F0000349044800E000BF10BDC04600000000F6
:10010000240000202C1A000802B471464908490056
:10011000095C49008E4402BC7047C04603B4714676
:10012000490840004900095E49008E4403BC7047FD
:10013000002243088B4274D303098B425FD3030A26
:100140008B4244D3030B8B4228D3030C8B420DD339
:10015000FF22090212BA030C8B4202D312120902C7
:1001600065D0030B8B4219D300E0090AC30B8B4205
:1001700001D3CB03C01A5241830B8B4201D38B03B3
:10018000C01A5241430B8B4201D34B03C01A524158
:10019000030B8B4201D30B03C01A5241C30A8B429B
:1001A00001D3CB02C01A5241830A8B4201D38B0286
:1001B000C01A5241430A8B4201D34B02C01A52412A
:1001C000030A8B4201D30B02C01A5241CDD2C3099C
:1001D0008B4201D3CB01C01A524183098B4201D318
:1001E0008B01C01A524143098B4201D34B01C01A03
:1001F000524103098B4201D30B01C01A5241C3087B
:100200008B4201D3CB00C01A524183088B4201D3E9
:100210008B00C01A524143088B4201D34B00C01AD5
:100220005241411A00D20146524110467047FFE741
:1002300001B5002000F006F802BDC0460029F7D045
:1002400076E770477047C046002B11D1002A0FD1C6
:10025000002900D1002802D00021C943080007B4BA
:10026000024802A14018029003BDC046D9FFFFFF1B
:1002700003B4684601B5029800F034F8019B9E462D
:1002800002B00CBC7047C046F0B5CE469946030C90
:100290009C46130447461B0C1D000E0061460404D7
:1002A000240C80B50700100C4B4365434143604369
:1002B0002C0CC01820188C46834203D980235B0283
:1002C0009846C444494679435643030C2D042D0CEB
:1002D0008919634400044019C918C0BCB946B04626
:1002E000F0BDC046F0B557464E464546DE46E0B541
:1002F00004000D009246994683B08B4230D82DD031
:100300004946504600F0BAF829000600200000F0E7
:10031000B5F8331A9846203B34D49B4653465A4688
:10032000934042461F00534693401E00AF423BD8C5
:10033000AF4200D179E05B46A41BBD41002B00DA3F
:1003400076E0002200230092019301235A46934055
:100350000193012342469340009329E08242CFD982
:1003600000220023009201930C9B002B01D01C6003
:100370005D600098019903B0F0BCBB46B246A94647
:10038000A046F0BD42469B4620239B1A5246DA40C7
:10039000414613004A468A40170042461F435346CF
:1003A00093401E00AF42C3D9002200230092019364
:1003B0004346002BD8D0FB0772081A4346467B08F9
:1003C0000EE0AB4201D1A2420CD8A41A9D410120FB
:1003D00024196D410021013E24184D41002E06D004
:1003E000AB42EED9013E24196D41002EF8D10098A0
:1003F00001995B4600196941002B24DB2B005A460A
:100400004446D3402A00E2401C005B461500002B06
:100410002ADB26009E40330026004746BE403200BD
:10042000801A9941009001919EE7A342BCD882E7CF
:100430004246202300219B1A0022009101920122B2
:10044000DA40019285E7424620239B1A2A0046465D
:100450009A402300F340444613432A00E2401C0024
:100460005B461500002BD4DA42462F0020232600DD
:1004700097409B1ADE403B003343CDE710B500297F
:1004800003D100F007F8203002E0080000F002F885
:1004900010BDC0461C2101231B04984201D3000C4F
:1004A00010391B0A984201D3000A08391B099842E7
:1004B00001D30009043902A2105C40187047C046FD
:1004C000040302020101010100000000000000001D
:1004D00010B59CB0242200210FA801F07BFA142251
:1004E0000021684601F076FA2422002105A801F0D7
:1004F00071FA1C491C4B0A6801241A4080231B0115
:1005000013430B6002230E93189300231993802347
:10051000DB021A9380231022DB030EA8119412929F
:100520001B9300F08DFA002801D072B6FEE70F236E
:100530000290009303900C3B0490210068460193C5
:1005400000F000FD002801D072B6FEE7089005A873
:10055000059400F0E5FD002801D072B6FEE71CB05E
:1005600010BDC04600700040FFE7FFFFF7B500F088
:10057000E1F8FFF7ADFF01211F4B204CDA6A2000A4
:100580000A43DA62DB6A0C220B400193019B1C4B8D
:1005900062612360E1235B0263600023A360E36088
:1005A0002361A361E3612362636201F0E1F9002842
:1005B00001D072B6FEE7FA2314221249DB002000B4
:1005C00001F08DF8FA20FA27800000F0D9F81426FF
:1005D000FF000D4D3B0032002900200001F0E6F83D
:1005E000C82332002900200001F079F8FA208000A9
:1005F00000F0C6F8EDE7C046001002403C000020C5
:100600000038014000000020C40000200122054BFA
:10061000596B0A435A638022996B52050A439A63C5
:100620007047C0460010024010B5040086B0142286
:10063000002101A801F0CEF9104B22689A421BD18B
:1006400080220F4BD201596BA0200A4301215A632B
:10065000DA6AC0050A43DA62DB6A0B400093009B4A
:10066000C023DB000193022302935B1804935B1801
:1006700001A9059300F0DAF806B010BD003801407A
:1006800000100240FEE7FEE77047704710B500F02B
:1006900065F810BD704700000D488546FFF7FAFF6A
:1006A0000C480D490D4A002302E0D458C4500433CD
:1006B000C4188C42F9D30A4A0A4C002301E01360A3
:1006C0000432A242FBD301F08DF9FFF74FFFFEE7A2
:1006D000002000200000002020000020881A0008D0
:1006E00020000020DC000020FEE7000070B50500BF
:1006F000FA200D4B80001978FFF71AFD0B4C010012
:100700002068FFF715FD00F077F804000120002CA9
:1007100009D1032D07D802382200290000F042F841
:100720002000034B1D6070BD180000201400002045
:100730001C0000204023084A10B5116800200B431C
:100740001360FFF7D3FF041E03D1FFF75FFF200004
:1007500010BD0124FBE7C04600200240034A044BC1
:1007600011681B785B1813607047C046D8000020E2
:1007700018000020014B18687047C046D8000020C0
:1007800070B50400FFF7F6FF0500631C02D0044BB0
:100790001B78E418FFF7EEFF401BA042FAD370BDB0
:1007A0001800002030B5FF2503242A000440E4008F
:1007B000A24089012940D243A140C3B200280ADBEC
:1007C000C0240B4B80088000C018A40003591340BC
:1007D0000B43035130BD0F200340083B05489B08E5
:1007E0009B001B18D86902400A43DA61F2E7C04651
:1007F00000E100E000ED00E08022431E52040120F1
:1008000093420DD2C021074A07485360036A090684
:100810001B021B0A0B430362002007239060136036
:100820007047C04610E000E000ED00E0594AF0B526
:100830008218541EA241002387B0053205920A682F
:100840001400DC4001D107B0F0BD01242500A4460E
:100850009D4014002C4002942A4200D198E00324C9
:100860004A685F0001922240BC40E4430394541E56
:1008700064452FD88668039C2640CC68BC4034432E
:10088000664684604468AC432500019C24093440DA
:100890009C402C434460C568039C25408C68BC4048
:1008A0002C43C460022A17D107250F261D40AD0036
:1008B000AE40B446DC08A40004190494246A26005F
:1008C0006446A643B4460E696446AE402643049C83
:1008D000266201E0032ADED1BA400468039D254068
:1008E0002A430260C022019C9202144250D0012788
:1008F000294C1D00626B3A436263284A9C08A4009D
:10090000A418A268944603221540AD000C32AA40F8
:1009100066469643A022D2059446002260450DD03B
:100920001F4A94463A00604508D01E4F9218B842BC
:1009300004D01D4F0132B84200D0059AAA4032437C
:10094000A2601A4A029C9668029D019FE4433543C7
:10095000FF0201D4350025409560D668029D019FB5
:100960003543BF0201D435002540D5605668029D4D
:10097000019F3543BF0301D43500254055601568FC
:10098000029E019F2E43FF0301D425402E001660D6
:10099000013354E700E4FFAF0010024000000140C3
:1009A0000004005000080050000C005000040140FA
:1009B0000C221D4B70B5DC682240082A31D00C2A6D
:1009C00009D0042A25D11868184BC006C017184052
:1009D000174BC01870BDA2021648120F805C80220F
:1009E0002402D968A40F52020134114209D0124ADC
:1009F00000230021FFF748FC22000023FFF724FC1E
:100A0000E8E71A6810231A4201D00C4AF0E7084AB6
:100A1000EEE780205B6800021B045B0F0133984007
:100A2000D8E70548D6E7C0460010024000E548FF79
:100A30000024F4005C1A000800127A0000093D004E
:100A4000F0B5050085B0002859D00C23BE4C0268D3
:100A5000E668E7681E4080235B0219001F40D2074A
:100A600041D42B689B0700D58AE02B68DB0628D58C
:100A7000002E00D0DBE023689B0502D5EB69002B3C
:100A80003DD080276268B1496B6A0A401A435B0B0C
:100A900001333F029F40626061682A6A0902090AC5
:100AA00012060A436260E168A9480B061B0FC35C8B
:100AB000A84ADF40A84B17601868FFF717FE002808
:100AC00034D12B681B0700D5E8E02B685B0700D505
:100AD0000AE12B689B0600D58FE1AB6A002B00D0A2
:100AE000BEE1002022E0082E03D00C2E09D1002FF9
:100AF00007D023689B03B4D56B68002BB1D10120CC
:100B000014E06A688A4213D1226813432360FFF716
:100B100031FE00908022236892021342A1D1FFF798
:100B200029FE009BC01A6428F4D9032005B0F0BD4B
:100B3000A021C9028A4205D180222168D2020A433B
:100B40002260E1E7216885480140216021680B406F
:100B50000393039B824923680B402360002AD6D16C
:100B6000FFF708FE0090802223689202134200D112
:100B700077E7FFF7FFFD009BC01A6428F3D9D4E79D
:100B8000EA68042E03D00C2E24D1002F22D1236832
:100B90005B0701D5002AB2D061682B6971481B023E
:100BA00001400B430921636023688B431343236097
:100BB000FFF7FEFEE368664A1B061B0FD35C654920
:100BC000D840654B08601868FFF790FD002800D1F9
:100BD0004BE7ABE72368002A18D009218B43134366
:100BE0002360FFF7C7FD070004222368134207D0E4
:100BF00062682B695B491B020A401343636034E758
:100C0000FFF7B8FDC01B0228EED98EE701229343FF
:100C10002360FFF7AFFD070004222368134200D1D1
:100C200023E7FFF7A7FDC01B0228F5D97DE7EB6995
:100C3000002B20D0802322685B0013432360FFF742
:100C400099FD070080222368920013420DD063684B
:100C50003E4A13406A6A1343636062682B6A120259
:100C60001B06120A134363602BE7FFF783FDC01BCB
:100C70000228E7D959E723683B4A13402360FFF76E
:100C800079FD0700802223689200134200D118E703
:100C9000FFF770FDC01B0228F4D946E76A690123FB
:100CA000002A10D0226D13432365FFF763FD070070
:100CB0000222236D134200D007E7FFF75BFDC01B44
:100CC0000228F5D931E7226D9A432265FFF752FDDC
:100CD00007000222236D134200D1F6E6FFF74AFD1A
:100CE000C01B0228F5D920E780230021A26B5B05F9
:100CF00000911A4204D1A26B1343A3630123009312
:100D000080221A4F52003B68134208D08022AB6801
:100D1000520093422CD1226D134323654DE0802273
:100D20003B68520013433B60FFF724FD0190802293
:100D30003B6852001342E9D1FFF71CFD019BC01A2A
:100D40006428F4D9F1E6C04600100240FF1FFFFFFF
:100D5000441A0008140000201C000020FFFFFEFFC2
:100D6000FFFFFBFFFFE0FFFFFFFEFFFF0070004003
:100D7000002B16D1236D6B4A13402365236D6A4AFD
:100D800013402365FFF7F6FC07008022236D9200D5
:100D900013421AD0FFF7EEFC644BC01B9842F4D903
:100DA000C3E6A021C9008B4218D18023216DDB004E
:100DB0000B432365236D1A432265FFF7DBFC070015
:100DC0008022236D9200134210D0009B012B00D093
:100DD0007FE6A36B564A1340A3637AE6236D514A1C
:100DE00013402365236D504A134096E7FFF7C2FC7A
:100DF0004E4BC01B9842E3D997E6AA6901214D4B9F
:100E0000002A18D0A2680A43A260626B0A43626398
:100E10008022196A92010A431A62FFF7ABFC0700AD
:100E20000222A368134200D057E6FFF7A3FCC01BC1
:100E30000228F5D979E6A2688A43A2601A6A3E4977
:100E40000A401A62FFF796FC07000222A3681342C9
:100E500000D142E6FFF78EFCC01B0228F5D964E6FC
:100E60000C2E43D0354A022B2ED123688027134005
:100E70002360FFF77FFC0600BF0423683B421DD1BF
:100E8000296BEB6AE2680B432D4980260A40134325
:100E90006A6BB6041343E360802322685B04134348
:100EA0002360FFF767FC05002368334200D018E693
:100EB000FFF760FC401B0228F6D936E6FFF75AFC24
:100EC000801B0228D9D930E623688026134023608E
:100ED000FFF750FC0500B6042368334200D100E65A
:100EE000FFF748FC401B0228F6D91EE61800012B2C
:100EF00000D11BE68022E368E96A52021A408A4266
:100F000000D0FCE5F022296B92031A408A4200D0FF
:100F1000F5E5C022120413406A6B934200D1E0E56C
:100F2000EDE5C046FFFEFFFFFFFBFFFF881300005B
:100F3000FFFFFFEF00000140FFDFFFFFFFFFFFFEAD
:100F4000FFFF02FFF7B5041E019101D10120FEBD94
:100F500001255B4E019A33682B40934231D32268BE
:100F6000930743D4D20749D401253368019A2B4013
:100F7000934209D93368AB433360FFF7FBFB0700AB
:100F800033682B4200D08CE022684E4D530700D5C9
:100F90008FE0120706D5EA6823694B49DB000A4057
:100FA0001343EB60FFF704FDEB68484A1B061B0F79
:100FB000D35C4749D840474B08601868FFF796FB59
:100FC000C5E73368019AAB4313433360FFF7D2FBA5
:100FD00007003368019A2B409342C0D0FFF7CAFB49
:100FE0003D4BC01B9842F4D90320B0E7F0203549AF
:100FF000CB688343A0680343CB60B3E7314D62689D
:101000002B68022A18D19B03A0D50321EB688B43E0
:101010001343EB60FFF7AEFB63680700022B18D1A8
:101020000C22EB681340082B9ED0FFF7A3FB2A4B42
:10103000C01B9842F4D9D7E7032A02D19B01E4D41C
:1010400084E7012A02D15B07DFD47FE79B05DCD46C
:101050007CE7032B0BD10C22EB681340934283D027
:10106000FFF788FB1C4BC01B9842F4D9BCE7012B4F
:1010700011D00C22EB68134200D175E7FFF77AFB21
:10108000154BC01B9842F4D9AEE7FFF773FB124B28
:10109000C01B9842A8D80C22EB681340042BF4D153
:1010A00062E7FFF767FB0C4BC01B984200D867E76D
:1010B0009AE7EB6809490B40E1680B43EB6068E78E
:1010C0000020024000100240FFC7FFFF441A000842
:1010D000140000201C00002088130000FFF8FFFF10
:1010E000044B054ADB6805495B055B0FCB5C106868
:1010F000D84070470010024014000020541A000825
:10110000044B054ADB6805499B045B0FCB5C106808
:10111000D84070470010024014000020541A000804
:101120008223F7B502681B0105001A4250D08023C4
:1011300000216D4C5B05A26B00911A4204D1A26B99
:101140001343A363012300938027684E7F00336815
:101150003B4276D06B68C0211800226889030A40A0
:101160000840904203D1AA680A40824209D0C022B6
:10117000190092021140914203D12268012092038A
:1011800070D4266DC02230009202296810401642A9
:1011900069D129680B0500D592E0890611D56968E7
:1011A000C0230A009B021A409A4207D12368504884
:1011B0000340C020800301400B432360236D1A438A
:1011C0002265009B012B03D1A36B4A4A1340A36302
:1011D0002B68DA0706D503204349CA6C8243E868C6
:1011E0000243CA649A0706D50C203F49CA6C824361
:1011F00028690243CA645A0706D53B493E48CA6C6F
:10120000024068690243CA641A0706D536493B485A
:10121000CA6C0240A8690243CA645A0606D532491C
:101220003748CA6C0240286A0243CA6400201B0681
:1012300018D52D4A3349D36C0B40E9690B43D3646D
:1012400010E033683B433360FFF794FA0190336852
:101250003B4200D07EE7FFF78DFA019BC01A64285D
:10126000F5D90320FEBD1340834201D08B0607D47D
:10127000AB681340834200D18BE7090500D488E7AF
:101280008021236D206D090301432165216D1E4AD4
:101290001E481A40014021652265DB0500D478E72D
:1012A000FFF768FA80270600BF00236D3B4200D09D
:1012B0006FE7FFF75FFA164B801B9842F5D9D0E72E
:1012C000A868C02302009B021A409A4207D12368F3
:1012D000074E3340C026B603304003432360236DDE
:1012E0001A43226559E7C0460010024000700040D2
:1012F000FFFFCFFFFFFFFFEFFFF3FFFFFFCFFFFF7A
:10130000FFFFFFFBFFFFF3FFFFFFFCFFFFFFF7FF08
:101310008813000030B5EFF31084012282F31088A7
:101320000168124D0B682B400B6084F31088EFF3BB
:10133000108482F3108801688B6893438B6084F378
:101340001088036E93420AD1EFF3108183F3108863
:10135000102402681368A343136081F310882022CD
:10136000031DDA6700230366836630BDDFFEFFFFDF
:10137000F8B504002569A168026829436569C36955
:1013800029431068714D1943284001431160516889
:101390006F48704D0140E06801435160A069AA4266
:1013A00001D0216A084391686B4E3140014391603E
:1013B0006A498A420FD10321694AD26C0A40013A34
:1013C0006849022A0FD980221202934200D169E0B3
:1013D000FFF796FE9BE064498A4213D10C20604AD5
:1013E0006249D26C0240885C80221202934200D093
:1013F0007EE0082818D8FEF787FE50555817781752
:1014000017176300AA420FD1C0218020544A090156
:10141000D36C00010B40834216D007D8002B0AD0B2
:101420008022D200934235D0012009E08B42FBD1CB
:101430008020000212E0FFF753FE00280ED10020AA
:101440000023A366E366F8BD1023106818404342EA
:101450005841474B40421840464BC018032263682E
:101460005A438242E0D81A038242DDD30027020E9B
:1014700001025E0889197A41080011001A003B0038
:10148000FEF7E2FE3C4BC2183C4B9A42CCD8236894
:10149000D860D4E7FFF78CFACFE7FFF721FE031EF1
:1014A000CDD00DE0FFF72CFEF9E710222C4B1B6886
:1014B00013405A4253412E4A5B4213402D4A9B1817
:1014C000616858004B08C018FEF732FE02002C4B32
:1014D000103A9A42A8D80F23020000079A4393B209
:1014E000400F22680343D360A9E7FFF761FAD6E70C
:1014F000082899D8FEF712FE09006CFF0F0098FF2C
:10150000230098FF98FF98FF2600FFF7E9FD0028C9
:1015100000D194E70AE0124B1868102318404342A8
:101520005841134B40421840124BC01861684B0899
:101530001818FEF7FDFD0200114B103AA5E7FFF762
:1015400037FAE4E780200002F0E7C046F369FFEFD6
:10155000FFCFFFFF00480040FFF4FFFF00380140CD
:1015600000100240651A000800440040681A000894
:10157000001BB70000093D0000FDFFFFFFFC0F004E
:10158000EFFF0000436A30B5DA0706D50168284C42
:101590004A682240846A22434A609A0706D5016855
:1015A000244C4A682240C46A22434A605A0706D53E
:1015B0000168214C4A682240046B22434A601A07A2
:1015C00006D501681D4C4A682240446B22434A609C
:1015D000DA0606D501681A4C8A682240846B2243D9
:1015E0008A609A0606D50168164C8A682240C46B48
:1015F00022438A605A0610D50168134D4A68046C6C
:101600002A4022434A6080225203944205D14A680C
:101610000E4C2240446C22434A601B0606D50268E9
:101620000B4953680B40816C0B43536030BDC0467F
:10163000FFFFFDFFFFFFFEFFFFFFFBFFFF7FFFFF41
:10164000FFEFFFFFFFDFFFFFFFFFEFFFFFFF9FFF4A
:10165000FFFFF7FFF7B504000D0017000826009301
:101660002268D3692B405B1B59424B41BB4201D0DE
:10167000002021E0089B0133F3D0FFF77BF8009BAB
:10168000C01A089B984228D8002B26D00421236832
:101690001A680A42E4D0DA691100314001913242FD
:1016A0000BD020001E62FFF735FE23000833DE67F3
:1016B0000023012078342370FEBD8022D9691201F5
:1016C0001142CDD01A622000FFF724FE2300202211
:1016D0000833DA67019B783423700320ECE7F0B518
:1016E00085B00393C36F04000D0016000220202B69
:1016F00039D10138002936D0002A34D08023A2689D
:101700005B019A4204D12369002B01D101422AD105
:10171000230000220833DA672123E367FFF72AF862
:10172000230050331E8002331E8002938023A26860
:10173000070000265B019A4204D12369B34201D11C
:101740002E001D00230052331B889AB2002B0CD1AF
:10175000039B4021009320003B00FFF77BFF2023E9
:10176000E36700280DD105B0F0BD039B0022009374
:1017700080213B002000FFF76DFF002803D02023CD
:10178000E3670320EFE72268002D0BD13388023690
:10179000DB05DB0D9362029B029A1B88013B9BB227
:1017A0001380CFE72B7801359362F4E7F0B517008B
:1017B00087B0021D0593D36F04000E000220202B7A
:1017C00060D1013800295DD0002F5BD08023A16853
:1017D0005B01994204D12369002B01D1064251D10A
:1017E000230000250833DD672223D3672566FEF733
:1017F000C1FF2300802258331F80023303931F80D0
:10180000A3680490520193421CD12569691E8D4141
:10181000FF216D428D4325496D1821005C31002761
:101820000D80934204D12369BB4201D137001E00D1
:1018300023005A331B8898B2002B15D1043420336F
:10184000E3671FE0002B05D121697F250029E4D142
:101850008035E2E7802149058B42DED121697F2571
:101860000029DAD0403DD8E7059B002200932021D3
:101870002000049BFFF7EEFE002805D02023032064
:101880000434E36707B0F0BD23685B6A2B40002E89
:1018900008D13B800237039B039A1B88013B9BB214
:1018A0001380C5E733700136F5E7C046FF0100003D
:1018B000030073B5002504000833DD67FEF75AFF07
:1018C000236806001B681B071DD58021264B2A00B4
:1018D0000093890303002000FFF7BCFEA84212D04A
:1018E000EFF31081012383F31088802022681368AE
:1018F0008343136081F310882023E36703200023D0
:101900007834237076BD250008CD1B685B0723D58E
:101910008021154B0022009320003300C903FFF7FC
:1019200099FE002818D0EFF31080012282F310886E
:1019300021680E4E0B6833400B6080F31088EFF384
:10194000108082F3108821688B6893438B6080F34A
:1019500010882023EB67D1E720230020E367EB67A3
:1019600020666066CBE7C046FFFFFF01DFFEFFFF9A
:1019700010B5041E01D1012010BDC36F002B04D18E
:10198000020078321370FEF74FFE242301212268F3
:10199000E367136820008B431360FFF7E9FC01281D
:1019A000E9D0636A002B02D02000FFF7EBFD23682B
:1019B00007495A6820000A402A215A609A688A43D7
:1019C0009A60012219680A431A60FFF771FFD3E792
:1019D000FFB7FFFF03008218934200D170471970D0
:1019E0000133F9E770B500260C4C0D4D641BA410B3
:1019F000A64209D1002600F019F80A4C0A4D641BD2
:101A0000A410A64205D170BDB300EB58984701362B
:101A1000EEE7B300EB5898470136F2E7801A00086A
:101A2000801A0008841A0008801A0008F8B5C04619
:101A3000F8BC08BC9E467047F8B5C046F8BC08BC68
:041A40009E46704707
:101A4400000000000000000001020304060708096A
:101A54000000000001020304030406080C1018200F
:101A6400300402080010101004101010021010109E
:041A74000800000066
:081A78006CE8FF7F0100000093
:041A8000E900000871
:041A8400C100000895
:101A880048656C6C6F20776F726C640D0A000000FB
:101A98000000000000002000010000000400000019
:040000050800069950
:00000001FF
