:020000040800F2
:100000000020002041280008752700087B270008F1
:1000100000000000000000000000000000000000E0
:100020000000000000000000000000008127000820
:1000300000000000000000008B2700089527000842
:1000400091280008912800089128000891280008AC
:10005000912800089128000891280008912800089C
:10006000912800089128000891280008912800088C
:10007000912800089128000800000000912800083D
:1000800000000000912800080000000000000000AF
:10009000912800080000000091280008912800081D
:1000A000912800089128000891280008912800084C
:1000B000912800089128000891280008912800083C
:1000C00010B5064C2378002B07D1054B002B02D02E
:1000D000044800E000BF0123237010BD740000201D
:1000E00000000000AC8D0008044B10B5002B03D0BD
:1000F0000349044800E000BF10BDC04600000000F6
:1001000078000020AC8D00080023C25C0133002A77
:10011000FBD1581E7047000003B4714649084000E7
:100120004900095E49008E4403BC70470022430821
:100130008B4274D303098B425FD3030A8B4244D3AF
:10014000030B8B4228D3030C8B420DD3FF220902F1
:1001500012BA030C8B4202D31212090265D0030BB0
:100160008B4219D300E0090AC30B8B4201D3CB03A6
:10017000C01A5241830B8B4201D38B03C01A5241E8
:10018000430B8B4201D34B03C01A5241030B8B42EA
:1001900001D30B03C01A5241C30A8B4201D3CB02D5
:1001A000C01A5241830A8B4201D38B02C01A5241BA
:1001B000430A8B4201D34B02C01A5241030A8B42BD
:1001C00001D30B02C01A5241CDD2C3098B4201D3D5
:1001D000CB01C01A524183098B4201D38B01C01A53
:1001E000524143098B4201D34B01C01A52410309CA
:1001F0008B4201D30B01C01A5241C3088B4201D379
:10020000CB00C01A524183088B4201D38B00C01A25
:10021000524143088B4201D34B00C01A5241411A4C
:1002200000D20146524110467047FFE701B5002059
:1002300000F006F802BDC0460029F7D076E7704707
:100240007047C046002B11D1002A0FD1002900D1E0
:10025000002802D00021C943080007B4024802A1C7
:100260004018029003BDC046D9FFFFFF03B46846A3
:1002700001B5029800F052F8019B9E4602B00CBCFA
:100280007047C046F0B5CE469946030C9C46130411
:1002900047461B0C1D000E0061460404240C80B56B
:1002A0000700100C4B436543414360432C0CC018BE
:1002B00020188C46834203D980235B029846C444AD
:1002C000494679435643030C2D042D0C8919634488
:1002D00000044019C918C0BCB946B046F0BDC046BC
:1002E00070B500220C4B04000D0000F0B7FF002891
:1002F00004D12000290000F021FF70BD064B002230
:100300002000290000F098FB00F018FF80231B0656
:100310009C466044F1E7C0460000E041F0B5574616
:100320004E464546DE46E0B504000D00924699462D
:1003300083B08B4230D82DD04946504600F0B6FFEE
:1003400029000600200000F0B1FF331A9846203B38
:1003500034D49B4653465A46934042461F00534668
:1003600093401E00AF423BD8AF4200D179E05B46DC
:10037000A41BBD41002B00DA76E00022002300928E
:10038000019301235A46934001930123424693402F
:10039000009329E08242CFD90022002300920193EA
:1003A0000C9B002B01D01C605D600098019903B08C
:1003B000F0BCBB46B246A946A046F0BD42469B46AD
:1003C00020239B1A5246DA40414613004A468A408F
:1003D000170042461F43534693401E00AF42C3D905
:1003E00000220023009201934346002BD8D0FB0744
:1003F00072081A4346467B080EE0AB4201D1A24286
:100400000CD8A41A9D41012024196D410021013E00
:1004100024184D41002E06D0AB42EED9013E2419DE
:100420006D41002EF8D1009801995B460019694191
:10043000002B24DB2B005A464446D3402A00E240DE
:100440001C005B461500002B2ADB26009E40330073
:1004500026004746BE403200801A99410090019123
:100460009EE7A342BCD882E74246202300219B1A84
:100470000022009101920122DA40019285E7424672
:1004800020239B1A2A0046469A402300F340444604
:1004900013432A00E2401C005B461500002BD4DA0F
:1004A00042462F002023260097409B1ADE403B0047
:1004B0003343CDE7F0B54546DE4657464E46E0B5F8
:1004C0001F000B031B0B9B464D00CB0F04009146F6
:1004D000984687B06D0D00D1CDE1CE4B9D4200D145
:1004E000E9E15A46430FD2001343802212041A4313
:1004F000C3009A46C84B93469C4600230026654499
:1005000000933C037B004846240B5B0DFF0F002B40
:1005100000D189E1BF4A934219D0420FE40022433F
:10052000802424041443BC4A002194464246634478
:100530005B190193019B7A400133C000D2B2029350
:100540000A2E1CDD3A000B2E5ED0474656E0494687
:10055000B04B2143EB18019300292AD180200222BD
:1005600000012B0084461643424663447A40D2B2CF
:1005700002930A2E00DD31E2002000240221022E27
:1005800026DC013E012E52D802294CD0012900D090
:1005900018E10023002400251B052343D207134341
:1005A0002800190007B0F0BCBB46B246A946A046D9
:1005B000F0BD8021032209012B008C4616434246E0
:1005C00063447A40D2B202930A2E00DD28E203216E
:1005D0000125B540AC46A6266346F60035403342B9
:1005E0000BD19026B600334218D1B93EFF3E1E42D1
:1005F0001DD0A3468246009100E0170000993A0002
:10060000022910D05C4650460329BFD180231B032A
:100610001C43240305007F4B240BBDE780240022EC
:100620007C4B2403B8E7002400257A4BB4E75346FB
:100630001E04360C1F0C3300010C0004000C434355
:10064000984603007B43994633004B439C46434600
:100650000D001B0C9A467D43CC44D4440095E145E3
:1006600004D980235B0299464D44009563461B0CD8
:100670001D0063461B049C4643461B041B0C984606
:10068000634643440393230C984633002404240C0C
:1006900063439C4623007B43994643465E435F4346
:1006A0004E446346B2461E0C5644B14503D98023DE
:1006B0005B0299464F44330C99463B004B440593EB
:1006C0006346AC461F043F0C3604F619B444634637
:1006D00004935B461B0C9C465B461F043F0C3B008F
:1006E00043439946634643439A464B4660461B0C38
:1006F0009B4648437943514459448A4503D9802352
:100700005B029A4650440B0C9A464B461B041B0C4A
:1007100099463B006343090445464944994663466C
:100720005C436B439C464B461B0C98466F433F19FA
:1007300047445044BC4203D980235B029846C444DA
:10074000049B009D98464544B542B6417342984685
:100750004B461E04059B3C049946360CA4194C4498
:10076000A14683466E18C1448E428941CB445D4602
:1007700049426D189C42A441C1459B41834580413B
:100780008D4289415B4264421C434042039B494283
:10079000014370023F0C1843E419471EB841641826
:1007A0006444F60D61023043EC0D6E020C4330439D
:1007B000C90100D4F1E00121430801400B43E007E7
:1007C000184364081549029B8C466344002B00DCE7
:1007D00097E0410709D00F210140042905D0011DF0
:1007E00081428041404224180800E10106D5802161
:1007F000C9008C460A4B1C40029B634409498B424A
:1008000000DD10E76107C50864025B050D43240B9A
:100810005B0DC1E6FF07000001FCFFFFFF030000C6
:10082000FFFFFFFEFE0700004B46234359D0002C7C
:1008300000D1A3E0200000F01BFD010003000B39F4
:100840001D22521A49461800D1404A4608388240B3
:10085000844010000C43744AEB1A944642466344A9
:100860000193019B7A4001330021D2B202930A2EF8
:1008700000DD67E683E65B4603439A462AD05B4683
:10088000002B6DD0584600F0F3FC010003000B393B
:100890001D22521A210018005D46D14008388540BB
:1008A0000A0084402A439346A2465F4D0026ED1A73
:1008B0000023009325E65B4603439A4605D10023B7
:1008C0009B460233082600931BE6032382460C2630
:1008D000009316E600239B4601330426002500936F
:1008E0000FE64246013301951E43019B7A400133D6
:1008F000002400200121D2B202930A2E00DD21E65D
:100900003DE60121C91A382900DD42E61F2947DDED
:100910001F2625007642F31ADD402B00202905D042
:100920004249029D8C466544AC402043411E8841AB
:10093000184307231D000024054003424AD00F231B
:1009400000240340042B42D0031D834280414042D7
:100950002418180023023AD50123002400251BE6A1
:1009600000F086FC01000300153120331C298FDDC7
:100970000838002284409246A34696E700F078FCAF
:1009800001000300153120331C2900DC58E7020068
:100990004C46083A002094405DE7019B029311E722
:1009A000234B26009C460300029DCB406544AE408D
:1009B0001E430300AB40581E834130001843CC4017
:1009C0004307C7D00F230340042BBDD1C2E76507FF
:1009D0006402240BC00800230543DDE50025022343
:1009E0000F2E0CD180245B46240323420ED02142DB
:1009F0000CD10C4324033A000E4B240BCCE50B2EF8
:100A000000D0A2E58B46AA460093F7E580245B461A
:100A100024031C43240342465546064B240BBBE5E6
:100A20004D4621000323DBE70DFCFFFF3E040000E1
:100A30001E040000FF070000F0B557464E4645462D
:100A4000DE46E0B50D000400190010002B035B0A20
:100A5000620F1A43E3000C03640A470F2743D04C8C
:100A60006E00914683B04A00C0009846A246760DBB
:100A7000ED0F520DC90F0190A24200D1B9E001243F
:100A800061408B468D4200D18DE0B41AA446002C03
:100A900000DCB7E0002A00D1CBE0C14A964200D189
:100AA00086E18022120417436246382A00DDA4E161
:100AB0001F2A00DD1DE2614620223C00521A01007F
:100AC00090409440421E90416246A0466446D74002
:100AD0004A46E1404446D21B91460C4304431C1B4A
:100AE000A34292414B4652429B1A9A4653461B02DE
:100AF00000D42BE153465A02530A9A465346002B20
:100B000000D166E1504600F0B3FB0300083B202211
:100B10002000D21A5146D040994002009C400A431E
:100B20009E4200DD64E19B1B591C1F2900DDFEE095
:100B30002023100026005B1A9C409840CE40CA40FB
:100B4000631E9C413043924600260443630709D04C
:100B50000F232340042B05D0231DA342A44164424C
:100B6000A2441C0053461B0200D4F2E08C4B013619
:100B70009E4200D10FE153468A49E4080B40190018
:100B80005B07234372054C02240B520D12052243CE
:100B9000ED072A431800110003B0F0BCBB46B24673
:100BA000A946A046F0BDB41AA446002C59DD002A7F
:100BB00000D1B0E0564500D1FAE08022120417437C
:100BC0006246382A00DDD4E01F2A00DCC0E139008B
:100BD000203AD1406246202A06D064464022121BA9
:100BE0003C00944004430194019C621E94410C43D8
:100BF000C3E03C0004432BD08B468D422ED06A4C80
:100C0000A446B4446446002C5FD0941BA446002E36
:100C100000D020E14C461C4300D1C7E161464C1E88
:100C2000012900D123E25E4DAC4500D1D8E1A446B4
:100C30001AE13A00024300D1E4E02200013A012C1B
:100C400000D1C3E156498C4200D1B1E094462BE774
:100C5000012461408B468D4200D016E752498C46F4
:100C6000B4446446002C00D1D3E0911B8C46002E86
:100C700000D15EE14A498A4200D1BEE180214C4662
:100C800009040C43A1466146382900DDBAE11F2959
:100C900000DD27E22024641A4946A1401E00884650
:100CA0006146A340CE4041465C1EA34131431943F7
:100CB0000C0063464946D9407F18241884429B4162
:100CC0005B429A461600BA445DE0384C721C2242E0
:100CD00000D0DFE04A461A43002E00D05CE1002A33
:100CE00000D1CFE13A00024300D17FE11C1A4A460D
:100CF000A3428941D21B4942521A9246120200D4A1
:100D00000AE2C41AA04280414B464042FF1A3B1AF5
:100D10009A465D461AE73A00024373D02200013A30
:100D2000012C00D1CBE0544542D0944648E7100056
:100D30001F3BD840202903D040235B1A9A4014431C
:100D4000631E9C41002300269A460443630700D09B
:100D5000FEE65246E308520713435246B446D20811
:100D60000F498C452AD01203140B62465205520DCE
:100D70000CE73C000443621E9441E4189C429241FB
:100D800052424A44924653461B02DFD5044B013679
:100D90009E4200D0A0E0320000240023F6E6C046C8
:100DA000FF070000FFFF7FFF01F8FFFFFE070000C5
:100DB000DB084A46520713434A46D208190011433A
:100DC00000D1B5E18024240314432403D54A240B25
:100DD000DCE6200000F04CFA030018331F2B00DC87
:100DE00095E622000838824000249E4200DC9AE604
:100DF000F61ACD4B1A409246A8E63C000443621E08
:100E000094416CE64A46DB08520713434A46D2082F
:100E1000A6E7C64C721C224200D0ACE04A461A43F8
:100E2000002E00D005E1002A00D156E13A0002432D
:100E300000D1DBE01C189C429B414F44BA465B4208
:100E40009A4453461B0200D480E75246B64B012613
:100E50001A4092467AE7B34CA24200D1C0E0802407
:100E60004D4624042543A9466446382C53DC61468C
:100E70001F2C00DDCDE020251E002D1B4C46AB4075
:100E8000AC40CE405D1EAB41344323434C46CC4086
:100E90003F1B45E04A461C1AD11BA34292415242D5
:100EA00092460A005146521A9246120200D583E039
:100EB0005346234300D021E60022002553E71C18A7
:100EC0009C429B414F44BA465B429A44534601269A
:100ED0001B0200D43AE702265246934B01211A40E6
:100EE0001300214062080A43DC075B089A4614435A
:100EF0002CE63900203AD1406246202A06D06446CA
:100F00004022121B3C00944004430194019C621E49
:100F100094410C43E3E5494619430B005C1EA34191
:100F2000C41AA0429B415B42FB1A9A465D461600DA
:100F3000DCE54946194300D1AEE06146644601391B
:100F4000012C00D1E0E0774CA44556D08C469AE6BF
:100F5000614620223C00521A944001009040A04675
:100F60006446421E90416246E1404446D7400C43ED
:100F70000443B94401E76B498A4200D10CE71818D1
:100F800098429B414F445B42FB18DC0740085B08DA
:100F90009A4616000443D9E6002A00D081E03B00BF
:100FA00003431DD18022002512030BE7C0087B07F5
:100FB0005D460343FA08D3E6C41AA04280414B467B
:100FC0004042FF1A3B1A9A465D4697E51C1A4A466C
:100FD000A3429B41D71B5B42FB1A9A46012685E53B
:100FE000C0087B075D460343FA08E7E64A46DB088C
:100FF000520713434A46D208B5E6C0087B070343AD
:10100000FA08DBE6494619430B00591E8B411C00C8
:1010100053E64D46203CE540202905D04024641A83
:101020004946A1400B43984643465C1EA3412B43CF
:1010300076E7002AE1D03A00DB08024300D1B8E6A7
:101040004A465207802413434A462403D2082242C8
:1010500007D0FE08264204D15D463200C3087F0750
:101060003B43590FDB004907DB080B43A6E6C41AD4
:10107000A04280414B464042FF1A3B1A9A465D46C9
:10108000012633E53B00034300D115E7C0087B0789
:101090005D460343FA0866E6C0087B070343FA0887
:1010A0005EE63A00DB08024300D182E64A46520778
:1010B000802413434A462403D208224207D0FE0864
:1010C000264204D15D463200C3087F073B43590FD7
:1010D000DB00DB0849070B4370E6C0087B070343CE
:1010E000FA0840E64C462039CC406146202906D01B
:1010F00066464021891B4E468E4033439846434600
:10110000591E8B411C43D8E51C18844280414F4432
:10111000BA4640428244D9E65346234300D1CBE647
:1011200014E6C046FF070000FFFF7FFFFE07000038
:101130000023014A1C0029E5FF0700000A0030B522
:10114000134C530009030500090B00205B0DD20F5F
:10115000A34204DD0F48834202DD0F4BD01830BD9F
:101160008020400301430D48C01A1F2808DD0C48A9
:10117000C31AD9400B005842002AF0D11800EEE7FC
:10118000084CC540A446634499400B002B43F2E74A
:10119000FE0300001D040000FFFFFF7F330400007A
:1011A00013040000EDFBFFFF10B5041E10D000F08B
:1011B0005FF80F4B1B1A0A2811DC0B222100121AB0
:1011C000D14015300A035B058440120B5B0D01E032
:1011D000002300221B0513432000190010BD22002C
:1011E0000B3882405B0512030024120B5B0DF1E704
:1011F0001E0400008446100062468C4619006346B7
:1012000000E0C0461FB500F005F9002801D4002118
:10121000C8421FBD10B500F055F84042013010BD66
:1012200010B500F0F7F8002801DB002010BD012008
:1012300010BDC04610B500F0EDF8002801DD00201B
:1012400010BD012010BDC04610B500F07DF800288B
:1012500001DC002010BD012010BDC04610B500F01B
:1012600073F8002801DA002010BD012010BDC0462F
:101270001C2101231B04984201D3000C10391B0AC6
:10128000984201D3000A08391B09984201D300098A
:10129000043902A2105C40187047C04604030202E1
:1012A00001010101000000000000000010B500294C
:1012B00003D1FFF7DDFF203002E00800FFF7D8FF81
:1012C00010BDC046F0B54E464546DE4657469046F0
:1012D000E0B517001A03120B0500844619480E03E7
:1012E0004C0091465A00DB0F9B46360B640DC90F2C
:1012F000520D844219D0824210D0012094420ED166
:101300004E450CD10120C44509D1594517D0002CB8
:1013100005D130002843431E984100E00120F0BC75
:10132000BB46B246A946A046F0BD330001202B4380
:10133000F5D1A242F3D14B463B43F0D1E2E7002086
:10134000EDE7C046FF070000F0B54746CE46040073
:10135000180016001B031B0B2D4D4A00994680B543
:1013600043000F03A446B0463F0B520DC90F5B0D5F
:10137000C00FAA4221D0AB4213D0002A22D13C4355
:10138000002B02D14D462E4322D0002C10D081429A
:1013900022D00220013908400138C0BCB946B0460D
:1013A000F0BD4D462E4329D1002AF0D13C43EED169
:1013B0000028F2D101204042EFE73D0025431DD136
:1013C0009342EED0002BE2D14C462643DFD1E0E73A
:1013D0000020002CE1D0DCE79A420ADCE8DB4F4534
:1013E000D7D80ED000204F45D7D20029E2D0080030
:1013F000D3E74342584140000138CEE70220404243
:10140000CBE7C445C5D80020C445C6D2EDE7C046E9
:10141000FF070000F0B54746CE460400180016004E
:101420001B031B0B2C4D4A00994680B543000F034C
:10143000A446B0463F0B520DC90F5B0DC00FAA4228
:101440000DD0AB4210D0002A27D13C43002B11D144
:101450004D462E430ED10020002C15D00EE03D004D
:10146000254310D1934218D14D462E430BD1002A6B
:1014700002D13C43002C0BD0814214D00220013910
:101480000840013800E00220C0BCB946B046F0BDBB
:101490000028F9D101204042F6E7002BECD14C4660
:1014A0002643E9D1EAE79A4204DD4342584140002D
:1014B0000138E9E79A42EBDB4F45DFD806D0002040
:1014C0004F45E1D20029E5D00800DDE7C445D5D875
:1014D0000020C445D8D2F5E7FF07000080B500AF73
:1014E00080235B0103480022190001F06DFCC04617
:1014F000BD4680BD0004005080B500AF80235B0175
:1015000003480122190001F05FFCC046BD4680BDC2
:101510000004005080B582B000AF0200FB1D1A70BD
:10152000C046094B180003F09FFA0300012BF8D1C5
:10153000FA239B00F91D0448012202F06DFFC0460A
:10154000BD4602B080BDC046B800002080B584B062
:1015500002AFFB1DFF221A70BB1D00221A70C0468D
:101560000A4B180003F080FA0300012BF8D1BA1DD2
:10157000F91D0648FA239B000093012303F0A9F804
:10158000BB1D1B781800BD4602B080BDB80000200E
:1015900080B582B000AF7860FFF7D8FF03001A0073
:1015A0007B681A70C046BD4602B080BD90B583B05E
:1015B00000AF0C4B32221A70FFF7C8FFFC1DFFF77B
:1015C000C5FF03002370FB1D1B78FF2B04D0054BC8
:1015D0001B78DBB2002BF1D1FB1D1B781800BD4638
:1015E00003B090BD160A002080B586B000AF264B30
:1015F0007B61FFF781FF00233B6105E0FF20FFF7E0
:1016000089FF3B6901333B613B69092BF6DDFFF73D
:1016100065FF3B1D40221A703B1D00225A703B1D86
:1016200000229A703B1D0022DA703B1D00221A71C5
:101630003B1D95225A710023FB6009E03A1DFB68AF
:10164000D3181B781800FFF765FFFB680133FB60B8
:10165000FB68052BF2DD02E07B69013B7B61FFF754
:1016600075FF0300012B02D07B69002BF4D1FFF73B
:1016700043FFFF20FFF74EFF044B01221A70C046C4
:10168000BD4606B080BDC046FF1F0000910000208F
:1016900080B500AF024B00221A70C046BD4680BD27
:1016A0009100002080B500AF024B1B781800BD46AA
:1016B00080BDC04691000020B0B584B000AF786016
:1016C00039601A4B0A221A700F257C19FFF73EFF6A
:1016D000030023707B191B78FF2B04D1134B1B785D
:1016E000DBB2002BF0D10F23FB181B78FE2B01D0AF
:1016F000002316E07B685A1C7A601800FFF748FF49
:101700007B685A1C7A601800FFF742FF3B68023B77
:101710003B603B68002BEDD1FFF718FFFFF716FF8A
:1017200001231800BD4604B0B0BDC046150A002014
:10173000B0B584B000AF78600A00FB1C1A700D23AE
:10174000FB1800221A70FFF731FF0300FF2B01D0B6
:10175000002351E0FB1C1B781800FFF7DBFEFB1C8D
:101760001B78FD2B3ED00E23FB1800221A707B68DD
:101770005A1C7A601B781800FFF7CCFE7B685A1C55
:101780007A601B781800FFF7C5FE0E217B187A18C7
:101790001278013A1A707B181B78002BE7D1FFF7FB
:1017A000D5FEFFF7D3FE11E00F257C19FFF7CEFE23
:1017B000030023707B191B781F221340052B0BD0CD
:1017C0000D217B181A787B1801321A700D23FB1833
:1017D0001B78402BE8D900E0C046C046FFF7B6FEB4
:1017E000031EFBD00F23FB181B781F221340052B71
:1017F00001D1012300E000231800BD4604B0B0BDB4
:10180000B0B584B000AF02003960FB1D1A70FFF75D
:10181000CDFE0300FF2B01D0FF2356E0FB1D1B78FC
:101820001800FFF777FE3B681B0EDBB21800FFF7CE
:1018300071FE3B681B0CDBB21800FFF76BFE3B68C8
:101840001B0ADBB21800FFF765FE3B68DBB218002D
:10185000FFF760FE0F217B1800221A70FB1D1B781A
:10186000402B02D17B1895221A70FB1D1B78482B48
:1018700003D10F23FB1887221A700F23FB181B7844
:101880001800FFF747FEFB1D1B784C2B01D1FFF71B
:101890005DFE0E23FB180A221A700D257C19FFF736
:1018A00055FE030023707B191B785BB2002B09DA0D
:1018B0000E217B187A181278013A1A707B181B785F
:1018C000002BEAD10D23FB181B781800BD4604B08D
:1018D000B0BD0000B0B584B000AF0200FB1D1A70AF
:1018E000FB1D1B78002B01D00123F5E07C4B1B78FE
:1018F000DBB21A000223134003D0794B1B78DBB212
:10190000EAE0FFF771FEFFF7E9FD0E23FB18002266
:101910001A7000214020FFF773FF0300012B00D055
:10192000BFE0704B64221A70D5235B001900482079
:10193000FFF766FF0300012B00D06DE00F23FB18BB
:1019400000221A700EE00F257B191C78FFF7FEFDB0
:1019500003001A000823FB181A557B191A787B1903
:1019600001321A700F23FB181B78032BEBD90822C6
:10197000BB189B78012B00D093E0BB18DB78AA2B17
:1019800000D08EE000217720FFF73AFF0300012B03
:1019900007D88023DB0519006920FFF731FF031EFC
:1019A00005D0504B1B78DBB2002BEBD100E0C046DA
:1019B0004C4B1B78DBB2002B00D172E000217A2067
:1019C000FFF71EFF031E00D06BE00F23FB18002261
:1019D0001A700EE00F257B191C78FFF7B7FD030086
:1019E0001A000823FB181A557B191A787B19013243
:1019F0001A700F23FB181B78032BEBD90823FB1855
:101A00001B781A004023134001D0062200E0022276
:101A10000E23FB181A7044E000217720FFF7F0FE38
:101A20000300012B08D800216920FFF7E9FE03001D
:101A3000012B01D8022200E001220E23FB181A70AC
:101A40000E23FB181B78022B0DD100217720FFF706
:101A5000D7FE0300012B0CD800216920FFF7D0FE30
:101A6000031E06D10CE000214120FFF7C9FE031E32
:101A700005D01C4B1B78DBB2002BE1D100E0C04647
:101A8000184B1B78DBB2002B07D080239B0019007A
:101A90005020FFF7B5FE031E03D00E23FB180022D3
:101AA0001A70114B0E243A1912781A70FFF724FDA0
:101AB000FFF74CFD3B191B78002B08D0084B1B7817
:101AC000DBB201229343DAB2054B1A7001E0FFF753
:101AD000DFFD034B1B78DBB21800BD4604B0B0BD80
:101AE00000000020150A00209000002080B582B080
:101AF00000AF0200FB1D1A70FB1D1B78002B01D0EC
:101B0000012302E0034B1B78DBB21800BD4602B094
:101B100080BDC0460000002080B584B000AFB96031
:101B20007A603B600F217B18021C1A707B181B78AF
:101B3000002B02D13B68002B01D1042353E02C4B36
:101B40001B78DBB21A000123134001D003234AE0C3
:101B5000284B1B781A000423134002D17B685B02D8
:101B60007B60FFF7BBFC3B68012B12D17B6819003F
:101B70005120FFF745FE031E2DD180239A00BB683C
:101B800011001800FFF798FD031E24D000233B60CE
:101B900021E07B6819005220FFF732FE031E1AD1A4
:101BA00080239A00BB6811001800FFF785FD031E13
:101BB0000CD0BB688022920094466344BB603B68B3
:101BC000013B3B603B68002BEAD100E0C0460021AE
:101BD0004C20FFF715FEFFF78FFCFFF7B7FC3B68C3
:101BE0005A1E9341DBB21800BD4604B080BDC0460A
:101BF000000000209000002080B584B000AFB960E4
:101C00007A603B600F217B18021C1A707B181B78CE
:101C1000002B02D13B68002B01D104236BE0384B31
:101C20001B78DBB21A000123134001D0032362E0CA
:101C3000334B1B78DBB21A000423134001D002237C
:101C400059E0304B1B781A000423134002D17B6803
:101C50005B027B60FFF742FC3B68012B10D17B6885
:101C600019005820FFF7CCFD031E3CD1BB68FE21B4
:101C70001800FFF75DFD031E35D000233B6032E006
:101C8000204B1B781A000223134008D00021772034
:101C9000FFF7B6FD3B6819005720FFF7B1FD7B68E1
:101CA00019005920FFF7ACFD031E1CD1BB68FC21B5
:101CB0001800FFF73DFD031E0CD0BB688022920088
:101CC00094466344BB603B68013B3B603B68002B30
:101CD000ECD100E0C046FD210020FFF729FD031EE6
:101CE00001D101233B60FFF707FCFFF72FFC3B68A6
:101CF0005A1E9341DBB21800BD4604B080BDC046F9
:101D0000000000209000002090B58BB000AF3A603A
:101D1000FB1D021C1A70BB1D0A1C1A703B683B623B
:101D2000FB1D1B78002B01D004231FE12723FB1888
:101D300001221A70BB1D1B78052B2BD13B6A1B7827
:101D4000022B17D021DC002B02D0012B0BD01CE082
:101D5000FFF7A8FC031E01D0FFF79AFC2723FB180E
:101D600000221A70FFE0FFF73FFC2723FB18002238
:101D70001A70F8E03B6A5C1CFFF794FC03002370C8
:101D80002723FB1800221A70EDE02723FB180422FA
:101D90001A70E8E0774B1B78DBB21A00012313407E
:101DA00001D00323E2E0FFF799FBBB1D1B780D2B4D
:101DB00000D9C8E09A00704BD3181B689F460021D9
:101DC0004920FFF71DFD031E00D0C1E00C243B1984
:101DD00010211800FFF770FC031E00D1B8E02200AC
:101DE000BB181B789B09DBB2012B14D11100BB1867
:101DF0005B7A9AB27B181B7A9BB21B029BB2D318F8
:101E00009AB21E217B1801321A807B181B889A0215
:101E10003B681A603AE00C203B185B790F221340B4
:101E2000DAB23B189B7ADB09DBB2D318DAB23B1883
:101E30005B7A5B00DBB206210B40DBB2D318DAB26F
:101E400026243B1902321A703B181B7A9B09DBB21D
:101E50009AB23B18DB799BB29B009BB2D3189AB223
:101E60003B189B799B0299B2C0231B010B409BB28C
:101E7000D3189AB21E217B1801321A807B181A8857
:101E80003B191B78093B9A403B681A602723FB18D3
:101E900000221A705CE03B68802292001A8027239F
:101EA000FB1800221A705AE0FFF780FB0300FF2B9B
:101EB00050D12723FB1800221A704BE00021492043
:101EC000FFF79EFC031E47D13B6A10211800FFF765
:101ED000F3FB031E40D02723FB1800221A703BE0BF
:101EE00000214A20FFF78CFC031E37D13B6A1021EA
:101EF0001800FFF7E1FB031E30D02723FB18002258
:101F00001A702BE000217A20FFF77AFC031E1AD109
:101F10002623FB1800221A700CE03C6A631C3B620B
:101F2000FFF714FB0300237026217B181A787B1817
:101F300001321A702623FB181B78032BEDD92723B7
:101F4000FB1800221A702723FB1804221A7006E0DF
:101F5000C04604E0C04602E0C04600E0C046FFF7CD
:101F6000CBFAFFF7F3FA2723FB181B781800BD46BE
:101F70000BB090BD00000020788F000880B584B0C1
:101F800000AF78607B681800FEF7BEF802000F21F2
:101F90007B181A707B181B789AB2FA23DB007968D9
:101FA000034802F095FEC046BD4604B080BDC04661
:101FB0001001002080B584B000AF78600023FB6082
:101FC00002E0FB680133FB607B685A1C7A601B7877
:101FD000002BF6D1FB681800BD4604B080BD0000A0
:101FE00080B582B000AF00237B6007E0084A7B68C1
:101FF000D31800221A707B6801337B607A688023D3
:10200000DB009A42F2DBC046C046BD4602B080BD4E
:10201000FC05002080B582B000AF00F03BFC00F072
:1020200033F900F077FA00F00DFA00F043FA03F00C
:102030009DFB00F0A3F97B497B4B0122180005F0C2
:1020400055FA03001A00794B1A70784B1B78002B55
:1020500004D0774B1800FFF791FF03E0754B180091
:10206000FFF78CFF744A7549754B180005F0F6FFB1
:10207000714B1B685B699A1E6F4B1B685B895343EE
:102080001800FFF791F800226E4BFEF713FA0200DA
:102090000B0010001900FEF723F902006A4B1A60CA
:1020A000694B1A6869496A4B180006F0D9F9684B00
:1020B0001800FFF763FFFFF793FF5F4B1B685B8917
:1020C0001A005E4B1B6853431800FFF76DF800229F
:1020D0005C4BFEF7EFF902000B0010001900FEF751
:1020E000FFF802005B4B1A605A4B1A685A49584B6A
:1020F000180006F0B5F9564B1800FFF73FFFFFF741
:102100006FFF391D554B0022180001F0CBFF5449D9
:10211000544B1322180005F035FA03001A00434B04
:102120001A70424B1B78002B03D14F4B1800FFF75E
:1021300025FF4C4A4D4B1100180006F008F903002A
:10214000DAB23A4B1A704A4B1800FFF717FF454BAB
:10215000180005F04FFF03001A00344B1A70404975
:10216000404B0122180005F00DFA03001A002F4B16
:102170001A703C4A8023D900354B180006F02BF822
:10218000334B1800FFF7FAFE364B180005F032FF0C
:10219000FFF726FF3749334B0B22180005F0F2F901
:1021A00003001A00214B1A70294A334B1000190002
:1021B00043231A0006F0A8F9254B1800FFF7FAFE92
:1021C00003001A002D4B2249264805F010FD03009C
:1021D0001A00164B1A702A4B1800FFF7CFFE214B3E
:1021E000180005F007FFFFF7FBFE22491D4B0122F7
:1021F000180005F0C7F903001A000C4B1A70214BA8
:102200008022D2001249174805F0B0FB104B18008D
:10221000FFF7B4FE134B180005F0ECFEFFF7E0FEED
:10222000FEE7C046C48D000898010020F805002094
:10223000C88D0008EC8D0008040A0020080A002060
:10224000108E00080000E03F0C0A0020148E0008E9
:10225000FC050020100A0020308E000894000020A9
:102260004C8E0008C8030020588E0008708E0008AD
:10227000908E0008BC8E0008C88E0008000A00205E
:102280000C8F0008FC09002090B59DB000AF3824E9
:102290003B19180038231A00002106F001F9242305
:1022A000FB18180014231A00002106F0F9F83B006F
:1022B000180024231A00002106F0F2F82D4B1B68A9
:1022C0002D4A1A402B4B802109010A431A60210034
:1022D0007B180A221A607B180122DA607B18102210
:1022E0001A617B1801225A617B1802229A627B18BC
:1022F0000022DA627B1800221A637B188022120403
:102300005A637B18180000F07DFD031E01D000F019
:1023100053F924217B180F221A607B1803225A607C
:102320007B1800229A607B180022DA607B188022DA
:10233000D2001A617B180021180001F027F9031E52
:1023400001D000F039F93B0021221A603B00002245
:10235000DA603B00802292025A603B00180001F0D4
:1023600039FB031E01D000F027F9C046BD461DB061
:1023700090BDC04600700040FFE7FFFF80B586B00B
:1023800000AF3B1D180014231A00002106F088F846
:102390003B0000221A60294B294A1A60274B002271
:1023A0005A60264B7F229A60244BFF22DA60234B2F
:1023B00000221A61214B00225A61204B00229A61AF
:1023C0001E4B0022DA611D4B180001F091FC031E28
:1023D00001D000F0F1F83B1D00221A703B1D0022D5
:1023E0005A703B1D00229A703B1D0022DA603B1D93
:1023F00000221A61391D114B0122180001F014FD51
:10240000031E01D000F0D8F83B0003221A703B00F5
:1024100004225A703B0010229A703B002422DA708A
:102420003900064B0122180001F0A8FD031E01D05F
:1024300000F0C2F8C046BD4606B080BD9400002042
:102440000028004080B500AF184B194A1A60174B9E
:10245000822252005A60154B00229A60134B0022D0
:10246000DA60124B00221A61104B00225A610F4BA6
:10247000802292009A610D4B1022DA610B4B0022F0
:102480001A620A4B00225A62084B00229A62074BDA
:102490000722DA62054B180001F02AFF031E01D063
:1024A00000F08AF8C046BD4680BDC046B800002096
:1024B0000038004080B500AF144B154A1A60134B2A
:1024C000E12252025A60114B00229A600F4B002207
:1024D000DA600E4B00221A610C4B0C225A610B4B36
:1024E00000229A61094B0022DA61084B00221A622D
:1024F000064B00225A62054B180002F095FB031EA2
:1025000001D000F059F8C046BD4680BD1001002042
:102510000038014090B589B000AF0C243B19180079
:1025200014231A00002105F0BBFF214BDA6A204B6F
:1025300080210A43DA621E4BDB6A80221340BB60B3
:10254000BB681B4BDA6A1A4B02210A43DA62184B4A
:10255000DB6A022213407B607B68154BDA6A144BFE
:1025600001210A43DA62124BDB6A012213403B600D
:102570003B6880235B010F480022190000F024FC17
:102580003B19802252011A603B1901225A603B1903
:1025900000229A603B190022DA603B19054A1900B3
:1025A000100000F09BFAC046BD4609B090BDC04681
:1025B000001002400004005080B500AF72B6C04663
:1025C000FEE7000080B500AF074B5A6B064B0121B8
:1025D0000A435A63044B9A6B034B802149050A4313
:1025E0009A63C046BD4680BD0010024080B582B0EF
:1025F00000AF78607B681B68064A934206D1064BA1
:102600001A6D054B8021C9020A431A65C046BD46B2
:1026100002B080BD002800400010024090B589B093
:1026200000AF78600C243B19180014231A00002115
:1026300005F036FF7B681B68184A934229D1184B76
:102640009A6B174B8021C9010A439A63144BDA6ACB
:10265000134B02210A43DA62114BDB6A0222134058
:10266000BB60BB683B19E02212021A6021007B1894
:1026700002225A607B1800229A607B180322DA60DB
:102680007B1800221A617B18064A1900100000F01E
:1026900025FAC046BD4609B090BDC046003800408E
:1026A000001002400004005090B589B000AF78607F
:1026B0000C243B19180014231A00002105F0F0FE29
:1026C0007B681B68184A93422AD1184B5A6B174BE8
:1026D0008021C9010A435A63144BDA6A134B012162
:1026E0000A43DA62114BDB6A01221340BB60BB680C
:1026F0003B19C022D2001A6021007B1802225A60C6
:102700007B1800229A607B180322DA607B1804226F
:102710001A617A18A023DB051100180000F0DEF919
:10272000C046BD4609B090BD0038014000100240CF
:1027300080B500AF0D4B1B78DBB2002B06D00B4BE6
:102740001B78DBB2013BDAB2084B1A70084B1B78DE
:10275000DBB2002B06D0064B1B78DBB2013BDAB2B2
:10276000034B1A70C046BD4680BDC046150A002006
:10277000160A002080B500AFFEE780B500AFFEE787
:1027800080B500AFC046BD4680BD80B500AFC04635
:10279000BD4680BD80B500AF0A4B1B78DBB201336C
:1027A000DAB2084B1A70074B1B78DBB2092B04D93D
:1027B000044B00221A70FFF7BBFF00F0BFF8C046C1
:1027C000BD4680BD140A002080B586B000AF786099
:1027D000144A154BD31A7B617B693B61134B1B6811
:1027E000002B02D1114B124A1A60104B1A687B68F9
:1027F000D3183A699A4207D205F05AFE03000C2218
:102800001A6001235B4209E0084B1B68FB60074B21
:102810001A687B68D218054B1A60FB681800BD4621
:1028200006B080BD0020002000040000180A00202F
:10283000A80B002080B500AFC046BD4680BD00009B
:102840000D488546FFF7F6FF0C480D490D4A002359
:1028500002E0D458C4500433C4188C42F9D30A4A55
:102860000A4C002301E013600432A242FBD305F0BE
:1028700025FEFFF7CFFBFEE7002000200000002030
:1028800074000020E090000874000020A40B0020D9
:10289000FEE7000080B582B000AFFB1D00221A7079
:1028A0000B4B1A680A4B40210A431A60002000F0C3
:1028B00011F8031E03D0FB1D01221A7001E0FFF77F
:1028C00081FEFB1D1B781800BD4602B080BDC046CE
:1028D0000020024090B583B000AF7860144B1C68B4
:1028E000144B1B781900FA239800FDF71FFC030016
:1028F00019002000FDF71AFC0300180000F0E1F8B1
:10290000031E01D001230FE07B68032B0BD87968ED
:1029100001235B420022180000F0BEF8064B7A68E3
:102920001A60002300E001231800BD4603B090BDEB
:10293000040000200C0000200800002080B500AF3B
:10294000054B1B781A00054B1B68D218034B1A6005
:10295000C046BD4680BDC0460C0000201C0A0020B9
:1029600080B500AF024B1B681800BD4680BDC04655
:102970001C0A002090B583B000AF02003960FB1D37
:102980001A70FB1D1B787F2B28D82F4AFB1D1B7844
:102990005BB29B08C0339B009B58FA1D1278110054
:1029A00003220A40D200FF2191400A00D2431A407C
:1029B00011003B689B01FF221A40FB1D1B78180089
:1029C00003230340DB009A401F48FB1D1B785BB2CA
:1029D0009B080A43C0339B001A5031E01B4AFB1D81
:1029E0001B7819000F230B40083B9B0806339B0004
:1029F000D31804331B68FA1D1278110003220A4011
:102A0000D200FF2191400A00D2431A4011003B68D6
:102A10009B01FF221A40FB1D1B7818000323034073
:102A2000DB009A400948FB1D1B781C000F23234044
:102A3000083B9B080A4306339B00C31804331A6003
:102A4000C046BD4603B090BD00E100E000ED00E0EF
:102A500080B582B000AF78607B685A1E80235B042B
:102A60009A4201D3012310E00A4B7A68013A5A6076
:102A700001235B4203211800FFF77CFF054B002276
:102A80009A60044B07221A6000231800BD4602B06A
:102A900080BDC04610E000E080B584B000AFB960F2
:102AA0007A600F217B18021C1A70BA687B181B7899
:102AB0005BB211001800FFF75DFFC046BD4604B0D1
:102AC00080BD80B582B000AF78607B681800FFF7EA
:102AD000BFFF03001800BD4602B080BD80B586B0C0
:102AE00000AF7860396000237B610023FB60002326
:102AF0003B614FE13B681B6801217A6991400A0004
:102B00001340FB60FB68002B00D140E13B685B6831
:102B100003221340012B05D03B685B68032213405E
:102B2000022B30D17B689B683B617B695B00032291
:102B30009A401300DA433B6913403B613B68DA6813
:102B40007B695B009A4013003A6913433B617B68E1
:102B50003A699A607B685B683B6101227B699A40B5
:102B60001300DA433B6913403B613B685B681B0918
:102B700001221A407B699A4013003A6913433B6172
:102B80007B683A695A603B685B6803221340032BF9
:102B900017D07B68DB683B617B695B0003229A404E
:102BA0001300DA433B6913403B613B689A687B69D9
:102BB0005B009A4013003A6913433B617B683A69B2
:102BC000DA603B685B6803221340022B23D17B69E8
:102BD000DA087B6808329200D3583B617B69072290
:102BE00013409B000F229A401300DA433B691340C5
:102BF0003B613B681A697B6907210B409B009A4047
:102C000013003A6913433B617B69DA087B68083239
:102C100092003969D1507B681B683B617B695B001E
:102C200003229A401300DA433B6913403B613B683F
:102C30005B6803221A407B695B009A4013003A6983
:102C400013433B617B683A691A603B685A68C0234A
:102C50009B02134000D19AE0544B5A6B534B012115
:102C60000A435A63524A7B699B0802339B009B5874
:102C70003B617B69032213409B000F229A401300A3
:102C8000DA433B6913403B617A68A023DB059A4233
:102C900019D07B68474A934213D07B68464A9342D7
:102CA0000DD07B68454A934207D07B68444A9342E3
:102CB00001D1052308E0062306E0032304E00223F4
:102CC00002E0012300E000237A6903210A40920018
:102CD00093403A6913433B6135497B699B08023352
:102CE0009B003A695A50374B9B683B61FB68DA435B
:102CF0003B6913403B613B685A6880235B03134088
:102D000003D03A69FB6813433B612E4B3A699A60E2
:102D10002C4BDB683B61FB68DA433B6913403B614A
:102D20003B685A6880239B03134003D03A69FB68D1
:102D300013433B61234B3A69DA60224B5B683B618A
:102D4000FB68DA433B6913403B613B685A68802368
:102D50009B02134003D03A69FB6813433B61194B54
:102D60003A695A60174B1B683B61FB68DA433B6961
:102D700013403B613B685A6880235B02134003D0D9
:102D80003A69FB6813433B610E4B3A691A607B69F1
:102D900001337B613B681A687B69DA40131E00D0FF
:102DA000A8E6C046C046BD4606B080BD0010024041
:102DB000000001400004005000080050000C0050CA
:102DC000001C00500004014080B582B000AF786064
:102DD00008001100BB1C021C1A807B1C0A1C1A7004
:102DE0007B1C1B78002B04D0BB1C1A887B689A6163
:102DF00003E0BB1C1A887B689A62C046BD4602B0DD
:102E000080BD0000B0B58AB000AF78607B68002B51
:102E100002D1012300F0AFFBCF4BDB680C22134043
:102E20003B62CD4BDA6880235B021340FB617B6819
:102E30001B680122134000D17EE03B6A082B07D0BB
:102E40003B6A0C2B12D1FA6980235B029A420DD1A6
:102E5000C14B1A6880239B02134000D16BE07B6852
:102E60005B68002B67D1012300F085FB7B685A6803
:102E700080235B029A4207D1B74B1A68B64B802178
:102E800049020A431A6027E07B685A68A023DB02E4
:102E90009A420ED1B04B1A68AF4B8021C9020A4347
:102EA0001A60AD4B1A68AC4B802149020A431A6084
:102EB00012E0A94B1A68A84BA8490A401A60A64B11
:102EC0001A6880235B021340FB60FB68A24B1A6800
:102ED000A14BA3490A401A607B685B68002B15D0A0
:102EE000FFF73EFD0300BB6109E0FFF739FD02007B
:102EF000BB69D31A642B02D9032300F03CFB964B29
:102F00001A6880239B021340EFD015E0FFF728FDDD
:102F10000300BB6108E0FFF723FD0200BB69D31A81
:102F2000642B01D9032326E38B4B1A6880239B0271
:102F30001340F0D100E0C0467B681B6802221340BA
:102F400000D18BE07B68DB687B613B6A042B05D09A
:102F50003B6A0C2B3ED1FB69002B3BD17E4B1B689F
:102F60000422134004D07B69002B01D1012302E32A
:102F7000794B5B687B4A134019007B681B691A0216
:102F8000754B0A435A60744B1B680922934319001E
:102F9000714B7A690A431A6000F040FC01006E4BE5
:102FA000DB681B090F2213406F4AD35C0A00DA402A
:102FB0006E4B1A606E4B1B6813257C191800FFF7C7
:102FC00089FC030023707B191B78002B46D07B19EA
:102FD0001B78D0E27B69002B27D05F4B1B6809224E
:102FE000934319005C4B7A690A431A60FFF7B8FCF7
:102FF0000300BB6108E0FFF7B3FC0200BB69D31A12
:10300000022B01D90323B6E2534B1B680422134061
:10301000F1D0514B5B68534A134019007B681B6920
:103020001A024D4B0A435A6018E04B4B1A684A4B40
:1030300001218A431A60FFF793FC0300BB6108E09B
:10304000FFF78EFC0200BB69D31A022B01D90323C0
:1030500091E2414B1B6804221340F1D17B681B684D
:103060001022134000D1A1E03B6A002B40D13A4B23
:103070001A6880239B00134005D07B68DB69002B16
:1030800001D1012377E2344B5B683A4A13401900BF
:103090007B685A6A304B0A435A602F4B5B681B02AD
:1030A000190A7B681B6A1A062B4B0A435A607B6815
:1030B0005B6A5B0B0133802212029A40264BDB686D
:1030C0001B090F210B402849CB5CDA40274B1A60C3
:1030D000274B1B6813257C191800FFF7FBFB030027
:1030E00023707B191B78002B60D07B191B7842E280
:1030F0007B68DB69002B3FD0174B1A68164B802189
:1031000049000A431A60FFF72BFC0300BB6108E08B
:10311000FFF726FC0200BB69D31A022B01D9032357
:1031200029E20D4B1A6880239B001340F0D00A4B14
:103130005B68104A134019007B685A6A064B0A43C1
:103140005A60054B5B681B02190A7B681B6A1A06EA
:10315000014B0A435A6029E000100240FFFFFEFFC6
:10316000FFFFFBFFFFE0FFFFB08F0008040000201F
:1031700008000020FF1FFFFFBD4B1A68BC4BBD4974
:103180000A401A60FFF7ECFB0300BB6108E0FFF7A1
:10319000E7FB0200BB69D31A022B01D90323EAE142
:1031A000B34B1A6880239B001340F0D17B681B68E7
:1031B0000822134036D07B685B69002B19D0AC4BDA
:1031C0001A6DAB4B01210A431A65FFF7C9FB0300D7
:1031D000BB6108E0FFF7C4FB0200BB69D31A022BF6
:1031E00001D90323C7E1A24B1B6D02221340F1D08A
:1031F00018E09F4B1A6D9E4B01218A431A65FFF719
:10320000AFFB0300BB6108E0FFF7AAFB0200BB694C
:10321000D31A022B01D90323ADE1954B1B6D02227A
:103220001340F1D17B681B680422134000D1AEE04B
:1032300027203B1800221A708D4B9A6B80235B0568
:10324000134009D18A4B9A6B894B802149050A4367
:103250009A633B1801221A70874B1A6880235B001F
:1032600013401AD1844B1A68834B802149000A43CA
:103270001A60FFF775FB0300BB6108E0FFF770FB06
:103280000200BB69D31A642B01D9032373E17A4B83
:103290001A6880235B001340F0D07B689A68802313
:1032A0005B009A4207D1724B1A6D714B8021490025
:1032B0000A431A6531E07B689B68002B0CD16C4B8C
:1032C0001A6D6B4B6B490A401A65694B1A6D684B56
:1032D0006A490A401A6520E07B689A68A023DB00EF
:1032E0009A420ED1624B1A6D614B8021C9000A438C
:1032F0001A655F4B1A6D5E4B802149000A431A65BF
:103300000BE05B4B1A6D5A4B5A490A401A65584BF1
:103310001A6D574B59490A401A657B689B68002B08
:1033200015D0FFF71DFB0300BB6109E0FFF718FB99
:103330000200BB69D31A524A934201D903231AE10E
:103340004B4B1A6D80239B001340EFD014E0FFF726
:1033500007FB0300BB6109E0FFF702FB0200BB694A
:10336000D31A474A934201D9032304E1404B1A6D13
:1033700080239B001340EFD12723FB181B78012BE0
:1033800005D13B4B9A6B3A4B3E490A409A637B68A6
:103390001B682022134049D07B689B69002B26D0F4
:1033A000334B9A68324B01210A439A60304B5A6B77
:1033B0002F4B01210A435A63334B1A6A324B802147
:1033C00089010A431A62FFF7CBFA0300BB6108E0E8
:1033D000FFF7C6FA0200BB69D31A022B01D90323F7
:1033E000C9E0234B9B6802221340F1D01EE0204B22
:1033F0009A681F4B01218A439A60234B1A6A224B19
:1034000022490A401A62FFF7ABFA0300BB6108E0E9
:10341000FFF7A6FA0200BB69D31A022B01D90323D6
:10342000A9E0134B9B6802221340F1D17B689B6A91
:10343000002B00D19EE03B6A0C2B00D177E07B682B
:103440009B6A022B58D10A4B1A68094B10490A4053
:103450001A60FFF785FA0300BB611BE0FFF780FAF3
:103460000200BB69D31A022B14D9032383E0C046A0
:1034700000100240FFFEFFFF00700040FFFBFFFF57
:1034800088130000FFFFFFEF00000140FFDFFFFF98
:10349000FFFFFFFE3A4B1A6880239B041340DDD1E7
:1034A000374BDB68374A134019007B68DA6A7B6860
:1034B0001B6B1A437B685B6B1A43314B0A43DA6020
:1034C0002F4B1A682E4B802149040A431A60FFF7DC
:1034D00047FA0300BB6108E0FFF742FA0200BB694C
:1034E000D31A022B01D9032345E0254B1A68802308
:1034F0009B041340F0D03DE0214B1A68204B224939
:103500000A401A60FFF72CFA0300BB6108E0FFF7DE
:1035100027FA0200BB69D31A022B01D903232AE040
:10352000174B1A6880239B041340F0D122E07B687C
:103530009B6A012B01D101231DE0114BDB68FB616C
:10354000FA6980235B021A407B68DB6A9A420FD1DA
:10355000FA69F0239B031A407B681B6B9A4207D1E0
:10356000FA69C0231B041A407B685B6B9A4201D046
:10357000012300E000231800BD460AB0B0BDC046DC
:1035800000100240FFFF02FFFFFFFFFEB0B584B056
:1035900000AF786039607B68002B01D1012328E1FE
:1035A000964B1B68012213403A689A421ED9934BEE
:1035B0001B68012293431900904B3A680A431A6032
:1035C000FFF7CEF90300FB6009E0FFF7C9F902003D
:1035D000FB68D31A8A4A934201D9032309E1874B36
:1035E0001B68012213403A689A42EED17B681B683F
:1035F0000222134009D0834BDB68F0229343190069
:103600007B689A687F4B0A43DA607B681B680122FB
:10361000134000D189E07B685B68022B07D1794BAE
:103620001A6880239B02134020D10123E1E07B68CC
:103630005B68032B07D1734B1A6880239B041340EC
:1036400014D10123D5E07B685B68012B06D16D4B5B
:103650001B680422134009D10123CAE0694B1A6890
:1036600080239B00134001D10123C2E0654BDB683E
:103670000322934319007B685A68624B0A43DA605D
:10368000FFF76EF90300FB607B685B68022B11D1CA
:1036900009E0FFF765F90200FB68D31A584A934224
:1036A00001D90323A5E0574BDB680C221340082BFC
:1036B000EFD13AE07B685B68032B11D109E0FFF79B
:1036C0004FF90200FB68D31A4D4A934201D90323F4
:1036D0008FE04C4BDB680C2213400C2BEFD124E025
:1036E0007B685B68012B1BD109E0FFF739F9020009
:1036F000FB68D31A424A934201D9032379E0414B34
:10370000DB680C221340042BEFD10EE0FFF728F901
:103710000200FB68D31A3A4A934201D9032368E0B6
:10372000384BDB680C221340F0D1344B1B6801226C
:1037300013403A689A421ED2304B1B6801229343D1
:1037400019002E4B3A680A431A60FFF709F9030083
:10375000FB6009E0FFF704F90200FB68D31A284A6E
:10376000934201D9032344E0244B1B6801221340F8
:103770003A689A42EED17B681B680422134009D054
:10378000204BDB68204A134019007B68DA681D4B28
:103790000A43DA607B681B68082213400AD0194B81
:1037A000DB681A4A134019007B681B69DA00154B65
:1037B0000A43DA6000F032F80100124BDB681B09A3
:1037C0000F221340124AD35C0A00DA40114B1A60F0
:1037D000114B1B680B257C191800FFF77BF80300C1
:1037E00023707B191B78002B02D07B191B7800E01B
:1037F00000231800BD4604B0B0BDC0460020024002
:103800008813000000100240FFF8FFFFFFC7FFFF12
:10381000B08F00080400002008000020B0B58EB072
:1038200000AF4C4BDB68FB62FA6A0C2313400C2B95
:1038300014D000D97BE0042B02D0082B0BD076E00B
:10384000444B1B681022134002D0434B3B637CE087
:10385000424B3B6379E0424B3B6376E0FB6A9A0C58
:103860000F231A403F4B9B5CBB62FB6A9A0D0323FC
:10387000134001337B62374BDA6880235B021340CD
:103880001AD0BB6ABB610023FB61354A0023B869CB
:10389000F969FCF7F7FC02000B00100019007B6AC5
:1038A0003B6100237B613A697B69FCF7CBFC02003A
:1038B0000B0013007B6337E0264B1B68102213407C
:1038C0001AD0BB6ABB600023FB60234A0023B868A0
:1038D000F968FCF7D7FC02000B00100019007B6AA6
:1038E0003B6000237B603A687B68FCF7ABFC02001E
:1038F0000B0013007B6317E0BB6A1800002319005C
:10390000164A0023FCF7BEFC02000B001000190051
:103910007B6A1C0000231D0022002B00FCF792FC98
:1039200002000B0013007B637B6B3B630DE0094BD4
:103930005B685B0B072213403B623B6A01338022CA
:1039400012029A4013003B63C0463B6B1800BD4611
:103950000EB0B0BD0010024000093D000024F4008C
:1039600000127A00C88F000880B500AF024B1B68B8
:103970001800BD4680BDC0460400002080B500AFE1
:10398000FFF7F2FF0100064BDB681B0A072213401A
:10399000044AD35CD9400B001800BD4680BDC04628
:1039A00000100240C08F000880B500AFFFF7DCFFB9
:1039B0000100064BDB68DB0A07221340044AD35C94
:1039C000D9400B001800BD4680BDC0460010024023
:1039D000C08F000880B586B000AF78601723FB1851
:1039E00000221A707B681B682022134006D17B6876
:1039F0001A6880231B01134000D104E1B14B9A6B7C
:103A000080235B0513400AD1AE4B9A6BAD4B8021EE
:103A100049050A439A631723FB1801221A70AA4B1F
:103A20001A6880235B0013401AD1A74B1A68A64B73
:103A3000802149000A431A60FEF792FF03003B61B0
:103A400008E0FEF78DFF02003B69D31A642B01D911
:103A5000032333E19C4B1A6880235B001340F0D0B2
:103A6000984B1A68C0239B031340FB607B685A681D
:103A7000C0239B031340FA689A4207D17B689A6877
:103A8000C0239B031340FA689A4213D07B685A689C
:103A9000C0239B021A40C0239B029A420AD1894B41
:103AA0001A6880239B021A4080239B029A4201D10C
:103AB000012303E1834B1A6DC0239B021340FB607B
:103AC000FB68002B49D07B685A68C0239B021340D7
:103AD000FA689A4204D07B681B68202213400DD1FB
:103AE0007B689A68C0239B021340FA689A4234D0DC
:103AF0007B681A6880231B0113402ED0714B1B6D0D
:103B0000724A1340FB606F4B1A6D6E4B80210903A4
:103B10000A431A656B4B1A6D6A4B6D490A401A6568
:103B2000684BFA681A65FA6880235B00134014D06A
:103B3000FEF716FF03003B6109E0FEF711FF0200EC
:103B40003B69D31A634A934201D90323B6E05D4B24
:103B50001A6D80239B001340EFD07B681A68802386
:103B60001B0113401FD07B689A68C0239B021A4038
:103B7000C0239B029A420CD1524B1B68564A1340F9
:103B800019007B689A68C0239B031A404D4B0A4377
:103B90001A604C4B196D7B689A68C0239B021A40CF
:103BA000484B0A431A657B681B68202213401FD0CC
:103BB0007B685A68C0239B021A40C0239B029A422A
:103BC0000CD1404B1B68444A134019007B685A686B
:103BD000C0239B031A403B4B0A431A60394B196DB3
:103BE0007B685A68C0239B021A40364B0A431A6509
:103BF0001723FB181B78012B05D1324B9A6B314BE5
:103C000036490A409A637B681B680122134009D039
:103C10002C4BDB6C0322934319007B68DA68294B39
:103C20000A43DA647B681B680222134009D0254BE3
:103C3000DB6C0C22934319007B681A69214B0A4301
:103C4000DA647B681B680422134009D01D4BDB6CCF
:103C5000234A134019007B685A691A4B0A43DA64F5
:103C60007B681B680822134009D0164BDB6C1D4A89
:103C7000134019007B689A69124B0A43DA647B6827
:103C80001B684022134009D00E4BDB6C164A1340D0
:103C900019007B681A6A0B4B0A43DA647B681B685D
:103CA0008022134009D0074BDB6C104A13401900E7
:103CB0007B68DA69034B0A43DA6400231800BD46C7
:103CC00006B080BD0010024000700040FFFFFCFF06
:103CD000FFFFF7FF88130000FFFFCFFFFFFFFFEF9D
:103CE000FFF3FFFFFFCFFFFFFFFFFFFBFFFFF3FF30
:103CF000B0B584B000AF78600F23FB1801221A70B2
:103D00007B68002B01D1012388E07B6821229B5C2A
:103D1000DBB2002B07D17B682022002199547B68FD
:103D20001800FEF763FC7B682122022199547B680E
:103D30001B68DB6810221340102B5FD07B681B6868
:103D4000CA225A627B681B6853225A620F257C196B
:103D50007B68180000F01EFA0300237028003B184F
:103D60001B78002B2CD17B681B689A687B681B68CA
:103D70002C490A409A607B681B6899687B685A687E
:103D80007B681B691A437B689B691A437B681B68C5
:103D90000A439A607B681B687A68D2681A617B68FC
:103DA0001B6819697B689B681A047B681B680A4357
:103DB0001A613C187B68180000F030FA0300237089
:103DC0000F23FB181B78002B13D17B681B68DA6C60
:103DD0007B681B6803218A43DA647B681B68D96CA3
:103DE0007B68DA697B685B691A437B681B680A43F6
:103DF000DA647B681B68FF225A6203E00F23FB181A
:103E000000221A700F23FB181B78002B03D17B684C
:103E10002122012199540F23FB181B781800BD465D
:103E200004B0B0BDBFFF8FFFB0B586B000AFF86083
:103E3000B9607A6000237B61FB6820229B5C012BC8
:103E400001D1022392E0FB68202201219954FB68F2
:103E50002122022199547B68002B25D1FB681B6825
:103E60009B684022134002D1BB680022DA70BB6815
:103E70001B78180000F0FCF903001C04BB685B7899
:103E8000180000F0F5F903001B021C43BB689B7887
:103E9000180000F0EDF9030022001A43BB68DB783C
:103EA0009B0513437B6117E0FB681B689B684022FE
:103EB000134002D1BB680022DA70BB681B781A0479
:103EC000BB685B781B021343BA6892781A43BB68DD
:103ED000DB789B0513437B61FB681B68CA225A622F
:103EE000FB681B6853225A6213257C19FB68180073
:103EF00000F050F90300237028003B181B78002BBA
:103F000020D1FB681B687A691A490A401A60FB686D
:103F10001B689A68FB681B6817490A409A60FB682F
:103F20001B689968BB68DA68BB681B691A43FB6841
:103F30001B680A439A603C18FB68180000F06EF991
:103F4000030023701323FB181B78002B03D1FB689D
:103F5000212201219954FB681B68FF225A62FB68E9
:103F60002022002199541323FB181B781800BD460A
:103F700006B0B0BD7F7F7F00FFFFFBFFB0B586B00E
:103F800000AFF860B9607A6000237B61FB68202293
:103F90009B5C012B01D102237EE0FB6820220121E2
:103FA0009954FB682122022199547B68002B0ED181
:103FB000BB685B781A001023134008D0BB685B789D
:103FC00010229343DBB20A33DAB2BB685A707B68C3
:103FD000002B1CD1BB68DB78180000F049F9030006
:103FE0001C04BB685B78180000F042F903001B0258
:103FF0001C43BB689B78180000F03AF903002200CC
:104000001A43BB681B785B0313437B610EE0BB68FC
:10401000DB781A04BB685B781B021343BA6892789A
:104020001A43BB681B785B0313437B61FB681B6807
:10403000CA225A62FB681B6853225A6213257C19F4
:10404000FB68180000F0A6F80300237028003B1856
:104050001B78002B0CD1FB681B687A6910490A4059
:104060005A603C18FB68180000F0D8F80300237071
:104070001323FB181B78002B03D1FB68212201219D
:104080009954FB681B68FF225A62FB6820220021BA
:1040900099541323FB181B781800BD4606B0B0BD19
:1040A0003FFFFF0080B586B000AFF860B9607A606E
:1040B00000237B61FB681B685B68214A13407B61BE
:1040C0007B691B0CDAB2BB68DA707B691B0ADBB256
:1040D0001F221340DAB2BB685A707B69DBB23F2201
:1040E0001340DAB2BB689A707B695B0BDBB20722C4
:1040F0001340DAB2BB681A707B68002B1AD1BB6818
:10410000DB78180000F0D5F803001A00BB68DA70FD
:10411000BB685B78180000F0CCF803001A00BB689D
:104120005A70BB689B78180000F0C3F803001A00AF
:10413000BB689A7000231800BD4606B080BDC0461B
:104140003FFFFF0080B584B000AF78600023FB60C4
:104150007B681B680E4ADA60FEF702FC0300FB6016
:104160000AE0FEF7FDFB0200FB68D21AFA239B006F
:104170009A4201D9032306E07B681B68DB68202292
:104180001340EED000231800BD4604B080BDC046E9
:104190005F7F010080B584B000AF78600023BB6012
:1041A0000F23FB1800221A707B681B68DB68402213
:1041B00013402CD17B681B68DA687B681B68802100
:1041C0000A43DA60FEF7CCFB0300BB6014E0FEF7A5
:1041D000C7FB0200BB68D21A0F203B1839180978B8
:1041E0001970FA239B009A4206D97B682122042188
:1041F00099543B1801221A707B681B68DB684022C7
:10420000134004D10F23FB181B78012BDFD10F23A0
:10421000FB181B781800BD4604B080BD90B585B072
:1042200000AF78600F243B1900221A707B681B686E
:10423000DA687B681B6880218A43DA607B681B68C8
:104240009B68202213400CD17B681800FFF77AFF8F
:10425000031E06D07B682122042199543B190122B8
:104260001A700F23FB181B781800BD4605B090BDCF
:1042700080B584B000AF0200FB1D1A700023FB6004
:1042800007E0FB680133FB60FB1DFA1D12780A3A58
:104290001A70FB1D1B78092BF3D8FB68DBB21B01DE
:1042A000DAB2FB1D1B781343DBB21800BD4604B025
:1042B00080BD80B584B000AF0200FB1D1A700023E2
:1042C000FB60FB1D1B781B09DBB21A0013009B006F
:1042D0009B185B00FB60FB68DAB2FB1D1B780F21AB
:1042E0000B40DBB2D318DBB21800BD4604B080BD72
:1042F00080B582B000AF78607B68002B01D10123CC
:1043000083E07B685B6A002B09D17B685A68822353
:104310005B009A4209D07B680022DA6105E07B6885
:1043200000221A617B6800225A617B6800229A622F
:104330007B6851229B5CDBB2002B07D17B6850224B
:10434000002199547B681800FEF768F97B685122B8
:10435000022199547B681B681A687B681B6840219E
:104360008A431A607B685A6882235B001A407B6824
:10437000996884231B020B401A437B68D968802309
:104380001B010B401A437B681B6902210B401A4337
:104390007B685B6901210B401A437B689969802324
:1043A0009B000B401A437B68DB6938210B401A43A2
:1043B0007B681B6A80210B401A4311007B689A6A54
:1043C00080239B011A407B681B680A431A607B6844
:1043D0009B691B0C0422134019007B685B6A102246
:1043E0001A407B681B680A435A607B681B68DA695D
:1043F0007B681B6807490A40DA617B6800225A65BE
:104400007B6851220121995400231800BD4602B057
:1044100080BDC046FFF7FFFF80B588B000AFF860F1
:10442000B9603B60BB1D1A801F23FB1800221A7065
:10443000FB6850229B5C012B01D1022345E1FB6804
:10444000502201219954FEF78BFA0300BB61162319
:10445000FB18BA1D12881A80FB6851229B5CDBB2E4
:10446000012B04D01F23FB1802221A7026E1BB681F
:10447000002B03D0BB1D1B88002B04D11F23FB186E
:1044800001221A701AE1FB68512203219954FB683A
:1044900000225A65FB68BA681A63FB68BA1D128865
:1044A0009A86FB68BA1D1288DA86FB6800229A6336
:1044B000FB6800229A87FB680022DA87FB680022EB
:1044C0005A64FB6800221A64FB689A6880231B0206
:1044D0009A4210D1FB681B681A68FB681B68402170
:1044E0008A431A60FB681B681A68FB681B68802196
:1044F000C9010A431A60FB681B681B68402213400D
:10450000402B07D0FB681B681A68FB681B684021BA
:104510000A431A60FB68DA6880231B019A4252D171
:10452000FB685B68002B04D01623FB181B88012B4B
:1045300043D1FB681B6B1A88FB681B68DA60FB6859
:104540001B6B9A1CFB681A63FB68DB8E9BB2013BFA
:104550009AB2FB68DA8630E0FB681B689B6802222F
:104560001340022B12D1FB681B6B1A88FB681B6877
:10457000DA60FB681B6B9A1CFB681A63FB68DB8EB6
:104580009BB2013B9AB2FB68DA8616E0FEF7E8F9C7
:104590000200BB69D31A3A689A4202D83B680133D9
:1045A00002D13B68002B08D11F23FB1803221A708D
:1045B000FB6851220121995480E0FB68DB8E9BB29D
:1045C000002BC9D153E0FB685B68002B04D0162395
:1045D000FB181B88012B45D1FB681A6BFB681B6815
:1045E0000C3312781A70FB681B6B5A1CFB681A6339
:1045F000FB68DB8E9BB2013B9AB2FB68DA8631E046
:10460000FB681B689B6802221340022B13D1FB68D6
:104610001A6BFB681B680C3312781A70FB681B6BF3
:104620005A1CFB681A63FB68DB8E9BB2013B9AB293
:10463000FB68DA8616E0FEF793F90200BB69D31A2D
:104640003A689A4202D83B68013302D13B68002B9A
:1046500008D11F23FB1803221A70FB685122012185
:1046600099542BE0FB68DB8E9BB2002BC8D1BA6952
:104670003968FB68180000F091FA031E02D0FB684D
:1046800020225A65FB689B68002B0AD100233B61FE
:10469000FB681B68DB683B61FB681B689B683B61D0
:1046A0003B69FB685B6D002B04D01F23FB180122C4
:1046B0001A7003E0FB68512201219954FB685022D3
:1046C000002199541F23FB181B781800BD4608B021
:1046D00080BD80B58CB000AFF860B9607A601A0018
:1046E000BB1C1A800123FB622B23FB1800221A70CB
:1046F000FB6850229B5C012B01D10223B0E1FB68D7
:10470000502201219954FEF72BF903007B622320EC
:104710003B18FA685121525C1A70FB685B68FB61B8
:104720001A23FB18BA1C12881A803B181B78012B1D
:1047300011D0FA6982235B009A4207D1FB689B681B
:10474000002B03D13B181B78042B04D02B23FB1820
:1047500002221A707DE1BB68002B06D07B68002B1B
:1047600003D0BB1C1B88002B04D12B23FB18012278
:104770001A706EE1FB6851229B5CDBB2042B03D004
:10478000FB68512205219954FB6800225A65FB6899
:104790007A689A63FB68BA1C1288DA87FB68BA1CCD
:1047A00012889A87FB68BA681A63FB68BA1C128879
:1047B000DA86FB68BA1C12889A86FB6800221A64A3
:1047C000FB6800225A64FB681B681B684022134088
:1047D000402B07D0FB681B681A68FB681B684021E8
:1047E0000A431A60FB68DA6880231B019A4200D0F2
:1047F0007FE0FB685B68002B05D01A23FB181B8841
:10480000012B00D06AE0FB681B6B1A88FB681B68F1
:10481000DA60FB681B6B9A1CFB681A63FB68DB8E13
:104820009BB2013B9AB2FB68DA8657E0FB681B68D3
:104830009B6802221340022B1BD1FB68DB8E9BB2CC
:10484000002B16D0FB6A012B13D1FB681B6B1A8857
:10485000FB681B68DA60FB681B6B9A1CFB681A63B9
:10486000FB68DB8E9BB2013B9AB2FB68DA860023C1
:10487000FB62FB681B689B6801221340012B19D166
:10488000FB68DB8F9BB2002B14D0FB681B68DA68D7
:10489000FB689B6B92B21A80FB689B6B9A1CFB684F
:1048A0009A63FB68DB8F9BB2013B9AB2FB68DA87A5
:1048B0000123FB62FEF754F802007B6AD31ABA6B3D
:1048C0009A420BD8BB6B013308D02B23FB18032271
:1048D0001A70FB68512201219954BAE0FB68DB8E03
:1048E0009BB2002BA2D1FB68DB8F9BB2002B9DD12A
:1048F00083E0FB685B68002B05D01A23FB181B883C
:10490000012B00D06FE0FB681A6BFB681B680C334F
:1049100012781A70FB681B6B5A1CFB681A63FB68E1
:10492000DB8E9BB2013B9AB2FB68DA865BE0FB68E8
:104930001B689B6802221340022B1CD1FB68DB8E94
:104940009BB2002B17D0FB6A012B14D1FB681A6BAA
:10495000FB681B680C3312781A70FB681B6B5A1CBF
:10496000FB681A63FB68DB8E9BB2013B9AB2FB6863
:10497000DA860023FB62FB681B689B6801221340F8
:10498000012B19D1FB68DB8F9BB2002B14D0FB6885
:104990001B68DA68FB689B6BD2B21A70FB689B6B72
:1049A0005A1CFB689A63FB68DB8F9BB2013B9AB28F
:1049B000FB68DA870123FB62FDF7D2FF02007B6A06
:1049C000D31ABA6B9A4202D8BB6B013302D1BB6BCC
:1049D000002B08D12B23FB1803221A70FB685122ED
:1049E0000121995435E0FB68DB8E9BB2002B9ED1F0
:1049F000FB68DB8F9BB2002B99D17A6AB96BFB689D
:104A0000180000F0CBF8031E07D02B23FB1801225F
:104A10001A70FB6820225A651BE0FB689B68002B1C
:104A20000AD100237B61FB681B68DB687B61FB6844
:104A30001B689B687B617B69FB685B6D002B04D006
:104A40002B23FB1801221A7003E0FB68512201217D
:104A50009954FB685022002199542B23FB181B7892
:104A60001800BD460CB080BD80B582B000AF786044
:104A70007B6851229B5CDBB21800BD4602B080BD52
:104A800080B588B000AFF860B9603B60FB1D1A705C
:104A9000FDF766FF0200BB6A9B1A3A68D318FB61F8
:104AA000FDF75EFF0300BB613A4B1B685B011B0D0A
:104AB000FA6953437B6158E03B68013355D0FDF7F9
:104AC0004FFF0200BB69D31AFA699A4202D9FB6907
:104AD000002B42D1FB681B685A68FB681B68E02109
:104AE0008A435A60FB685A6882235B009A4213D15A
:104AF000FB689A6880231B029A4205D0FB689A687B
:104B00008023DB009A4207D1FB681B681A68FB68A8
:104B10001B6840218A431A60FB689A6A80239B01C4
:104B20009A4210D1FB681B681A68FB681B681A4917
:104B30000A401A60FB681B681A68FB681B688021C2
:104B400089010A431A60FB68512201219954FB68CC
:104B5000502200219954032317E07B69002B01D1D7
:104B60000023FB617B69013B7B61FB681B689B68E1
:104B7000BA681340BA68D31A5A425341DBB21A00DA
:104B8000FB1D1B789A4297D100231800BD4608B040
:104B900080BDC04604000020FFDFFFFF80B588B065
:104BA00002AFF860B9607A601D4B1B681D491800A0
:104BB000FBF7BCFA03001A0013005B019B1A9B0071
:104BC0009B18DB007B61FB685A6882235B009A427A
:104BD00012D1BA68F8687B68009313000022802124
:104BE000FFF74EFF031E16D0FB685B6D20221A43B1
:104BF000FB685A6503230FE07B69002B0AD07B69B1
:104C0000013B7B61FB681B689B6880221340802B03
:104C1000F2D000E0C04600231800BD4606B080BDBB
:104C20000400002000366E0180B582B000AF7860CD
:104C30007B68002B01D1012344E07B68DB6F002BF4
:104C400007D17B687822002199547B681800FDF712
:104C50002BFD7B682422DA677B681B681A687B68F7
:104C60001B6801218A431A607B68180000F0D0F8A5
:104C70000300012B01D1012324E07B685B6A002B38
:104C800003D07B68180000F047FB7B681B685A68FC
:104C90007B681B680D490A405A607B681B689A68EC
:104CA0007B681B682A218A439A607B681B681A68A4
:104CB0007B681B6801210A431A607B68180000F0BA
:104CC000DFFB03001800BD4602B080BDFFB7FFFF49
:104CD00080B58AB002AFF860B9603B60BB1D1A8036
:104CE000FB68DB6F202B00D08CE0BB68002B03D06F
:104CF000BB1D1B88002B01D1012384E0FB689A684F
:104D000080235B019A4209D1FB681B69002B05D106
:104D1000BB680122134001D0012374E0FB688422A8
:104D200000219950FB682122DA67FDF719FE030084
:104D30007B61FB68BA1D502112885A52FB68BA1D6C
:104D4000522112885A52FB689A6880235B019A426A
:104D500008D1FB681B69002B04D10023FB61BB68F1
:104D6000BB6103E0BB68FB610023BB612FE07A6994
:104D7000F8683B68009313000022802100F028FCB3
:104D8000031E04D0FB682022DA6703233BE0FB69A3
:104D9000002B0BD1BB691B881A00FB681B68D2056E
:104DA000D20D9A62BB690233BB6107E0FB691A78D6
:104DB000FB681B689A62FB690133FB61FB68522246
:104DC0009B5A9BB2013B99B2FB6852229952FB68F5
:104DD00052229B5A9BB2002BC9D17A69F8683B6872
:104DE000009313000022402100F0F2FB031E04D0C8
:104DF000FB682022DA67032305E0FB682022DA67DC
:104E0000002300E002231800BD4608B080BD00006A
:104E1000B0B58EB000AFF8611A2318229B18DB19C9
:104E200000221A70FB699A68FB691B691A43FB69C7
:104E30005B691A43FB69DB6913437B63FB691B688E
:104E40001B68C64A13401900FB691B687A6B0A434A
:104E50001A60FB691B685B68C14A13401900FB6953
:104E6000DA68FB691B680A435A60FB699B697B63CC
:104E7000FB691B68BB4A934204D0FB691B6A7A6BCF
:104E800013437B63FB691B689B68B74A1340190097
:104E9000FB691B687A6B0A439A60FB691B68B34A1B
:104EA000934231D1B24BDB6C03221340032B1DD054
:104EB00023D8022B0CD020D8002B02D0012B0ED0EF
:104EC0001BE01B2318229B18DB1901221A709CE09F
:104ED0001B2318229B18DB1902221A7095E01B2352
:104EE00018229B18DB1904221A708EE01B2318224B
:104EF0009B18DB1908221A7087E01B2318229B18C5
:104F0000DB1910221A7080E0FB691B68994A9342F2
:104F100031D1974BDB6C0C2213400C2B1DD023D8C6
:104F2000082B0CD020D8002B02D0042B0ED01BE075
:104F30001B2318229B18DB1900221A7065E01B2323
:104F400018229B18DB1902221A705EE01B2318221C
:104F50009B18DB1904221A7057E01B2318229B1898
:104F6000DB1908221A7050E01B2318229B18DB194A
:104F700010221A7049E0FB691B687A4A93423ED1BD
:104F80007B4BDA6CC0231B011340C02212019342F9
:104F900027D0C022120193422AD8802212019342C4
:104FA00011D080221201934222D8002B04D08022FB
:104FB000D20093420ED01BE01B2318229B18DB1952
:104FC00000221A7021E01B2318229B18DB190222F1
:104FD0001A701AE01B2318229B18DB1904221A707E
:104FE00013E01B2318229B18DB1908221A700CE00F
:104FF0001B2318229B18DB1910221A7005E01B23B3
:1050000018229B18DB1910221A70FB691B68554A7D
:10501000934200D084E01B2318229B18DB191B78D5
:10502000082B1DD020DC042B15D01DDC002B02D05A
:10503000022B05D018E0FEF7A1FC0300FB621CE088
:105040004B4B1B681022134002D04B4BFB6214E009
:105050004A4BFB6211E0FEF7E1FB0300FB620CE050
:1050600080231B02FB6208E00023FB621A23182244
:105070009B18DB1901221A70C046FB6A002B00D175
:1050800032E1FB695A6813005B009B18FA6A9A4286
:1050900005D3FB695B681B03FA6A9A4206D91A2397
:1050A00018229B18DB1901221A701DE1FB6A3B6173
:1050B00000237B6139697A690B001B0E1000050221
:1050C0001D430B001C02FB695B685B08BB6000238F
:1050D000FB60B868F96800196941FB695B683B606F
:1050E00000237B603A687B68FBF7ACF802000B009A
:1050F0001300BB62BA6AC0239B009A4209D3BA6A02
:1051000080235B039A4204D2FB691B68BA6ADA60A7
:10511000EAE01A2318229B18DB1901221A70E3E037
:10512000FB69DA6980231B029A4200D085E01B23C9
:1051300018229B18DB191B78082B37D89A00104BC4
:10514000D3181B689F46FEF719FC0300FB6236E08C
:10515000FEF72AFC0300FB6231E0C046F369FFEF73
:10516000FFCFFFFF00480040FFF4FFFF0038014081
:10517000001002400044004000093D000024F400FB
:10518000D48F0008604B1B681022134002D05F4B85
:10519000FB6214E05E4BFB6211E0FEF73FFB030095
:1051A000FB620CE080231B02FB6208E00023FB6231
:1051B0001A2318229B18DB1901221A70C046FB6AB9
:1051C000002B00D190E0FB6A5A00FB695B685B082A
:1051D000D218FB695B6819001000FAF7A7FF0300FB
:1051E000BB62BB6A0F2B21D9BA6A80235B029A4249
:1051F0001CD2BB6A9AB20E2018240319DB190F21A6
:105200008A431A80BB6A5B089BB20722134099B29B
:105210000319DB190219D21912880A431A80FB6993
:105220001B680219D2191288DA605DE01A2318226D
:105230009B18DB1901221A7056E01B2318229B18B9
:10524000DB191B78082B22D89A00324BD3181B6825
:105250009F46FEF793FB0300FB6221E0FEF7A4FBF1
:105260000300FB621CE0284B1B681022134002D095
:10527000264BFB6214E0264BFB6211E0FEF7CEFAF0
:105280000300FB620CE080231B02FB6208E00023AA
:10529000FB621A2318229B18DB1901221A70C046E0
:1052A000FB6A002B20D0FB695B685A08FB6AD218A6
:1052B000FB695B6819001000FAF738FF0300BB6256
:1052C000BB6A0F2B0AD9BA6A80235B029A4205D2C5
:1052D000BB6A9AB2FB691B68DA6005E01A231822E0
:1052E0009B18DB1901221A70FB6900229A66FB6980
:1052F0000022DA661A2318229B18DB191B78180083
:10530000BD460EB0B0BDC0460010024000093D00D1
:105310000024F400F88F000880B582B000AF7860F8
:105320007B685B6A012213400BD07B681B685B685B
:105330004A4A134019007B689A6A7B681B680A43D3
:105340005A607B685B6A022213400BD07B681B6843
:105350005B68434A134019007B68DA6A7B681B6804
:105360000A435A607B685B6A042213400BD07B6857
:105370001B685B683B4A134019007B681A6B7B68AB
:105380001B680A435A607B685B6A082213400BD093
:105390007B681B685B68344A134019007B685A6B52
:1053A0007B681B680A435A607B685B6A1022134063
:1053B0000BD07B681B689B682C4A134019007B68E4
:1053C0009A6B7B681B680A439A607B685B6A202241
:1053D00013400BD07B681B689B68254A134019005B
:1053E0007B68DA6B7B681B680A439A607B685B6A40
:1053F000402213401DD07B681B685B681D4A134028
:1054000019007B681A6C7B681B680A435A607B68CA
:105410001A6C80235B039A420BD17B681B685B6824
:10542000154A134019007B685A6C7B681B680A4355
:105430005A607B685B6A802213400BD07B681B68D4
:105440005B680E4A134019007B689A6C7B681B6886
:105450000A435A60C046BD4602B080BDFFFFFDFF53
:10546000FFFFFEFFFFFFFBFFFF7FFFFFFFEFFFFFE1
:10547000FFDFFFFFFFFFEFFFFFFF9FFFFFFFF7FFD4
:1054800080B592B002AF78607B6884220021995089
:10549000FDF766FA0300FB637B681B681B68082244
:1054A0001340082B2CD1FB6B802291037868464A6D
:1054B0000092002200F08CF8031E21D0EFF310833D
:1054C0007B627B6ABB630123BB62BB6A83F3108888
:1054D000C0467B681B681A687B681B6880218A430A
:1054E0001A60BB6BFB62FB6A83F31088C0467B6863
:1054F0002022DA677B6878220021995403235FE039
:105500007B681B681B6804221340042B46D1FB6B8D
:105510008022D10378682C4A0092002200F058F8CB
:10552000031E3BD0EFF31083FB60FB687B6301231A
:105530003B613B6983F31088C0467B681B681A682F
:105540007B681B6821490A401A607B6B7B617B6921
:1055500083F31088C046EFF31083BB61BB693B63E4
:105560000123FB61FB6983F31088C0467B681B68DD
:105570009A687B681B6801218A439A603B6B3B6297
:105580003B6A83F31088C0467B68802220219950B3
:105590007B68782200219954032311E07B68202244
:1055A000DA677B688022202199507B6800221A6686
:1055B0007B6800225A667B68782200219954002378
:1055C0001800BD4610B080BDFFFFFF01DFFEFFFFEA
:1055D00080B584B000AFF860B9603B60FB1D1A7005
:1055E0004BE0BB69013348D0FDF7BAF902003B68D4
:1055F000D31ABA699A4202D3BB69002B01D10323A3
:105600004BE0FB681B681B680422134035D0FB6825
:105610001B68DB6908221340082B11D1FB681B684B
:1056200008221A62FB68180000F03CF8FB6884222C
:1056300008219950FB6878220021995401232CE01D
:10564000FB681B68DA6980231B011A4080231B0159
:105650009A4212D1FB681B68802212011A62FB6811
:10566000180000F01FF8FB68842220219950FB6885
:1056700078220021995403230FE0FB681B68DB6943
:10568000BA681340BA68D31A5A425341DBB21A00BF
:10569000FB1D1B789A42A4D000231800BD4604B01D
:1056A00080BD000080B58EB000AF7860EFF310834E
:1056B0007B617B697B630123BB61BB6983F31088DA
:1056C000C0467B681B681A687B681B6826490A40CD
:1056D0001A607B6BFB61FB6983F31088C046EFF3B4
:1056E00010833B623B6A3B6301237B627B6A83F3EB
:1056F0001088C0467B681B689A687B681B6801211C
:105700008A439A603B6BBB62BB6A83F31088C046D6
:105710007B681B6E012B18D1EFF31083BB60BB6855
:10572000FB620123FB60FB6883F31088C0467B6843
:105730001B681A687B681B6810218A431A60FB6A21
:105740003B613B6983F31088C0467B68802220213F
:1057500099507B6800221A667B6800229A66C046D0
:10576000BD460EB080BDC046DFFEFFFF80B500AF76
:10577000064A074B1100180002F062FE03001A00EF
:10578000044B1A70C046BD4680BDC046240A0020A6
:1057900010000020200A002080B500AF0023180070
:1057A000BD4680BD80B582B000AF0200FB1D1A70FF
:1057B000FB1D1B781800FCF78DF80300DBB2180006
:1057C000BD4602B080BD80B582B000AF0200FB1DB7
:1057D0001A70FB1D1B781800FCF788F90300DBB278
:1057E0001800BD4602B080BD80B584B000AFB9607E
:1057F0007A603B600F217B18021C1A707B181878A6
:105800003B687A68B968FCF787F90300DBB21800D7
:10581000BD4604B080BD80B584B000AFB9607A6089
:105820003B600F217B18021C1A707B1818783B68AC
:105830007A68B968FCF7E0F90300DBB21800BD46EE
:1058400004B080BD80B582B000AF3A60FB1D021C81
:105850001A70BB1D0A1C1A70FB1D1878BB1D1B7823
:105860003A681900FCF750FA0300DBB21800BD4695
:1058700002B080BDB0B584B000AF0200FB1D1A704D
:10588000FB1D1B780B4A9B00D31804331B685B6815
:10589000FA1D127807498A18127A0F257C19100010
:1058A0009847030023707B191B781800BD4604B08D
:1058B000B0BDC046500A002090B585B000AF0200D0
:1058C000FB1D1A700F203B1800221A70FB1D1B785D
:1058D000104AD35C002B16D1FB1D1B780D4A012109
:1058E000D154FB1D1B780B4A9B00D31804331B6853
:1058F0001B68FA1D127807498A18127A3C181000A2
:105900009847030023700F23FB181B781800BD462F
:1059100005B090BD500A0020F0B587B000AFB96067
:105920007A603B600F217B18021C1A707B181B7871
:105930000C4A9B00D31804331B689D687B181B78A6
:10594000084AD318187A1726BC193B687A68B968D0
:10595000A84703002370BB191B781800BD4607B089
:10596000F0BDC046500A0020F0B587B000AFB96066
:105970007A603B600F217B18021C1A707B181B7821
:105980000C4A9B00D31804331B68DD687B181B7816
:10599000084AD318187A1726BC193B687A68B96880
:1059A000A84703002370BB191B781800BD4607B039
:1059B000F0BDC046500A0020F0B585B000AF3A6097
:1059C000FB1D021C1A70BB1D0A1C1A70FB1D1B78E4
:1059D0000C4A9B00D31804331B681B69FA1D12780C
:1059E00008498A18107A0F26BC193D68BA1D11782B
:1059F0002A00984703002370BB191B781800BD4686
:105A000005B0F0BD500A002080B584B000AF7860CA
:105A10007B6801331A780E217B181A807B181B884B
:105A20001B021AB27B681B781BB213431AB27B1895
:105A30001A807B181B881800BD4604B080BD80B555
:105A400084B000AF78607B6803331B78FB60FB6831
:105A50001B027A68023212781343FB60FB681B0258
:105A60007A68013212781343FB60FB681B027A6884
:105A700012781343FB60FB681800BD4604B080BD7C
:105A800080B582B000AF78600A00BB1C1A807B68CA
:105A90005A1C7A60BA1C1288D2B21A70BB1CBA1C8B
:105AA0001288120A1A807B685A1C7A60BA1C128803
:105AB000D2B21A70C046BD4602B080BD80B582B079
:105AC00000AF786039607B685A1C7A603A68D2B25D
:105AD0001A703B681B0A3B607B685A1C7A603A6804
