:020000040800F2
:1000000000200020552F0008A12D0008A72D000872
:1000100000000000000000000000000000000000E0
:10002000000000000000000000000000AD2D0008EE
:100030000000000000000000B72D0008C12D0008DE
:10004000A52F0008A52F0008A52F0008A52F000840
:10005000A52F0008A52F0008A52F0008A52F000830
:10006000A52F0008A52F0008A52F0008A52F000820
:10007000A52F0008A52F000800000000A52F0008EC
:1000800000000000A52F0008000000000000000094
:10009000A52F000800000000A52F0008A52F0008CC
:1000A000A52F0008A52F0008A52F0008A52F0008E0
:1000B000A52F0008A52F0008A52F0008A52F0008D0
:1000C00010B5064C2378002B07D1054B002B02D02E
:1000D000044800E000BF0123237010BDD8010020B8
:1000E0000000000048900008044B10B5002B03D01E
:1000F0000349044800E000BF10BDC04600000000F6
:10010000DC010020489000080023C25C0133002A73
:10011000FBD1581E7047000002B4714649084900DF
:10012000095C49008E4402BC7047C04603B4714666
:10013000490840004900095E49008E4403BC7047ED
:10014000002243088B4274D303098B425FD3030A16
:100150008B4244D3030B8B4228D3030C8B420DD329
:10016000FF22090212BA030C8B4202D312120902B7
:1001700065D0030B8B4219D300E0090AC30B8B42F5
:1001800001D3CB03C01A5241830B8B4201D38B03A3
:10019000C01A5241430B8B4201D34B03C01A524148
:1001A000030B8B4201D30B03C01A5241C30A8B428B
:1001B00001D3CB02C01A5241830A8B4201D38B0276
:1001C000C01A5241430A8B4201D34B02C01A52411A
:1001D000030A8B4201D30B02C01A5241CDD2C3098C
:1001E0008B4201D3CB01C01A524183098B4201D308
:1001F0008B01C01A524143098B4201D34B01C01AF3
:10020000524103098B4201D30B01C01A5241C3086A
:100210008B4201D3CB00C01A524183088B4201D3D9
:100220008B00C01A524143088B4201D34B00C01AC5
:100230005241411A00D20146524110467047FFE731
:1002400001B5002000F0F0F802BDC0460029F7D04B
:1002500076E7704703460B437FD4002243088B4266
:1002600074D303098B425FD3030A8B4244D3030B3D
:100270008B4228D3030C8B420DD3FF22090212BA02
:10028000030C8B4202D31212090265D0030B8B427E
:1002900019D300E0090AC30B8B4201D3CB03C01A68
:1002A0005241830B8B4201D38B03C01A5241430B43
:1002B0008B4201D34B03C01A5241030B8B4201D333
:1002C0000B03C01A5241C30A8B4201D3CB02C01A9E
:1002D0005241830A8B4201D38B02C01A5241430A16
:1002E0008B4201D34B02C01A5241030A8B4201D305
:1002F0000B02C01A5241CDD2C3098B4201D3CB01AC
:10030000C01A524183098B4201D38B01C01A52415A
:1003100043098B4201D34B01C01A524103098B425E
:1003200001D30B01C01A5241C3088B4201D3CB0049
:10033000C01A524183088B4201D38B00C01A52412C
:1003400043088B4201D34B00C01A5241411A00D2DC
:1003500001465241104670475DE0CA0F00D0494245
:10036000031000D34042534000229C4603098B42B5
:100370002DD3030A8B4212D3FC22890112BA030A3D
:100380008B420CD3890192118B4208D389019211BF
:100390008B4204D389013AD0921100E08909C30944
:1003A0008B4201D3CB01C01A524183098B4201D346
:1003B0008B01C01A524143098B4201D34B01C01A31
:1003C000524103098B4201D30B01C01A5241C308A9
:1003D0008B4201D3CB00C01A524183088B4201D318
:1003E0008B00C01A5241D9D243088B4201D34B0033
:1003F000C01A5241411A00D20146634652415B1075
:10040000104601D34042002B00D549427047634655
:100410005B1000D3404201B5002000F005F802BD9A
:100420000029F8D016E770477047C0468446100090
:1004300062468C461900634600E0C0461FB501F0D5
:10044000AFF9002801D40021C8421FBD10B501F04A
:10045000FFF84042013010BD10B501F0A1F90028AD
:1004600001DB002010BD012010BDC04610B501F019
:1004700097F9002801DD002010BD012010BDC04605
:1004800010B501F027F9002801DC002010BD012083
:1004900010BDC04610B501F01DF9002801DA00209A
:1004A00010BD012010BDC046002B11D1002A0FD174
:1004B000002900D1002802D00021C943080007B458
:1004C000024802A14018029003BDC0465DFFFFFF35
:1004D00003B4684601B5029800F034F8019B9E46CB
:1004E00002B00CBC7047C046F0B5CE469946030C2E
:1004F0009C46130447461B0C1D000E006146040475
:10050000240C80B50700100C4B4365434143604306
:100510002C0CC01820188C46834203D980235B0220
:100520009846C444494679435643030C2D042D0C88
:100530008919634400044019C918C0BCB946B046C3
:10054000F0BDC046F0B557464E464546DE46E0B5DE
:1005500004000D009246994683B08B4230D82DD0CE
:100560004946504602F0D4F829000600200002F067
:10057000CFF8331A9846203B34D49B4653465A460C
:10058000934042461F00534693401E00AF423BD863
:10059000AF4200D179E05B46A41BBD41002B00DADD
:1005A00076E0002200230092019301235A469340F3
:1005B0000193012342469340009329E08242CFD920
:1005C00000220023009201930C9B002B01D01C60A1
:1005D0005D600098019903B0F0BCBB46B246A946E5
:1005E000A046F0BD42469B4620239B1A5246DA4065
:1005F000414613004A468A40170042461F4353466D
:1006000093401E00AF42C3D9002200230092019301
:100610004346002BD8D0FB0772081A4346467B0896
:100620000EE0AB4201D1A2420CD8A41A9D41012098
:1006300024196D410021013E24184D41002E06D0A1
:10064000AB42EED9013E24196D41002EF8D100983D
:1006500001995B4600196941002B24DB2B005A46A7
:100660004446D3402A00E2401C005B461500002BA4
:100670002ADB26009E40330026004746BE4032005B
:10068000801A9941009001919EE7A342BCD882E76D
:100690004246202300219B1A002200910192012250
:1006A000DA40019285E7424620239B1A2A004646FB
:1006B0009A402300F340444613432A00E2401C00C2
:1006C0005B461500002BD4DA42462F00202326007B
:1006D00097409B1ADE403B003343CDE7F0B54F46D1
:1006E0004646D6464502C0B547000C1C6D0A3F0E73
:1006F000C60F002F00D16FE0FF2F00D174E0002360
:10070000802299469A46ED00D20415437F3F63024A
:100710005B0A984663001B0EE40F002B4DD0FF2BA5
:1007200045D042468021D200C904114388460022A8
:100730007F3B3100FF1A4B466140C9B20F2B00D9F5
:10074000B8E070489B00C3589F4600239846260097
:10075000454692465346022B00D18DE0032B00D133
:10076000A1E0012B18D03B007F33002B6DDD6A0721
:1007700004D00F222A40042A00D004352A0103D5D0
:10078000614B1D403B008033FE2B00DD74E0AA016D
:10079000520AD8B202E00E0000200022C005F6077F
:1007A00010433043E0BCBA46B146A846F0BD4346CC
:1007B000002B3FD10222FF3F03E04346002B2DD107
:1007C000012231004B466140C9B213430F2B38D888
:1007D0004E489B00C3589F46002D13D104239946D1
:1007E000033B00279A4692E7002D05D1082399463E
:1007F000063BFF279A468AE70C239946093BFF27C9
:100800009A4684E7280001F065FF7627431F9D4044
:1008100000237F4299469A463F1A78E7404601F006
:1008200059FF4246431F9A4076235B4290461B1A6B
:1008300000227EE703234A461A439146FC330322F3
:1008400077E70E00FF200022A8E70122D31A1B2B16
:10085000A2DC9E372A00BD40DA406B1E9D41154345
:100860006A0704D00F222A40042A00D004356A0106
:1008700044D50120002291E7FF2000228EE780224C
:100880000026FF20D20389E7002398468022D20366
:10089000154208D04346134205D11A43520226009E
:1008A000FF20520A7AE78022D2032A435202FF2015
:1008B000520A73E742466B015501AB421AD21B2024
:1008C0000022013F01261C0052005B00002C01DBCE
:1008D0009D4201D85B1B324301380028F3D1581EDA
:1008E000834113431D003B007F330E00002B00DDCE
:1008F0003DE7AAE71A2001225B1BE3E7AA010020DB
:10090000520A4BE79C900008FFFFFFF7DC900008BD
:1009100070B5002813D0C317C5185D40C40F280058
:1009200001F0D8FE9E2301001B1A962B0FDC08282D
:1009300031D008398D406D026D0AD8B202E0002432
:1009400000200025C0052843E407204370BD992BF3
:100950000CDD0522121A2800D040020008001B30CE
:1009600085402800451EA84102431500052916DCD4
:100970002A000F4802406E0709D00F263540042D8B
:1009800005D00432550102D59F2302405B1A920123
:10099000550AD8B2D6E76D0296206D0AD2E74A1FF3
:1009A00095402A00024802406E07F0D0E5E7C046B5
:1009B000FFFFFFFBF0B54F464646D6460400C0B5E4
:1009C0001F000B0310004E005B0ACD0F610F7A0071
:1009D0001943E3003C03FF0FBC46640A470F27435B
:1009E000760D520DC000B9468046B71A654500D154
:1009F0009BE0002F00DC84E0002A00D1BEE0C84A62
:100A0000964200D124E180224C4612041443A146B0
:100A1000382F00DD67E11F2F00DDD6E120224C4694
:100A2000D21B9440A2464446FC4020005446044356
:100A300040469040421E90414A46FA400443891A7B
:100A40001C1BA342924152428B1A9A4653461B02E8
:100A500000D4D4E053465A02530A9A465346002B18
:100A600000D104E1504601F035FE0300083B20228E
:100A70002000D21A5146D040994002009C400A43BF
:100A8000B34200DA02E19B1B591C1F2900DDA7E0DD
:100A90002023100026005B1A9C409840CE40CA409C
:100AA000631E9C413043924600260443630709D0ED
:100AB0000F232340042B05D0231DA342A4416442ED
:100AC000A2441C0053461B0200D49BE0944B013609
:100AD0009E4200D1B8E053469249E4080B40190009
:100AE0005B07234372054C02240B520D1205ED07E0
:100AF00022432A4318001100E0BCBA46B146A8467A
:100B0000F0BD002F48D0971B002E00D00EE10C0046
:100B10001C4300D1B7E17C1E012F00D126E2804D9D
:100B2000AF4200D1D5E1270007E1002F00DCB2E0A1
:100B3000002A47D07A4A964200D189E080224C466A
:100B400012041443A146382F6BDC1F2F00DC6EE12A
:100B50003A004846203AD0408446202F07D0402211
:100B60004846D21B90400200404610438046404613
:100B7000421E904162460400144357E04A46024335
:100B800000D103E17A1E012F00D193E1644CA7420A
:100B900000D18AE117003BE7634C721C224200D06F
:100BA000E0E00A001A43002E00D074E1002A00D1D0
:100BB000D0E14A46024300D0E3E14A07DB08134391
:100BC000C90829E04A46024300D17DE17A1E012F7F
:100BD00000D1E0E0524CA74200D166E11700B2E735
:100BE00010001F3BD840202903D040235B1A9A40B5
:100BF0001443631E9C41002300269A460443630766
:100C000000D055E75246E3085207134352463700D7
:100C1000D108434A97421FD009037A050C0B520DA5
:100C200064E742464C461443621E9441E4189C42D9
:100C30009241524292468A4453461B02DFD5384BBA
:100C400001369E4200D0B3E03200002400234DE77D
:100C50004A07DB081343C9081A000A4300D100E21F
:100C6000802424030C4324032D4A240B3EE7200058
:100C700001F030FD030018331F2B00DCF7E62200E3
:100C8000083882400024B34200DBFCE6F61A254B0C
:100C90001A4092460AE7002F2BD0971B002E00D156
:100CA000B8E01F4CA24200D11CE18024240421435F
:100CB000382F00DD1EE11F2F00DD9EE120260C00F5
:100CC000F61B1800B340B440F8405E1EB341F94033
:100CD00004431C438944444444459B415B424B4488
:100CE0009A461600A8E742464C461443621E9441B9
:100CF000A6E60D4C721C224200D0A8E00A001A435E
:100D0000002E00D00AE1002A00D15EE14A460243EB
:100D100000D061E14A07DB081343C9087CE7C046FD
:100D2000FF070000FFFF7FFFFE070000CF4CA2423D
:100D300000D1CEE0802424042143382F5BDC1F2F18
:100D400000DDDCE020250C00ED1B1E00AB40AC40BC
:100D5000FE405D1EAB413443F9401C434B465B1AD9
:100D600099464CE04A461C1A881AA34292415242C4
:100D7000924602005046121A9246120278D4534606
:100D8000234300D06AE60021002545E74A07DB0837
:100D90001343C9083DE71C189C429B4149448A46BD
:100DA0005B429A44534601261B0200D427E70226E1
:100DB0005246AF4B01211A401300214062080A43FA
:100DC000DC075B089A46144370E63A004C46203A2A
:100DD000D440A446202F07D040224846D21B904042
:100DE00002004046104380464046421E9041624603
:100DF0000400144324E619430C00631E9C4143463F
:100E00001C1BA0459B4149465B42CB1A9A4665464E
:100E100016001BE60C001C4300D1C7E07C1E012F0E
:100E200000D1F9E0914EB7425CD0270040E7202284
:100E30004C464046D21B9440F84004434046904004
:100E4000421E90414A46FA4004438918EEE6874C18
:100E5000A24200D1F9E6181898429B4149445B42EE
:100E6000CB18DC0740085B089A4616000443C6E628
:100E70004246D41AA04580414B464042591A0B1AAB
:100E80009A466546EAE54B464A46C0085B07654612
:100E90000343D108BDE6002A00D08EE04B46034351
:100EA00017D1802100250903DAE64A07DB0813433E
:100EB000C908D1E61C1A4A46A3429B41891A5B42E3
:100EC000CB1A9A460126C1E54A07DB081343C90835
:100ED0009FE64346D8084B464A465B0765460343B0
:100EE000D108B9E64346D8084B464A465B07034358
:100EF000D108B1E619430C00631E9C41EBE63C00AF
:100F00000D00203CE540202F03D04024E41BA140ED
:100F10000B431C00631E9C412C4370E7002AE1D068
:100F20004A460243C1D04A07DB0813438022C9085E
:100F30001203114208D04846C408144204D1434663
:100F40002100DB08420713435A0FDB005207DB087E
:100F5000134381E64B46034300D114E74B464A4610
:100F6000C0085B0765460343D10855E6C41AA0458F
:100F700080414B464042591A0B1A9A466546012653
:100F800064E51C1A4A46A34280418A1A4042121A5A
:100F90009246120249D54246D41AA04580414B469A
:100FA0004042591A0B1A9A4665467FE54B464A4617
:100FB000C0085B070343D1082BE64A46DB0802431F
:100FC00038D14A071343C90846E64B464A46C0088B
:100FD0005B070343D1081FE61C189C429B41494410
:100FE0008A465B429A4453461B0200D407E65246A7
:100FF0001F4B01261A40924601E63C000E00203CA1
:10100000E640202F03D04024E41BA1400B431C00EA
:10101000631E9C4134435EE643448342804149441D
:101020008A4640421C008244BCE65346234300D11A
:10103000A9E6E4E54A0713438022C90812031142D6
:1010400009D04846C408144205D1434665462100EC
:10105000DB08420713435A0FDB00DB085207134338
:10106000FAE50023014A1C0040E5C046FF070000E6
:10107000FFFF7FFFF0B557464E464546DE46E0B5DA
:101080000C031F004B0081469246050085B0240BDF
:101090005B0DCE0F002B00D152E1D24A934200D11A
:1010A0006EE1420FE4001443802212042243904672
:1010B000CD4AC50093469B440023994600933C03C8
:1010C0007B005046240B5B0DFF0F002B00D11AE173
:1010D000C44A934200D15EE1420FE40022438024DF
:1010E00024041443C04AC10094465A466344D31AA8
:1010F0009B46002033007B409A464B460F2B27D857
:10110000BA4A9B00D3589F46B246009B022B16D08A
:10111000032B00D187E2012B00D0D5E00023002271
:1011200000251B0513435246D2071343280019001C
:1011300005B0F0BCBB46B246A946A046F0BD0022B1
:101140000025A84BEDE7BA46A0460D000090DCE76D
:10115000444500D2C4E100D1BFE101235B429C467B
:101160002E0040460025E34423020C0E1C431B0CBA
:10117000994623040A021F0C494600920197FFF783
:1011800065F802007A430B04310C804619438A4209
:1011900007D901235B429C460919E0448C4200D8E0
:1011A00001E2881A4946FFF751F8019A3604424392
:1011B0000904360C03000E43B24204D93619013B30
:1011C000B44200D8E9E1B01A4246009E12041A4324
:1011D000330C1F00110C9046029313043204160CBA
:1011E00032001B0C5A4303967B434E437943170C42
:1011F000BC469B1963449E4203D980267602B446BE
:1012000061441E0C711816041B04360C9E1988428A
:1012100002D312D1B54210D243465A1E009B9C46BF
:1012200065441F009D429B415B421B19C0188442CC
:1012300000D29EE100D199E19046AE1BB542AD418E
:10124000401A6D42401B844200D1D2E14946FEF76C
:10125000FDFF019A0B044243310C050019438A42F9
:1012600000D96CE1881A4946FEF7F0FF019A36046E
:1012700042430904360C03000E43B24200D953E145
:101280000398B61A02002D041D43029F2B041B0C69
:101290005A437B439C46290C4843130C84446344C3
:1012A0007943984203D98020400284466144180C57
:1012B00012041B04120C40189B18864200D200E155
:1012C00000D1FBE001231D43494B5B44002B00DCB4
:1012D000AAE06A0700D03DE1E9084246D20106D5FE
:1012E0004246444B1A4080239046DB005B44424A0E
:1012F000934200DD23E742465B05550752020D434A
:10130000120B5B0D0DE75146214300D17CE0002C10
:1013100000D1FBE0200001F0DDF902000B3A1D23B3
:101320009B1A52460100DA40534608398B408C40E4
:1013300019001443314B58449B4683440020D9E69E
:1013400003002343984644D0002C00D1CFE0200076
:1013500001F0C0F9010002000B391D235B1A494658
:101360001000D940083884400B004D46234398466E
:101370008540234B9B1A9B460023994600939EE68B
:101380000200224390461DD108229B4602230025DD
:101390009146009393E65146214309D102234A46E0
:1013A0001A43184B91469C4600240220E344A1E6D0
:1013B00003234A461A43134B91469C465146032049
:1013C000E34497E60C229B460323A04691460093F4
:1013D00075E60423994600239B46013300250093BC
:1013E0006DE6C046FF07000001FCFFFF1C910008EE
:1013F000FF030000FFFFFFFEFE070000F3030000F5
:101400000DFCFFFF01F8FFFF4A4601231A439146F6
:10141000002401206EE6002380229A460025884B96
:1014200012037EE601256D420122D21A382A00DD20
:1014300074E61F2A00DCBDE01F214942CB1A414659
:10144000D9400B00202A04D041467E4A5A4491409C
:101450000D4329004A1E9141194307231D00002214
:101460000D400B4200D1D0E00F2200230A40042A95
:1014700000D1C7E00A1D8A42894149425B18110028
:101480001A0200D4BEE001230022002549E6802292
:1014900043461203134208D0144206D122431203DA
:1014A000BA460D00664B120B3BE680224346120300
:1014B0001A431203B246624B120B32E6002B00D1E4
:1014C00002E7A6196A1EA64200D289E0864200D22F
:1014D0009FE000D1AFE01500F4E6A94200D93CE658
:1014E0004346DE0758086B081E43ED073CE601F053
:1014F000F1F801000200153120321C2900DC2CE734
:101500004B46083883400025984632E701F0E2F860
:1015100003001A00153220301C2A00DCFFE6544676
:10152000083B00219C4005E73619013BB44200D935
:10153000A6E6B24200D8A3E6831E3619A0E6091932
:10154000013D8C4200D98DE68A4200D88AE6851E8C
:10155000091987E60F222A40042A00D1BCE6291D7A
:10156000A942AD416D42C908A844B6E6AF4200D9D0
:1015700062E6814204D800D05EE6AE4200D85BE667
:1015800002235B429C46009BE0449C4665449D428E
:101590009B415B421B19C0184FE6B24200D812E6CD
:1015A000831E36190FE68A4200D8FAE5831E984654
:1015B0000919F6E5244B28005B4441469D409940BB
:1015C000D0406B1E9D41434601432943D3404A0707
:1015D00000D155E70F220A40042A00D04AE74FE71E
:1015E0001500864200D06DE6009A9A4200D069E666
:1015F0006AE6164B5B44002B00DC13E70125002153
:10160000A8446AE65D075B021A0BC90800230D4374
:1016100087E50099023D4A008A42BF417F423F1957
:10162000F6190092DDE78022434612031A431203A3
:10163000034B120B75E500999942EAD31500D3E7E5
:10164000FF0700003E0400001E040000FF0300002E
:10165000F0B54E464546DE4657469046E0B5170083
:101660001A03120B0500844619480E034C009146DC
:101670005A00DB0F9B46360B640DC90F520D844296
:1016800019D0824210D0012094420ED14E450CD187
:101690000120C44509D1594517D0002C05D130008F
:1016A0002843431E984100E00120F0BCBB46B246EF
:1016B000A946A046F0BD330001202B43F5D1A2423C
:1016C000F3D14B463B43F0D1E2E70020EDE7C046C3
:1016D000FF070000F0B54746CE460400180016008C
:1016E0001B031B0B2D4D4A00994680B543000F0389
:1016F000A446B0463F0B520DC90F5B0DC00FAA4266
:1017000021D0AB4213D0002A22D13C43002B02D17E
:101710004D462E4322D0002C10D0814222D00220F0
:10172000013908400138C0BCB946B046F0BD4D464D
:101730002E4329D1002AF0D13C43EED10028F2D12A
:1017400001204042EFE73D0025431DD19342EED0FA
:10175000002BE2D14C462643DFD1E0E70020002CED
:10176000E1D0DCE79A420ADCE8DB4F45D7D80ED05F
:1017700000204F45D7D20029E2D00800D3E74342EA
:10178000584140000138CEE702204042CBE7C44533
:10179000C5D80020C445C6D2EDE7C046FF0700000B
:1017A000F0B54746CE460400180016001B031B0B7D
:1017B0002C4D4A00994680B543000F03A446B0461D
:1017C0003F0B520DC90F5B0DC00FAA420DD0AB42AB
:1017D00010D0002A27D13C43002B11D14D462E4377
:1017E0000ED10020002C15D00EE03D00254310D175
:1017F000934218D14D462E430BD1002A02D13C43CF
:10180000002C0BD0814214D002200139084001384D
:1018100000E00220C0BCB946B046F0BD0028F9D1B6
:1018200001204042F6E7002BECD14C462643E9D19B
:10183000EAE79A4204DD4342584140000138E9E7B3
:101840009A42EBDB4F45DFD806D000204F45E1D26E
:101850000029E5D00800DDE7C445D5D80020C445FF
:10186000D8D2F5E7FF070000F0B54546DE465746FB
:101870004E46E0B51F000B031B0B9B464D00CB0FE4
:1018800004009146984687B06D0D00D1CDE1CE4B56
:101890009D4200D1E9E15A46430FD2001343802212
:1018A00012041A43C3009A46C84B93469C46002331
:1018B0000026654400933C037B004846240B5B0DE7
:1018C000FF0F002B00D189E1BF4A934219D0420F8C
:1018D000E4002243802424041443BC4A002194469B
:1018E000424663445B190193019B7A400133C00077
:1018F000D2B202930A2E1CDD3A000B2E5ED0474670
:1019000056E04946B04B2143EB18019300292AD1F8
:101910008020022200012B00844616434246634485
:101920007A40D2B202930A2E00DD31E20020002478
:101930000221022E26DC013E012E52D802294CD073
:10194000012900D018E10023002400251B052343B2
:10195000D20713432800190007B0F0BCBB46B246BB
:10196000A946A046F0BD8021032209012B008C4628
:101970001643424663447A40D2B202930A2E00DDF7
:1019800028E203210125B540AC46A6266346F600B1
:10199000354033420BD19026B600334218D1B93EC0
:1019A000FF3E1E421DD0A3468246009100E0170074
:1019B00000993A00022910D05C4650460329BFD155
:1019C00080231B031C43240305007F4B240BBDE72E
:1019D000802400227C4B2403B8E7002400257A4BA6
:1019E000B4E753461E04360C1F0C3300010C0004F0
:1019F000000C4343984603007B43994633004B4316
:101A00009C4643460D001B0C9A467D43CC44D4446F
:101A10000095E14504D980235B0299464D44009529
:101A200063461B0C1D0063461B049C4643461B0477
:101A30001B0C9846634643440393230C984633009B
:101A40002404240C63439C4623007B43994643466D
:101A50005E435F434E446346B2461E0C5644B14556
:101A600003D980235B0299464F44330C99463B00CF
:101A70004B4405936346AC461F043F0C3604F619ED
:101A8000B444634604935B461B0C9C465B461F04B0
:101A90003F0C3B0043439946634643439A464B46BB
:101AA00060461B0C9B4648437943514459448A4540
:101AB00003D980235B029A4650440B0C9A464B464E
:101AC0001B041B0C99463B006343090445464944EB
:101AD000994663465C436B439C464B461B0C9846B9
:101AE0006F433F1947445044BC4203D980235B02F3
:101AF0009846C444049B009D98464544B542B6416F
:101B0000734298464B461E04059B3C049946360C8E
:101B1000A4194C44A14683466E18C1448E428941A3
:101B2000CB445D4649426D189C42A441C1459B414E
:101B3000834580418D4289415B4264421C4340425F
:101B4000039B4942014370023F0C1843E419471EAE
:101B5000B84164186444F60D61023043EC0D6E0226
:101B60000C433043C90100D4F1E001214308014096
:101B70000B43E007184364081549029B8C466344F5
:101B8000002B00DC97E0410709D00F210140042918
:101B900005D0011D81428041404224180800E10126
:101BA00006D58021C9008C460A4B1C40029B634429
:101BB00009498B4200DD10E76107C50864025B0537
:101BC0000D43240B5B0DC1E6FF07000001FCFFFF86
:101BD000FF030000FFFFFFFEFE0700004B4623430C
:101BE00059D0002C00D1A3E0200000F073FD0100CB
:101BF00003000B391D22521A49461800D1404A46AB
:101C000008388240844010000C43744AEB1A944612
:101C1000424663440193019B7A4001330021D2B2D2
:101C200002930A2E00DD67E683E65B4603439A468D
:101C30002AD05B46002B6DD0584600F04BFD0100CA
:101C400003000B391D22521A210018005D46D140B5
:101C5000083885400A0084402A439346A2465F4DD7
:101C60000026ED1A0023009325E65B4603439A46BF
:101C700005D100239B460233082600931BE603236D
:101C800082460C26009316E600239B460133042669
:101C9000002500930FE64246013301951E43019B48
:101CA0007A400133002400200121D2B202930A2E8F
:101CB00000DD21E63DE60121C91A382900DD42E6B2
:101CC0001F2947DD1F2625007642F31ADD402B0031
:101CD000202905D04249029D8C466544AC402043F2
:101CE000411E8841184307231D000024054003427C
:101CF0004AD00F2300240340042B42D0031D83420B
:101D0000804140422418180023023AD501230024C0
:101D100000251BE600F0DEFC010003001531203336
:101D20001C298FDD0838002284409246A34696E79E
:101D300000F0D0FC01000300153120331C2900DC29
:101D400058E702004C46083A002094405DE7019BAA
:101D5000029311E7234B26009C460300029DCB40D3
:101D60006544AE401E430300AB40581E8341300023
:101D70001843CC404307C7D00F230340042BBDD1E9
:101D8000C2E765076402240BC00800230543DDE5B4
:101D9000002502230F2E0CD180245B46240323420E
:101DA0000ED021420CD10C4324033A000E4B240BDD
:101DB000CCE50B2E00D0A2E58B46AA460093F7E5B2
:101DC00080245B4624031C43240342465546064BAD
:101DD000240BBBE54D4621000323DBE70DFCFFFF91
:101DE0003E0400001E040000FF070000F0B5574647
:101DF0004E464546DE46E0B50D00040019001000D1
:101E00002B035B0A620F1A43E3000C03640A470FBB
:101E10002743D04C6E00914683B04A00C0009846DC
:101E2000A246760DED0F520DC90F0190A24200D1CE
:101E3000B9E0012461408B468D4200D18DE0B41A97
:101E4000A446002C00DCB7E0002A00D1CBE0C14A58
:101E5000964200D186E18022120417436246382A56
:101E600000DDA4E11F2A00DD1DE2614620223C00C6
:101E7000521A010090409440421E90416246A04692
:101E80006446D7404A46E1404446D21B91460C4343
:101E900004431C1BA34292414B4652429B1A9A4652
:101EA00053461B0200D42BE153465A02530A9A466A
:101EB0005346002B00D166E1504600F00BFC0300B6
:101EC000083B20222000D21A5146D04099400200FF
:101ED0009C400A439E4200DD64E19B1B591C1F2964
:101EE00000DDFEE02023100026005B1A9C40984095
:101EF000CE40CA40631E9C413043924600260443B4
:101F0000630709D00F232340042B05D0231DA342D0
:101F1000A4416442A2441C0053461B0200D4F2E0D8
:101F20008C4B01369E4200D10FE153468A49E408AA
:101F30000B4019005B07234372054C02240B520D22
:101F400012052243ED072A431800110003B0F0BC2C
:101F5000BB46B246A946A046F0BDB41AA446002C22
:101F600059DD002A00D1B0E0564500D1FAE08022C8
:101F7000120417436246382A00DDD4E01F2A00DC31
:101F8000C0E13900203AD1406246202A06D064469A
:101F90004022121B3C00944004430194019C621EA9
:101FA00094410C43C3E03C0004432BD08B468D424C
:101FB0002ED06A4CA446B4446446002C5FD0941BD7
:101FC000A446002E00D020E14C461C4300D1C7E1BE
:101FD00061464C1E012900D123E25E4DAC4500D183
:101FE000D8E1A4461AE13A00024300D1E4E022001D
:101FF000013A012C00D1C3E156498C4200D1B1E035
:1020000094462BE7012461408B468D4200D016E7B1
:1020100052498C46B4446446002C00D1D3E0911B55
:102020008C46002E00D15EE14A498A4200D1BEE1D1
:1020300080214C4609040C43A1466146382900DD45
:10204000BAE11F2900DD27E22024641A4946A14095
:102050001E0088466146A340CE4041465C1EA34117
:10206000314319430C0063464946D9407F18241870
:1020700084429B415B429A461600BA445DE0384C6C
:10208000721C224200D0DFE04A461A43002E00D0E4
:102090005CE1002A00D1CFE13A00024300D17FE1A8
:1020A0001C1A4A46A3428941D21B4942521A9246FF
:1020B000120200D40AE2C41AA04280414B464042B8
:1020C000FF1A3B1A9A465D461AE73A00024373D05C
:1020D0002200013A012C00D1CBE0544542D0944675
:1020E00048E710001F3BD840202903D040235B1A4B
:1020F0009A401443631E9C41002300269A460443E1
:10210000630700D0FEE65246E308520713435246E7
:10211000B446D2080F498C452AD01203140B6246EC
:102120005205520D0CE73C000443621E9441E41832
:102130009C42924152424A44924653461B02DFD58A
:10214000044B01369E4200D0A0E032000024002360
:10215000F6E6C046FF070000FFFF7FFF01F8FFFF24
:10216000FE070000DB084A46520713434A46D208DE
:102170001900114300D1B5E1802424031443240342
:10218000D54A240BDCE6200000F0A4FA0300183343
:102190001F2B00DC95E622000838824000249E4276
:1021A00000DC9AE6F61ACD4B1A409246A8E63C00AF
:1021B0000443621E94416CE64A46DB08520713430F
:1021C0004A46D208A6E7C64C721C224200D0ACE0B8
:1021D0004A461A43002E00D005E1002A00D156E1FC
:1021E0003A00024300D1DBE01C189C429B414F4463
:1021F000BA465B429A4453461B0200D480E75246DB
:10220000B64B01261A4092467AE7B34CA24200D15F
:10221000C0E080244D4624042543A9466446382C5A
:1022200053DC61461F2C00DDCDE020251E002D1B58
:102230004C46AB40AC40CE405D1EAB4134432343E3
:102240004C46CC403F1B45E04A461C1AD11BA342DA
:102250009241524292460A005146521A9246120246
:1022600000D583E05346234300D021E60022002519
:1022700053E71C189C429B414F44BA465B429A4428
:10228000534601261B0200D43AE702265246934BDE
:1022900001211A401300214062080A43DC075B0851
:1022A0009A4614432CE63900203AD1406246202A4F
:1022B00006D064464022121B3C0094400443019423
:1022C000019C621E94410C43E3E5494619430B000F
:1022D0005C1EA341C41AA0429B415B42FB1A9A4672
:1022E0005D461600DCE54946194300D1AEE0614683
:1022F00064460139012C00D1E0E0774CA44556D06A
:102300008C469AE6614620223C00521A9440010015
:102310009040A0466446421E90416246E1404446D9
:10232000D7400C430443B94401E76B498A4200D1CA
:102330000CE7181898429B414F445B42FB18DC079E
:1023400040085B089A4616000443D9E6002A00D0EC
:1023500081E03B0003431DD18022002512030BE7DF
:10236000C0087B075D460343FA08D3E6C41AA042BF
:1023700080414B464042FF1A3B1A9A465D4697E51C
:102380001C1A4A46A3429B41D71B5B42FB1A9A4642
:10239000012685E5C0087B075D460343FA08E7E6AA
:1023A0004A46DB08520713434A46D208B5E6C0083E
:1023B0007B070343FA08DBE6494619430B00591E25
:1023C0008B411C0053E64D46203CE540202905D0BA
:1023D0004024641A4946A1400B43984643465C1E7C
:1023E000A3412B4376E7002AE1D03A00DB08024301
:1023F00000D1B8E64A465207802413434A462403D4
:10240000D208224207D0FE08264204D15D4632009F
:10241000C3087F073B43590FDB004907DB080B4329
:10242000A6E6C41AA04280414B464042FF1A3B1A1E
:102430009A465D46012633E53B00034300D115E78C
:10244000C0087B075D460343FA0866E6C0087B07C1
:102450000343FA085EE63A00DB08024300D182E655
:102460004A465207802413434A462403D208224294
:1024700007D0FE08264204D15D463200C3087F071C
:102480003B43590FDB00DB0849070B4370E6C008EC
:102490007B070343FA0840E64C462039CC406146AE
:1024A000202906D066464021891B4E468E40334384
:1024B00098464346591E8B411C43D8E51C1884425C
:1024C00080414F44BA4640428244D9E653462343B2
:1024D00000D1CBE614E6C046FF070000FFFF7FFFF8
:1024E000FE0700000023014A1C0029E5FF07000049
:1024F00070B505000C481C0316005B000A03490078
:10250000120B490D240B5B0D814208D0064A0020B6
:10251000934203D120003043431E984170BD0120F7
:102520002A43FBD1F2E7C046FF0700000A0030B59E
:10253000134C530009030500090B00205B0DD20F5B
:10254000A34204DD0F48834202DD0F4BD01830BD9B
:102550008020400301430D48C01A1F2808DD0C48A5
:10256000C31AD9400B005842002AF0D11800EEE7F8
:10257000084CC540A446634499400B002B43F2E746
:10258000FE0300001D040000FFFFFF7F3304000076
:1025900013040000EDFBFFFF70B5002816D0C31731
:1025A000C5185D40C40F280000F094F8114B1B1AA9
:1025B0000A2816DC02002E00153296400B22121A51
:1025C000D5405B052D032D0B5B0D03E0002400239C
:1025D000002500261B052B43E40723433000190088
:1025E00070BD0B3885405B052D0300262D0B5B0D60
:1025F000F0E7C0461E04000010B5041E10D000F025
:1026000069F80F4B1B1A0A2811DC0B222100121A41
:10261000D14015300A035B058440120B5B0D01E0CD
:10262000002300221B0513432000190010BD2200C7
:102630000B3882405B0512030024120B5B0DF1E79F
:102640001E04000070B542024300C40FFE201B0EA2
:10265000591C550A08420CD0E02189008C466D07B0
:10266000120B63441B051343E4072343280019009E
:1026700070BD002B14D1002D1BD0280000F02AF8CB
:102680000A281CDC0B232A001B1ADA40030015332E
:102690009D400E4B12031B1A5B05120B5B0DE1E70D
:1026A000002D09D0130B802212031A436D07084B2B
:1026B000D8E700230022D5E70022054BD2E703002C
:1026C0002A000B3B9A400025E3E7C046890300003F
:1026D000FF0700001C2101231B04984201D3000CBA
:1026E00010391B0A984201D3000A08391B09984285
:1026F00001D30009043902A2105C40187047C0469B
:1027000004030202010101010000000000000000BA
:1027100010B5002903D1FFF7DDFF203002E00800EB
:10272000FFF7D8FF10BDC04680B500AF00F0D6FD62
:1027300000F00CF800F0EEF800F07CF800F0BAF8C9
:1027400000F00AF900F0BCF9FCE7000090B59DB07C
:1027500000AF38243B19180038231A00002104F078
:10276000E5FA2423FB18180014231A00002104F0B2
:10277000DDFA3B00180024231A00002104F0D6FAE9
:102780002A4B1B682A4A1A40284B802109010A4318
:102790001A6021007B1802221A607B180122DA607D
:1027A0007B1810221A617B1802229A627B18002281
:1027B000DA627B1800221A637B18802212045A63A3
:1027C0007B18180001F0ECFF031E01D000F046FA60
:1027D00024217B180F221A607B1803225A607B1871
:1027E00000229A607B180022DA607B1800221A61AE
:1027F0007B180021180002F097FB031E01D000F0A7
:102800002DFA3B0009221A603B000022DA603B00EF
:1028100000229A613B00180002F0AAFD031E01D0BD
:1028200000F01CFAC046BD461DB090BD00700040CF
:10283000FFE7FFFF80B500AF1B4B1C4A1A601A4B25
:102840001B4A5A60184B00229A60174B0122DA602B
:10285000154B00221A61144B00225A61124B0022C0
:102860009A61114B0022DA610F4B00221A620E4B63
:10287000180000F0F1FF031E01D000F0EFF90A4B41
:102880000021180001F0F4FE031E01D000F0E6F96B
:10289000054B0021180001F037FF031E01D000F0A6
:1028A000DDF9C046BD4680BDF40100200054004063
:1028B0005B3D300080B500AF144B154A1A60134BD6
:1028C000E12252025A60114B00229A600F4B002203
:1028D000DA600E4B00221A610C4B0C225A610B4B32
:1028E00000229A61094B0022DA61084B00221A6229
:1028F000064B00225A62054B180002F0C7FE031E69
:1029000001D000F0ABF9C046BD4680BD48020020B2
:102910000038014080B582B000AF0E4BDA6A0D4B33
:1029200001210A43DA620B4BDB6A012213407B6010
:102930007B68084BDA6A074B02210A43DA62054BCF
:10294000DB6A022213403B603B68C046BD4602B0D2
:1029500080BDC0460010024080B500AF1E4B002273
:102960001A7030E01C4B1B789BB2DB1899B21B48E5
:102970000523032201F068FA03001A00184B1A60BD
:10298000174B1B68002B06D0164B1749174804221B
:1029900002F0D0FE11E0124B1B68002B0DD10E4B44
:1029A0001B781A001249134B180004F053F90D4B11
:1029B00010490E48192202F0BDFE074B1B78013367
:1029C000DAB2054B1A70044B1B785BB2002BC9DAE4
:1029D000C046C046BD4680BDE9020020F40100208B
:1029E000EC02002010270000000000204802002018
:1029F00060900008D0020020F0B58BB004AFF86002
:102A000008007A6019000B243B19021C1A70082573
:102A10007B190A1C1A803B191B789AB21726BC191D
:102A2000F868FA239B0002937B191B8801937B684B
:102A300000930123B82100F0A5FF03002370BB1908
:102A40001B78002B01D1002301E001235B42180019
:102A5000BD4607B0F0BDF0B58BB004AFF86008001C
:102A60007A6019000B243B19021C1A7008257B1987
:102A70000A1C1A803B191B789AB21726BC19F868F1
:102A8000FA239B0002937B191B8801937B680093B8
:102A90000123B82101F0A4F803002370BB191B78AF
:102AA000002B01D1002301E001235B421800BD4649
:102AB00007B0F0BD80B500AFC046BD4680BD000088
:102AC00080B582B000AF464B464A1A60444B464A36
:102AD0005A60434B454A9A60414B454ADA60FFF7DA
:102AE000E9FF444A3E4B1100180000F099FB414BAE
:102AF0001B78B12B00D0FEE7394B0121180000F004
:102B0000A1FB3D4A364B1100180000F0CBFB3A4BBD
:102B10001B78002BF5D1324B0021180000F0B0FAE1
:102B20002F4B0221180000F0DBFAFA1D2C4B11008C
:102B3000180000F005FBFB1D1B78002BF5D02F4B78
:102B400000221A602D4A264B1100180000F013FBDA
:102B50002A4B1B68180000F068FA021C284B1A6008
:102B6000274B1B68181CFFF76DFD02000B00254961
:102B7000254804F06FF8244B1800FDF7C5FA030050
:102B80009AB2214B1100180000F046F81F4B0022AA
:102B90001A801E4A124B1100180000F01AFB1B4B42
:102BA00000229B5E180000F053FA021C184B1A60BA
:102BB000174B1B68181CFFF745FD02000B00154959
:102BC000114804F047F8104B1800FDF79DFA030078
:102BD0009AB20D4B1100180000F01EF8A5E7C04690
:102BE000E4060020F9290008572A0008452C0008AF
:102BF000F4010020F8020020F9020020F002002079
:102C0000F402002068900008FC020020F406002076
:102C1000F80600208090000890B583B000AF78607F
:102C20000A00BB1C1A8001235C42BB1C1A8879680D
:102C30000348230002F07EFDC046BD4603B090BDB0
:102C40004802002080B582B000AF78607B68180031
:102C500000F0B4FBC046BD4602B080BD80B500AFF9
:102C600072B6C046FEE7000080B500AF074B5A6B56
:102C7000064B01210A435A63044B9A6B034B802194
:102C800049050A439A63C046BD4680BD0010024014
:102C900090B589B000AF78600C243B19180014235C
:102CA0001A00002104F042F87B681B68174A93421F
:102CB00028D1174BDA6A164B02210A43DA62144B09
:102CC000DB6A02221340BB60BB6821007B18C02274
:102CD0001A607B1812225A607B1800229A607B18B7
:102CE0000322DA607B1801221A617B18094A190055
:102CF000100000F03BFC064B9A6B054B80218903CA
:102D00000A439A63C046BD4609B090BD00540040D6
:102D1000001002400004005090B589B000AF786008
:102D20000C243B19180014231A00002103F0FEFFA5
:102D30007B681B68184A93422AD1184B5A6B174B71
:102D40008021C9010A435A63144BDA6A134B0121EB
:102D50000A43DA62114BDB6A01221340BB60BB6895
:102D60003B19C022D2001A6021007B1802225A604F
:102D70007B1800229A607B180322DA607B180422F9
:102D80001A617A18A023DB051100180000F0EEFB91
:102D9000C046BD4609B090BD003801400010024059
:102DA00080B500AFFEE780B500AFFEE780B500AFAD
:102DB000C046BD4680BD80B500AFC046BD4680BDA3
:102DC00080B500AF00F0DEFAC046BD4680BD80B5DC
:102DD00000AF01231800BD4680BD80B582B000AFB2
:102DE0007860396003F0FCFF030016221A600123AB
:102DF0005B421800BD4602B080BD80B582B000AF16
:102E0000786001235A427B6811001800FFF7E5FF44
:102E1000FEE780B586B000AFF860B9607A60002345
:102E20007B610AE000E000BF0100BB685A1CBA6089
:102E3000CAB21A707B6901337B617A697B689A42F6
:102E4000F0DB7B681800BD4606B080BD80B586B05B
:102E500000AFF860B9607A6000237B6109E0BB686D
:102E60005A1CBA601B78180000E000BF7B69013370
:102E70007B617A697B689A42F1DB7B681800BD460A
:102E800006B080BD80B582B000AF786001235B42A0
:102E90001800BD4602B080BD80B582B000AF78603A
:102EA00039603B68802292015A6000231800BD46B9
:102EB00002B080BD80B582B000AF786001231800F9
:102EC000BD4602B080BD80B584B000AFF860B96087
:102ED0007A6000231800BD4604B080BD80B586B07E
:102EE00000AF7860144A154BD31A7B617B693B6154
:102EF000134B1B68002B02D1114B124A1A60104B66
:102F00001A687B68D3183A699A4207D203F068FFBF
:102F100003000C221A6001235B4209E0084B1B6886
:102F2000FB60074B1A687B68D218054B1A60FB6878
:102F30001800BD4606B080BD00200020000400003F
:102F4000FC0600205008002080B500AFC046BD46FA
:102F500080BD00000D488546FFF7F6FF0C480D497F
:102F60000D4A002302E0D458C4500433C4188C42E4
:102F7000F9D30A4A0A4C002301E013600432A2424A
:102F8000FBD303F033FFFFF7CFFBFEE70020002069
:102F900000000020D80100204C950008D801002036
:102FA00050080020FEE7F0B587B000AFF8600800D9
:102FB0007A6019000B26BB19021C1A7008257B19B0
:102FC0000A1C1A80FB685C68FB68D8687B191D883E
:102FD0007A68BB1919782B00A04703007B617B69D5
:102FE0001800BD4607B0F0BDF0B587B000AFF8607F
:102FF00008007A6019000B26BB19021C1A700825FC
:103000007B190A1C1A80FB681C68FB68D8687B194E
:103010001D887A68BB1919782B00A04703007B61D3
:103020007B691800BD4607B0F0BD80B582B000AF27
:1030300078607868FDF76CFC031C9321C905181CA7
:10304000FDF74CFB031C181CBD4602B080BD000000
:1030500080B582B000AF0200BB1D1A80BB1D0022EC
:103060009B5E1800FDF754FC031C0449181CFDF777
:1030700035FB031C181CBD4602B080BD0000C842D1
:1030800090B585B000AF78600A00FB1C1A70082468
:103090003A19786801231021FFF785FF0300FB60D0
:1030A000FB68002B17D1FB1C1B7803221340DAB2FC
:1030B0003B1903210A4090001A780C218A43111C05
:1030C000021C0A431A703A19786801231021FFF78D
:1030D0008BFF0300FB60FB681800BD4605B090BD88
:1030E00090B585B000AF78600A00FB1C1A70082408
:1030F0003A19786801231021FFF755FF0300FB60A0
:10310000FB68002B17D1FB1C1B7807221340DAB297
:103110003B1907210A4010011A7870218A43111CBB
:10312000021C0A431A703A19786801231021FFF72C
:103130005BFF0300FB60FB681800BD4605B090BD57
:1031400090B585B000AF7860396008243A19786886
:1031500001232721FFF727FF0300FB603B191B78A2
:10316000DB07DB0FDBB21A003B681A70FB68180044
:10317000BD4605B090BD90B585B000AF78603960B0
:1031800008243A19786803232821FFF70CFF03006D
:10319000FB6021007B189B781A003B681A603B6833
:1031A0001B681B027A1852789A183B681A603B68B1
:1031B0001B681B027A1812789A183B681A603B68E1
:1031C0001B681A023B681A60FB681800BD4605B010
:1031D00090BD90B585B000AF7860396008243A1989
:1031E000786802232B21FFF7DEFE0300FB6021003D
:1031F0007B185B781AB23B681A803B6800229B5EA2
:103200009BB21B029AB27B181B789BB2D3189BB25D
:103210001AB23B681A80FB681800BD4605B090BD25
:1032200080B584B000AF786039603A68786801236F
:103230000F21FFF7B8FE0300FB60FB681800BD46D6
:1032400004B080BD90B585B000AF78600A00FB1C6B
:103250001A7008243A19786801231121FFF7A3FE98
:103260000300FB60FB68002B17D1FB1C1B780122BD
:103270001340DAB23B1901210A4090001A78042168
:103280008A43111C021C0A431A703A1978680123F8
:103290001121FFF7A9FE0300FB60FB681800BD4683
:1032A00005B090BD90B585B000AF78603960082456
:1032B0003A19786801231121FFF775FE0300FB60BE
:1032C0003B191B785B07DB0FDBB21A003B681A70F7
:1032D000FB681800BD4605B090BD000080B582B007
:1032E00000AFFB1D00221A700B4B1A680A4B4021DD
:1032F0000A431A60002000F011F8031E03D0FB1DE2
:1033000001221A7001E0FFF7AFFCFB1D1B781800CB
:10331000BD4602B080BDC0460020024090B583B0DB
:1033200000AF7860144B1C68144B1B781900FA230B
:103330009800FCF705FF030019002000FCF700FFD0
:103340000300180000F005F9031E01D001230FE06F
:103350007B68032B0BD8796801235B42002218009D
:1033600000F0E2F8064B7A681A60002300E00123BF
:103370001800BD4603B090BD040000200C000020E2
:103380000800002080B500AF054B1B781A00054BE4
:103390001B68D218034B1A60C046BD4680BDC046AC
:1033A0000C0000200007002080B500AF024B1B6816
:1033B0001800BD4680BDC0460007002080B584B01F
:1033C00000AF7860FFF7F0FF0300BB607B68FB6035
:1033D000FB68013305D00A4B1B781A00FB689B1869
:1033E000FB60C046FFF7E0FF0200BB68D31AFA6833
:1033F0009A42F7D8C046C046BD4604B080BDC0461C
:103400000C00002090B583B000AF02003960FB1DB6
:103410001A70FB1D1B787F2B28D82F4AFB1D1B78A9
:103420005BB29B08C0339B009B58FA1D12781100B9
:1034300003220A40D200FF2191400A00D2431A40E1
:1034400011003B689B01FF221A40FB1D1B781800EE
:1034500003230340DB009A401F48FB1D1B785BB22F
:103460009B080A43C0339B001A5031E01B4AFB1DE6
:103470001B7819000F230B40083B9B0806339B0069
:10348000D31804331B68FA1D1278110003220A4076
:10349000D200FF2191400A00D2431A4011003B683C
:1034A0009B01FF221A40FB1D1B78180003230340D9
:1034B000DB009A400948FB1D1B781C000F232340AA
:1034C000083B9B080A4306339B00C31804331A6069
:1034D000C046BD4603B090BD00E100E000ED00E055
:1034E00080B582B000AF78607B685A1E80235B0491
:1034F0009A4201D3012310E00A4B7A68013A5A60DC
:1035000001235B4203211800FFF77CFF054B0022DB
:103510009A60044B07221A6000231800BD4602B0CF
:1035200080BDC04610E000E080B584B000AFB96057
:103530007A600F217B18021C1A70BA687B181B78FE
:103540005BB211001800FFF75DFFC046BD4604B036
:1035500080BD80B582B000AF78607B681800FFF74F
:10356000BFFF03001800BD4602B080BD80B586B025
:1035700000AF7860396000237B610023FB6000238B
:103580003B614FE13B681B6801217A6991400A0069
:103590001340FB60FB68002B00D140E13B685B6897
:1035A00003221340012B05D03B685B6803221340C4
:1035B000022B30D17B689B683B617B695B000322F7
:1035C0009A401300DA433B6913403B613B68DA6879
:1035D0007B695B009A4013003A6913433B617B6847
:1035E0003A699A607B685B683B6101227B699A401B
:1035F0001300DA433B6913403B613B685B681B097E
:1036000001221A407B699A4013003A6913433B61D7
:103610007B683A695A603B685B6803221340032B5E
:1036200017D07B68DB683B617B695B0003229A40B3
:103630001300DA433B6913403B613B689A687B693E
:103640005B009A4013003A6913433B617B683A6917
:10365000DA603B685B6803221340022B23D17B694D
:10366000DA087B6808329200D3583B617B690722F5
:1036700013409B000F229A401300DA433B6913402A
:103680003B613B681A697B6907210B409B009A40AC
:1036900013003A6913433B617B69DA087B6808329F
:1036A00092003969D1507B681B683B617B695B0084
:1036B00003229A401300DA433B6913403B613B68A5
:1036C0005B6803221A407B695B009A4013003A69E9
:1036D00013433B617B683A691A603B685A68C023B0
:1036E0009B02134000D19AE0544B5A6B534B01217B
:1036F0000A435A63524A7B699B0802339B009B58DA
:103700003B617B69032213409B000F229A40130008
:10371000DA433B6913403B617A68A023DB059A4298
:1037200019D07B68474A934213D07B68464A93423C
:103730000DD07B68454A934207D07B68444A934248
:1037400001D1052308E0062306E0032304E0022359
:1037500002E0012300E000237A6903210A4092007D
:1037600093403A6913433B6135497B699B080233B7
:103770009B003A695A50374B9B683B61FB68DA43C0
:103780003B6913403B613B685A6880235B031340ED
:1037900003D03A69FB6813433B612E4B3A699A6048
:1037A0002C4BDB683B61FB68DA433B6913403B61B0
:1037B0003B685A6880239B03134003D03A69FB6837
:1037C00013433B61234B3A69DA60224B5B683B61F0
:1037D000FB68DA433B6913403B613B685A688023CE
:1037E0009B02134003D03A69FB6813433B61194BBA
:1037F0003A695A60174B1B683B61FB68DA433B69C7
:1038000013403B613B685A6880235B02134003D03E
:103810003A69FB6813433B610E4B3A691A607B6956
:1038200001337B613B681A687B69DA40131E00D064
:10383000A8E6C046C046BD4606B080BD00100240A6
:10384000000001400004005000080050000C00502F
:10385000001C00500004014080B582B000AF7860C9
:103860007B68002B01D1012382E07B6841229B5CB5
:10387000DBB2002B07D17B684022002199547B6882
:103880001800FFF705FA7B684122242199547B68D0
:103890001B681A687B681B6801218A431A607B6871
:1038A0005A687B681B6834490A401A617B681B6848
:1038B0009A687B681B6831490A409A607B68DB68BC
:1038C000012B08D17B689A687B681B6880210902FC
:1038D0000A439A6007E07B689A687B681B688421CA
:1038E00009020A439A607B68DB68022B04D17B687B
:1038F0001B68802212015A607B681B685A687B68CB
:103900001B681F490A435A607B681B68DA687B683A
:103910001B681A490A40DA607B681A697B685B6930
:103920001A4311007B689B691A027B681B680A4373
:10393000DA607B68D9697B681A6A7B681B680A430E
:103940001A607B681B681A687B681B6801210A4340
:103950001A607B6800225A647B68412220219954B6
:103960007B6800221A637B6842220021995400235D
:103970001800BD4602B080BDFFFFFFF0FF7FFFFFD4
:103980000080000290B589B002AFF8600C00100012
:1039900019000A23FB18221C1A800823FB18021C9A
:1039A0001A80BB1D0A1C1A80FB6841229B5CDBB29B
:1039B000202B00D00CE1BB6A002B04D02C23FB1879
:1039C0001B88002B05D1FB68802292005A640123DA
:1039D000FFE0FB6840229B5C012B01D10223F8E051
:1039E000FB68402201219954FFF7DEFC03007B6154
:1039F00080231902F8687B6900931923012200F0E3
:103A000025FC031E01D00123E3E0FB6841222121B4
:103A10009954FB68422240219954FB6800225A6461
:103A2000FB68BA6A5A62FB682C22BA1812885A8557
:103A3000FB6800225A63BB1D1C880823FB181A88E8
:103A40000A23FB181988F8687B6901933B6B009384
:103A5000230000F013FB031E05D0FB684022002169
:103A600099540123B5E0FB685B8D9BB2FF2B11D904
:103A7000FB68FF221A85FB681B8DDAB280235C0489
:103A80000A23FB181988F86800230093230000F02C
:103A9000B5FD12E0FB685B8D9AB2FB681A85FB6886
:103AA0001B8DDAB280239C040A23FB181988F8685E
:103AB00000230093230000F0A1FD7A69396BFB68B5
:103AC000180000F011FC031E01D0012381E0FB6807
:103AD0005B6A1A78FB681B689A62FB685B6A5A1C0F
:103AE000FB685A62FB685B8D9BB2013B9AB2FB6834
:103AF0005A85FB681B8D013B9AB2FB681A85FB68EF
:103B00005B8D9BB2002B3AD0FB681B8D002B36D10E
:103B10003A6BF8687B69009313000022802100F063
:103B200095FB031E01D0012353E0FB685B8D9BB224
:103B3000FF2B11D9FB68FF221A85FB681B8DDAB2B7
:103B400080235C040A23FB181988F868002300937B
:103B5000230000F053FD12E0FB685B8D9AB2FB6816
:103B60001A85FB681B8DDAB280239C040A23FB189C
:103B70001988F86800230093230000F03FFDFB68DC
:103B80005B8D9BB2002B98D17A69396BFB6818006A
:103B900000F0F0FB031E01D001231AE0FB681B6854
:103BA0002022DA61FB681B685A68FB681B680B49B6
:103BB0000A405A60FB68412220219954FB68422246
:103BC00000219954FB68402200219954002300E011
:103BD00002231800BD4607B090BDC04600E800FEB5
:103BE00090B589B002AFF8600C00100019000A23EC
:103BF000FB18221C1A800823FB18021C1A80BB1D0C
:103C00000A1C1A80FB6841229B5CDBB2202B00D08F
:103C100010E1BB6A002B04D02C23FB181B88002B5F
:103C200005D1FB68802292005A64012303E1FB68FE
:103C300040229B5C012B01D10223FCE0FB68402267
:103C400001219954FFF7B0FB03007B618023190227
:103C5000F8687B6900931923012200F0F7FA031E2C
:103C600001D00123E7E0FB68412222219954FB683F
:103C7000422240219954FB6800225A64FB68BA6AC8
:103C80005A62FB682C22BA1812885A85FB680022F7
:103C90005A63BB1D1C880823FB181A880A23FB18CB
:103CA0001988F8687B6901933B6B0093230000F04F
:103CB00049FA031E05D0FB684022002199540123D4
:103CC000B9E0FB685B8D9BB2FF2B11D9FB68FF222B
:103CD0001A85FB681B8DDAB280235C040A23FB186B
:103CE0001988F868564B0093230000F087FC12E017
:103CF000FB685B8D9AB2FB681A85FB681B8DDAB294
:103D000080239C040A23FB181988F8684C4B009305
:103D1000230000F073FC3A6BF8687B690093130092
:103D20000022042100F092FA031E01D0012382E058
:103D3000FB681B685A6AFB685B6AD2B21A70FB6840
:103D40005B6A5A1CFB685A62FB681B8D013B9AB286
:103D5000FB681A85FB685B8D9BB2013B9AB2FB68DE
:103D60005A85FB685B8D9BB2002B3AD0FB681B8D9C
:103D7000002B36D13A6BF8687B6900931300002260
:103D8000802100F063FA031E01D0012353E0FB6899
:103D90005B8D9BB2FF2B11D9FB68FF221A85FB6854
:103DA0001B8DDAB280235C040A23FB181988F8689B
:103DB00000230093230000F021FC12E0FB685B8DE0
:103DC0009AB2FB681A85FB681B8DDAB280239C04CB
:103DD0000A23FB181988F86800230093230000F0D9
:103DE0000DFCFB685B8D9BB2002B94D17A69396B1B
:103DF000FB68180000F0BEFA031E01D001231AE090
:103E0000FB681B682022DA61FB681B685A68FB6844
:103E10001B680C490A405A60FB68412220219954D2
:103E2000FB68422200219954FB68402200219954EA
:103E3000002300E002231800BD4607B090BDC04635
:103E40000024008000E800FE80B58AB002AFF86070
:103E50007A603B600A23FB180A1C1A8000237B61EE
:103E6000FB6841229B5CDBB2202B00D0FDE0FB68AD
:103E70001B689A6980231B021A4080231B029A4206
:103E800001D10223F2E0FB6840229B5C012B01D1AF
:103E90000223EBE0FB68402201219954FB68412298
:103EA00024219954FB6800225A64FB68DB68012BCB
:103EB00007D10A23FB181B889B059B0D6D4A1A43EB
:103EC00006E00A23FB181B889B059B0D6A4A1A43D0
:103ED000FB681B685A60FFF767FA0300BB61FB6869
:103EE0001B689B6920221340203B5A425341DAB29F
:103EF0001F23FB181A70FB681B689B691022134074
:103F0000103B5A425341DAB21E23FB181A7035E0B7
:103F10003B6801331AD0FFF747FA0200BB69D31A96
:103F20003A689A4202D33B68002B0FD1FB684122CA
:103F300020219954FB685B6C20221A43FB685A6469
:103F4000FB6840220021995401238FE0FB681B6825
:103F50009B6920221340203B5A425341DAB21F236F
:103F6000FB181A70FB681B689B6910221340103BFA
:103F70005A425341DAB21E23FB181A701F23FB1852
:103F80001B78002B04D11E23FB181B78002BBFD0FD
:103F9000FB681B689B6910221340102B1AD03A68EB
:103FA000F868BB69009313000022202100F04EF94D
:103FB000031E01D0012359E0FB681B682022DA614F
:103FC000FB68412220219954FB684022002199542A
:103FD00000234BE03A68F868BB69009313000022A5
:103FE000202100F033F9031E01D001233EE0FB68DD
:103FF0001B681022DA61FB681B682022DA617B698A
:104000007A689A4219D1FB681B685A68FB681B687A
:104010008021C9010A435A603A68F868BB69009375
:1040200013000022202100F011F9031E01D001230A
:104030001CE0FB681B682022DA617B6901337B612D
:104040007B697A689A4200D92FE7FB6841222021D8
:104050009954FB685B6C20221A43FB685A64FB6826
:10406000402200219954012300E002231800BD469C
:1040700008B080BD0020000200280002B0B586B064
:1040800002AFF8600C00100019000A257B19221CF1
:104090001A800823FB18021C1A80BB1D0A1C1A80F8
:1040A000BB1D1B88DAB280235C047B191988F86871
:1040B000234B0093230000F0A1FA7A6A396AFB6867
:1040C000180000F011F9031E01D0012333E0BB1DDD
:1040D0001B88012B07D10823FB181B88DAB2FB6869
:1040E0001B689A6219E00823FB181B881B0A9BB205
:1040F000DAB2FB681B689A627A6A396AFB68180050
:1041000000F0F2F8031E01D0012314E00823FB188D
:104110001B88DAB2FB681B689A623A6AF8687B6AA5
:10412000009313000022802100F090F8031E01D0BC
:10413000012300E000231800BD4604B0B0BDC04616
:1041400000200080B0B586B002AFF8600C0010000F
:1041500019000A257B19221C1A800823FB18021C4F
:104160001A80BB1D0A1C1A80BB1D1B88DAB27B1982
:104170001988F868234B0093002300F03FFA7A6A0D
:10418000396AFB68180000F0AFF8031E01D0012364
:1041900033E0BB1D1B88012B07D10823FB181B88AC
:1041A000DAB2FB681B689A6219E00823FB181B88C7
:1041B0001B0A9BB2DAB2FB681B689A627A6A396A98
:1041C000FB68180000F090F8031E01D0012314E0F2
:1041D0000823FB181B88DAB2FB681B689A623A6AEC
:1041E000F8687B6A009313000022402100F02EF84B
:1041F000031E01D0012300E000231800BD4604B0D7
:10420000B0BDC0460020008080B582B000AF7860AD
:104210007B681B689B6902221340022B03D17B68D9
:104220001B6800229A627B681B689B69012213400D
:10423000012B07D07B681B689A697B681B6801218A
:104240000A439A61C046BD4602B080BD80B584B0C5
:1042500000AFF860B9603B60FB1D1A7030E03B684E
:1042600001332DD0FFF7A0F80200BB69D31A3A68DA
:104270009A4202D33B68002B22D1FB681B689B69E2
:10428000BA681340BA68D31A5A425341DBB21A00D3
:10429000FB1D1B789A4213D1FB685B6C20221A43EA
:1042A000FB685A64FB68412220219954FB68422232
:1042B00000219954FB6840220021995401230FE00A
:1042C000FB681B689B69BA681340BA68D31A5A42E4
:1042D0005341DBB21A00FB1D1B789A42BFD000236A
:1042E0001800BD4604B080BD80B584B000AFF86052
:1042F000B9607A6032E07A68B968FB68180000F04B
:104300007DF8031E01D0012330E0BB68013325D0C6
:10431000FFF74AF802007B68D31ABA689A4202D3C0
:10432000BB68002B1AD1FB681B689B6902221340F3
:10433000022B13D0FB685B6C20221A43FB685A6483
:10434000FB68412220219954FB68422200219954A4
:10435000FB68402200219954012307E0FB681B6899
:104360009B6902221340022BC5D100231800BD46D1
:1043700004B080BD80B584B000AFF860B9607A60E9
:104380002FE07A68B968FB68180000F037F8031E60
:1043900001D001232DE0FFF707F802007B68D31A54
:1043A000BA689A4202D3BB68002B1AD1FB681B681B
:1043B0009B6920221340202B13D0FB685B6C2022CA
:1043C0001A43FB685A64FB68412220219954FB6818
:1043D000422200219954FB68402200219954012374
:1043E00007E0FB681B689B6920221340202BC8D183
:1043F00000231800BD4604B080BD000090B58BB00E
:1044000000AFF860B9607A602723FB1800221A70A9
:10441000FB681B689B69BB6100233B627B68FB6197
:10442000BB691022134000D182E0FB681B68102298
:10443000DA6160E027243B193A1912781A70BB68D8
:10444000013358D0FEF7B0FF0200FB69D31ABA68F7
:104450009A4206D33B193A1912781A70BB68002B9E
:1044600049D1FB681B685A688023DB0113407B61DC
:1044700013203B18FA684221525C1A70FB681B68D3
:104480009A6980231B021A4080231B029A4226D17C
:104490007A698023DB019A4221D03B181B78202BBC
:1044A0001DD0FB681B685A68FB681B688021C90126
:1044B0000A435A60FEF778FF0300FB610FE0FEF746
:1044C00073FF0200FB69D31A192B08D93B6A20221B
:1044D00013433B622723FB1801221A700BE0FB6891
:1044E0001B689B692022134027217A1879180978C4
:1044F0001170202BE3D1FB681B689B6920221340BD
:10450000202B04D02723FB181B78002B92D02723C5
:10451000FB181B78002B03D1FB681B682022DA6193
:104520003B6A042213433B622723FB1801221A70C3
:10453000FB681B689B69BB61BA6980235B00134001
:104540000CD03B6A012213433B62FB681B6880224C
:104550005200DA612723FB1801221A70BA698023FE
:10456000DB0013400CD03B6A082213433B62FB681C
:104570001B688022D200DA612723FB1801221A70FF
:10458000BA6980239B0013400CD03B6A022213437C
:104590003B62FB681B6880229200DA612723FB18CC
:1045A00001221A702723FB181B78002B1DD0FB68F3
:1045B0001800FFF729FEFB681B685A68FB681B6838
:1045C0000D490A405A60FB685A6C3B6A1A43FB6803
:1045D0005A64FB68412220219954FB684222002141
:1045E0009954FB684022002199542723FB181B781B
:1045F0001800BD460BB090BD00E800FE90B587B036
:1046000000AFF860080011007B600A243B19021C0F
:104610001A8009203B180A1C1A703B191B889B053D
:104620009A0D3B181B781904FF231B040B401A43F7
:104630007B681A43BB6A13435B005B087B61FB68C2
:104640001B685B68BA6A510D8022D2000A40074994
:104650000A43D2431A401100FB681B687A690A4377
:104660005A60C046BD4607B090BDC046FF63FF0319
:1046700080B582B000AF786039607B6841229B5C76
:10468000DBB2202B38D17B6840229B5C012B01D10F
:10469000022332E07B684022012199547B68412249
:1046A000242199547B681B681A687B681B68012168
:1046B0008A431A607B681B681A687B681B6811490B
:1046C0000A401A607B681B6819687B681B683A6837
:1046D0000A431A607B681B681A687B681B680121A3
:1046E0000A431A607B684122202199547B6840224A
:1046F00000219954002300E002231800BD4602B0B7
:1047000080BDC046FFEFFFFF80B584B000AF78608A
:1047100039607B6841229B5CDBB2202B39D17B68FE
:1047200040229B5C012B01D1022333E07B684022B5
:10473000012199547B684122242199547B681B688C
:104740001A687B681B6801218A431A607B681B68B2
:104750001B68FB60FB68114A1340FB603B681B024F
:10476000FA681343FB607B681B68FA681A607B6811
:104770001B681A687B681B6801210A431A607B6802
:104780004122202199547B68402200219954002322
:1047900000E002231800BD4604B080BDFFF0FFFF1B
:1047A000B0B58AB000AF78607B68002B02D10123DE
:1047B00000F0AFFBCF4BDB680C2213403B62CD4BCC
:1047C000DA6880235B021340FB617B681B6801226F
:1047D000134000D17EE03B6A082B07D03B6A0C2BCC
:1047E00012D1FA6980235B029A420DD1C14B1A683B
:1047F00080239B02134000D16BE07B685B68002B39
:1048000067D1012300F085FB7B685A6880235B0237
:104810009A4207D1B74B1A68B64B802149020A4326
:104820001A6027E07B685A68A023DB029A420ED107
:10483000B04B1A68AF4B8021C9020A431A60AD4BD6
:104840001A68AC4B802149020A431A6012E0A94B56
:104850001A68A84BA8490A401A60A64B1A68802318
:104860005B021340FB60FB68A24B1A68A14BA34993
:104870000A401A607B685B68002B15D0FEF794FD38
:104880000300BB6109E0FEF78FFD0200BB69D31A8C
:10489000642B02D9032300F03CFB964B1A6880235B
:1048A0009B021340EFD015E0FEF77EFD0300BB61D5
:1048B00008E0FEF779FD0200BB69D31A642B01D929
:1048C000032326E38B4B1A6880239B021340F0D10D
:1048D00000E0C0467B681B680222134000D18BE0D9
:1048E0007B68DB687B613B6A042B05D03B6A0C2B41
:1048F0003ED1FB69002B3BD17E4B1B680422134049
:1049000004D07B69002B01D1012302E3794B5B6862
:104910007B4A134019007B681B691A02754B0A43D6
:104920005A60744B1B68092293431900714B7A69D2
:104930000A431A6000F040FC01006E4BDB681B0963
:104940000F2213406F4AD35C0A00DA406E4B1A60A4
:104950006E4B1B6813257C191800FEF7DFFC030063
:1049600023707B191B78002B46D07B191B78D0E273
:104970007B69002B27D05F4B1B68092293431900EA
:104980005C4B7A690A431A60FEF70EFD0300BB61B7
:1049900008E0FEF709FD0200BB69D31A022B01D91A
:1049A0000323B6E2534B1B6804221340F1D0514B52
:1049B0005B68534A134019007B681B691A024D4B10
:1049C0000A435A6018E04B4B1A684A4B01218A434C
:1049D0001A60FEF7E9FC0300BB6108E0FEF7E4FCA7
:1049E0000200BB69D31A022B01D9032391E2414B88
:1049F0001B6804221340F1D17B681B68102213400E
:104A000000D1A1E03B6A002B40D13A4B1A688023C9
:104A10009B00134005D07B68DB69002B01D101238B
:104A200077E2344B5B683A4A134019007B685A6A54
:104A3000304B0A435A602F4B5B681B02190A7B6894
:104A40001B6A1A062B4B0A435A607B685B6A5B0B36
:104A50000133802212029A40264BDB681B090F218A
:104A60000B402849CB5CDA40274B1A60274B1B6868
:104A700013257C191800FEF751FC030023707B19E5
:104A80001B78002B60D07B191B7842E27B68DB69C6
:104A9000002B3FD0174B1A68164B802149000A4360
:104AA0001A60FEF781FC0300BB6108E0FEF77CFCA6
:104AB0000200BB69D31A022B01D9032329E20D4B53
:104AC0001A6880239B001340F0D00A4B5B68104AA1
:104AD000134019007B685A6A064B0A435A60054B1B
:104AE0005B681B02190A7B681B6A1A06014B0A43A2
:104AF0005A6029E000100240FFFFFEFFFFFFFBFFAE
:104B0000FFE0FFFF5C910008040000200800002087
:104B1000FF1FFFFFBD4B1A68BC4BBD490A401A601E
:104B2000FEF742FC0300BB6108E0FEF73DFC02001B
:104B3000BB69D31A022B01D90323EAE1B34B1A68EC
:104B400080239B001340F0D17B681B680822134030
:104B500036D07B685B69002B19D0AC4B1A6DAB4B20
:104B600001210A431A65FEF71FFC0300BB6108E040
:104B7000FEF71AFC0200BB69D31A022B01D90323EA
:104B8000C7E1A24B1B6D02221340F1D018E09F4BEE
:104B90001A6D9E4B01218A431A65FEF705FC03003E
:104BA000BB6108E0FEF700FC0200BB69D31A022BD0
:104BB00001D90323ADE1954B1B6D02221340F1D1C6
:104BC0007B681B680422134000D1AEE027203B180D
:104BD00000221A708D4B9A6B80235B05134009D11C
:104BE0008A4B9A6B894B802149050A439A633B188B
:104BF00001221A70874B1A6880235B0013401AD178
:104C0000844B1A68834B802149000A431A60FEF7DF
:104C1000CBFB0300BB6108E0FEF7C6FB0200BB69EB
:104C2000D31A642B01D9032373E17A4B1A688023CA
:104C30005B001340F0D07B689A6880235B009A4247
:104C400007D1724B1A6D714B802149000A431A65D6
:104C500031E07B689B68002B0CD16C4B1A6D6B4B61
:104C60006B490A401A65694B1A6D684B6A490A40DC
:104C70001A6520E07B689A68A023DB009A420ED177
:104C8000624B1A6D614B8021C9000A431A655F4B64
:104C90001A6D5E4B802149000A431A650BE05B4B9D
:104CA0001A6D5A4B5A490A401A65584B1A6D574BA0
:104CB00059490A401A657B689B68002B15D0FEF79E
:104CC00073FB0300BB6109E0FEF76EFB0200BB69EA
:104CD000D31A524A934201D903231AE14B4B1A6D5E
:104CE00080239B001340EFD014E0FEF75DFB030030
:104CF000BB6109E0FEF758FB0200BB69D31A474AC3
:104D0000934201D9032304E1404B1A6D80239B0099
:104D10001340EFD12723FB181B78012B05D13B4B08
:104D20009A6B3A4B3E490A409A637B681B68202283
:104D3000134049D07B689B69002B26D0334B9A687F
:104D4000324B01210A439A60304B5A6B2F4B0121A1
:104D50000A435A63334B1A6A324B802189010A4352
:104D60001A62FEF721FB0300BB6108E0FEF71CFBA3
:104D70000200BB69D31A022B01D90323C9E0234BDC
:104D80009B6802221340F1D01EE0204B9A681F4B13
:104D900001218A439A60234B1A6A224B22490A4016
:104DA0001A62FEF701FB0300BB6108E0FEF7FCFAA4
:104DB0000200BB69D31A022B01D90323A9E0134BCC
:104DC0009B6802221340F1D17B689B6A002B00D1C3
:104DD0009EE03B6A0C2B00D177E07B689B6A022B3C
:104DE00058D10A4B1A68094B10490A401A60FEF75D
:104DF000DBFA0300BB611BE0FEF7D6FA0200BB69D9
:104E0000D31A022B14D9032383E0C04600100240BA
:104E1000FFFEFFFF00700040FFFBFFFF8813000054
:104E2000FFFFFFEF00000140FFDFFFFFFFFFFFFE7E
:104E30003A4B1A6880239B041340DDD1374BDB6863
:104E4000374A134019007B68DA6A7B681B6B1A4388
:104E50007B685B6B1A43314B0A43DA602F4B1A684D
:104E60002E4B802149040A431A60FEF79DFA030085
:104E7000BB6108E0FEF798FA0200BB69D31A022B67
:104E800001D9032345E0254B1A6880239B04134076
:104E9000F0D03DE0214B1A68204B22490A401A60AD
:104EA000FEF782FA0300BB6108E0FEF77DFA02001C
:104EB000BB69D31A022B01D903232AE0174B1A68C6
:104EC00080239B041340F0D122E07B689B6A012B76
:104ED00001D101231DE0114BDB68FB61FA698023DE
:104EE0005B021A407B68DB6A9A420FD1FA69F023B1
:104EF0009B031A407B681B6B9A4207D1FA69C02357
:104F00001B041A407B685B6B9A4201D0012300E0CE
:104F100000231800BD460AB0B0BDC04600100240D4
:104F2000FFFF02FFFFFFFFFEB0B584B000AF786067
:104F300039607B68002B01D1012328E1964B1B6867
:104F4000012213403A689A421ED9934B1B680122F2
:104F500093431900904B3A680A431A60FEF724FA0B
:104F60000300FB6009E0FEF71FFA0200FB68D31A9A
:104F70008A4A934201D9032309E1874B1B68012226
:104F800013403A689A42EED17B681B6802221340B4
:104F900009D0834BDB68F022934319007B689A6841
:104FA0007F4B0A43DA607B681B680122134000D103
:104FB00089E07B685B68022B07D1794B1A688023F4
:104FC0009B02134020D10123E1E07B685B68032B47
:104FD00007D1734B1A6880239B04134014D101231B
:104FE000D5E07B685B68012B06D16D4B1B68042202
:104FF000134009D10123CAE0694B1A6880239B0042
:10500000134001D10123C2E0654BDB6803229343C7
:1050100019007B685A68624B0A43DA60FEF7C4F9EC
:105020000300FB607B685B68022B11D109E0FEF78F
:10503000BBF90200FB68D31A584A934201D90323F3
:10504000A5E0574BDB680C221340082BEFD13AE068
:105050007B685B68032B11D109E0FEF7A5F902001C
:10506000FB68D31A4D4A934201D903238FE04C4B7E
:10507000DB680C2213400C2BEFD124E07B685B68CB
:10508000012B1BD109E0FEF78FF90200FB68D31A50
:10509000424A934201D9032379E0414BDB680C2259
:1050A0001340042BEFD10EE0FEF77EF90200FB68FF
:1050B000D31A3A4A934201D9032368E0384BDB689C
:1050C0000C221340F0D1344B1B68012213403A6884
:1050D0009A421ED2304B1B680122934319002E4B7B
:1050E0003A680A431A60FEF75FF90300FB6009E0C3
:1050F000FEF75AF90200FB68D31A284A934201D9F5
:10510000032344E0244B1B68012213403A689A426F
:10511000EED17B681B680422134009D0204BDB686A
:10512000204A134019007B68DA681D4B0A43DA6095
:105130007B681B68082213400AD0194BDB681A4AA7
:10514000134019007B681B69DA00154B0A43DA60CB
:1051500000F032F80100124BDB681B090F221340EC
:10516000124AD35C0A00DA40114B1A60114B1B68DB
:105170000B257C191800FEF7D1F8030023707B196A
:105180001B78002B02D07B191B7800E0002318004D
:10519000BD4604B0B0BDC0460020024088130000E8
:1051A00000100240FFF8FFFFFFC7FFFF5C910008FF
:1051B0000400002008000020B0B58EB000AF4C4BBA
:1051C000DB68FB62FA6A0C2313400C2B14D000D965
:1051D0007BE0042B02D0082B0BD076E0444B1B68FD
:1051E0001022134002D0434B3B637CE0424B3B63B5
:1051F00079E0424B3B6376E0FB6A9A0C0F231A403E
:105200003F4B9B5CBB62FB6A9A0D03231340013347
:105210007B62374BDA6880235B0213401AD0BB6A8B
:10522000BB610023FB61354A0023B869F969FBF7CC
:105230005BF902000B00100019007B6A3B61002340
:105240007B613A697B69FBF72FF902000B001300C1
:105250007B6337E0264B1B68102213401AD0BB6AD1
:10526000BB600023FB60234A0023B868F968FBF7A2
:105270003BF902000B00100019007B6A3B60002321
:105280007B603A687B68FBF70FF902000B001300A4
:105290007B6317E0BB6A180000231900164A00233D
:1052A000FBF722F902000B00100019007B6A1C00BA
:1052B00000231D0022002B00FBF7F6F802000B0074
:1052C00013007B637B6B3B630DE0094B5B685B0BFF
:1052D000072213403B623B6A0133802212029A404C
:1052E00013003B63C0463B6B1800BD460EB0B0BD1B
:1052F0000010024000093D000024F40000127A0072
:105300007491000880B500AF024B1B681800BD46C1
:1053100080BDC0460400002080B500AFFFF7F2FF5B
:105320000100064BDB681B0A07221340044AD35CCA
:10533000D9400B001800BD4680BDC0460010024099
:105340006C91000880B500AFFFF7DCFF0100064B51
:10535000DB68DB0A07221340044AD35CD9400B0008
:105360001800BD4680BDC046001002406C91000888
:1053700080B586B000AF78601723FB1800221A7042
:105380007B681B682022134006D17B681A68802343
:105390001B01134000D104E1B14B9A6B80235B05E4
:1053A00013400AD1AE4B9A6BAD4B802149050A439D
:1053B0009A631723FB1801221A70AA4B1A688023DC
:1053C0005B0013401AD1A74B1A68A64B80214900F5
:1053D0000A431A60FDF7E8FF03003B6108E0FDF7B0
:1053E000E3FF02003B69D31A642B01D9032333E1A5
:1053F0009C4B1A6880235B001340F0D0984B1A68CE
:10540000C0239B031340FB607B685A68C0239B0347
:105410001340FA689A4207D17B689A68C0239B03BD
:105420001340FA689A4213D07B685A68C0239B02E3
:105430001A40C0239B029A420AD1894B1A688023E2
:105440009B021A4080239B029A4201D1012303E16F
:10545000834B1A6DC0239B021340FB60FB68002B3B
:1054600049D07B685A68C0239B021340FA689A426D
:1054700004D07B681B68202213400DD17B689A689A
:10548000C0239B021340FA689A4234D07B681A68A2
:1054900080231B0113402ED0714B1B6D724A1340A9
:1054A000FB606F4B1A6D6E4B802109030A431A652E
:1054B0006B4B1A6D6A4B6D490A401A65684BFA6866
:1054C0001A65FA6880235B00134014D0FDF76CFF67
:1054D00003003B6109E0FDF767FF02003B69D31A57
:1054E000634A934201D90323B6E05D4B1A6D8023D2
:1054F0009B001340EFD07B681A6880231B01134088
:105500001FD07B689A68C0239B021A40C0239B026D
:105510009A420CD1524B1B68564A134019007B68C3
:105520009A68C0239B031A404D4B0A431A604C4BA8
:10553000196D7B689A68C0239B021A40484B0A4346
:105540001A657B681B68202213401FD07B685A684D
:10555000C0239B021A40C0239B029A420CD1404BAD
:105560001B68444A134019007B685A68C0239B0398
:105570001A403B4B0A431A60394B196D7B685A68D5
:10558000C0239B021A40364B0A431A651723FB18A7
:105590001B78012B05D1324B9A6B314B36490A40AF
:1055A0009A637B681B680122134009D02C4BDB6C8B
:1055B0000322934319007B68DA68294B0A43DA64B3
:1055C0007B681B680222134009D0254BDB6C0C2240
:1055D000934319007B681A69214B0A43DA647B689C
:1055E0001B680422134009D01D4BDB6C234A134077
:1055F00019007B685A691A4B0A43DA647B681B6896
:105600000822134009D0164BDB6C1D4A13401900C9
:105610007B689A69124B0A43DA647B681B684022F4
:10562000134009D00E4BDB6C164A134019007B68FF
:105630001A6A0B4B0A43DA647B681B6880221340AA
:1056400009D0074BDB6C104A134019007B68DA69FC
:10565000034B0A43DA6400231800BD4606B080BD40
:105660000010024000700040FFFFFCFFFFFFF7FF4B
:1056700088130000FFFFCFFFFFFFFFEFFFF3FFFFE7
:10568000FFCFFFFFFFFFFFFBFFFFF3FF80B582B0FF
:1056900000AF78607B68002B01D1012344E07B6878
:1056A000DB6F002B07D17B687822002199547B683F
:1056B0001800FDF731FB7B682422DA677B681B68E2
:1056C0001A687B681B6801218A431A607B6818008E
:1056D00000F0D0F80300012B01D1012324E07B6806
:1056E0005B6A002B03D07B68180000F047FB7B68E7
:1056F0001B685A687B681B680D490A405A607B68C2
:105700001B689A687B681B682A218A439A607B68B9
:105710001B681A687B681B6801210A431A607B6852
:10572000180000F0DFFB03001800BD4602B080BD8A
:10573000FFB7FFFF80B58AB002AFF860B9603B6089
:10574000BB1D1A80FB68DB6F202B00D08CE0BB6890
:10575000002B03D0BB1D1B88002B01D1012384E04B
:10576000FB689A6880235B019A4209D1FB681B6938
:10577000002B05D1BB680122134001D0012374E046
:10578000FB68842200219950FB682122DA67FDF72B
:105790000BFE03007B61FB68BA1D502112885A5230
:1057A000FB68BA1D522112885A52FB689A688023FE
:1057B0005B019A4208D1FB681B69002B04D10023CE
:1057C000FB61BB68BB6103E0BB68FB610023BB619D
:1057D0002FE07A69F8683B6800931300002280216B
:1057E00000F028FC031E04D0FB682022DA670323A4
:1057F0003BE0FB69002B0BD1BB691B881A00FB68DF
:105800001B68D205D20D9A62BB690233BB6107E007
:10581000FB691A78FB681B689A62FB690133FB61BC
:10582000FB6852229B5A9BB2013B99B2FB68522201
:105830009952FB6852229B5A9BB2002BC9D17A69BC
:10584000F8683B68009313000022402100F0F2FB4F
:10585000031E04D0FB682022DA67032305E0FB68FF
:105860002022DA67002300E002231800BD4608B0BA
:1058700080BD0000B0B58EB000AFF8611A231822C9
:105880009B18DB1900221A70FB699A68FB691B6977
:105890001A43FB695B691A43FB69DB6913437B634A
:1058A000FB691B681B68C64A13401900FB691B682B
:1058B0007A6B0A431A60FB691B685B68C14A134034
:1058C0001900FB69DA68FB691B680A435A60FB69C7
:1058D0009B697B63FB691B68BB4A934204D0FB69ED
:1058E0001B6A7A6B13437B63FB691B689B68B74A2F
:1058F00013401900FB691B687A6B0A439A60FB69C5
:105900001B68B34A934231D1B24BDB6C0322134084
:10591000032B1DD023D8022B0CD020D8002B02D073
:10592000012B0ED01BE01B2318229B18DB19012230
:105930001A709CE01B2318229B18DB1902221A7094
:1059400095E01B2318229B18DB1904221A708EE0A5
:105950001B2318229B18DB1908221A7087E01B23CF
:1059600018229B18DB1910221A7080E0FB691B6853
:10597000994A934231D1974BDB6C0C2213400C2B8C
:105980001DD023D8082B0CD020D8002B02D0042BFC
:105990000ED01BE01B2318229B18DB1900221A7063
:1059A00065E01B2318229B18DB1902221A705EE0A7
:1059B0001B2318229B18DB1904221A7057E01B23A3
:1059C00018229B18DB1908221A7050E01B2318229A
:1059D0009B18DB1910221A7049E0FB691B687A4A90
:1059E00093423ED17B4BDA6CC0231B011340C02293
:1059F0001201934227D0C022120193422AD880225A
:105A00001201934211D080221201934222D8002B1E
:105A100004D08022D20093420ED01BE01B23182218
:105A20009B18DB1900221A7021E01B2318229B18F7
:105A3000DB1902221A701AE01B2318229B18DB19AB
:105A400004221A7013E01B2318229B18DB1908226A
:105A50001A700CE01B2318229B18DB1910221A70F5
:105A600005E01B2318229B18DB1910221A70FB6912
:105A70001B68554A934200D084E01B2318229B18D0
:105A8000DB191B78082B1DD020DC042B15D01DDC66
:105A9000002B02D0022B05D018E0FFF73DFC0300DD
:105AA000FB621CE04B4B1B681022134002D04B4B97
:105AB000FB6214E04A4BFB6211E0FFF77DFB030041
:105AC000FB620CE080231B02FB6208E00023FB6208
:105AD0001A2318229B18DB1901221A70C046FB6A90
